:020000040800F2
:10000000580F0020450100080D1700084F01000897
:10001000091700080B0700082D3100080000000038
:10002000000000000000000000000000351C000877
:10003000490E000800000000451900085D25000871
:100040005F0100085F0100085F0100085F01000810
:100050005F0100085F0100085F0100085F01000800
:100060005F0100085F0100085F0100085F010008F0
:100070005F0100085F0100085F0100085F010008E0
:100080005F0100085F0100085F0100085F010008D0
:10009000C92F00085F0100085F0100085F01000828
:1000A0005F0100085F0100085F0100085F010008B0
:1000B0005F0100085F0100085F0100085F010008A0
:1000C0005F0100085F0100085F0100085F01000890
:1000D0005F0100089D2900085F0100085F0100081A
:1000E0005F0100085F010008132D00085F01000890
:1000F0005F0100085F0100085F0100085F01000860
:100100005F0100085F0100085F0100085F0100084F
:100110005F0100085F0100085F0100085F0100083F
:100120005F0100085F0100085F0100085F0100082F
:10013000DFF80CD000F01EFA004800471940000814
:10014000580F00200648804706480047FEE7FEE7B4
:10015000FEE7FEE7FEE7FEE7FEE7FEE7FEE7FEE777
:100160009D25000831010008421C10F8011B0029E0
:10017000FBD1801A704730B50B4601460020202283
:10018000012409E021FA02F59D4205D303FA02F5A4
:10019000491B04FA02F52844151EA2F10102F1DC04
:1001A00030BD2DE9F05F0546002092469B4688460B
:1001B0000646814640241BE02846414647462246E3
:1001C00000F0F9F953465A46C01A914110D311462E
:1001D0001846224600F0E0F92D1A67EB01084F4659
:1001E00022460120002100F0D7F917EB00094E410B
:1001F000201EA4F10104DFDC484631462A4643466E
:10020000BDE8F09F2DE9FE4F804681EA0300C00F54
:100210000C46009021F0004123F00045B8EB0200AD
:10022000A94105D24046214690461C460B4602464F
:1002300023F00040104347D0270DC7F30A00C3F353
:100240000A510290401A019040286BDAC3F3130060
:1002500040F4801B0098924620B10023D2EB030AA1
:1002600063EB0B0B01985946C0F14002504600F079
:1002700093F906460D4650465946019A00F0ABF9EF
:1002800010EB08006141002487EA115284EAE77309
:100290001A4340D0009A62B3019A012A4FEA0752EA
:1002A00015DC001B61EB02014FF0004202EA07522D
:1002B000CDE90042001C41F5801132462B4600F08A
:1002C000ABF903B0BDE8F08F40462146F9E7001BCB
:1002D00061EB0201001C41F5801300185B412018FE
:1002E000A2F5001747EB030140EAD570B6196D413E
:1002F00011E06D084FEA360645EAC0754FEA07522D
:10030000001B61EB0201001C41F5801149084FEA16
:1003100030000019514132462B4603B0BDE8F04F82
:1003200000F06BB90098012240000023D0EB0202DC
:1003300063EBE073009821464FEAE074B8EB0000ED
:1003400061EB0401E9E783F000435BE781F00041E2
:1003500058E72DE9FE4F81EA030404F0004421F040
:10036000004100944FF0000B23F0004350EA0104D9
:100370005ED052EA03045BD0C3F30A54C1F30A55BA
:100380002C44A4F2F3340194A0FB0254C1F31301F2
:1003900041F48011C3F3130343F4801301FB0244BF
:1003A00000FB034E840A970A44EA815447EA8357C4
:1003B000A4FB076802958D0A05FB07854FEA932C7D
:1003C00004FB0C542705029D4FEA065847EA1637EE
:1003D000B5EB08056EEB070C870E920E47EA811706
:1003E00042EA8312A7FB0201B6EB0B0164EB0004A7
:1003F0002B0D43EA0C335E1844EB1C50DA46514691
:10040000E7FB0201C5F313044FEA0B3343EA14532D
:100410004FEA0432019C43EA0603A4F10C0402945F
:10042000009CCDE900B400F0F7F803B0BDE8F08F10
:1004300000200146F9E72DE9F04D81EA030404F0BC
:10044000004B21F0004514464FF0000A23F0004114
:1004500050EA050220D054EA01021DD0C5F30A5724
:100460000246C5F31303C1F31300C1F30A5640F467
:10047000801543F48013A7EB0608101BD64608F23C
:10048000FD3873EB050002D308F1010801E0921872
:100490005B41B8F1000F03DA00200146BDE8F08DA2
:1004A00000204FF48011064684460EE0171B73EBC4
:1004B000050705D3121B63EB050306434CEA010C49
:1004C00049084FEA300092185B4150EA0107EDD12C
:1004D00052EA030012D082EA040083EA05010843CD
:1004E00005D0101BAB4106D20122002306E00022FA
:1004F0004FF0004302E06FF0010253101AEB0600C8
:100500004CEB085110EB0A0041EB0B01BDE8F04D3C
:1005100000F073B8C1F30A52C1F3130140F2FF3384
:1005200041F480119A4202DA00200146704740F2FD
:1005300033439A42A2F2334202DC524200F03BB80B
:1005400000F02AB830B5041E71F1000404DB4FF04E
:100550000044404264EB0101141E73F1000405DB0A
:100560001C464FF00043524263EB0403994208BF1C
:10057000904230BD064C074D06E0E06840F00103B4
:1005800094E8070098471034AC42F6D3FFF7D4FD47
:10059000045F0008245F0008202A04DB203A00FAE8
:1005A00002F1002070479140C2F1200320FA03F3CA
:1005B000194390407047202A04DB203A21FA02F0C8
:1005C0000021704721FA02F3D040C2F1200291408D
:1005D000084319467047202A06DBCB17203A41FA18
:1005E00002F043EAE07306E041FA02F3D040C2F1C0
:1005F0002002914008431946704710B5141E73F14C
:10060000000408DA401C41F1000192185B411A43D2
:1006100001D120F0010010BD2DE9F04D92469B461E
:1006200011B1B1FA81F202E0B0FA80F220329046C4
:10063000FFF7B2FF04460F4640EA0A0041EA0B0109
:1006400053465A46084313D0114653EA010019D0C5
:10065000C8F140025046FFF7AEFF05460E46504631
:1006600059464246FFF798FF084305D0012004E0B1
:1006700020463946BDE8F08D0020054346EAE07685
:100680002C4337430A986305E40AA0EB08000022D4
:10069000FD0A44EA47540A3002D500200146E9E742
:1006A000010510196941DDE9084500196941BDE8F6
:1006B000F04DA2E770B58C1810F8015B15F0070338
:1006C00001D110F8013B2A1106D110F8012B03E0EB
:1006D00010F8016B01F8016B5B1EF9D12B0705D4F3
:1006E0000023521E0DD401F8013BFAE710F8013B3C
:1006F000CB1A921C03E013F8015B01F8015B521E58
:10070000F9D5A142D8D3002070BD00BFFEE7014655
:10071000CAB20B1243EA02207047000008B500205D
:10072000009022E19748008800F00F009649087079
:100730000846007800287CD19448006894490880D5
:100740000846008800F030009249088090480088F0
:1007500000F440508E4908808C4909684BF6BF72FE
:1007600001EA020080F4005080F0200040F40041D3
:1007700041F08001854A11608248008800F0100035
:1007800090BB1046006848F60F710840114608609B
:1007900000F082FD7D4909684BF6BF7201EA020054
:1007A0007B49098801F4805109B180F4805078496F
:1007B000098801F4005109B180F400507549098895
:1007C00001F0100109B180F010007249098801F0B0
:1007D000200109B180F0200081B241F4004141F0D4
:1007E00080016A4A116008BDFFE76848006880B26E
:1007F0000090BDF8000000F40060B0B363480068EA
:10080000C0F30E0048F68F7108406049086001F09F
:100810009DFB5E4909684BF6BF7201EA02005C4924
:10082000098801F4805109B180F480505849098841
:1008300000E056E001F4005109B180F40050554940
:10084000098801F0100109B180F0100051490988B0
:1008500001F0200109B180F0200081B241F4004193
:1008600041F08001494A1160BDE7FFE7BDF8000093
:1008700000F40040002878D044480068C0F30E001F
:1008800048F68F7108404149086001F01FF83F4960
:1008900009684BF6BF7201EA02003D49098801F47C
:1008A000805109B180F480503949098801F4005120
:1008B00009B180F400503749098801F0100109B1ED
:1008C00080F010003349098801F0200109B180F05F
:1008D000200081B241F4004141F080012B4A1160B7
:1008E00081E7294800782C4901EB8000D0F8000C02
:1008F00080B20090BDF8000000F40040C0B1224872
:10090000007801EB8000D0F8000CC0F30E0048F630
:100910008F7108401C4909781F4A02EB8101C1F818
:10092000000C19490978491E1C4A52F821008047D9
:10093000BDF8000000F08000B8B1134800781649F7
:1009400001EB8000D0F8000C48F60F7108400E490A
:100950000978114A02EB8101C1F8000C0A490978B3
:10096000491E0F4A52F82100804708484430006869
:1009700080B20449088000F4004000287FF4D2AE21
:1009800000BF30E76000002028000020005C00402D
:100990003C0000203E000020005000408800002065
:1009A0006C0000200B4A02EB8001D1F8001C01F41E
:1009B000804171B102EB8001D1F8001C48F68F72C2
:1009C00011404CF280021143024B03EB8002C2F84B
:1009D000001C7047005000400B4A02EB8001D1F828
:1009E000001C01F0400171B102EB8001D1F8001C44
:1009F00048F68F72114048F2C0021143024B03EBDC
:100A00008002C2F8001C704700500040084A02EB08
:100A10008001D1F8001C48F68F62114048F2800234
:100A20001143034B03EB8002C2F8001C7047000027
:100A3000005000402DE9F0472848006800F11005FB
:100A40002E8826480068077AD6B9042F18D1244882
:100A5000007801280FD100212248006880B2801C54
:100A6000214A42F8101030202049088000BF0020A1
:100A70001B49087003E0072710201C49088027E065
:100A8000AC88A64201D8042000E002200746B44208
:100A900000D93446A0B2A96888478046002000F0FB
:100AA000D1FB8146A2B24946404602F041FBA1B2C9
:100AB000002001F073F92888001B288068882044F2
:100AC000688030200949088000020949088000BF79
:100AD000024909680F72BDE8F08700002C00002071
:100AE00026000020505C0040006000403E000020D6
:100AF0003C0000202DE9F0412848006800F1100476
:100B00002688A068C0B1BEB1A588B54200D93546D7
:100B1000A8B2A168884707462088401B20806088CB
:100B200028446080002000F06BFB8046AAB241465A
:100B3000384600F0F3FE00BF208850B14FF440501B
:100B4000174908800021084601F028F9302015498E
:100B500008802088A188884204DB03200F490968A7
:100B6000087218E02088002804DD05200B49096878
:100B7000087210E0208870B90620084909680872D8
:100B800000210948006880B2801C084A42F8101011
:100B9000302004490880BDE8F08100002C000020CE
:100BA0003C0000203E000020505C004000600040FF
:100BB0002DE9F84F9B48006845780027BA46062D76
:100BC0001BD198480068007800F07F00002813D1FE
:100BD000944909688878012803D193490968CF6945
:100BE0000AE0022803D1904909680F6A04E003284B
:100BF00002D18D4909684F6A94E0002D64D189487B
:100C00000068408800285FD186480068C0880228B4
:100C10005AD1844800680079002855D1814800687D
:100C2000007800F07F0028B97E480068808808B905
:100C30007E4F77E07B480068007800F07F00012855
:100C400010D1784909684879774909688A6900218B
:100C50009047002866D173480068807A002861D0E8
:100C6000724F5FE06F480068007800F07F00022854
:100C700058D16C480068407900F00F066948006858
:100C8000407900F0700967480068407900F0800002
:100C900038B1674901EB8600D0F8000C00F030084D
:100CA00006E0634901EB8600D0F8000C00F44058E0
:100CB00060480078B04235D9B9F1000F32D1B8F1AF
:100CC000000F2FD0594F2DE0082D07D1554800684F
:100CD000007800F07F0028BB574F23E00A2D21D178
:100CE00050480068007800F07F0001281AD14D4874
:100CF0000068807AB0B14B480068408890B9494894
:100D00000068007970B947480068C088012809D197
:100D1000444909684879444909688A69002190472B
:100D200000B9464F57B13F480068A0F812A03D48AF
:100D3000006887610020B84700240FE0394A126834
:100D40005078394A1268116988470446032C05D146
:100D50000920344909680872BDE8F88F31480068F5
:100D6000008A4FF6FF71884204D109202D49096895
:100D70000872F1E7022C03D02A480068008A20B9E3
:100D80000820284909680872E6E7264800680078C4
:100D900000F08000E0B323480068C088009021483C
:100DA0000068008A0099884204D91E4900980968A1
:100DB000088223E01B480068008A1A490968C9882C
:100DC00088421BDA17480068008A1749096891F8B9
:100DD0002C10884203DA0020194908700EE01148EF
:100DE0000068008A1049096891F82C1090FBF1F214
:100DF00001FB120010B90120114908700A4800686F
:100E000090F82C10074800688182FFF713FE07E076
:100E1000FFE70320034909680872000309490880B5
:100E200000BF99E72C00002030000020ED210008D1
:100E300000500040B000002071210008C1210008CE
:100E4000260000203C0000207047000070B52248BA
:100E5000B0F802042049B1F80014884200D170BDF6
:100E60001D48B0F802041C49B1F80014884208DAA1
:100E70001948B0F800041849B1F80214401A84B2B5
:100E800005E01548B0F80204C0F5806084B2402C3B
:100E900000DD40241048B0F80254B0F802042044A9
:100EA0000D49A1F802040846B0F80204B0F5806FBD
:100EB00002DB0020A1F80204074948192246C0219C
:100EC00002F036F92146012000F068FF012000F011
:100ED00093FF00BFC3E700006401002010B506497E
:100EE000032002F0B3F884B2E1B2034802F0C6F87E
:100EF000032000F029FF10BDF8060020014908601A
:100F00007047000014040140002123498279002A1F
:100F10003AD00A46126803689A430B461A600A1DC3
:100F2000126803689A430B1D1A60027911440A681B
:100F300003681A430A60184A0832126803689A4321
:100F4000154B08331A601A1D126803689A43124B36
:100F50000C331A604279102A0ED11A1F12680368E6
:100F60001A430D4B08331A601A1D126803681A439E
:100F7000094B0C331A600DE00749427911440A68A5
:100F800003681A430A6005E0027911440A6803689D
:100F90009A430A60704700000004014010B503A0A6
:100FA00002F022FA03200849086010BD7573622020
:100FB000656E746572206C6F7720706F7765722034
:100FC0006D6F64650D0A00003801002051B1820088
:100FD000A2F1C042126842F001038200A2F1C042B5
:100FE000136009E08200A2F1C0421268034B1A406C
:100FF0008300A3F1C0431A6070470000FEFF0F009A
:10100000D0E901121143C2681143026911434269D8
:10101000114382691143C2691143026A1143426A52
:101020001143826A1143C26A1143026B1143026881
:101030009200A2F1C0421160816808290BD10168B9
:101040008900A1F1C041096841F0400201688900AE
:10105000A1F1C0410A60416B0968426B526841EAE4
:101060000211426B926841EA0221426B928941EA85
:101070000241426B128A41EA0251426B127D41EAFF
:101080000261426B926911430268521C9200A2F104
:10109000C0421160C16AB1F5804F1BD1816B0968F4
:1010A000826B526841EA0211826B926841EA022126
:1010B000826B128A41EA0251826B127D41EA02611F
:1010C000826B9269114302689200A2F1C042C2F899
:1010D000041107E06FF0704201688900A1F1C0417E
:1010E000C1F8042170472DE9F04102460025002691
:1010F000002000230024002791F803C00CF00F0506
:1011000091F803C00CF0100CBCF1000F03D091F863
:1011100002C04CEA050591F800C0BCF1000F31D0C7
:10112000146800202BE04FF0010C0CFA00F3B1F82A
:1011300000C00CEA03069E4220D183004FF00F0C42
:101140000CFA03F7BC4305FA03FC4CEA040491F8DB
:1011500003C0BCF1280F06D14FF0010C0CFA00FCC3
:10116000C2F814C00AE091F803C0BCF1480F05D1E1
:101170004FF0010C0CFA00FCC2F810C0401C08280B
:10118000D1D31460B1F800C0BCF1FF0F34DD546856
:1011900000202EE000F1080C4FF0010808FA0CF3D3
:1011A000B1F800C00CEA03069E4221D183004FF043
:1011B0000F0C0CFA03F7BC4305FA03FC4CEA0404D9
:1011C00091F803C0BCF1280F05D100F1080C08FA12
:1011D0000CF8C2F8148091F803C0BCF1480F07D195
:1011E00000F1080C4FF0010808FA0CF8C2F8108062
:1011F000401C0828CED35460BDE8F08101617047DF
:1012000001460548006880B200EBC100001D034A9A
:1012100032F8100080B27047505C0040006000401F
:1012200001460648006880B200EBC100801D044AF8
:1012300032F81000C0F3090070470000505C004015
:101240000060004001460548006880B200EBC10024
:10125000034A32F8100080B270470000505C004032
:101260000060004070B50A480468001D0568001D54
:101270000668344454B108220649204600F044F878
:10128000042204491031284600F03EF870BD0000E9
:10129000E8F7FF1F4400002010B518480068047AE2
:1012A000022C01D0042C05D1FFF7C4FB13480068C1
:1012B000047A1CE0062C19D11048006840780528F3
:1012C0000ED10E480068007800F07F0040B90B494D
:1012D0000968C87800F0B8FC09490968086A8047BD
:1012E0000849096888688047082400E00824034901
:1012F00009680C7200F028FB10BD00002C000020D3
:10130000380000203000002030B50B46002100BF1F
:1013100016E00A24B4EB107F05D9302404EB1074D6
:1013200003F8114005E0412404EB10740A3C03F873
:101330001140000100254C00641C1D554C1CE1B2FD
:101340009142E6DB30BD000070B506460F4840888C
:10135000401E83B20D480088401E82B2002108461C
:1013600000F05CF800240CE0002504E0304600F0BA
:101370008BF9681C85B205484088A842F6DC601CE1
:1013800084B202480088A042EEDC70BD1800002044
:1013900000B50246B2B9012000F06AF94FF480703E
:1013A00000F06CF9032000F063F941F2300000F026
:1013B00065F94FF4C8700E494880F020088000207D
:1013C000887114E0012000F053F9002000F056F974
:1013D000032000F04DF941F2380000F04FF9F02001
:1013E000034948804FF4C87008800120887100BD0F
:1013F0001800002070B504460D4616462B462246BE
:101400002946204600F00AF8304600F03DF970BD4C
:1014100001480088704700000008006C30B50546A0
:101420000C462E48807950BB4FF4047000F020F930
:10143000284600F023F940F2112000F019F9104677
:1014400000F01CF940F2122000F012F9204600F0E2
:1014500015F940F2132000F00BF9184600F00EF9D0
:101460004FF4007000F004F9284600F007F940F24C
:10147000012000F0FDF8204600F000F929E040F2DC
:10148000122000F0F5F8284600F0F8F840F213209A
:1014900000F0EEF8104600F0F1F84FF4047000F0A0
:1014A000E7F8204600F0EAF840F2112000F0E0F8FA
:1014B000184600F0E3F840F2012000F0D9F8284681
:1014C00000F0DCF84FF4007000F0D2F8204600F095
:1014D000D5F840F2022000F0CBF830BD1800002013
:1014E0002DE9F84F80460E4617461C46B346204667
:1014F000E31704EB5373DB1021464FEAE47C04EB63
:101500005C7C4FEAEC0CA4EBCC0CBCF1000F02D0DD
:101510004FF0010C01E04FF0000C6344224604EB55
:10152000D27C4FEA6C0C03FB0CF3DBB20093A7F107
:101530002000C7B2002556E00C2C07D107EB47006E
:101540002B4901EB800010F8059013E0102C05D119
:10155000284800EB071010F805900BE0182C07D175
:1015600007EBC700244901EB800010F8059001E06B
:10157000BDE8F88F4FF0000A2FE009F0800030B18D
:101580001E48028831464046FFF734FF07E00A98BC
:1015900028B91B48028831464046FFF72BFF4FEA27
:1015A00049604FEA1069701C86B216484088B04204
:1015B00000DCDDE7A6EB0B00A0420AD15E4608F195
:1015C00001001FFA80F80F480088404500DCCFE793
:1015D00006E00AF1010000F0FF0ABAF1080FCCDBC7
:1015E00000BF681CC5B200988542A5DB00BFBFE7FD
:1015F0006C420008E0460008D04C000814000020AF
:1016000016000020180000202DE9F84704460D467A
:1016100090469946DDE9096704F0FF0A08EB0400EB
:101620001FFA80F809EB05001FFA80F916E044451F
:1016300002DB5446A81985B24D4500DB14E00020BA
:1016400000903A78334629462046FFF749FF304656
:1016500006EBD07104EB61018CB27F1C38787E28D8
:1016600002DC38782028E2DA00BFBDE8F887000005
:101670000149088070470000FE07006C014908809E
:10168000704700000008006C0149088070470000A6
:101690000008006C08B50121102000F0B9F9FF2006
:1016A000ADF8000010208DF8030003208DF8020033
:1016B00069460448FFF717FDFF210248FFF79EFD2A
:1016C00008BD00000010014010B5074C07A001F054
:1016D0008BFEA07A18B105200A49086002E00120BB
:1016E0000849086010BD0000480100206C65617663
:1016F00065206C6F7720706F776572206D6F646501
:101700000D0A00003801002000BFFEE77047704757
:1017100070B5002100230F22C47804B3154C24684F
:1017200004F4E064C4F5E064210AC1F10403CA4092
:10173000447804FA03F184781440214309010E4CE3
:101740000678A155047804F01F050124AC40057803
:101750006D11AD0005F1E025C5F8004109E0047800
:1017600004F01F050124AC40044D0678761145F8BD
:10177000264070BD0CED00E000E400E080E100E0F8
:1017800002490143024A1160704700000000FA0557
:101790000CED00E070B502264748006844784648E2
:1017A0000068007800F07F00002844D1092C03D1A4
:1017B00000F09CFD06465FE0052C14D13E48006811
:1017C000C0787F280BDC3C480068807838B93A48FC
:1017D0000068808818B938480068807A08B1082500
:1017E00065E0002648E0032C0ED133480068C0783D
:1017F000012807D130480068808818B900F09AFDA8
:10180000064639E0022637E0012C35D12A48006827
:10181000C07801280DD128480068808848B926483A
:101820000068407A00F0200018B100F0EBFB06469B
:1018300022E0022620E020480068007800F07F00C7
:10184000012805D10B2C17D100F0F0FD064613E05E
:1018500019480068007800F07F0002280BD1012CA5
:1018600003D100F0CFFB064606E0032C04D100F0C4
:1018700075FD064600E002264EB1E0B20F4A12683E
:10188000516988470646032E01D109250FE00EB1A4
:1018900008250CE0062500210948006880B2801C5C
:1018A000084A42F8101030200749088000BF02495A
:1018B00009680D7270BD00002C000020300000206F
:1018C000505C0040006000403E00002010B5114810
:1018D0000068047A022C01D0042C01D1082412E003
:1018E000032C01D0052C05D1FFF704F90948006845
:1018F000047A08E0072C05D107490968C8688047C1
:10190000082400E00824034909680C7200F01CF860
:1019100010BD00002C00002030000020F0B5561C47
:101920007510074E06EB41042B4605E034F8047BA6
:1019300020F8017B401C5B1E002BF7D1F0BD00009E
:10194000006000407047000010B50D4890F82C1062
:10195000002000F0B3F90B480068007A082805D190
:10196000400209490880102008490880054800689D
:10197000007A092801D1012010BD0020FCE70000F9
:10198000B40000202C0000203C0000203E0000207D
:1019900010B5012001F0C4F901240B4804600020B7
:1019A0000A49088008460088074908600020091D88
:1019B00008604FF4E0500549088008460088024955
:1019C0000860002010BD0000405C00403600002090
:1019D00029B1064A52690243044B5A6104E0034AA2
:1019E00052698243014B5A61704700000010024067
:1019F00029B1064AD2690243044BDA6104E0034A82
:101A0000D2698243014BDA61704700000010024046
:101A100029B1064A92690243044B9A6104E0034AE1
:101A200092698243014B9A617047000000100240A6
:101A300030B500210022002400232D4D6D6805F0F3
:101A40000C0121B1042905D0082923D105E0294D35
:101A5000056022E0274D05601FE0254D6D6805F407
:101A60007012234D6D6805F48034022505EB924217
:101A70001CB9214D554305600BE01D4D6D6805F403
:101A800000351DB11C4D5543056002E0194D55430D
:101A9000056002E0174D056000BF00BF144D6D6882
:101AA00005F0F0010909154D6B5C0568DD404560E6
:101AB0000F4D6D6805F4E061090A104D6B5C4568D7
:101AC000DD4085600A4D6D6805F46051C90A0B4D13
:101AD0006B5C4568DD40C560054D6D6805F44041AF
:101AE000890B074D6B5CC568B5FBF3F5056130BD2F
:101AF0000010024000127A0000093D0000000020A2
:101B0000100000200149086070470000D8004242E0
:101B100070B50546072D01D02E4805702D48007878
:101B200008284ED2DFE800F004111A202B384E4F5F
:101B30002948006828B900F053F8062025490870A4
:101B400002E005202349087041E000F049F8042034
:101B50002049087001202049086038E002201D4912
:101B600048700320087032E01A484078401E194936
:101B700048700846407808B90420087027E01748E4
:101B8000006884B244F01004144804600520114930
:101B900008700A2048701AE00E484078401E0D492F
:101BA00048700846407858B90C48006884B224F060
:101BB00010040A48046006200870002006490860E6
:101BC00005E000BF00BF06200249087000BF00BF4B
:101BD00070BD00003D01002040010020405C00403D
:101BE00010B50748006884B224F004040448046077
:101BF000FFF76AFD4FF43F400149086010BD000047
:101C0000405C004010B50948006805280CD1084820
:101C100001680068401C064A1060052904D10020B4
:101C200011460860FFF712F910BD000038010020CE
:101C30005C000020704700004FF6F8710140014A37
:101C400011607047505C004030B501460F4B1A7868
:101C5000002014E003060E4C04EB9353D3F8003C31
:101C600048F68F74234048F280042343C4B22343D0
:101C70000406074D05EB9454C4F8003C401C904208
:101C8000E8D341F08003034C236030BDB000002056
:101C9000005000404C5C004010B54A105300054A0B
:101CA000126892B202EBC002121D034C44F81230CB
:101CB00010BD0000505C00400060004010B50246BE
:101CC0000F48006880B200EBC200801D0D4C04EB91
:101CD00040033E290BDD481101F01F040CB9441EDE
:101CE000A0B24FF4004444EA80241C6007E048108E
:101CF00001F001040CB1441CA0B284021C6010BDB0
:101D0000505C00400060004030B50E4C04EB800396
:101D1000D3F8003C4BF68F7403EA040201F48053BD
:101D20000BB182F4805201F400530BB182F40052E3
:101D300042F4004343F08003024D05EB8004C4F8F5
:101D4000003C30BD0050004010B50B4B03EB80024F
:101D5000D2F8002C4BF68F7302EA030181F4805114
:101D600081F4005141F4004242F08002024C04EB45
:101D70008003C3F8002C10BD0050004010B54A107D
:101D80005200044B1B689BB203EBC003024C44F8A7
:101D9000132010BD505C004000600040044A1268EF
:101DA00092B202EBC002921C024B43F81210704731
:101DB000505C00400060004030B50E4C04EB8003E6
:101DC000D3F8003C48F6BF7403EA040201F01003A4
:101DD0000BB182F0100201F020030BB182F020025F
:101DE00042F4004343F08003024D05EB8004C4F845
:101DF000003C30BD0050004010B50B4B03EB80029F
:101E0000D2F8002C48F6BF7302EA030181F01001FA
:101E100081F0200141F4004242F08002024C04EBC8
:101E20008003C3F8002C10BD0050004010B5074BD4
:101E300003EB8002D2F8002C48F68F131A400A43B5
:101E4000024C04EB8003C3F8002C10BD005000408E
:101E500010B500F001F810BD0CB500200190009005
:101E60003348006840F480303149086000BF304892
:101E7000006800F4003000900198401C0190009828
:101E800018B90198B0F5A06FF1D12948006800F4A5
:101E9000003010B10120009001E000200090009877
:101EA000012843D12348006840F010002149086010
:101EB0000846006820F0030008600846006840F00B
:101EC000020008601A48406819494860084640689E
:101ED00048600846406840F48060486008464068B2
:101EE00020F47C1048600846406840F4E8104860E0
:101EF0000846006840F08070086000BF0C48006829
:101F000000F000700028F9D00948406820F0030074
:101F1000074948600846406840F00200486000BF3A
:101F20000348406800F00C000828F9D10CBD0000FF
:101F3000001002400020024010B50020FFF7E2FD33
:101F40000121C805FFF754FD10BD000038B501247C
:101F50002948006880B2001D284931F8100080B27D
:101F600001EB4000009026480068007A092832D032
:101F7000009800782249096808700098401C009079
:101F8000009800781E49096848700098401C00902D
:101F9000009800EB44000090009931F8020B00918A
:101FA000FEF7B5FB164909684880009800EB44002D
:101FB0000090009931F8020B0091FEF7A8FB104940
:101FC00009688880009800EB440000900098008821
:101FD0000B490968C8800120094909680872084846
:101FE0000068C08810B9FFF7D5FB01E0FEF7E0FDFF
:101FF000FFF7AAFC38BD0000505C004000600040C4
:102000002C0000202DE9F04754480068007800F0CB
:102010007F08B8F1000F0AD150480068407A00F0FC
:10202000DF004E49096848720020BDE8F087B8F12A
:10203000020F7CD149480068408818B947480068B9
:10204000007908B10220F0E7DFF8149143480068F6
:10205000477927F080052C4640480068407900F019
:10206000800038B13F4901EB8400D0F8000C00F04B
:10207000300606E03B4901EB8400D0F8000C00F488
:10208000405699F80000A84204D91EB133480068B0
:10209000807A08B90220C8E707F0800080B1314992
:1020A00001EB8400D0F8000C00F0300010284BD178
:1020B000E0B2FEF791FCE0B23021FFF77DFE43E095
:1020C000284901EB8400D0F8000C00F44050B0F532
:1020D000805F39D1E4B9244A92F82C10E0B2FFF7BE
:1020E000EDFD204A02EB8401D1F8001C4BF68F7203
:1020F00001EA020080F4805080F4005040F4004176
:1021000041F08001174B03EB8402C2F8001C1BE076
:10211000E0B2FEF747FC134A02EB8401D1F8001C41
:102120004BF68F7201EA020080F4805000E011E06B
:1021300080F4005040F4004141F08001094B03EB72
:102140008402C2F8001C00BF08490968486980473A
:1021500000206AE700BF022067E700002C00002093
:10216000B000002000500040B400002038000020E3
:1021700010B504462CB901200649096808820020E0
:1021800010BD0549096808688047024800680A30A0
:10219000F6E700002C0000203800002010B50246B1
:1021A00006480068438A32B98888C01A034C2468FC
:1021B0002082002010BD08681844FBE72C00002096
:1021C00010B504462CB90120064909680882002090
:1021D00010BD0549096888688047024800680C30CE
:1021E000F6E700002C0000203800002010B504465F
:1021F0002CB90220394909680882002010BD00204E
:102200003749088035480068007800F07F0018BB27
:1022100032490968487A00F0200131B13049097823
:1022200041F002012E4A117005E02D49097801F0B4
:10223000FD012B4A117000F0400131B128490978A5
:1022400041F00101264A117005E02549097801F0A5
:10225000FE01234A11703AE020480068007800F03F
:102260007F00012801D11E48C8E71C48006800789B
:1022700000F07F00022828D1184A1268517901F035
:102280000F0001F080027AB1164B03EB8002D2F806
:10229000002C02F03002102A16D1114A127842F0B6
:1022A00001020F4B1A700FE00E4B03EB8002D2F8C5
:1022B000002C02F44052B2F5805F05D1084A127832
:1022C00042F00102064B1A7001E0002096E7064931
:1022D000096808698047024890E700002C00002048
:1022E00024000020005000403800002010B50E48A7
:1022F0000068C0780D494978884213DC0A480068B4
:10230000807878B908480068808858B9064800681D
:10231000C078054909688872054909684868804796
:10232000002010BD0220FCE72C000020B00000209F
:102330003800002010B507480068407A40F02000BF
:1023400004490968487204490968C869804700203F
:1023500010BD00002C000020380000202DE9F041C5
:102360002E480068467926F080073C462B480068D6
:10237000407900F0800038B1294901EB8400D0F8A1
:10238000000C00F0300506E0254901EB8400D0F890
:10239000000C00F4405523480078A04208D91F489B
:1023A0000068408820B91DB11C480068807A10B9C7
:1023B0000220BDE8F08106F08000A0B1184A02EBCF
:1023C0008401D1F8001C48F6BF7201EA020080F0D7
:1023D000100040F4004141F08001114B03EB8402F6
:1023E000C2F8001C14E00E4A02EB8401D1F8001C74
:1023F0004BF68F7201EA020080F4805040F40041F5
:1024000041F08001064B03EB8402C2F8001C00BFC0
:1024100005490968886980470020CAE72C00002028
:1024200000500040B00000203800002010B5174BCD
:102430001B68D978154B1B685879154B1B689A692E
:102440009047044611480068807AE8B13CB90F48CB
:102450000068007918B90D480068807808B102203A
:1024600010BD8CB90B490968C868804707480068E7
:10247000407906490968C87204480068C078034971
:10248000096808730020EBE70220E9E72C00002030
:10249000300000203800002038B5002500200090D2
:1024A0002148006884B200BF09E0204901EB8500A3
:1024B000D0F8000C80B21E4941F825006D1C082D93
:1024C000F3D344F480641848046044F001040460C9
:1024D00024F00104046000BF1348001D006800F4EC
:1024E00080600028F8D04FF6FF300F49091D0860C2
:1024F000002509E00E4850F8250080B20B4A02EB97
:102500008501C1F8000C6D1C082DF3D344F00804BC
:1025100005480460006884B244F004040248046082
:10252000FEF73CFD38BD0000405C0040005000401C
:1025300038070020042808D14FF0E021096941F054
:1025400004014FF0E022116107E04FF0E02109693A
:1025500021F004014FF0E022116170477047000044
:1025600010B504466FF00400FFF7E4FFE11704EB39
:102570005171C1F3C701074A11701046007800EB92
:102580004001C1EBC0104FF6FF7101EAC0000249E3
:10259000088010BD200000202200002010B5134844
:1025A000006840F001001149086008464068104981
:1025B00008400E494860084600680E4908400B492B
:1025C00008600846006820F48020086008464068DB
:1025D00020F4FE0048604FF41F008860FFF738FCCD
:1025E0004FF000600449086010BD00000010024078
:1025F0000000FFF8FFFFF6FE08ED00E000B59DB01B
:1026000001210802FFF7E4F901200790002008905B
:102610000F20099000200A900B900C900D900090D4
:1026200001900320029000200390049005900690F2
:1026300006200E9000200F90109010201190002086
:10264000129014901390159016904FF4805017909C
:10265000002018904FF48040199000201A9007A88D
:102660001B90CDF870D00EA8FEF7CAFC0121062001
:10267000FEF7ACFC1DB000BD08B501214FF4B070F1
:10268000FFF7C6F94CF23370ADF8000018208DF852
:10269000030003208DF8020069461048FEF723FD71
:1026A0004FF68070ADF8000018208DF8030003206D
:1026B0008DF8020069460A48FEF715FD41F2010057
:1026C000ADF8000018208DF8030003208DF80200FB
:1026D00069460448FEF707FD08BD000000140140EC
:1026E000001801400020014010B5FFF7C5FFFFF7BB
:1026F00085FF322001F058FC0020FEF7B9FFFEF7FD
:1027000087FEA149888008468188A0A000F06CFE61
:102710000020FEF7ADFF0020FEF7B0FF0020FEF71F
:10272000A7FF0020FEF7AAFF0020FEF7A1FF002070
:10273000FEF7A4FF4FF48060FEF79AFF4FF4C44009
:10274000FEF79CFF0820FEF793FF40F60800FEF717
:1027500095FF0120FEF78CFF4FF48070FEF78EFF8F
:102760000220FEF785FF4FF48070FEF787FF0320FD
:10277000FEF77EFF41F23000FEF780FF0820FEF7F3
:1027800077FF40F60800FEF779FF4FF44070FEF740
:102790006FFF0C20FEF772FF40F20130FEF768FF7A
:1027A00045F60B20FEF76AFF40F20230FEF760FFAD
:1027B00040F60610FEF762FF40F20330FEF758FFC6
:1027C00041F21700FEF75AFF4FF44170FEF750FF39
:1027D0004FF40C50FEF752FF40F20530FEF748FF71
:1027E0004FF4B850FEF74AFF40F20630FEF740FFC4
:1027F00046F20930FEF742FF40F20730FEF738FF9D
:1028000040F60940FEF73AFF4FF44270FEF730FF02
:1028100041F20C00FEF732FF40F20930FEF728FFCC
:1028200042F23220FEF72AFF1020FEF721FF14208B
:10283000FEF724FF1120FEF71BFF40F20110FEF708
:102840001DFF4FF48070FEF713FF4FF40C70FEF77E
:1028500015FF322001F0A8FB40F20110FEF708FF3F
:1028600040F24720FEF70AFF4FF4FA7401E0601EC1
:1028700084B2002CFBDC322001F096FB40F2031006
:10288000FEF7F6FE4FF42060FEF7F8FE4FF4FA7400
:1028900001E0601E84B2002CFBDC0A2001F084FB06
:1028A0004FF42070FEF7E4FE4FF2FF00FEF7E6FE65
:1028B000322001F079FB4FF4FA7401E0601E84B21B
:1028C000002CFBDC4FF48170FEF7D2FE4BF2B0100F
:1028D000FEF7D4FE4FF4FA7401E0601E84B2002CBF
:1028E000FBDC322001F060FB4FF40470FEF7C0FE09
:1028F0000020FEF7C3FE40F21120FEF7B9FEEF20E4
:10290000FEF7BCFE40F21220FEF7B2FE0020FEF7FA
:10291000B5FE40F21320FEF7ABFE40F28F10FEF73B
:10292000ADFE4FF40070FEF7A3FE0020FEF7A6FEFA
:1029300040F20120FEF79CFE0020FEF79FFE40F2D1
:102940000140FEF795FE0020FEF798FE0720FEF7F7
:102950008FFE4FF48070FEF791FE4FF4FA7401E0A1
:10296000601E84B2002CFBDC322001F01DFB40F223
:102970000220FEF77DFE0020FEF70AFD4FF6FF70F5
:10298000FEF7E2FC10BD000018000020204C43447C
:102990002049443A25780D0A0000000010B540F2A5
:1029A00025510C4800F0F1F870B10A4800F0A8F980
:1029B000C4B22146074800F0A8F900BF40210548ED
:1029C00000F0D6F80128F9D14021024800F060F863
:1029D00010BD00000038014010B586B0044601214A
:1029E0000420FFF715F801218803FFF711F80121F2
:1029F0000846FFF70DF84FF40070ADF814000320FF
:102A00008DF8160018208DF8170005A91E48FEF74E
:102A10006AFB4FF48060ADF8140004208DF81700B5
:102A200005A91948FEF75FFB01940020ADF80800E6
:102A3000ADF80A00ADF80C00ADF810000C20ADF8B0
:102A40000E0001A9114800F0EFF801210F4800F035
:102A500028F840210D4800F01BF8012240F22551D2
:102A60000A4800F0BCF825208DF8000003208DF8FE
:102A700001008DF8020001208DF803006846FEF782
:102A800047FE06B010BD00000008014000380140BC
:102A900001F40072B2F5007F00D100BFCA4302808A
:102AA000704721B1828942F40052828104E0828918
:102AB0004DF6FF731A4082817047000010B5002068
:102AC0000E49A1F80204A1F800040D4908800D4840
:102AD00001790DA000F088FC0A48417910A000F0AF
:102AE00083FC0848817915A000F07EFC0548016848
:102AF00019A000F079FC012010BD00006401002045
:102B000040000020A80000206C696E65636F646956
:102B10006E672E666F726D61743A25640D0A00004F
:102B20006C696E65636F64696E672E70617269743B
:102B300079747970653A25640D0A00006C696E65D8
:102B4000636F64696E672E64617461747970653A4D
:102B500025640D0A000000006C696E65636F64698E
:102B60006E672E626974726174653A25640D0A009D
:102B700002460020B1F5007F00D100BF13880B4052
:102B80000BB1012000E00020704770B50246002420
:102B900000230025002040F66A16B14200D100BF94
:102BA000C1F3421501F01F03012606FA03F3012DBC
:102BB00002D19689334006E0022D02D1168A3340B5
:102BC00001E0968A33400C12012606FA04F41688B6
:102BD000344013B10CB1012000E0002070BDF0B50D
:102BE0000346002400260025002040F66A17B9425B
:102BF00000D100BF1846C1F3421401F01F0601279F
:102C000007FA06F5012C01D10C3004E0022C01D1A9
:102C1000103000E014301AB107682F43076002E05B
:102C20000768AF430760F0BD2DE9F04786B0054661
:102C30000E460024A24600BFA1460027B08900B17D
:102C400000BF2F462C8A4CF6FF700440F0880443E6
:102C50002C82AC894EF6F3100440B08831890843C9
:102C6000718908430443AC81AC8A4FF6FF400440AD
:102C7000B0890443AC8201A8FEF7DAFE1F48874200
:102C800002D1DDF810A001E0DDF80CA0A88900F465
:102C9000004040B10AEBCA0000EB0A10316849005D
:102CA000B0FBF1F807E00AEBCA0000EB0A1031684C
:102CB0008900B0FBF1F86420B8FBF0F004012009B2
:102CC000642101FB1089A88900F4004040B1322042
:102CD00000EBC900B0FBF1F000F00700044308E08E
:102CE000322000EB09106421B0FBF1F000F00F007E
:102CF00004432C8106B0BDE8F08700000038014095
:102D000001468888C0F308007047C1F3080282803A
:102D1000704710B54FF48020FEF7F0F810BD0000AA
:102D200010B504461CB104A000F05EFB02E008A050
:102D300000F05AFB10BD00007573622070756C6C5A
:102D400020757020656E61626C650D0A00000000E0
:102D50007573622070756C6C207570206469736186
:102D6000626C650D0A00000010B50848084908604B
:102D7000022009680872074807490860074808499F
:102D80000860054909680868804710BD48010020AF
:102D90002C000020B400002030000020E4000020BF
:102DA000380000200EB54FF48020FEF7A7F84FF44E
:102DB0008020009008208DF8050001208DF8060085
:102DC0006846FEF7A1F814208DF8080001208DF860
:102DD000090000208DF80A0001208DF80B0002A8E0
:102DE000FEF796FC2A208DF8080000208DF80900D7
:102DF00002A8FEF78DFC0EBD10B588B0002469480E
:102E00000068694908800846008800F40070674936
:102E10000988084050B14FF6FF5062490860644885
:102E20000078401C62490870FEF7ECFE5E4800889E
:102E300000F400405D490988084008B1FDF76EFCC8
:102E40005948008800F4806058490988084030B12A
:102E50004FF6FF305349086056494868804752484A
:102E6000008800F4005051490988084018B14DF617
:102E7000FF704C4908604C48008800F480504B4972
:102E80000988084030B14EF6FF70464908600020BE
:102E9000FEF73EFE4448008800F40060434909887C
:102EA000084060B14448007810B1FFF7F5FA02E03D
:102EB0000220FEF72DFE4FF2FF703A4908603A48B3
:102EC000008800F48070394909880840002866D0DD
:102ED0004FF6FF6033490860081D006800F40040A9
:102EE000002856D035480068401C34490860084620
:102EF0000068032850D92B48001F006800F0080024
:102F0000002849D12748001F006880B22C4908607A
:102F1000002408E02B4901EB8400D0F8000C80B2BB
:102F20004DF82400641C082CF4D32548006840F0B8
:102F30000100234908600846006880B21949091F4A
:102F400008601F48006820F001001D49086008461D
:102F5000006880B21349091F086000BF114800686B
:102F600000F480600028F9D04FF6FF300D4908606A
:102F7000002408E05DF8240080B2124A02EB8401CC
:102F8000C1F8000C641C082CF4D300200B49086025
:102F900002E00020094908600720FEF7B9FD08B0EB
:102FA00010BD0000445C004060000020360000209E
:102FB00062000020B40000203C01002064000020DA
:102FC000680000200050004010B5FFF715FF10BD4D
:102FD00010B5044601210420FEF71AFD3CB10F484C
:102FE000006880B220F002000C49086014E00B4831
:102FF000006880B240F00200084908600848006894
:1030000020F47F20064908600846006840F44C30F0
:10301000086000200349086010BD0000405C0040CB
:1030200004080140B00121420020064908604FF425
:103030003F4005490880084600880249091F08608A
:1030400000207047445C0040360000202DE9F0412C
:1030500004460E46002504F07F00FEF7E1F8054621
:1030600004F07F00FEF7CCF807462A463946304682
:10307000FEF754FC2846BDE8F081000030B5034659
:103080000A46002133E0585C1A4C248804F40044BA
:103090005CBB184C248804F4804464B10A2803D033
:1030A0000024144D2C8020E0124C248844F4004469
:1030B000104D2C8019E00D2806D10E4C248844F4C4
:1030C00080440C4D2C8010E00A4C2488C4F30D047D
:1030D000094D2855074C2488641C064D2C802C462D
:1030E0002488C72C01DD00242C804C1CE1B29142C5
:1030F000C9DB30BD40000020300600200A49B1F88D
:103100000014094A50541146B1F80014491CA2F8A1
:1031100000141146B1F80014B1F5806F02D10021FE
:10312000A2F80014704700006401002000BFFEE711
:10313000F0B5144604F1010C4FEA6C07DFF824C027
:103140000CEB41033D460AE00678401C90F800C0B5
:1031500046EA0C2223F8022B9B1C401C6D1E002DFE
:10316000F2D1F0BD0060004070B504460025212C6E
:1031700008D112480068007800F07F0021280ED1A5
:103180000F4D0CE0202C0AD10C480068007800F0AC
:103190007F00212800D10B4D20200B4908700DB96C
:1031A000022070BD05480068856100210348006861
:1031B00041820020A8470020F3E700002C000020F7
:1031C000F531000885330008A400002010B504463E
:1031D00002492046FEF7E2FF10BD0000100100206A
:1031E00010B5044602492046FEF7D8FF10BD000086
:1031F00008010020014629B90820034A12681082FC
:10320000002070470148FCE72C000020A8000020A7
:1032100070B5054606480068C478042C01DD00201E
:1032200070BD044800EBC4012846FEF7B7FFF7E77E
:103230002C000020180100200246002901DD022098
:103240007047012A01DD0220FAE70020F8E70000BC
:10325000014608480068007800F07F00212807D167
:10326000022901D100207047222901D10020FAE76C
:103270000220F8E72C00002010B50020344909682E
:1032800088723448C0793249096848720020304950
:103290000968C872FEF7D0FC4FF400710020FEF7F9
:1032A000C5FD10210020FEF787FD40210020FEF71C
:1032B000F3FC80210020FEF761FD0020FDF7A6FB56
:1032C000254890F82C100020FEF7F8FC0020FEF7AF
:1032D0003BFD00210120FEF7A9FDC0210120FEF7E2
:1032E0004DFD20210120FEF767FD00210120FEF7A2
:1032F0000BFD4FF4C0610220FEF798FD4FF4807182
:103300000220FEF73BFD00210220FEF7FDFC2021FC
:103310000220FEF751FD00210320FEF787FD4FF448
:1033200088710320FEF7B8FC40210320FEF7C6FC9D
:103330004FF440510320FEF7E7FC00210320FEF785
:103340003BFD0020FEF780FC01200449086010BD11
:103350002C000020645E0008B4000020380100202A
:103360000348817A11B10521024A116070470000BB
:1033700048010020380100200420014908607047FE
:1033800038010020014629B90820034A126810823A
:10339000002070470148FCE72C000020A800002016
:1033A00010B505480078202804D1FFF787FB0020DE
:1033B0000149087010BD0000A40000207047000003
:1033C00010B5FDF74FFF0020054909688872FEF728
:1033D000DFFAFFF729FE00200249086010BD000057
:1033E0002C000020380100200FB4054B10B503A9B4
:1033F000044A029800F0DCF810BC5DF814FB0000F1
:10340000F53F00084401002037B514460846064B36
:103410006A46214600F02CFA04466946002000F076
:10342000BEFD20463EBD00009F3F000802E008C8E8
:10343000121F08C1002AFAD170477047002001E02E
:1034400001C1121F002AFBD1704700002DE9FF5F68
:10345000DDE90220010DDDF838B0024318D044F652
:103460001050A1F2FF3141430D140F98012820D0D4
:10347000A5EB0B00401C5FEA000A4FF00004474E2A
:10348000DFF81C91A046504616D5CAF1000728E087
:103490000F98012443A2012808D0002100980F9B17
:1034A000C0E90021C0E90243BDE8FF9F6FEA0B01BC
:1034B000F4E7CBF10000DEE7074612E0F80707D09B
:1034C0002246334640464946FCF743FF804689463C
:1034D0002246334610461946FCF73BFF04460E468B
:1034E0007F10002FEAD1DDE90201BAF1000F424658
:1034F0004B4602DAFCF72DFF01E0FCF79CFF044687
:103500000E460022284BFDF71DF803D84FF0FF3080
:10351000014607E00022254B20463146FCF772FEAB
:10352000FCF7F8FF102409E0002C0ADB0A22002334
:10353000FCF737FE019B30321A55641E50EA010237
:10354000F2D1641C019AC4F1110314440F9A012AA8
:1035500003D0012208430DD10AE0084304D0002023
:103560004FF0110B0F9080E7A3EB0B056D1E0DE0E4
:103570005B4504DD4FF0000205F1010504E003DACC
:103580004FF00002A5F10105002AECD000980F9938
:10359000C0E90231C0E9004586E700000000244090
:1035A0000000F03F300000000000F0430000E03F6A
:1035B0002DE9FF4F8DB09B460F460446002606E0DE
:1035C00025280BD05A460F999047641C761C20780A
:1035D0000028F5D111B03046BDE8F08F0025A8468F
:1035E0000122984900E0054314F8013F203B02FA0C
:1035F00003F00842F7D120782E2817D114F8010FD4
:1036000045F004052A280ED06FF02F022078A0F193
:10361000300109290AD808EB880102EB410100EBCF
:103620000108641CF2E757F8048B641C20786C28AE
:103630000DD004DC4C2812D06A2811D104E0742883
:103640000DD07A280CD10AE045F4001507E0617826
:1036500045F48015814202D1641C05F58015641C77
:103660002278692A45D008DC002AB3D0582A69D0CC
:10367000632A10D0642A08D13BE0702A67D0732AED
:1036800013D0752A5CD0782A5CD010465A460F9920
:103690009047761CD3E017F8040B8DF8000000204B
:1036A0008DF80100E946012003E057F8049B4FF034
:1036B000FF3069074FF0000501D40AE06D1C454555
:1036C0000DDA8542FADB19F805100029F6D106E07B
:1036D0006D1C8542FCDB19F805100029F8D12E4439
:1036E00004E019F8010B5A460F9990476D1EF8D265
:1036F000A5E00A200021CDE90801C5F30250022807
:103700000DD001CFC117031E71F100030DDA4FF088
:10371000000CD0EB0C006CEB01012D2308E0FF1D29
:1037200027F00707F7E80201EDE72B0504D52B2367
:103730008DF8283001233BE0EB0739D02023F7E751
:103740000A2000E010200021CDE9080107E0102048
:10375000002145F00405CDE908014FF00808C5F344
:10376000025002280FD001CF00214FF0000A2B0792
:103770001FD5702A0DD0DDE908C38CF0100C5CEA6F
:10378000030C0CD015E0FF1D27F00707F7E8020136
:10379000EBE740228DF828204FF0010A0BE050EAB9
:1037A000010306D030238DF828308DF8292002231C
:1037B0009A46582A04D024A20DF120090B9209E060
:1037C00026A2F9E7DDE90823FCF7EBFC0B9B9B5CE9
:1037D00009F8013D50EA0102F4D1ADEB09002030B7
:1037E0000890680701D44FF001080899884502DD68
:1037F000A8EB010000E000208046002506E00AA8B2
:103800005A46405D0F9990476D1C761C5545F6DB76
:1038100004E030205A460F999047761CB8F1000119
:10382000A8F10108F5DC05E019F8010B5A460F99DB
:103830009047761C0899481E08900029F4DC641C07
:10384000C5E60000092801003031323334353637FF
:1038500038396162636465660000000030313233DC
:10386000343536373839414243444546000000007C
:103870002DE9FF4F95B09B468946064600250FE28D
:10388000252877D100242746F84A0121059400E035
:10389000044316F8013F203B01FA03F01042F7D130
:1038A00030782A2811D06FF02F033078A0F1300241
:1038B000092A16D8059A44F0020402EB820203EBAF
:1038C00042021044761C0590EFE759F8042B05924C
:1038D000002A03DA504244F40054059044F00204F4
:1038E000761C30782E2816D116F8010F44F0040407
:1038F0002A280DD06FF02F023078A0F13003092B69
:1039000009D807EB870302EB4303C718761CF3E7DC
:1039100059F8047B761C30786C280FD006DC4C28D4
:1039200017D068280DD06A2814D104E0742810D06C
:103930007A280FD10DE044F400140AE044F4801416
:1039400001E044F440147278824202D104F58014FC
:10395000761C761C307866280BD013DC582877D07C
:1039600009DC002875D04528F6D04628F4D0472831
:103970001AD19DE118E0632835D0642879D06528F4
:1039800012D195E1702873D008DC6728F1D069283E
:103990006FD06E280DD06F2806D1B5E073282CD0DB
:1039A000752875D0782874D05A46179990476D1CA1
:1039B00075E1C4F30250022809D003280DD0D9F8CC
:1039C000001004280DD00D6009F1040967E1D9F851
:1039D0000010EA17C1E90052F6E7D9F800100D808F
:1039E000F2E70D70F0E719F8041B8DF800100020C5
:1039F0008DF80100EA46012003E059F804AB4FF0CE
:103A0000FF3061074FF0000102D40DE008F1010121
:103A10008846B9420FDA8045F8DB1AF80810002909
:103A2000F4D108E008F1010188468142FADB1AF876
:103A300008100029F6D105985B46A0EB080721463F
:103A40003846179A00F094FA284400EB080507E07E
:103A50004DE029E10DE01AF8010B5A4617999047FD
:103A6000B8F10108F7D25B4621463846179A13E1B0
:103A700042E00A220092C4F302524FF0000A022AE6
:103A800008D059F804CB032A4FEAEC710AD00DE0B4
:103A900029E02AE009F1070121F00702F2E802C15A
:103AA000914609E00FFA8CFC4FEAEC71042A03D12D
:103AB0004FFA8CFC4FEAEC71002907DA0A46002124
:103AC000DCF1000C61EB02012D2202E0220504D59D
:103AD0002B228DF80420012203E0E20701D02022EE
:103AE000F7E7904659E00A2102E010220DE010218C
:103AF0004FF0000A00910BE010224FF0000A44F052
:103B000004040827009203E008224FF0000A009204
:103B1000C4F30252022A05D059F804CB0021032A2B
:103B200008D009E009F1070121F00702F2E802C11B
:103B3000914605E01FFA8CFC042A01D10CF0FF0C21
:103B40004FF00008220728D5702806D0009B83F08C
:103B5000100353EA0A0305D00EE040228DF804203A
:103B6000012208E05CEA010206D030228DF8042030
:103B70008DF8050002229046009B83F0080353EA6B
:103B80000A030AD15CEA010201D1620705D530229D
:103B90008DF804204FF001087F1E582804D034A06F
:103BA00003900EA802900DE036A0F9E75346604658
:103BB000009AFCF7F6FA84460398825C0298401E4D
:103BC000029002705CEA0100F0D1029806A9081A7E
:103BD00000F1200A600702D524F4803400E00127B8
:103BE000574502DDA7EB0A0000E0002000EB0A01C8
:103BF000009005984144401A0590E00306D45B46C6
:103C00002146179A059800F0B3F90544002706E00D
:103C100001A85A46C05D179990476D1C7F1C474507
:103C2000F6DBE0030CD55B462146179A059800F0B9
:103C30009FF9054404E030205A46179990476D1CBF
:103C40000099481E00900029F5DC08E002980299CE
:103C50005A460078491C0291179990476D1CBAF199
:103C60000001AAF1010AF1DC65E100000928010068
:103C700030313233343536373839616263646566E2
:103C800000000000303132333435363738394142A4
:103C9000434445460000000000F058F90544761CF6
:103CA000307800287FF4ECAD19B02846BDE8F08FDD
:103CB000620700D4062709F1070222F0070CFCE88E
:103CC0000223E14603F000485FEA080C02D00FF23D
:103CD000702C0DE05FEA045C02D50FF2682C07E05F
:103CE0005FEAC47C02D00FF2602C01E0AFF2700CEE
:103CF0004FF0FF3823F00043CDF850C065280CD0BA
:103D000006DC452809D046281DD047283DD13DE096
:103D1000662818D067287ED138E00021112F01DBFA
:103D2000112000E0781CCDE9000106A90EA8FFF7DC
:103D30008DFBDDE90F010E9A03910021009207F13E
:103D4000010A04914DE04FF000400097CDE90110C9
:103D500006A90EA8FFF77AFBDDE90F0203920E9B7E
:103D600011990022DDF80CA00093049211B9791C7E
:103D700000EB010AB7EB0A0004D4C0F1FF3007F1F1
:103D8000010A0490AAEB0700019044E0012F00DA39
:103D900001270021112F01DD112000E03846CDE977
:103DA000000106A90EA8FFF751FBDDE90F010E9AED
:103DB0000391002104910092BA4621070CD4039983
:103DC000514500DA8A46BAF1010F05DD009AAAF1E1
:103DD0000101515C302908D0B84202DA10F1040F19
:103DE00006DA0121CDE9011015E0AAF10101E9E7A8
:103DF000002805DC049901440491AAEB000102E0CB
:103E0000411C514500DD8A460499401A401C01902E
:103E10004FF000400290200704D40198504501DB88
:103E2000CDF8048000208DF84F0002980DF14F0767
:103E3000B0F1004F25D02B200E9002984FF00208D1
:103E400000280CDA404202902D200E9007E00A2153
:103E50000298FCF790F93031029007F8011DB8F193
:103E60000001A8F10108F2DC02980028EFD1791EC8
:103E70000E980870307800F0200040F0450007F8F8
:103E8000020D12A8C01B00F107081498007800B1B9
:103E9000012000EB0A01019801EBE0710598414413
:103EA000401A401E0590E00306D45B462146179A4F
:103EB000059800F05DF805441498007818B15A464A
:103EC000179990476D1CE00324D55B462146179A4D
:103ED000059800F04DF805441CE00498002807DB25
:103EE000DDE90301884203DD0098405C179901E099
:103EF000179930205A469047049805F10105401C57
:103F000004900198401E019004D12E205A46179922
:103F100090476D1CBAF10001AAF1010ADDDC05E051
:103F200017F8010B5A46179990476D1CB8F100011C
:103F3000A8F10108F4DC5B462146179A0598ABE628
:103F40002D0000002B000000200000002DE9F041B2
:103F5000044600251E461746880404D405E0394669
:103F60002020B0476D1C641EF9D52846BDE8F081BD
:103F70002DE9F041044600251E469046C80301D5B0
:103F8000302700E02027880404D505E04146384664
:103F9000B0476D1C641EF9D52846BDE8F0810A685B
:103FA000531C0B60107070470146114A12884A4337
:103FB0004FF0E0235A6100229A611A46126942F0DA
:103FC00001021A6100BF4FF0E022106900F0010207
:103FD0001AB100F48032002AF5D04FF0E0221269C5
:103FE00022F001024FF0E0231A6100229A6170472B
:103FF0002200002070B504460D46E1B20548FEF7E8
:1040000084FE00BF80210348FEF7B2FD0028F9D0EE
:10401000204670BD003801401CB500260024002752
:104020004820FEF79DFA4FF4A060FDF7A9FBFDF7CD
:1040300031FB4FF41650FEF7CFFCFEF755FB4FF463
:10404000E160FFF7B1FF0020FEF7C2FF4FF42F70D1
:10405000FFF7AAFF0120FEF7BBFFFDF76DFFFEF79C
:10406000A1FEFEF781FE74E03A480068874227D03F
:1040700038480068C7B2052F11D137A01021CDE90B
:1040800000103A48438802885A210A20FDF7BCFAFA
:1040900037A000F0CDF800203949086010E039A0C1
:1040A0001021CDE900103148438802885A210A20A6
:1040B000FDF7AAFA38A000F0BBF8012030490860EB
:1040C0003A48008800F40040C0B138480088C0F386
:1040D0000D06314636A000F0ABF8002505E03B495F
:1040E000485DFFF70BF8681C85B2B542F7DB38A0D6
:1040F00000F09EF800202D4908802AE0601C84B260
:1041000041F2883094FBF0F100FB114028B932A055
:1041100000F08EF83AA000F08BF8C82094FBF0F184
:1041200000FB114010B93BA000F082F81E2094FB68
:10413000F0F100FB114048B91148001F006808B9B0
:10414000012000E000200E49091F08600A20FFF747
:104150002BFF89E73801002055534220436F6E6ED4
:104160006563746564202020200000001800002092
:1041700055534220436F6E6E65637465640D0A008B
:104180008401224255534220446973436F6E6E6529
:1041900063746564200000005553422064697343D2
:1041A0006F6E6E65637465640D0A00004000002048
:1041B0000D0AC4FAB7A2CBCDB5C4CFFBCFA2B3A42E
:1041C000B6C8CEAA3A25640D0A0D0A0030060020B2
:1041D0000D0A0D0A000000000D0AC6D5D6D0BFC6D4
:1041E000BCBC53544D3332BFAAB7A2B0E5555342BD
:1041F000D0E9C4E2B4AEBFDACAB5D1E90D0A000015
:104200007777772E7072656368696E2E636F6D0DB8
:104210000A0D0A00C7EBCAE4C8EBCAFDBEDD2CD20A
:10422000D4BBD8B3B5BCFCBDE1CAF80D0A00000090
:104230000FB438B505A800900B48009A0499FFF711
:10424000E3F8002000900848FBF78EFF85B20024B9
:1042500005E00549085DFEF751FF601C84B2AC42E1
:10426000F7DB38BC5DF814FB680500200000000097
:104270000000000000000000000000003F400000BF
:10428000000000000000300040003000400000004E
:1042900009000BC03D000BC03D00090018C02440C0
:1042A0007FE0224031800000180024C01B000D80F8
:1042B0003240018003801C4027401C8007400040A2
:1042C000100060000000000000000000000000007E
:1042D00000001F80204040200000402020401F8020
:1042E00000000000090006001F8006000900000011
:1042F000040004003F80040004000000001000607F
:10430000000000000000000004000400040004009D
:104310000400000000000040000000000000000059
:10432000002001C006003800400000001F8020402F
:10433000204020401F800000000010403FC000408F
:104340000000000018C02140224024401840000016
:1043500010802040244024401B80000002000D00FB
:1043600011003FC0014000003C8024402440244014
:10437000238000001F80244024403440038000003C
:104380003000200027C03800200000001B8024409F
:10439000244024401B8000001C0022C022402240F8
:1043A0001F80000000000000084000000000000026
:1043B0000000000004600000000000000000040095
:1043C0000A0011002080404009000900090009008E
:1043D0000900000000004040208011000A00040095
:1043E0001800200023402400180000001F802040F7
:1043F000274029401F400000004007C039000F003F
:1044000001C0004020403FC0244024401B800000E9
:104410001F802040204020403080000020403FC0CE
:10442000204020401F80000020403FC024402E40FC
:1044300030C0000020403FC024402E00300000006B
:104440000F001080204022403380020020403FC0F7
:10445000040004003FC02040204020403FC02040D6
:10446000204000000060202020203FC020002000CD
:1044700020403FC024400B0030C0204020403FC0BF
:1044800020400040004000C03FC03C0003C03C0052
:104490003FC0000020403FC00C4023003FC0200030
:1044A0001F802040204020401F80000020403FC04F
:1044B00024402400180000001F802140214020E0FB
:1044C0001FA0000020403FC02440260019C000402B
:1044D00018C0244024402240318000003000204099
:1044E0003FC020403000000020003F8000400040DE
:1044F0003F80200020003E0001C00700380020005F
:10450000380007C03C0007C038000000204039C018
:10451000060039C0204000002000384007C0384065
:1045200020000000304021C02640384020C000005C
:10453000000000007FE040204020000000007000EC
:104540000C000380004000000000402040207FE07D
:1045500000000000000020004000200000000000DB
:1045600000100010001000100010001000000000EB
:1045700040000000000000000000028005400540EF
:1045800003C0004020003FC00440044003800000FE
:104590000000038004400440064000000000038047
:1045A000044024403FC00040000003800540054017
:1045B00003400000000004401FC0244024402000AD
:1045C000000002E0055005500650042020403FC086
:1045D0000440040003C000400000044027C0004025
:1045E0000000000000100010041027E00000000090
:1045F00020403FC00140070004C00440204020404C
:104600003FC000400040000007C0040007C0040095
:1046100003C00000044007C00440040003C0004081
:10462000000003800440044003800000041007F0F1
:104630000450044003800000000003800440045044
:1046400007F00010044007C002400400040000000E
:10465000000006400540054004C0000000000400C2
:104660001F80044000400000040007800040044018
:1046700007C000400400070004C0018006000400D9
:10468000060001C0070001C006000000044006C08B
:10469000010006C0044000000410071004E001807F
:1046A000060004000000044005C00640044000006D
:1046B0000000000004007BE040200000000000003B
:1046C0000000FFF000000000000040207BE004003C
:1046D000000000004000800040002000200040005A
:1046E00000000000000000000000000000000000CA
:1046F0000000000000001FCC000C000000000000C3
:104700000000080030006000080030006000000079
:10471000022003FC1E20022003FC1E2002200000B9
:1047200000000E1811043FFF10840C7800000000F8
:104730000F0010840F3800C007781884007800003C
:1047400000780F8410C411240E9800E4008400083F
:104750000800680070000000000000000000000079
:1047600000000000000007E01818200440020000CC
:10477000000040022004181807E0000000000000BC
:104780000240024001800FF0018002400240000020
:104790000080008000800FF8008000800080000012
:1047A0000001000D000E00000000000000000000ED
:1047B0000000008000800080008000800080008079
:1047C0000000000C000C00000000000000000000D1
:1047D000000000060018006001800600180020009C
:1047E000000007F0080810041004080807F0000093
:1047F0000000080408041FFC00040004000000007E
:1048000000000E0C10141024104411840E0C000033
:1048100000000C1810041104110412880C70000020
:10482000000000E00320042408241FFC00240000F2
:1048300000001F98108411041104108810700000EB
:10484000000007F0088811041104188800700000A7
:1048500000001C00100010FC13001C0010000000E1
:1048600000000E3811441084108411440E380000EA
:1048700000000700088C10441044088807F000006E
:10488000000000000000030C030C0000000000000A
:104890000000000000010106000000000000000010
:1048A00000000080014002200410080810040000ED
:1048B000022002200220022002200220022000000A
:1048C00000001004080804100220014000800000CD
:1048D00000000E001200100C106C10800F00000081
:1048E00003E00C1813E4142417C4082807D00000B0
:1048F0000004003C03C41C40074000E4001C00040A
:1049000010041FFC1104110411040E880070000033
:1049100003E00C1810041004100410081C10000010
:1049200010041FFC100410041004080807F0000015
:1049300010041FFC1104110417C41004081800000F
:1049400010041FFC1104110017C010000800000023
:1049500003E00C181004100410441C780040000000
:1049600010041FFC10840080008010841FFC1004C1
:104970000000100410041FFC1004100400000000CC
:1049800000030001100110011FFE100010000000C4
:1049900010041FFC110403801464181C1004000090
:1049A00010041FFC1004000400040004000C0000AC
:1049B00010041FFC1F0000FC1F001FFC100400005F
:1049C00010041FFC0C04030000E010181FFC100072
:1049D00007F00808100410041004080807F000008D
:1049E00010041FFC10841080108010800F00000045
:1049F00007F0081810241024101C080A07F2000001
:104A000010041FFC1104110011C011300E0C000421
:104A100000000E1C11041084108410441C38000087
:104A20001800100010041FFC1004100018000000F3
:104A300010001FF810040004000410041FF81000F8
:104A400010001E0011E0001C007013801C001000FC
:104A50001FC0103C00E01F0000E0103C1FC0000021
:104A60001004180C163401C001C01634180C1004C0
:104A700010001C00130400FC13041C0010000000B4
:104A80000804101C1064108413041C041018000087
:104A90000000000000007FFE4002400240020000D3
:104AA000000030000C0003800060001C00030000C8
:104AB00000004002400240027FFE000000000000B3
:104AC00000000000200040004000400020000000E6
:104AD00000010001000100010001000100010001CE
:104AE0000000400040002000000000000000000026
:104AF00000000098012401440144014400FC00042A
:104B000010001FFC008801040104008800700000F0
:104B10000000007000880104010401040088000006
:104B20000000007000880104010411081FFC00044B
:104B3000000000F8014401440144014400C80000A1
:104B40000000010401040FFC1104110411001800FD
:104B5000000000D601290129012901C90106000030
:104B600010041FFC008401000100010400FC00048B
:104B700000000104190419FC0004000400000000F6
:104B80000000000300010101190119FE00000000EE
:104B900010041FFC0024004001B4010C01040000BB
:104BA0000000100410041FFC0004000400000000BA
:104BB000010401FC0104010001FC0104010000FCEE
:104BC000010401FC008401000100010400FC000458
:104BD000000000F8010401040104010400F80000D1
:104BE000010101FF0085010401040088007000003C
:104BF00000000070008801040104010501FF0001AC
:104C00000104010401FC0084010401000180000092
:104C1000000000CC0124012401240124019800009B
:104C200000000100010007F8010401040000000079
:104C3000010001F8000400040004010801FC000464
:104C4000010001800170000C001001600180010072
:104C500001F0010C003001C00030010C01F0010036
:104C600000000104018C00740170018C010400003B
:104C7000010101810171000E001801600180010035
:104C800000000184010C013401440184010C000086
:104C9000000000000000000001003EFC4002400255
:104CA0000000000000000000FFFF00000000000006
:104CB0000000400240023EFC010000000000000035
:104CC00000006000800080004000400020002000C4
:104CD00000000000000000000000000000000000D4
:104CE00000000000000000000000000000000000C4
:104CF00000000000000000000000000000000000B4
:104D00000000000F80380FFE380F803800000000D0
:104D10000000000000000000000000000000010092
:104D2000000600000C000038000031000006000002
:104D30000C000038000030000000000000000000FF
:104D400061800067F807F980006180006180006180
:104D5000800061800067F807F98000618000000032
:104D600000000000000001C0E003E0F0063008048D
:104D700018081FFFFE040E080787F00381E00000FB
:104D80000000000001F000060C00040408060C708E
:104D900001F9C0000E00003BE000EC180708080411
:104DA0000C180003E00000000001E00007F003F829
:104DB00018041C0804170807E1D003C0E00023B062
:104DC000003C080020080000100000000000000166
:104DD00000003100003200001C0000000000000054
:104DE00000000000000000000000000000000000C3
:104DF00000000000000000000000000000000000B3
:104E00007F0001FFC00780F00C0018100004200094
:104E1000020000000000002000021000040C001836
:104E20000780F001FFC0007F0000000000000000CC
:104E300000000000000000000000000042000066CA
:104E400000006600003C0000180003FFC0001800CE
:104E5000003C000066000066000042000000000008
:104E6000080000080000080000080000080001FF1A
:104E7000C00008000008000008000008000008004A
:104E800000000000000100003100003200001C00A2
:104E90000000000000000000000000000000000012
:104EA00000000000000000000800000800000800EA
:104EB00000080000080000080000080000080000CA
:104EC00008000008000000000000000000000000D2
:104ED000380000380000380000000000000000002A
:104EE00000000000000000000000000000000000C2
:104EF000000600001C000070000180000E00003859
:104F00000000C0000700001C00003000000000008E
:104F1000000000007F8001FFE0038070060018049D
:104F2000000804000806001803807001FFE0007FFD
:104F300080000000000000000000010008010008DF
:104F400001000803FFF807FFF80000080000080050
:104F5000000800000000000000000001C03802C08E
:104F600058040098040118040218040418061C18B8
:104F700003F81801E0F80000000000000000000144
:104F8000C0E003C0F004000804080804080806187C
:104F90000803F41801E7F00001E000000000000041
:104FA000000000000300000D00001100006100007F
:104FB000810803010807FFF80FFFF800010800014E
:104FC000080000000000000000E007FCD006080810
:104FD000061008061008061008061838060FF00616
:104FE00007C0000000000000000000003F8001FF3B
:104FF000E0038430020818041008041008041008A4
:10500000071810030FF00007C000000000000000A8
:10501000000003C0000700000600000600F80607B5
:10502000F806180006E00007000006000000000077
:1050300000000001E1E003F7F00634100418080452
:105040001808040C08040C0806161803F3F001C134
:10505000E000000000000000F80003FC3003063808
:105060000402080402080402080404100308F00102
:10507000FFC0007F000000000000000000000000F2
:105080000000000000000000703800703800703828
:105090000000000000000000000000000000000010
:1050A000000000000000000000000000301A003086
:1050B0001C000000000000000000000000000000D4
:1050C00000000000000000080000140000220000A2
:1050D0004100008080010040020020040010080010
:1050E0000800000000000000210000210000210055
:1050F000002100002100002100002100002100000B
:105100002100002100000000000000000000080055
:1051100008040010020020010040008080004100CF
:10512000002200001400000800000000000000033E
:10513000C00004C000040000080038080F38080848
:10514000380810000C300007E00003C00000000029
:10515000000000003F8000FFE0038070020F100697
:10516000708804C088048308047F8802C09003010B
:105170002000FE400000080000180001F8003E0872
:1051800001C20007020007E20000FE00001FC80085
:1051900001F800003800000804000807FFF807FFC6
:1051A000F804080804080804080804080806180891
:1051B00003F41801E7F00001E00000000000000027
:1051C0003F8001FFE0038070020018040008040023
:1051D000080400080400100600200780C00000003A
:1051E00004000807FFF807FFF8040008040008049B
:1051F000000804001802001003807001FFE0007F27
:105200008000000004000807FFF807FFF804080802
:10521000040808040808040808043E0804000806F6
:10522000001801006000000004000807FFF807FFF5
:10523000F8040808040800040800040800043E00FC
:1052400006000006000001800000000000000000D1
:105250003F8001FFE003807006001804000804028C
:10526000080402080203F00783F0000200000200B5
:1052700004000807FFF807FFF8040808000800000A
:10528000080000080000080004080807FFF807FFEE
:10529000F8040008000000000000040008040008F2
:1052A00004000807FFF807FFF804000804000804DA
:1052B00000080000000000000000000000060000E0
:1052C0000700000104000104000104000307FFFEC1
:1052D00007FFFC04000004000004000004000807AD
:1052E000FFF807FFF8040C08001800003E0004C790
:1052F000800503C80600F804003804001800000800
:1053000004000807FFF807FFF80400080000080081
:105310000008000008000008000008000018000055
:105320006000000004000807FFF807800807FC0081
:10533000007FC00003F80007C0007800078008075E
:10534000FFF807FFF804000804000807FFF807004B
:105350000803C00000E000003800001E0000070045
:105360000001C00400F007FFF80400000000000086
:105370007F8001FFE003807006001804000804002D
:105380000806001803003001FFE0007F80000000E5
:1053900004000807FFF807FFF804040804040004E9
:1053A0000400040400040400060C0003F80001F0EB
:1053B00000000000000000007F8001FFE00380701B
:1053C0000600880400880400C806003C03003E0173
:1053D000FFE6007F8400000004000807FFF807FFD5
:1053E000F8040808040800040C00040F00040BC0B3
:1053F0000610F003F03801E008000008000000018A
:10540000E0F803F030063010041808041808040C03
:1054100008040C080206180207F00781E0000000EB
:1054200001800006000004000004000004000807DA
:10543000FFF807FFF804000804000004000006005D
:105440000001800004000007FFE007FFF0040018DF
:105450000000080000080000080000080000080420
:10546000001007FFE004000004000006000007E051
:105470000007FE00041FE00001F80000380001E012
:10548000043E0007C00006000004000004000007FE
:10549000E00007FFC0041FF80007C007F80007FF7F
:1054A00080043FF80007C004F80007000004000073
:1054B00000000004000806001807C07805F1C800C5
:1054C0003E00001F800463E80780F806001804000F
:1054D0000800000004000006000007800007E00844
:1054E000047C08001FF80007F800180804E008070B
:1054F0000000060000040000000000010008060093
:10550000380400F80403E8040F08047C0805F008D8
:1055100007C0080700180400600000000000000039
:1055200000000000000000000000003FFFFE20001F
:1055300002200002200002200002200002000000E1
:1055400000000000000008000007000000C000008C
:1055500038000006000001C000003000000E00000E
:1055600001000000000000000000200002200002F6
:105570002000022000022000023FFFFE0000000089
:10558000000000000000000000000000000000001B
:105590000008000010000030000020000030000073
:1055A00010000008000000000000000000000100E2
:1055B00000010000010000010000010000010000E6
:1055C00001000001000001000001000001000001D5
:1055D000000000000000000000200000200000107B
:1055E00000001000000000000000000000000000AB
:1055F000000000000000000000F00019F8001B1877
:10560000002208002608002408002410003FF800AB
:105610001FF800000800001800000004000007FF49
:10562000F80FFFF0001818001008002008002008EC
:10563000003018001FF0000FC00000000000000044
:1056400007C0001FF00018300020080020080020CC
:1056500008003C08001C1000006000000000000072
:105660000000000007C0001FF000381800200800EC
:10567000200800200804101007FFF80FFFF00000BA
:10568000100000000000000000000007C0001FF034
:105690000012300022180022080022080032080000
:1056A0001E10000E2000000000000000200000205E
:1056B0000800200801FFF803FFF80620080420086E
:1056C0000420080720000300000000000000000084
:1056D000000E000E6E001FF30031B10020B100205B
:1056E000B1003191001F13002E1E00200E0030006B
:1056F00000000004000807FFF80FFFF80010080082
:105700002000002000002008003FF8001FF80000E3
:105710000800000000000000000000200800200831
:10572000002008063FF8063FF800000800000800C7
:105730000008000000000000000000000000000061
:1057400003000003002001002001002003063FFEAB
:10575000063FFC0000000000000000000000000404
:10576000000807FFF80FFFF8000188000300002F72
:10577000C00038F8002038002008000008000000B1
:1057800000000000000004000804000804000807EE
:10579000FFF80FFFF80000080000080000080000F4
:1057A00000000000002008003FF8003FF80010084B
:1057B000002000003FF8003FF80010080020000023
:1057C0003FF8003FF8000008000000002008003FFC
:1057D000F8003FF80010080010000020000020082A
:1057E000003FF8001FF80000080000000000000063
:1057F00007C0000FF000183000300800200800201B
:1058000008003008001830000FF00007C00000004A
:10581000000000002001003FFF003FFF00101100CA
:105820002009002008002008003038001FF0000F79
:10583000C00000000000000007C0001FF000381882
:10584000002008002008002009001011001FFF00A0
:105850003FFF000001000000002008002008002099
:1058600008003FF8003FF800080800100800200872
:1058700000200000300000300000000000000000A8
:105880000000000C78001E180033080023080021D7
:10589000080021880021980030F0003860000000E6
:1058A00000000000200000200000200000FFF003A6
:1058B000FFF8002008002008002008000030000049
:1058C00000000000000000002000003FF0007FF812
:1058D000000018000008000008002010003FF80039
:1058E0007FF00000100000000000000020000030E9
:1058F00000003C00003F800023F0000078000070B2
:10590000002380003C000030000020000020000048
:105910003C00003FE00023F80000E0002700003ECC
:1059200000003FE00021F80001E0003E0000200000
:10593000000000002008002008003838003E680001
:1059400027800003C8002CF80038380020180020F9
:1059500008000000000000002000003003003C01AF
:10596000003F830023EC000070002380003C000017
:1059700020000020000000000000000000000038AF
:10598000080020380020F80023E8002F88003E0897
:10599000003808002018000070000000000000001F
:1059A00000000000000000000000000008000014DB
:1059B000001FF7FC3000062000020000000000007D
:1059C00000000000000000000000000000000000D7
:1059D0000000FFFFFF0000000000000000000000CA
:1059E000000000000000000000002000023000065F
:1059F0001FF7FC0014000008000000000000000079
:105A0000000000000000000000000018000060001E
:105A100000400000400000200000100000080000CE
:105A20000400000400000C0000100000C6D50000B7
:105A3000000000E0380000783C00003C7800003CAA
:105A400070C0001CE1E01FFFFFF0001CE3000E1C13
:105A5000E7C0079CE78003DCEF0003DCEE0001DC1D
:105A6000FC60009CF9F07FFFFFF80000000001C01F
:105A70000E0001FFFF0001C00E0001C00E0001C0BA
:105A80000E0001FFFE0001C00E0001C00E0001C0AB
:105A90000E0001FFFE0001C00E0001C00E0000005C
:105AA0000000D6D0000000000007000000078000C2
:105AB0000007000000070000000700000007018049
:105AC0001FFFFFE01FFFFFE01E0701C01E0701C010
:105AD0001E0701C01E0701C01E0701C01E0701C02E
