:020000040800F2
:10000000C0C6002045010008D91E00084F010008A5
:10001000D51E000825030008F13F0008000000007D
:10002000000000000000000000000000ED2E0008AD
:10003000850E0008000000001D210008413700085F
:100040005F0100085F0100085F0100085F01000810
:100050005F0100085F0100085F0100085F01000800
:100060005F0100085F0100085F0100085F010008F0
:100070005F0100085F0100085F0100085F010008E0
:100080005F0100085F0100085F0100089D3E000855
:100090008D3F00085F0100085F0100085F01000854
:1000A0005F0100085F0100085F0100085F010008B0
:1000B0005F0100085F0100085F0100085F010008A0
:1000C0005F0100085F0100085F0100085F01000890
:1000D0005F010008C13B00085F0100085F010008E4
:1000E0005F0100085F0100085F0100085F01000870
:1000F0005F0100085F0100085F0100085F01000860
:100100005F0100085F0100085F0100085F0100084F
:100110005F0100085F0100085F0100085F0100083F
:100120005F0100085F0100085F0100085F0100082F
:10013000DFF80CD000F07AF800480047E1440008EE
:10014000C0C600200648804706480047FEE7FEE795
:10015000FEE7FEE7FEE7FEE7FEE7FEE7FEE7FEE777
:1001600081370008310100082DE9F0410024061B09
:10017000254671F1000605DA01240027D0EB0700BF
:1001800067EB0101161E73F1000605DA0027D2EBBA
:100190000702012567EB030300F017F886460E46B9
:1001A00017469C46AC4204D00025D0EB050E65EB0B
:1001B000010624B10020D2EB000760EB030C70466F
:1001C00031463A466346BDE8F0812DE9F05F0546C9
:1001D000002092469B4688460646814640241BE006
:1001E000284641464746224600F041F853465A46C3
:1001F000C01A914110D311461846224600F028F843
:100200002D1A67EB01084F4622460120002100F01D
:100210001FF817EB00094E41201EA4F10104DFDC9A
:10022000484631462A464346BDE8F09F064C074DF6
:1002300006E0E06840F0010394E8070098471034B6
:10024000AC42F6D3FFF778FF5067000870670008EC
:10025000202A04DB203A00FA02F100207047914086
:10026000C2F1200320FA03F3194390407047202A7B
:1002700004DB203A21FA02F00021704721FA02F350
:10028000D040C2F12002914008431946704770B532
:100290008C1810F8015B15F0070301D110F8013B31
:1002A0002A1106D110F8012B03E010F8016B01F8B8
:1002B000016B5B1EF9D12B0705D40023521E0DD410
:1002C00001F8013BFAE710F8013BCB1A921C03E05E
:1002D00013F8015B01F8015B521EF9D5A142D8D396
:1002E000002070BD10B5044624B1012C07D0022CAB
:1002F00015D10AE01021012002F0B0FE10E04FF409
:100300008051022002F05AFE0AE01021012002F082
:10031000A5FE4FF48051022002F050FE00E000BF25
:1003200000BF10BD00BFFEE70146CAB20B1243EA90
:100330000220704710B5002404E0A748005DA749DB
:100340000855641CA64800888442F6D3A348406838
:10035000A4494860A14880688860A14800881F2897
:100360000FD00220FFF7BEFF00209C490860487BA9
:100370001A22052102F036FF0021012002F010FFB1
:1003800010BD9648C07B282803D09448C07B2A28FB
:1003900016D19248407C01069048807C41EA004199
:1003A0008E48C07C41EA00208C49097D08438E4973
:1003B00008608A48C17D807D41EA00208B49086041
:1003C000864800688A4988426FD18448407B8949C1
:1003D0000968884207D88148807B012803DB7F4871
:1003E000807B10280DDD0220FFF77CFF7B49487BD6
:1003F0002422052102F0F6FE0021012002F0D0FEA9
:10040000E8E07648C07B25285FD01BDC15286FD03C
:100410000EDC08286DD006DC00285BD0032830D025
:10042000042867D176E00A2873D01228F9D12DE08C
:100430001A380A285ED2DFE800F0392EB17D33B1D8
:10044000B1B1B1438A286FD00EDC552867D006DCE5
:10045000282844D02A284ED02F28E2D154E05A2808
:1004600029D08828DDD176E0A8286DD004DC8F283B
:100470006FD09E28D5D173E0AA287BD0AF28D0D1E9
:1004800082E05649487B02F047F995E05349487BA2
:1004900002F01AF890E05149487B02F051F98BE0E4
:1004A0004E49487B02F04CF986E086E04B49487B98
:1004B00002F05AF880E04949487B02F04BF87BE0B3
:1004C0004649487B02F0E4F876E04449487B02F074
:1004D00091F871E04149487B02F03AF96CE03F49FC
:1004E000487B42490A684049096802F047F863E0DE
:1004F0001BE024E052E03949487B3C490A683A490C
:10050000096802F061F957E03449487B02F03CF990
:1005100052E02AE03149487B01F0BEFF4CE02F4910
:10052000487B01F0F5FF47E029E02C49487B01F0CA
:10053000EFFF41E02949487B01F0EAFF3CE0274911
:10054000487B01F0E5FF37E02449487B01F0E0FFFC
:1005500032E01EE00EE02149487B01F0D9FF2BE09C
:100560001E49487B01F0D4FF26E01C49487B01F07E
:10057000CFFF21E01949487B01F0CAFF1CE0174971
:10058000487B01F0C5FF17E01449487B01F0C0FF2C
:1005900012E01249487B01F0BBFF0DE00220FFF79B
:1005A000A1FE0E49487B2022052102F01BFE0021FE
:1005B000012002F0F5FD00BF0CE00220FFF792FEE3
:1005C0000649487B2022052102F00CFE0021012073
:1005D00002F0E6FD00BFD3E650BE002090BE002032
:1005E00016010020B0BE0020180100201C010020D0
:1005F000555342437801002010B5002449E047F6E6
:10060000FF70294908602948008800F00F00284938
:10061000087008460078274901EB8000D0F8000CEC
:1006200084B204F40040C8B12148007801EB800096
:10063000D0F8000CC0F30E0048F68F7108401C493A
:1006400009781C4A02EB8101C1F8000C18490978AD
:10065000491E194A52F8210080471AE004F0800030
:10066000B8B113480078134901EB8000D0F8000CB2
:1006700048F60F7108400E4909780E4A02EB8101D5
:10068000C1F8000C0A490978491E0C4A52F82100A9
:1006900080470548006880B20449088000F40040A3
:1006A0000028ACD110BD0000445C00403C0100209B
:1006B00048000020005000405C0100204001002064
:1006C00010B5002473E147F6FF70BF490860BF48CA
:1006D000008800F00F00BE49087008460078002826
:1006E0007ED1B9484438006800F44050B9490880C8
:1006F000B5484438006800F03000B7490880B24976
:10070000443909684BF68F7201EA020080F4005008
:10071000AD4944390860096848F6BF7201EA020031
:1007200080F02000A84944390860A848008800F0FB
:100730001000002838D10846006848F60F710840BC
:10074000A1494439086000F01FFF9F4944390968F6
:100750004BF68F7201EA02009E49098801F480512C
:1007600009B180F480509B49098801F4005109B116
:1007700080F40050944944390860096848F6BF7213
:1007800001EA02009449097801F0100109B180F0F2
:1007900010009149097801F0200109B180F0200092
:1007A00089494439086010BD87484438006884B2DC
:1007B00004F08000D8B384484438006848F60F71CC
:1007C000084081494439086000F0DEFE7E49443922
:1007D00009684BF68F7201EA02007E49098800E041
:1007E000A6E001F4805109B180F48050794909886C
:1007F00001F4005109B180F4005073494439086094
:10080000096848F6BF7201EA02007349097801F0ED
:10081000100109B180F010006F49097801F0200142
:1008200009B180F02000684944390860BBE7FFE760
:1008300004F40060D8B3644844380068C0F30E0084
:1008400048F68F71084060494439086002F0DAFCCC
:100850005D49443909684BF68F7201EA02005D492F
:10086000098801F4805109B180F480505949098800
:1008700001F4005109B180F4005053494439086033
:10088000096848F6BF7201EA02005349097801F08D
:10089000100109B180F010004F49097801F02001E2
:1008A00009B180F020004849443908607BE7FFE740
:1008B00004F4004000287AD0434844380068C0F36C
:1008C0000E0048F68F7108403F494439086001F036
:1008D000E9FB3D49443909684BF68F7201EA020091
:1008E0003C49098801F4805109B180F480503949AC
:1008F000098801F4005109B180F4005032494439AB
:100900000860096848F6BF7201EA020032490978B6
:1009100001F0100109B180F010002F49097801F0B1
:10092000200109B180F020002749443908603AE7E6
:1009300027480078294901EB8000D0F8000C84B2E8
:1009400004F40040C0B12248007801EB8000D0F8E8
:10095000000CC0F30E0048F68F7108401C4909785E
:100960001E4A02EB8101C1F8000C19490978491EA1
:100970001B4A52F82100804704F08000B8B11448A7
:100980000078164901EB8000D0F8000C48F60F7192
:1009900008400F490978114A02EB8101C1F8000CA7
:1009A0000B490978491E0F4A52F821008047064832
:1009B000006880B20549088000F4004000287FF4F8
:1009C00082AE00BFEFE60000445C00403C01002026
:1009D000480000205C0000205E0000200050004025
:1009E0005C010020400100200B4A02EB8001D1F89D
:1009F000001C01F4804169B102EB8001D1F8001CB8
:100A000048F68F72114041F48041034B03EB8002A2
:100A1000C2F8001C70470000005000400B4A02EB77
:100A20008001D1F8001C01F0400169B102EB8001A6
:100A3000D1F8001C48F68F72114041F04001034B81
:100A400003EB8002C2F8001C704700000050004019
:100A5000064A02EB8001D1F8001C48F68F62114073
:100A6000024B03EB8002C2F8001C704700500040AC
:100A70002DE9F0472848006800F110052E88264827
:100A80000068077AD6B9042F18D1244800780128C5
:100A90000FD100212248006880B2801C214A42F810
:100AA000101030202049088000BF00201B4908702A
:100AB00003E0072710201C49088027E0AC88A642E5
:100AC00001D8042000E002200746B44200D9344691
:100AD000A0B2A96888478046002000F013FD814637
:100AE000A2B24946404603F085FAA1B2002002F0C6
:100AF000A7FA2888001B2880688820446880302056
:100B00000949088000020949088000BF02490968B4
:100B10000F72BDE8F08700004C0000204600002066
:100B2000505C0040006000405E0000205C0000203F
:100B30002DE9F0412848006800F110042688A068DB
:100B4000C0B1BEB1A588B54200D93546A8B2A168EA
:100B5000884707462088401B2080608828446080A2
:100B6000002000F0ADFC8046AAB24146384601F0B4
:100B7000C1FA00BF208850B14FF440501749088097
:100B80000021084602F05CFA3020154908802088D0
:100B9000A188884204DB03200F490968087218E025
:100BA0002088002804DD05200B490968087210E040
:100BB000208870B906200849096808720021094890
:100BC000006880B2801C084A42F8101030200449A6
:100BD0000880BDE8F08100004C0000205C0000208F
:100BE0005E000020505C0040006000402DE9F84F9E
:100BF0009B48006845780027BA46062D1BD19848C7
:100C00000068007800F07F00002813D1944909683B
:100C10008878012803D193490968CF690AE002283E
:100C200003D1904909680F6A04E0032802D18D4975
:100C300009684F6A94E0002D64D1894800684088B3
:100C400000285FD186480068C08802285AD18448AD
:100C500000680079002855D181480068007800F0CC
:100C60007F0028B97E480068808808B97E4F77E009
:100C70007B480068007800F07F00012810D1784997
:100C800009684879774909688A69002190470028EE
:100C900066D173480068807A002861D0724F5FE0A7
:100CA0006F480068007800F07F00022858D16C4837
:100CB0000068407900F00F0669480068407900F04C
:100CC000700967480068407900F0800038B16749D2
:100CD00001EB8600D0F8000C00F0300806E0634914
:100CE00001EB8600D0F8000C00F440586048007812
:100CF000B04235D9B9F1000F32D1B8F1000F2FD081
:100D0000594F2DE0082D07D155480068007800F0B4
:100D10007F0028BB574F23E00A2D21D1504800689F
:100D2000007800F07F0001281AD14D480068807AD1
:100D3000B0B14B480068408890B9494800680079D4
:100D400070B947480068C088012809D1444909683A
:100D50004879444909688A690021904700B9464F9B
:100D600057B13F480068A0F812A03D48006887616D
:100D70000020B84700240FE0394A12685078394AF9
:100D80001268116988470446032C05D109203449AB
:100D900009680872BDE8F88F31480068008A4FF68C
:100DA000FF71884204D109202D4909680872F1E7D2
:100DB000022C03D02A480068008A20B9082028495C
:100DC00009680872E6E726480068007800F08000AD
:100DD000E0B323480068C088009021480068008A7A
:100DE0000099884204D91E4900980968088223E0C6
:100DF0001B480068008A1A490968C98888421BDABA
:100E000017480068008A1749096891F82C10884231
:100E100003DA0020194908700EE011480068008AC2
:100E20001049096891F82C1090FBF1F201FB1200B7
:100E300010B90120114908700A48006890F82C1078
:100E4000074800688182FFF713FE07E0FFE70320F1
:100E500003490968087200030949088000BF99E73F
:100E60004C000020500000208D340008005000404D
:100E70007C01002011340008613400084600002085
:100E80005C0000207047000010B50446214610A009
:100E900003F06EF9240300F043F900F0DBF80020C2
:100EA0000D490860202001F0B9FFC4F3074001F0AC
:100EB000B5FFC4F3072001F0B1FFE0B201F0AEFFCF
:100EC00001200649C1F8B40100F0C4F810BD0000CB
:100ED00066653A25780D0A00B401244200002442D8
:100EE00008B501214FF4C47001F07EF94FF40050B1
:100EF000ADF8000010208DF8030003208DF80200EB
:100F000069461E4800F04FFA4FF400511B4800F0AC
:100F1000D5FA4FF48040ADF800006946174800F05C
:100F200042FA4FF48041154800F0C8FA4FF480505F
:100F3000ADF8000010208DF803006946104800F05D
:100F400032FA4FF480510E4800F0B8FA4FF40070B6
:100F5000ADF8000069460B4800F025FA4FF4007127
:100F6000084800F0ABFA01200749086001F010FFC3
:100F700000F036F80549088008BD00000020014057
:100F8000000C0140001C0140B4012442220000205A
:100F90002DE9F04106460C46174600200F4908602F
:100FA000032001F03BFFC4F3074001F037FFC4F317
:100FB000072001F033FFE0B201F030FF002505E02B
:100FC000FF2001F02BFF7055681C85B2BD42F7DB96
:100FD000012002490860BDE8F0810000B40124420C
:100FE00010B5002400200E490860902001F016FF83
:100FF000002001F013FF002001F010FF002001F09D
:101000000DFFFF2001F00AFF44EA0024FF2001F059
:1010100005FF044301200349C1F8B401204610BD77
:10102000B40124420000244210B5002400200749E6
:101030000860052001F0F2FEFF2001F0EFFE0446FB
:1010400001200349C1F8B401204610BDB401244277
:101050000000244210B500BFFFF7E6FF00F00100DA
:101060000028F9D110BD00002DE9F05F81460F4640
:101070001646DFF8A8B04FEA1738C7F30B0ACAF5CF
:101080008054A64200DC344644E04FEA08314FF475
:1010900080525846FFF77CFF002508E00AEB050068
:1010A0001BF80000FF2800D003E0681C85B2A542B1
:1010B000F4DB00BFA54216DA4046FFF7E5FE002547
:1010C00007E019F8050005EB0A010BF80100681CA0
:1010D00085B2A542F5DB4FEA08314FF480525846FD
:1010E00000F02EF804E022463946484600F028F881
:1010F000A64200D10FE008F101084FF0000AA14418
:101100002744301B86B2B6F5805F02DD4FF4805471
:1011100000E03446B9E700BFBDE8F09F18020020A8
:1011200010B5002004490860062001F077FE012078
:101130000249C1F8B40110BDB401244200002442A8
:101140002DE9F04107460E461446F0B2C0F5807511
:10115000AC4200DC254612E02A463146384600F013
:1011600013F8AC4200D10BE02F442E44601B84B234
:10117000B4F5807F02DD4FF4807500E02546EBE793
:1011800000BFBDE8F08100002DE9F04106460C46A5
:101190001746FFF7C5FF00200F490860022001F045
:1011A0003DFEC4F3074001F039FEC4F3072001F00F
:1011B00035FEE0B201F032FE002504E0705D01F082
:1011C0002DFE681C85B2BD42F8DB01200249086093
:1011D000FFF740FFBDE8F081B401244210B500F0F4
:1011E000B9FD10BD10B500F0FDFD10BD014908604E
:1011F0007047000014040140002123498279002A2D
:101200003AD00A46126803689A430B461A600A1DD0
:10121000126803689A430B1D1A60027911440A6828
:1012200003681A430A60184A0832126803689A432E
:10123000154B08331A601A1D126803689A43124B43
:101240000C331A604279102A0ED11A1F12680368F3
:101250001A430D4B08331A601A1D126803681A43AB
:10126000094B0C331A600DE00749427911440A68B2
:1012700003681A430A6005E0027911440A680368AA
:101280009A430A60704700000004014051B1820097
:10129000A2F1C042126842F001038200A2F1C042F2
:1012A000136009E08200A2F1C0421268034B1A40A9
:1012B0008300A3F1C0431A6070470000FEFF0F00D7
:1012C000D0E901121143C268114302691143426916
:1012D000114382691143C2691143026A1143426A90
:1012E0001143826A1143C26A1143026B11430268BF
:1012F0009200A2F1C0421160816808290BD10168F7
:101300008900A1F1C041096841F0400201688900EB
:10131000A1F1C0410A60416B0968426B526841EA21
:101320000211426B926841EA0221426B928941EAC2
:101330000241426B128A41EA0251426B127D41EA3C
:101340000261426B926911430268521C9200A2F141
:10135000C0421160C16AB1F5804F1BD1816B096831
:10136000826B526841EA0211826B926841EA022163
:10137000826B128A41EA0251826B127D41EA02615C
:10138000826B9269114302689200A2F1C042C2F8D6
:10139000041107E06FF0704201688900A1F1C041BB
:1013A000C1F8042170472DE9F041024600250026CE
:1013B000002000230024002791F803C00CF00F0543
:1013C00091F803C00CF0100CBCF1000F03D091F8A1
:1013D00002C04CEA050591F800C0BCF1000F31D005
:1013E000146800202BE04FF0010C0CFA00F3B1F868
:1013F00000C00CEA03069E4220D183004FF00F0C80
:101400000CFA03F7BC4305FA03FC4CEA040491F818
:1014100003C0BCF1280F06D14FF0010C0CFA00FC00
:10142000C2F814C00AE091F803C0BCF1480F05D11E
:101430004FF0010C0CFA00FCC2F810C0401C082848
:10144000D1D31460B1F800C0BCF1FF0F34DD546893
:1014500000202EE000F1080C4FF0010808FA0CF310
:10146000B1F800C00CEA03069E4221D183004FF080
:101470000F0C0CFA03F7BC4305FA03FC4CEA040416
:1014800091F803C0BCF1280F05D100F1080C08FA4F
:101490000CF8C2F8148091F803C0BCF1480F07D1D2
:1014A00000F1080C4FF0010808FA0CF8C2F810809F
:1014B000401C0828CED35460BDE8F081016170471C
:1014C00001460548006880B200EBC100001D034AD8
:1014D00032F8100080B27047505C0040006000405D
:1014E00001460648006880B200EBC100801D044A36
:1014F00032F81000C0F3090070470000505C004053
:101500000060004001460548006880B200EBC10061
:10151000034A32F8100080B270470000505C00406F
:1015200000600040014629B90120034A1268108278
:10153000002070470148FCE74C00002078010020A3
:1015400010B50F4B18681B1D19681B1D1A68A8B130
:101550000C4CA070030A2371030CA371030E2372B9
:10156000A1720B0A23730B0CA3730B0E2374A274CA
:10157000130A2375130CA375130E237610BD0000F8
:10158000E8F7FF1F2001002010B518480068047A12
:10159000022C01D0042C05D1FFF76AFA1348006829
:1015A000047A1CE0062C19D1104800684078052800
:1015B0000ED10E480068007800F07F0040B90B495A
:1015C0000968C87801F09CFC09490968086A8047E5
:1015D0000849096888688047082400E0082403490E
:1015E00009680C7200F09CFD10BD00004C0000204A
:1015F000580000205000002008B50121442000F0D0
:10160000F3FD0120ADF8000028208DF80300032031
:101610008DF8020069460848FFF7C5FE1C20ADF8AA
:10162000000048208DF8030003208DF80200694671
:101630000248FFF7B8FE08BD00080140001801404D
:1016400070B506460F484088401E83B20D4800889A
:10165000401E82B20021084600F08CF800240CE005
:10166000002504E0304600F0BBF9681C85B205484F
:101670004088A842F6DC601C84B202480088A04280
:10168000EEDC70BD1800002000B50246B2B90120A2
:1016900000F09AF94FF4807000F09CF9032000F0FC
:1016A00093F941F2300000F095F94FF4C8700E49FB
:1016B0004880F02008800020887114E0012000F0AC
:1016C00083F9002000F086F9032000F07DF941F253
:1016D000380000F07FF9F020034948804FF4C870CB
:1016E00008800120887100BD1800002070B50446F4
:1016F0000D4616462B4622462946204600F03AF86B
:10170000304600F06DF970BD2DE9F04304460D46FA
:1017100016461F46DDF81C80B44201DCBD4201DDE7
:10172000BDE8F083781E83B2701E82B2294620463F
:1017300000F020F8301B401C84B2781B401C85B29E
:101740000BE0A94602E0404600F04AF95FEA0900D2
:10175000A9F101011FFA81F9F5D12000A4F10101DD
:101760008CB2EED100BFDBE7014800887047000073
:101770000008006C30B505460C462E48807950BBF9
:101780004FF4047000F020F9284600F023F940F2ED
:10179000112000F019F9104600F01CF940F2122057
:1017A00000F012F9204600F015F940F2132000F085
:1017B0000BF9184600F00EF94FF4007000F004F930
:1017C000284600F007F940F2012000F0FDF820461D
:1017D00000F000F929E040F2122000F0F5F8284668
:1017E00000F0F8F840F2132000F0EEF8104600F098
:1017F000F1F84FF4047000F0E7F8204600F0EAF842
:1018000040F2112000F0E0F8184600F0E3F840F252
:10181000012000F0D9F8284600F0DCF84FF4007001
:1018200000F0D2F8204600F0D5F840F2022000F097
:10183000CBF830BD180000202DE9F84F80460E4649
:1018400017461C46B3462046E31704EB5373DB10E0
:1018500021464FEAE47C04EB5C7C4FEAEC0CA4EB01
:10186000CC0CBCF1000F02D04FF0010C01E04FF0A6
:10187000000C6344224604EBD27C4FEA6C0C03FB61
:101880000CF3DBB20093A7F12000C7B2002556E0AD
:101890000C2C07D107EB47002B4901EB800010F817
:1018A000059013E0102C05D1284800EB071010F824
:1018B00005900BE0182C07D107EBC700244901EB7A
:1018C000800010F8059001E0BDE8F88F4FF0000AA5
:1018D0002FE009F0800030B11E48028831464046B2
:1018E000FFF704FF07E00A9828B91B480288314631
:1018F0004046FFF7FBFE4FEA49604FEA1069701C53
:1019000086B216484088B04200DCDDE7A6EB0B004B
:10191000A0420AD15E4608F101001FFA80F80F4884
:101920000088404500DCCFE706E00AF1010000F046
:10193000FF0ABAF1080FCCDB00BF681CC5B20098E3
:101940008542A5DB00BFBFE7D04A0008444F00082E
:101950003455000814000020160000201800002054
:101960002DE9F84704460D4690469946DDE909679A
:1019700004F0FF0A08EB04001FFA80F809EB0500E9
:101980001FFA80F916E0444502DB5446A81985B2D7
:101990004D4500DB14E0002000903A78334629469C
:1019A0002046FFF749FF304606EBD07104EB61019A
:1019B0008CB27F1C38787E2802DC38782028E2DA66
:1019C00000BFBDE8F88700000149088070470000AB
:1019D000FE07006C01490880704700000008006C99
:1019E00001490880704700000008006C08B501211B
:1019F000102000F0F9FBFF20ADF8000010208DF85A
:101A0000030003208DF8020069460448FFF7CBFC71
:101A1000FF210248FFF752FD08BD00000010014001
:101A200001200149086070478001224200200149DD
:101A30000860704780012242014621B1012904D08B
:101A4000022906D103E0002070470020FCE70120B6
:101A5000FAE70120F8E72DE9F04106460F469046E7
:101A60001D4616B1012E0ED106E06A12790A4046D3
:101A700001F018F8044609E000242A463946404699
:101A8000FFF786FA02E00120BDE8F08100BF0CB14B
:101A90000120F9E70020F7E72DE9F04106460F465F
:101AA00090461D4616B1012E0ED106E06A12790A43
:101AB000404601F025F9044609E000242A4639464B
:101AC0004046FFF7D1FA02E00120BDE8F08100BFF7
:101AD0000CB10120F9E70020F7E7000070B50546DA
:101AE000002414480068007800F07F00212810D1FD
:101AF000FE2D0ED10F480068408850B90D4800688F
:101B0000808830B90B480068C088012801D10A4C90
:101B100001E0022070BD0CB90220FBE70548006817
:101B2000846100210348006841820020A047002012
:101B3000F0E700004C0000202515000810B5044611
:101B40000249204601F07AFC10BD0000DC010020B3
:101B500010B504460249204601F070FC10BD00009B
:101B6000D401002070B5054606480068C478052CED
:101B700001DD002070BD044800EBC401284601F0DF
:101B80005DFCF7E74C000020E4010020024600293C
:101B900001DD02207047002A01DD0220FAE7002063
:101BA000F8E7000010B5044611480068007800F01E
:101BB0007F0021281AD1FF2C18D10D4800684088D9
:101BC000A0B90B480068808880B909480068C088BF
:101BD00060B90120FEF722FF0220FEF705FF05484D
:101BE0000549086000200549087010BD0220FCE787
:101BF0004C0000205553424390BE002014010020A9
:101C000010B50020324988723248C07932490968DB
:101C10004872002001F06CF94FF40071002001F0CF
:101C200039FA2021002001F019FA1821002001F0D2
:101C30008DF92A4890F82C10002001F099F95821CC
:101C4000002001F0EDF90020FEF702FF002001F076
:101C5000D1F90021012001F01DFA9821012001F0A5
:101C6000DFF92021012001F0F9F90021012001F024
:101C7000A5F90021022001F00DFAD821022001F07F
:101C800065F9164890F82C10022001F071F94FF414
:101C90004051022001F092F90021022001F0DEF90A
:101CA0000E4890F82C10002001F062F9002001F09D
:101CB000A1F9002001F024F9012009490860094830
:101CC0000949086000200949087002F063F910BD55
:101CD00020BC0020E26600084C00002080010020AB
:101CE0000C0200205553424390BE002014010020F6
:101CF0007047704710B5FFF723FC00200A490968B8
:101D0000887200F031FA0020084908604FF404405E
:101D100007490880084600880449091F0860002018
:101D20000449086010BD00004C000020445C0040E5
:101D3000560000200C02002010B504480068044939
:101D4000884202D00220FEF7CDFA10BD90BE0020DE
:101D50005553424310B51E48007840F010001C490E
:101D600008701C480078022810D0032823D00428CB
:101D700002D0052829D100E000BF002015490870D5
:101D80004FF44051022001F019F91FE01248C07BC6
:101D900028280ED10E48007840F002000C49087047
:101DA0000D49487B0D490A680D49096800F0E6FBBA
:101DB00000BF00BF0AE00121002001F0F1F94FF45B
:101DC0004051022001F0FAF800E000BF00BF10BD52
:101DD000810000201401002090BE00201C01002082
:101DE0001801002010B52548007840F01000234964
:101DF00008702348C47B0220FFF772FB214908804A
:101E000008460288D821204800F074F91F4800785D
:101E100010B1012822D102E0FEF78CFA2CE02A2C26
:101E20000ED11648007840F001001449087014499A
:101E3000487B17490A681749096800F0C5FC1BE090
:101E40000120FEF74FFA0E49487B2422052101F0BC
:101E5000C9F90021022001F0A3F90DE00220FEF7EC
:101E600041FA0749487B2422052101F0BBF90021F2
:101E7000022001F095F900BF00BF10BD81000020D5
:101E800090BE00201601002050BE0020140100204A
:101E90001C0100201801002010B508480068807A55
:101EA00058B10520064908600120FEF7B7FD022061
:101EB000FEF79AFD00200349087010BD4C00002079
:101EC0000C02002014010020042001490860704722
:101ED0000C02002000BFFEE77047704770B500217C
:101EE00000230F22C47804B3154C246804F4E06482
:101EF000C4F5E064210AC1F10403CA40447804FA3D
:101F000003F184781440214309010E4C0678A15551
:101F1000047804F01F050124AC4005786D11AD0074
:101F200005F1E025C5F8004109E0047804F01F053B
:101F30000124AC40044D0678761145F8264070BD6A
:101F40000CED00E000E400E080E100E00249014324
:101F5000024A1160704700000000FA050CED00E035
:101F600070B502264A4800684478494800680078FD
:101F700000F07F0000284AD1092C03D101F0FEFABD
:101F8000064665E0052C14D141480068C0787F28DA
:101F90000BDC3F480068807838B93D48006880888D
:101FA00018B93B480068807A08B108256BE0002624
:101FB0004EE0032C14D136480068C07801280DD1BA
:101FC00033480068808848B931480068407A00F09A
:101FD000200018B101F0F6FA064639E0022637E093
:101FE000012C35D12A480068C07801280DD1284835
:101FF0000068808848B926480068407A00F02000D0
:1020000018B101F057F9064622E0022620E02048E8
:102010000068007800F07F00012805D10B2C17D153
:1020200001F044FB064613E019480068007800F010
:102030007F0002280BD1012C03D101F03BF90646A9
:1020400006E0032C04D101F0D1FA064600E0022696
:102050004EB1E0B20F4A1268516988470646032E16
:1020600001D109250FE00EB108250CE0062500215D
:102070000948006880B2801C084A42F810103020DD
:102080000749088000BF024909680D7270BD000051
:102090004C00002050000020505C004000600040D8
:1020A0005E00002010B511480068047A032C01D0AE
:1020B000052C05D1FEF73CFD0C480068047A0EE0C3
:1020C000072C05D10A490968C8688047082406E03A
:1020D000022C01D0042C01D1082400E0082403497B
:1020E00009680C7200F01CF810BD00004C000020C4
:1020F00050000020F0B5561C7510074E06EB410449
:102100002B4605E034F8047B20F8017B401C5B1E65
:10211000002BF7D1F0BD00000060004070470000C8
:1021200010B50D4890F82C10002000F021FF0B484E
:102130000068007A082805D140020949088010206B
:102140000849088005480068007A092801D1012063
:1021500010BD0020FCE70000800100204C000020A2
:102160005C0000205E00002010B5012001F08AFE16
:1021700001240B48046000200A49088008460088B2
:10218000074908600020091D08604FF4E050054928
:1021900008800846008802490860002010BD000041
:1021A000405C00405600002029B1064A52690243B3
:1021B000044B5A6104E0034A52698243014B5A615D
:1021C000704700000010024029B1064AD26902435C
:1021D000044BDA6104E0034AD2698243014BDA61BD
:1021E000704700000010024029B1064A926902437C
:1021F000044B9A6104E0034A92698243014B9A615D
:10220000704700000010024030B500210022002479
:1022100000232D4D6D6805F00C0121B1042905D076
:10222000082923D105E0294D056022E0274D0560EE
:102230001FE0254D6D6805F47012234D6D6805F49F
:102240008034022505EB92421CB9214D55430560AF
:102250000BE01D4D6D6805F400351DB11C4D554357
:10226000056002E0194D5543056002E0174D056019
:1022700000BF00BF144D6D6805F0F0010909154D50
:102280006B5C0568DD4045600F4D6D6805F4E061ED
:10229000090A104D6B5C4568DD4085600A4D6D682C
:1022A00005F46051C90A0B4D6B5C4568DD40C560A3
:1022B000054D6D6805F44041890B074D6B5CC568A1
:1022C000B5FBF3F5056130BD0010024000127A0045
:1022D00000093D00000000201000002001490860B6
:1022E00070470000D80042422DE9F04104460D46F7
:1022F00016463C48007870B93B4850F824006843C3
:102300003A490860384850F824007043384908605A
:102310000120344908703348007801284ED13548EF
:10232000006800BB304830F8240083B2324A2F489E
:1023300001682046FFF78FFBC7B22FB12F48007806
:1023400040F008002D490870402298212A4801F0E9
:1023500051FE254850F824004038264908604020A6
:102360002749086011E02449254A1268881840224C
:10237000982101F03FFE1F48006840381D49086061
:102380001F48006840301E4908604021012000F0CD
:1023900057FE3021012000F061FE144800684030F3
:1023A0001249086012480068403811490860154811
:1023B0008068403813498860FFF738FB0C48006894
:1023C00070B900200B4908600D4908600749086092
:1023D00003200D490870002002490870FFF720FB18
:1023E000BDE8F08180000020600000208400002013
:1023F000880000207000002050BC002081000020D8
:1024000074000020B0BE0020140100202DE9F0412E
:1024100004460D4617461E46B8191C4951F82410AB
:10242000884213D92A2D02D10220FDF75BFF00203C
:10243000FDF758FF21220521204600F0D3FE0021A0
:10244000012000F0ADFE0020BDE8F0811048816859
:10245000104850F824007043814214D02A2D03D133
:102460000220FDF73FFF02E00020FDF73BFF084997
:10247000487B2422052100F0B5FE0021012000F058
:102480008FFE0020E0E70120DEE70000680000206A
:1024900090BE00206000002010B504462046FFF7E3
:1024A000CBFA68B10749487B3A22022100F09AFE34
:1024B0000121084600F074FE0020FDF713FF10BD57
:1024C00000BFFCE790BE002070B506460C48007CBB
:1024D00000F0010010B10B4C05250BE00EB90A4CC1
:1024E00000E00A4C0648C07C242802DC0448C57C75
:1024F00000E024252946204601F042FB70BD000083
:1025000090BE00209400002099000020BD00002013
:1025100010B504460E48806818B90020FDF7E2FEA9
:102520000BE00B48007B00F0800018B10020FDF7A5
:10253000D9FE02E00220FDF7D5FE0549487B2022A6
:10254000052100F04FFE0021012000F029FE10BD02
:1025500090BE002010B504460821024801F010FB8F
:1025600010BD0000E500002010B50446042102481B
:1025700001F006FB10BD0000E100002070B506462A
:102580000C4615461948007820BB1949487B2B4654
:1025900022462821FFF73AFF00B970BD1448007B9E
:1025A00000F0800040B10220104908702A46214600
:1025B0003046FFF799FE0CE00220FDF793FE0C4930
:1025C000487B2422052100F00DFE0121084600F081
:1025D000E7FDE2E705480078022804D12A462146B3
:1025E0003046FFF781FE00BFD7E70000140100204E
:1025F00090BE002010B504462046FFF71DFA68B1D2
:102600001F49487B3A22022100F0ECFD01210846D7
:1026100000F0C6FD0020FDF765FE10BD194850F81A
:102620002400401E000E18490870164850F8240077
:10263000401E000C4870134830F82400401E000A69
:102640008870104810F82400401EC8700F4850F8D9
:102650002400000E08710D4850F82400000C487149
:102660000A4830F82400000A8871084810F824004D
:10267000C8710821044801F083FA00BFCDE70000CB
:1026800090BE002068000020FF00002060000020B5
:1026900010B504462046FFF7CFF968B11A49487BC8
:1026A0003A22022100F09EFD0121084600F078FD4B
:1026B0000020FDF717FE10BD144850F82400000E4E
:1026C00013490871114850F82400000C48710F4854
:1026D00030F82400000A88710C4810F82400C871F2
:1026E0000C4850F82400000C48720A4830F82400C6
:1026F000000A8872074810F82400C8720C210448A8
:1027000001F03EFA00BFD6E790BE0020680000202E
:10271000070100206000002070B505460648C07C17
:10272000122802DC0448C47C00E01224214603483D
:1027300001F026FA70BD000090BE0020ED000020E0
:1027400010B504460121002000F02AFD10BD000054
:1027500010B504462046FFF76FF968B10949487B78
:102760003A22022100F03EFD0121084600F018FD4A
:102770000020FDF7B7FD10BD0121002000F010FD85
:1027800000BFF8E790BE002010B504460D488068F1
:1027900048B90C48007C00F0040020B90121002059
:1027A00000F0FEFC0CE00220FDF79CFD0549487B93
:1027B0002422052100F016FD0021012000F0F0FC8C
:1027C00010BD000090BE002070B506460C461546B0
:1027D0001948007820BB1949487B2B4622462A21FC
:1027E000FFF714FE00B970BD1448007B00F08000B4
:1027F00040B90120104908704FF44051022000F008
:10280000DDFB0CE00020FDF76DFD0C49487B242228
:10281000052100F0E7FC0021012000F0C1FCE2E707
:1028200005480078012804D12A462146304601F0A7
:10283000FDFB00BFD7E700001401002090BE002080
:1028400010B5012002490860FF2000F0C3F910BD57
:10285000B801244270B5054601220021092000F08C
:1028600002FA044624B91021284600F055F904461E
:10287000FFF7E6FF0CB1012070BD0020FCE770B54A
:1028800005464FF6FF7401E0601E84B2FF2000F0A1
:10289000A1F9A84201D0002CF6D10CB9FF2070BDDF
:1028A0000020FCE77FB56846FFF7D4FF10B1002099
:1028B00004B070BD9DF8000000F0C000402809D1B0
:1028C0009DF809009DF8081000EB0120401C84B21F
:1028D000A50220E09DF8050000F00F009DF80A1009
:1028E00000EBD1109DF8091001F0030100EB41004D
:1028F000861C9DF8080080119DF8071000EB8100F0
:102900009DF8061001F0030100EB8120441CA6F1A4
:10291000090004FA00F52846CAE70000F8B500F0FF
:1029200017F900F062F9002504E0FF2000F052F9E9
:10293000681C85B20A2DF8DB142600BF9522002101
:10294000084600F090F90446012C04D03000A6F1AE
:1029500001018EB2F2D1002051490870012C4AD1F8
:1029600087224FF4D571082000F07DF9012847D166
:10297000002506E0FF2000F02DF90DF80500681C89
:1029800085B2042DF6DB9DF80200012879D19DF86F
:102990000300AA2875D14FF6FE7600BF0122002160
:1029A000372000F060F901229107292000F05BF93F
:1029B000044624B13000A6F101018EB2EED1002E02
:1029C0005FD0012200213A2000F04DF9002858D1B3
:1029D000002506E0FF2000F0FDF80DF80500681C5A
:1029E00085B2042DF6DB9DF8000000F0400018B120
:1029F00006202B49087044E004202949087040E073
:102A000001220021372000F02EF901220021292087
:102A100000F029F90446012C17DC02202049087037
:102A20004FF6FE7600BF01220021372000F01BF98F
:102A300001220021292000F016F90446BCB1300023
:102A4000A6F101018EB2EED111E001201449087007
:102A50004FF6FE7600BF01220021104600F003F978
:102A6000044624B13000A6F101018EB2F3D12EB19B
:102A700001225102102000F0F6F810B100200849A0
:102A80000870FFF7DDFE00F0ABF80548007808B1EC
:102A90000020F8BD0CB12046FBE7AA20F9E70000B2
:102AA000200000202DE9F04106460F461546194842
:102AB0000078062800D07F02012D0CD10122394672
:102AC000112000F0D0F80446FCB96902304600F04D
:102AD00023F8044619E001223946122000F0C3F819
:102AE000044600BF4FF40071304600F015F804466C
:102AF00006F50076681EC0B2050001D0002CF1D0AA
:102B0000012200210C2000F0AEF8FFF799FE2046CC
:102B1000BDE8F0812000002070B504460D46FE207F
:102B2000FFF7ADFE08B1012070BD04E0FF2000F00A
:102B300075F92070641C2800A5F101018DB2F5D152
:102B4000FF2000F047F8FF2000F044F80020EBE7FA
:102B500008B501214FF4C470FFF746FB4FF48050D5
:102B6000ADF8000010208DF8030003208DF802005E
:102B700069461448FEF717FC4FF480511148FEF7E0
:102B80009DFC4FF40070ADF8000069460E48FEF75A
:102B90000AFC4FF400710C48FEF790FC4FF4C04063
:102BA000ADF8000069460948FEF7FDFB4FF40051FF
:102BB0000648FEF783FC00F0EBF8012004490860AA
:102BC00008BD0000000C0140001C01400020014035
:102BD000B801244210B50446204600F01FF910BD8C
:102BE00010B5002000F036F910BD10B5382000F007
:102BF00031F910BD10B500200549086000F06FF8EC
:102C000008B9002010BDFFF71BFE0120FAE7000005
:102C1000B801244270B506460D4600F060F808B1D0
:102C2000012070BD2846FFF7D5FFFD2D19D00024E7
:102C300004E0305D00F0F2F8601C84B2B4F5007F6F
:102C4000F7DBFF20FFF7C6FFFF20FFF7C3FFFF20E2
:102C5000FFF7C0FF044604F01F00052801D0022042
:102C6000DFE70020DDE72DE9F04105460C46174679
:102C70004FF00008FFF7E4FDFFF7BCFF10B1FF20A5
:102C8000BDE8F08145F04000FFF7A4FF200EFFF7FC
:102C9000A1FFC4F30740FFF79DFFC4F30720FFF730
:102CA00099FFE0B2FFF796FF3846FFF793FF0C2D30
:102CB00002D1FF20FFF78EFF4FF01F0800BFFF205B
:102CC000FFF788FF064606F0800030B15FEA080093
:102CD000A8F1010101F0FF08F1D13046D0E710B5AD
:102CE000002400BFFF20FFF775FFFF2801D100205F
:102CF00010BD641C6FF07F408442F3D30120F7E7DE
:102D00002DE9F04106460F46154620480078062872
:102D100000D07F02012D0CD1012239461820FFF787
:102D2000A2FF04466CBBFE213046FFF773FF04464A
:102D300027E016480078012809D001220021372019
:102D4000FFF791FF012229461720FFF78CFF012290
:102D500039461920FFF787FF044694B900BFFC21CC
:102D60003046FFF757FF044606F50076681EC0B2EE
:102D7000050001D0002CF2D0FD210020FFF74AFF12
:102D80000446FFF75DFD2046BDE8F08120000020ED
:102D900000B587B001210820FFF726FA012188033A
:102DA000FFF712FA4FF46040ADF8180018208DF8C4
:102DB0001B0003208DF81A0006A91648FEF7F3FA47
:102DC0000020ADF804004FF48270ADF8060000203A
:102DD000ADF808000220ADF80A000120ADF80C00A3
:102DE0004002ADF80E003820ADF810000020ADF81C
:102DF00012000720ADF8140001A9074800F058F8A8
:102E00000121054800F03AF8FF2000F007F807B06C
:102E100000BD0000000C01400038004010B5044621
:102E200000BF02210A4800F035F80028F9D02146F9
:102E3000074800F03BF800BF0121054800F02AF8E0
:102E40000028F9D0024800F02EF8C0B210BD0000F2
:102E50000038004010B50446074800884FF6C77197
:102E60000840054908800846008820430880012161
:102E7000014800F003F810BD0038004021B102887D
:102E800042F04002028004E002884FF6BF731A400D
:102E9000028070470246002013890B400BB10120CD
:102EA00000E00020704701468889704781817047A3
:102EB00010B50022028802F441520B884C8823434B
:102EC0008C882343CC8823430C8923434C89234398
:102ED0008C892343CC8923431A430280838B4FF28E
:102EE000FF74234083830B8A038210BD7047000068
:102EF0004FF6F8710140014A11607047505C004084
:102F000030B501460E4B1A78002011E003060D4C37
:102F100004EB9353D3F8003C48F68F742340C4B2BB
:102F200023430406074D05EB9454C4F8003C401CB1
:102F30009042EBD341F08003034C236030BD00008E
:102F40007C010020005000404C5C004010B54A104D
:102F50005300054A126892B202EBC002121D034CE4
:102F600044F8123010BD0000505C0040006000408A
:102F700010B502460F48006880B200EBC200801D09
:102F80000D4C04EB40033E290BDD481101F01F04FA
:102F90000CB9441EA0B24FF4004444EA80241C60E3
:102FA00007E0481001F001040CB1441CA0B28402F7
:102FB0001C6010BD505C00400060004010B50C4C1F
:102FC00004EB8003D3F8003C4BF68F7403EA040251
:102FD00001F480530BB182F4805201F400530BB121
:102FE00082F40052024C04EB8003C3F8002C10BDA5
:102FF00000500040094B03EB8002D2F8002C4BF646
:103000008F7302EA030181F4805181F40051034B74
:1030100003EB8002C2F8001C704700000050004023
:1030200010B54A105200044B1B689BB203EBC0035F
:10303000024C44F8132010BD505C0040006000407A
:10304000044A126892B202EBC002921C024B43F88F
:1030500012107047505C00400060004010B50C4CEE
:1030600004EB8003D3F8003C48F6BF7403EA040283
:1030700001F010030BB182F0100201F020030BB13C
:1030800082F02002024C04EB8003C3F8002C10BD38
:103090000050004010B5074B03EB8002D2F8002C23
:1030A00048F68F131A400A43024C04EB8003C3F81E
:1030B000002C10BD0050004010B500F001F810BD0C
:1030C0000CB50020019000903348006840F4803037
:1030D0003149086000BF3048006800F400300090BB
:1030E0000198401C0190009818B90198B0F5A06FA4
:1030F000F1D12948006800F4003010B1012000909F
:1031000001E0002000900098012843D12348006886
:1031100040F01000214908600846006820F00300D4
:1031200008600846006840F0020008601A484068DD
:10313000194948600846406848600846406840F4BD
:10314000806048600846406820F47C10486008466B
:10315000406840F4E81048600846006840F080701D
:10316000086000BF0C48006800F000700028F9D02B
:103170000948406820F00300074948600846406855
:1031800040F00200486000BF0348406800F00C00B7
:103190000828F9D10CBD00000010024000200240B8
:1031A00070B505460C460C480C4908600846057386
:1031B0000D22982100F01EFF0D210120FFF740FF96
:1031C0000520074908702CB1042008703021012027
:1031D000FFF744FF70BD000055534253B0BE0020BE
:1031E00014010020014B99701A737047ED00002004
:1031F00010B50020FFF772F80121C805FEF7E4FFC3
:1032000010BD000008B52848006880B2001D27499D
:1032100031F8100080B201EB4000009024480068B3
:10322000007A09282FD00098007821490968087091
:103230000098401C0090009800781D49096848706B
:103240000098401C00900098801C0090009931F874
:10325000020B0091FDF768F815490968488000984D
:10326000801C0090009931F8020B0091FDF75CF88A
:103270000F49096888800098801C00900098008899
:103280000B490968C8800120094909680872084883
:103290000068C08810B9FEF763FE01E0FDF7A6FCE8
:1032A000FEF73EFF08BD0000505C0040006000409B
:1032B0004C0000202DE9F04750480068007800F0ED
:1032C0007F08B8F1000F0AD14C480068407A00F03E
:1032D000DF004A49096848720020BDE8F087B8F16C
:1032E000020F7DD145480068408818B943480068FE
:1032F000007908B10220F0E7DFF804913F48006848
:10330000477927F080052C463C480068407900F05A
:10331000800038B13B4901EB8400D0F8000C00F08C
:10332000300606E0374901EB8400D0F8000C00F4C9
:10333000405699F80000A84204D91EB12F480068F1
:10334000807A08B90220C8E707F0800080B12D49D3
:1033500001EB8400D0F8000C00F03000102843D1BD
:10336000E0B2FDF75BFBE0B23021FFF777FE3BE018
:10337000244901EB8400D0F8000C00F44050B0F573
:10338000805F31D1C4B9204A92F82C10E0B2FFF727
:10339000EFFD1C4A02EB8401D1F8001C4BF68F7242
:1033A00001EA020080F4805080F40050154A02EBDC
:1033B0008401C1F8000C17E0E0B2FDF715FB114ADB
:1033C00002EB8401D1F8001C4BF68F7201EA020077
:1033D00080F4805080F400500A4A02EB840100E03F
:1033E00008E0C1F8000C00BF084909684869804737
:1033F000002072E700BF02206FE700004C000020B1
:103400007C01002000500040800100205800002076
:1034100010B504462CB9012006490968088200202D
:1034200010BD0549096808688047024800680A30ED
:10343000F6E700004C0000205800002010B50246BE
:1034400006480068438A32B98888C01A034C246849
:103450002082002010BD08681844FBE74C000020C3
:1034600010B504462CB901200649096808820020DD
:1034700010BD0549096888688047024800680C301B
:10348000F6E700004C0000205800002010B504466C
:103490002CB90220354909680882002010BD00209F
:1034A0003349088031480068007800F07F00E0B9B7
:1034B0002E490968487A00F0200129B12C49097881
:1034C00041F002012A4A117000F0400131B128494F
:1034D000097801F0FE01264A117005E024490978B7
:1034E00041F00101224A11703AE02048006800785A
:1034F00000F07F00012801D11D48CFE71B4800687C
:10350000007800F07F00022828D1184A126851790B
:1035100001F00F0001F080027AB1164B03EB80023C
:10352000D2F8002C02F03002102A16D1104A12787C
:1035300042F001020E4B1A700FE00E4B03EB8002BB
:10354000D2F8002C02F44052B2F5805F05D1084A4F
:10355000127842F00102064B1A7001E000209DE74C
:103560000549096808698047014897E74C00002031
:1035700044000020005000405800002010B50E48C4
:103580000068C0780D494978884213DC0A48006811
:10359000807878B908480068808858B9064800687B
:1035A000C0780549096888720549096848688047F4
:1035B000002010BD0220FCE74C0000207C01002010
:1035C0005800002010B507480068407A40F02000FD
:1035D00004490968487204490968C869804700209D
:1035E00010BD00004C000020580000202DE9F041E3
:1035F0002A480068467926F080073C46274800683C
:10360000407900F0800038B1254901EB8400D0F802
:10361000000C00F0300506E0214901EB8400D0F8F1
:10362000000C00F440551F480078A04208D91B4800
:103630000068408820B91DB118480068807A10B928
:103640000220BDE8F08106F0800080B1144A02EB50
:103650008401D1F8001C48F6BF7201EA020080F034
:1036600010000F4A02EB8401C1F8000C10E00C4A74
:1036700002EB8401D1F8001C4BF68F7201EA0200C4
:1036800080F48050064A02EB8401C1F8000C00BFB0
:1036900005490968886980470020D2E74C0000206E
:1036A000005000407C0100205800002010B5174B4E
:1036B0001B68D978154B1B685879154B1B689A699C
:1036C0009047044611480068807AE8B13CB90F4839
:1036D0000068007918B90D480068807808B10220A8
:1036E00010BD8CB90B490968C86880470748006855
:1036F000407906490968C87204480068C0780349DF
:10370000096808730020EBE70220E9E74C0000207D
:103710005000002058000020042808D14FF0E0217C
:10372000096941F004014FF0E022116107E04FF018
:10373000E021096921F004014FF0E0221161704796
:103740007047000010B504466FF00400FFF7E4FF77
:10375000E11704EB5171C1F3C701074A117010461C
:10376000007800EB4001C1EBC0104FF6FF7101EA99
:10377000C0000249088010BD24000020260000205F
:1037800010B51348006840F0010011490860084670
:103790004068104908400E494860084600680E49D4
:1037A00008400B4908600846006820F48020086043
:1037B0000846406820F4FE0048604FF41F0088600F
:1037C000FFF77AFC4FF000600449086010BD00006C
:1037D000001002400000FFF8FFFFF6FE08ED00E0D9
:1037E00000B59DB001210802FEF7DEFC0120079024
:1037F000002008900F20099000200A900B900C9058
:103800000D900090019003200290002003900490FE
:103810000590069006200E9000200F90109010202A
:1038200011900020129014901390159016904FF460
:1038300080501790002018904FF48040199000207D
:103840001A9007A81B90CDF870D00EA8FDF738FD90
:1038500001210620FDF71AFD1DB000BD08B50121AC
:103860004FF4B070FEF7C0FC4CF23370ADF80000BE
:1038700018208DF8030003208DF8020069461048D7
:10388000FDF791FD4FF68070ADF8000018208DF81F
:10389000030003208DF8020069460A48FDF783FD06
:1038A00041F20100ADF8000018208DF8030003205C
:1038B0008DF8020069460448FDF775FD08BD00005B
:1038C00000140140001801400020014010B5FFF72E
:1038D000C5FFFFF785FF322000F0CAFD0020FEF78C
:1038E00073F8FDF741FFA149888008468188A0A0B0
:1038F00000F03EFC0020FEF767F80020FEF76AF8B3
:103900000020FEF761F80020FEF764F80020FEF7C3
:103910005BF80020FEF75EF84FF48060FEF754F885
:103920004FF4C440FEF756F80820FEF74DF840F675
:103930000800FEF74FF80120FEF746F84FF48070BC
:10394000FEF748F80220FEF73FF84FF48070FEF7CC
:1039500041F80320FEF738F841F23000FEF73AF85C
:103960000820FEF731F840F60800FEF733F84FF470
:103970004070FEF729F80C20FEF72CF840F20130D9
:10398000FEF722F845F60B20FEF724F840F202304D
:10399000FEF71AF840F60610FEF71CF840F2033066
:1039A000FEF712F841F21700FEF714F84FF44170D9
:1039B000FEF70AF84FF40C50FEF70CF840F2053011
:1039C000FEF702F84FF4B850FEF704F840F2063064
:1039D000FDF7FAFF46F20930FDF7FCFF40F2073031
:1039E000FDF7F2FF40F60940FDF7F4FF4FF4427097
:1039F000FDF7EAFF41F20C00FDF7ECFF40F2093061
:103A0000FDF7E2FF42F23220FDF7E4FF1020FDF760
:103A1000DBFF1420FDF7DEFF1120FDF7D5FF40F29C
:103A20000110FDF7D7FF4FF48070FDF7CDFF4FF485
:103A30000C70FDF7CFFF322000F01AFD40F20110AC
:103A4000FDF7C2FF40F24720FDF7C4FF4FF4FA74C0
:103A500001E0601E84B2002CFBDC322000F008FD87
:103A600040F20310FDF7B0FF4FF42060FDF7B2FF06
:103A70004FF4FA7401E0601E84B2002CFBDC0A20D3
:103A800000F0F6FC4FF42070FDF79EFF4FF2FF00B0
:103A9000FDF7A0FF322000F0EBFC4FF4FA7401E0D8
:103AA000601E84B2002CFBDC4FF48170FDF78CFFAC
:103AB0004BF2B010FDF78EFF4FF4FA7401E0601E78
:103AC00084B2002CFBDC322000F0D2FC4FF40470F6
:103AD000FDF77AFF0020FDF77DFF40F21120FDF792
:103AE00073FFEF20FDF776FF40F21220FDF76CFF29
:103AF0000020FDF76FFF40F21320FDF765FF40F255
:103B00008F10FDF767FF4FF40070FDF75DFF002099
:103B1000FDF760FF40F20120FDF756FF0020FDF7A2
:103B200059FF40F20140FDF74FFF0020FDF752FF23
:103B30000720FDF749FF4FF48070FDF74BFF4FF46E
:103B4000FA7401E0601E84B2002CFBDC322000F02D
:103B50008FFC40F20220FDF737FF0020FDF794FDB7
:103B60004FF6FF70FDF76CFD10BD0000180000203F
:103B7000204C43442049443A25780D0A00000000B7
:103B800070B505460C4622469821284600F032FAC8
:103B900021460120FFF754FA30210120FFF75EFA99
:103BA00003200549087005488068001B03498860A8
:103BB0000020087370BD000014010020B0BE00207A
:103BC00010B540F225510C4800F096F870B10A4843
:103BD00000F04EF9C4B22146074800F04EF900BF8C
:103BE0004021054800F07BF80128F9D14021024826
:103BF00000F060F810BD00000038014010B586B03C
:103C0000044601210420FEF7EFFA01218803FEF7A4
:103C1000EBFA01210846FEF7E7FA4FF40070ADF821
:103C2000140003208DF8160018208DF8170005A940
:103C30001E48FDF7B8FB4FF48060ADF81400042077
:103C40008DF8170005A91948FDF7ADFB0194002078
:103C5000ADF80800ADF80A00ADF80C00ADF81000A2
:103C60000C20ADF80E0001A9114800F095F80121D3
:103C70000F4800F028F840210D4800F01BF8012201
:103C800040F225510A4800F061F825208DF8000027
:103C900003208DF801008DF8020001208DF803004B
:103CA0006846FEF71BF906B010BD00000008014091
:103CB0000038014001F40072B2F5007F00D100BF6E
:103CC000CA430280704721B1828942F40052828146
:103CD00004E082894DF6FF731A40828170470246E4
:103CE0000020B1F5007F00D100BF13880B400BB15D
:103CF000012000E00020704770B502460024002338
:103D00000025002040F66A16B14200D100BFC1F381
:103D1000421501F01F03012606FA03F3012D02D11B
:103D20009689334006E0022D02D1168A334001E025
:103D3000968A33400C12012606FA04F416883440A1
:103D400013B10CB1012000E0002070BDF0B50346B6
:103D5000002400260025002040F66A17B94200D151
:103D600000BF1846C1F3421401F01F06012707FAED
:103D700006F5012C01D10C3004E0022C01D11030E9
:103D800000E014301AB107682F43076002E00768AB
:103D9000AF430760F0BD00002DE9F04786B005464F
:103DA0000E460024A24600BFA1460027B08900B1FC
:103DB00000BF2F462C8A4CF6FF700440F088044365
:103DC0002C82AC894EF6F3100440B0883189084348
:103DD000718908430443AC81AC8A4FF6FF4004402C
:103DE000B0890443AC8201A8FEF70EFA1F4887424F
:103DF00002D1DDF810A001E0DDF80CA0A88900F4E4
:103E0000004040B10AEBCA0000EB0A1031684900DB
:103E1000B0FBF1F807E00AEBCA0000EB0A103168CA
:103E20008900B0FBF1F86420B8FBF0F00401200930
:103E3000642101FB1089A88900F4004040B13220C0
:103E400000EBC900B0FBF1F000F00700044308E00C
:103E5000322000EB09106421B0FBF1F000F00F00FC
:103E600004432C8106B0BDE8F08700000038014013
:103E700001468888C0F308007047C1F308028280B9
:103E80007047000018B10121034A116002E00021CF
:103E9000014A1160704700008001224210B5FCF712
:103EA000ABFB10BD10B5084808490860022009683E
:103EB000087207480749086007480849086005492B
:103EC00009680868804710BD20BC00204C00002015
:103ED0008001002050000020B00100205800002088
:103EE0000EB54FF4A060FEF731F84FF48020FDF7D7
:103EF0007DF94FF48020009008208DF80500012006
:103F00008DF806006846FDF777F914208DF8080053
:103F100001208DF8090000208DF80A0001208DF89D
:103F20000B0002A8FDF7DAFF2A208DF80800002018
:103F30008DF8090002A8FDF7D1FF0EBD10B50F489E
:103F400000680F4908800846008800F480600D4929
:103F50000988084030B14FF6FF30084908600A4927
:103F6000486880470648008800F4004005490988F1
:103F7000084008B1FCF7A4FB10BD0000445C004001
:103F80003C010020560000208001002010B5FFF702
:103F9000D5FF10BD7047000010B504460121042074
:103FA000FEF722F93CB10F48006880B220F0020011
:103FB0000C49086014E00B48006880B240F0020031
:103FC000084908600848006820F47F200649086016
:103FD0000846006840F44C3008600020034908603F
:103FE00010BD0000405C004004080140B0012142C7
:103FF00000BFFEE7F0B5144604F1010C4FEA6C0770
:10400000DFF824C00CEB41033D460AE00678401C73
:1040100090F800C046EA0C2223F8022B9B1C401C9F
:104020006D1E002DF2D1F0BD006000402DE9F04181
:1040300004460D4616464248006800F140084148D3
:10404000007870B9404850F8240068433F49086040
:104050003D4850F8240070433D490860012039492B
:10406000087038480078012856D100203949086086
:1040700010E0384801680068401C364A1060364835
:10408000415C36482E4A126881542D480068401C15
:104090002B4908602A4800684045EAD32B4800684D
:1040A0002F490988084429490860294800682C4993
:1040B0000988401A26490860234850F824000968F6
:1040C000B1FBF0F200FB1210C0B900201C490860DF
:1040D0001D4830F8240083B21B4850F824001B4AC6
:1040E0001268111A1D4A2046FDF7D6FCC7B22FB13F
:1040F0001C48007840F004001A4908701A4880688B
:1041000017490988401A184988604FF44051022025
:10411000FEF754FFFDF78AFC0D48006818B11348FC
:10412000007804280AD10020054908600121FFF722
:1041300037F8002003490870FDF772FCBDE8F081F4
:104140007800002080000020600000208C0000200B
:10415000900000207C00002050BE002050BC0020B9
:104160001601002081000020B0BE002014010020B4
:104170000FB4054B10B503A9044A029800F018F8D3
:1041800010BC5DF814FB0000BD44000814020020C0
:1041900002E008C8121F08C1002AFAD17047704710
:1041A000002001E001C1121F002AFBD1704700006E
:1041B0002DE9FF4F8DB09B460F460446002606E0D2
:1041C00025280BD05A460F999047641C761C2078FE
:1041D0000028F5D111B03046BDE8F08F0025A84683
:1041E0000122984900E0054314F8013F203B02FA00
:1041F00003F00842F7D120782E2817D114F8010FC8
:1042000045F004052A280ED06FF02F022078A0F187
:10421000300109290AD808EB880102EB410100EBC3
:104220000108641CF2E757F8048B641C20786C28A2
:104230000DD004DC4C2812D06A2811D104E0742877
:104240000DD07A280CD10AE045F4001507E061781A
:1042500045F48015814202D1641C05F58015641C6B
:104260002278692A45D008DC002AB3D0582A69D0C0
:10427000632A10D0642A08D13BE0702A67D0732AE1
:1042800013D0752A5CD0782A5CD010465A460F9914
:104290009047761CD3E017F8040B8DF8000000203F
:1042A0008DF80100E946012003E057F8049B4FF028
:1042B000FF3069074FF0000501D40AE06D1C454549
:1042C0000DDA8542FADB19F805100029F6D106E06F
:1042D0006D1C8542FCDB19F805100029F8D12E442D
:1042E00004E019F8010B5A460F9990476D1EF8D259
:1042F000A5E00A200021CDE90801C5F302500228FB
:104300000DD001CFC117031E71F100030DDA4FF07C
:10431000000CD0EB0C006CEB01012D2308E0FF1D1D
:1043200027F00707F7E80201EDE72B0504D52B235B
:104330008DF8283001233BE0EB0739D02023F7E745
:104340000A2000E010200021CDE9080107E010203C
:10435000002145F00405CDE908014FF00808C5F338
:10436000025002280FD001CF00214FF0000A2B0786
:104370001FD5702A0DD0DDE908C38CF0100C5CEA63
:10438000030C0CD015E0FF1D27F00707F7E802012A
:10439000EBE740228DF828204FF0010A0BE050EAAD
:1043A000010306D030238DF828308DF82920022310
:1043B0009A46582A04D024A20DF120090B9209E054
:1043C00026A2F9E7DDE90823FBF7FFFE0B9B9B5CC8
:1043D00009F8013D50EA0102F4D1ADEB09002030AB
:1043E0000890680701D44FF001080899884502DD5C
:1043F000A8EB010000E000208046002506E00AA8A6
:104400005A46405D0F9990476D1C761C5545F6DB6A
:1044100004E030205A460F999047761CB8F100010D
:10442000A8F10108F5DC05E019F8010B5A460F99CF
:104430009047761C0899481E08900029F4DC641CFB
:10444000C5E60000092801003031323334353637F3
:1044500038396162636465660000000030313233D0
:104460003435363738394142434445460000000070
:104470000146114A12884A434FF0E0235A61002254
:104480009A611A46126942F001021A6100BF4FF0A8
:10449000E022106900F001021AB100F48032002A13
:1044A000F5D04FF0E022126922F001024FF0E02334
:1044B0001A6100229A6170472600002070B50446F8
:1044C0000D46E1B20548FFF7D8FC00BF8021034844
:1044D000FFF705FC0028F9D0204670BD00380140E8
:1044E0001FB5002500264820FFF72CF94FF4A060E7
:1044F000FDF72CFDFDF77AFA4FF41650FFF77EFB1F
:10450000FFF7E4F9FDF778F8FCF7EAFC002000F08B
:1045100093FA4FF47840E6490880E6A01021CDE9EF
:104520000010EA48438802880A210846FDF718FA75
:10453000E7A01021CDE90010E448438802881E213D
:104540000A20FDF70DFAFEF7E9F958B1E4A01021B1
:10455000CDE90010DD484388028832210A20FDF7AA
:10456000FFF98EE0E2A01021CDE90010D748438882
:10457000028832210A20FDF7F3F9FEF793F94FF490
:104580000071A0FB0110E04AC2E900104FF4007076
:10459000DE4908600846D0F800C010466246002395
:1045A000D0E900713846FBF7DFFDD94908600846BD
:1045B0000068C40A42F21070B4FBF0F03030C0B2B0
:1045C0008DF8080042F21070B4FBF0F100FB1140CE
:1045D0004FF47A71B0FBF1F03030C0B28DF80900C1
:1045E00042F21070B4FBF0F100FB11404FF47A710D
:1045F000B0FBF1F201FB12006421B0FBF1F03030AE
:10460000C0B28DF80A0042F21070B4FBF0F100FB6A
:1046100011404FF47A71B0FBF1F201FB12006421FA
:10462000B0FBF1F201FB12000A21B0FBF1F03030D7
:104630008DF80B0042F21070B4FBF0F100FB11405A
:104640004FF47A71B0FBF1F201FB12006421B0FB70
:10465000F1F201FB12000A21B0FBF1F201FB1200A2
:1046600030308DF80C0000208DF80D0002A81021CC
:10467000CDE9001095484388028832217220FDF769
:104680006FF9FCF7ADFC4CF6160188420BD0A1A0E7
:104690001021CDE900108D484388028846210A2068
:1046A000FDF75EF921E04FF4C0010020964AC2E90F
:1046B00002104FF40070954948600846D0F804C0D5
:1046C000104662460023D0E902713846FBF74CFDE4
:1046D0008F49486096A01021CDE900107B4843889F
:1046E000028846210A20FDF73BF94FF4E160FFF70D
:1046F000BFFE0020FFF750FC4FF49670FFF7B8FEA6
:104700000120FFF749FC91A01021CDE900106F486E
:10471000438802885A210A20FDF722F990A0FFF76A
:1047200027FDFFF7DDFBFEF763FDFFF7BBFB4FF453
:10473000E160FFF79DFEBAE00120FFF799FE8D488A
:104740000078814564D08B48007800F0010080B18A
:1047500000208949086089A01021CDE900105B483C
:104760004388028878210A20FDF7FAF887A0FFF72E
:10477000FFFC8048007800F0020080B100207E49F4
:10478000086087A01021CDE90010504843880288B6
:1047900078210A20FDF7E4F885A0FFF7E9FC7548C9
:1047A000007800F0040058B186A01021CDE9001077
:1047B0004648438802888C210A20FDF7D1F809E099
:1047C0004FF6FF700090414802889C238C210A20FC
:1047D000FCF79AFF6748007800F0080058B17DA008
:1047E0001021CDE900103948438802888C210A2025
:1047F000FDF7B6F809E04FF6FF70009033480288E5
:104800009C238C210A20FCF77FFF5A4890F80090E7
:1048100074480068824524D07248006805280ED18B
:1048200071A01021CDE900102848438802885A2140
:104830000A20FDF795F871A0FFF79AFC0DE073A030
:104840001021CDE900102148438802885A210A200E
:10485000FDF786F872A0FFF78BFC6248006800F055
:10486000FF0A701CC6B2C82E21D100260120424981
:1048700008607048D0F8800108B9012000E00020ED
:104880003D49091F08603B48007800F0100020B146
:10489000002505205349086006E0681CC5B20A2DB2
:1048A00002DD00204F49086000203249087043E7CC
:1048B0001400002055534220436172642052656108
:1048C0006465722054455354000000001800002015
:1048D0007777772E7072656368696E2E6E657400E7
:1048E00053442043617264204572726F722100004C
:1048F000534420436172642053697A653A20202032
:1049000020204D420000000040BC0020600000203C
:1049100068000020454E3235515858204572726F5C
:1049200072212020202020202020202000000000B4
:10493000454E323551585820464C41534820536912
:104940007A653A363134344B4200000055534220E8
:10495000436F6E6E656374696E672E2E2E000000C5
:1049600055534220436F6E6E656374696E672E2ED9
:104970002E0D0A008100002084012242555342205E
:1049800057726974696E672E2E2E000055534220AF
:1049900057726974696E672E2E2E0D0A0000000092
:1049A0005553422052656164696E672E2E2E0000B9
:1049B0005553422052656164696E672E2E2E0D0A92
:1049C00000000000555342205772697465204572FB
:1049D00072200000555342205265616420204572C8
:1049E000722000000C02002055534220436F6E6E6F
:1049F0006563746564202020200000005553422028
:104A0000436F6E6E65637465640D0A0055534220F2
:104A1000446973436F6E6E656374656420000000C3
:104A200055534220446973436F6E6E6563746564C9
:104A30000D0A00000000224210B504460C4951F84E
:104A400024104A000B4951F82400002100F036F8E8
:104A5000094951F824200749083951F82400002158
:104A600000F02CF8012103480830015510BD00006A
:104A7000B866000838000020C866000810B5014676
:104A80000023002207E00B4850F8210030F8120004
:104A900000B15B1C521C084850F821009042F2D82B
:104AA00064205843044C54F82140B0FBF4F0C0B2E9
:104AB00010BD000038000020B866000830B503467D
:104AC00001E003F8011B1400A2F10102F9D130BD8D
:104AD00000000000000000000000000000000000D6
:104AE0003F400000000000000000300040003000A7
:104AF0004000000009000BC03D000BC03D00090054
:104B000018C024407FE0224031800000180024C0FB
:104B10001B000D803240018003801C4027401C8018
:104B2000074000401000600000000000000000008E
:104B30000000000000001F802040402000004020B6
:104B400020401F8000000000090006001F800600B2
:104B500009000000040004003F800400040000007D
:104B600000100060000000000000000004000400CD
:104B700004000400040000000000004000000000E9
:104B800000000000002001C00600380040000000C6
:104B90001F802040204020401F8000000000104067
:104BA0003FC000400000000018C0214022402440C7
:104BB0001840000010802040244024401B8000004A
:104BC00002000D0011003FC0014000003C80244065
:104BD00024402440238000001F802440244034408F
:104BE000038000003000200027C0380020000000B3
:104BF0001B802440244024401B8000001C0022C055
:104C0000224022401F8000000000000008400000F9
:104C10000000000000000000046000000000000030
:104C2000000004000A001100208040400900090033
:104C30000900090009000000000040402080110028
:104C40000A0004001800200023402400180000007F
:104C50001F802040274029401F400000004007C01F
:104C600039000F0001C0004020403FC024402440D4
:104C70001B8000001F80204020402040308000002A
:104C800020403FC0204020401F80000020403FC007
:104C900024402E4030C0000020403FC024402E0061
:104CA000300000000F0010802040224033800200BE
:104CB00020403FC0040004003FC02040204020406E
:104CC0003FC02040204000000060202020203FC046
:104CD0002000200020403FC024400B0030C0204076
:104CE00020403FC020400040004000C03FC03C008A
:104CF00003C03C003FC0000020403FC00C402300E8
:104D00003FC020001F802040204020401F80000026
:104D100020403FC024402400180000001F80214094
:104D2000214020E01FA0000020403FC0244026007A
:104D300019C0004018C024402440224031800000A7
:104D4000300020403FC020403000000020003F8065
:104D5000004000403F80200020003E0001C00700CE
:104D600038002000380007C03C0007C038000000B1
:104D7000204039C0060039C02040000020003840E3
:104D800007C0384020000000304021C02640384095
:104D900020C00000000000007FE040204020000014
:104DA000000070000C000380004000000000402064
:104DB00040207FE0000000000000200040002000B4
:104DC0000000000000100010001000100010001083
:104DD0000000000040000000000000000000028011
:104DE0000540054003C0004020003FC0044004408F
:104DF00003800000000003800440044006400000DF
:104E000000000380044024403FC0004000000380B5
:104E10000540054003400000000004401FC024403E
:104E200024402000000002E00550055006500420F8
:104E300020403FC00440040003C000400000044084
:104E400027C000400000000000100010041027E000
:104E50000000000020403FC00140070004C00440A3
:104E6000204020403FC000400040000007C0040038
:104E700007C0040003C00000044007C00440040051
:104E800003C0004000000380044004400380000091
:104E9000041007F004500440038000000000038069
:104EA0000440045007F00010044007C00240040012
:104EB00004000000000006400540054004C000005A
:104EC000000004001F800440004000000400078030
:104ED0000040044007C000400400070004C00180F7
:104EE00006000400060001C0070001C00600000023
:104EF000044006C0010006C0044000000410071072
:104F000004E00180060004000000044005C00640E3
:104F1000044000000000000004007BE0402000008E
:104F2000000000000000FFF0000000000000402032
:104F30007BE00400000000004000800040002000F2
:104F40002000400000000000000000000000000001
:104F5000000000000000000000001FCC000C00005A
:104F60000000000000000800300060000800300071
:104F700060000000022003FC1E20022003FC1E2013
:104F80000220000000000E1811043FFF10840C786E
:104F9000000000000F0010840F3800C0077818844C
:104FA0000078000000780F8410C411240E9800E4EB
:104FB0000084000808006800700000000000000085
:104FC0000000000000000000000007E018182004A6
:104FD00040020000000040022004181807E0000012
:104FE000000000000240024001800FF001800240FA
:104FF000024000000080008000800FF800800080E8
:10500000008000000001000D000E00000000000004
:105010000000000000000080008000800080008010
:10502000008000800000000C000C00000000000068
:10503000000000000000000600180060018006006B
:1050400018002000000007F00808100410040808E9
:1050500007F000000000080408041FFC000400041E
:105060000000000000000E0C1014102410441184E5
:105070000E0C000000000C1810041104110412881A
:105080000C700000000000E00320042408241FFC32
:105090000024000000001F981084110411041088DF
:1050A00010700000000007F008881104110418882F
:1050B0000070000000001C00100010FC13001C0019
:1050C0001000000000000E381144108410841144B8
:1050D0000E38000000000700088C104410440888B7
:1050E00007F00000000000000000030C030C0000AB
:1050F00000000000000000000001010600000000A8
:105100000000000000000080014002200410080898
:1051100010040000022002200220022002200220AF
:1051200002200000000010040808041002200140C2
:105130000080000000000E001200100C106C1080A7
:105140000F00000003E00C1813E4142417C408280F
:1051500007D000000004003C03C41C40074000E4EA
:10516000001C000410041FFC1104110411040E881B
:105170000070000003E00C18100410041004100864
:105180001C10000010041FFC100410041004080878
:1051900007F0000010041FFC1104110417C41004D0
:1051A0000818000010041FFC1104110017C01000A3
:1051B0000800000003E00C181004100410441C78D0
:1051C0000040000010041FFC108400800080108448
:1051D0001FFC10040000100410041FFC1004100435
:1051E0000000000000030001100110011FFE10006C
:1051F0001000000010041FFC110403801464181C2C
:105200001004000010041FFC10040004000400043B
:10521000000C000010041FFC1F0000FC1F001FFCFE
:105220001004000010041FFC0C04030000E0101820
:105230001FFC100007F008081004100410040808F0
:1052400007F0000010041FFC1084108010801080F4
:105250000F00000007F0081810241024101C080A82
:1052600007F2000010041FFC1104110011C01130DE
:105270000E0C000400000E1C110410841084104455
:105280001C3800001800100010041FFC100410004F
:105290001800000010001FF810040004000410049F
:1052A0001FF8100010001E0011E0001C0070138099
:1052B0001C0010001FC0103C00E01F0000E0103C6C
:1052C0001FC000001004180C163401C001C01634B1
:1052D000180C100410001C00130400FC13041C0024
:1052E000100000000804101C1064108413041C0437
:1052F000101800000000000000007FFE4002400285
:1053000040020000000030000C0003800060001C20
:105310000003000000004002400240027FFE000047
:10532000000000000000000020004000400040009D
:105330002000000000010001000100010001000147
:1053400000010001000040004000200000000000BB
:1053500000000000000000980124014401440144C1
:1053600000FC000410001FFC0088010401040088F8
:1053700000700000000000700088010401040104B6
:10538000008800000000007000880104010411087A
:105390001FFC0004000000F80144014401440144E2
:1053A00000C800000000010401040FFC11041104F6
:1053B00011001800000000D601290129012901C9A6
:1053C0000106000010041FFC00840100010001041C
:1053D00000FC000400000104190419FC000400048E
:1053E000000000000000000300010101190119FE86
:1053F0000000000010041FFC0024004001B4010C58
:10540000010400000000100410041FFC000400044C
:1054100000000000010401FC0104010001FC010482
:10542000010000FC010401FC0084010001000104F2
:1054300000FC0004000000F8010401040104010460
:1054400000F80000010101FF00850104010400884B
:1054500000700000000000700088010401040105D4
:1054600001FF00010104010401FC008401040100AA
:1054700001800000000000CC01240124012401244B
:105480000198000000000100010007F80104010478
:1054900000000000010001F80004000400040108FD
:1054A00001FC0004010001800170000C001001608B
:1054B0000180010001F0010C003001C00030010C3E
:1054C00001F0010000000104018C00740170018CE6
:1054D00001040000010101810171000E001801604A
:1054E0000180010000000184010C013401440184A9
:1054F000010C0000000000000000000001003EFC64
:10550000400240020000000000000000FFFF000019
:10551000000000000000400240023EFC01000000CC
:10552000000000000000600080008000400040009B
:10553000200020000000000000000000000000002B
:10554000000000000000000000000000000000005B
:10555000000000000000000000000000000000004B
:10556000000000000000000F80380FFE380F803868
:10557000000000000000000000000000000000002B
:1055800000000100000600000C000038000031009F
:10559000000600000C000038000030000000000091
:1055A0000000000061800067F807F980006180005A
:1055B00061800061800061800067F807F980006108
:1055C0008000000000000000000001C0E003E0F0E7
:1055D0000630080418081FFFFE040E080787F003B2
:1055E00081E000000000000001F000060C0004044F
:1055F00008060C7001F9C0000E00003BE000EC183A
:10560000070808040C180003E00000000001E00097
:1056100007F003F818041C0804170807E1D003C0BA
:10562000E00023B0003C080020080000100000004B
:105630000000000100003100003200001C000000EA
:10564000000000000000000000000000000000005A
:10565000000000000000000000000000000000004A
:10566000000000007F0001FFC00780F00C00181050
:1056700000042000020000000000002000021000D2
:10568000040C00180780F001FFC0007F000000003C
:10569000000000000000000000000000000000000A
:1056A0004200006600006600003C0000180003FF96
:1056B000C0001800003C00006600006600004200C8
:1056C00000000000080000080000080000080000BA
:1056D000080001FFC00008000008000008000008E2
:1056E000000008000000000000010000310000324E
:1056F00000001C000000000000000000000000008E
:105700000000000000000000000000000800000889
:105710000000080000080000080000080000080061
:105720000008000008000008000000000000000061
:1057300000000000380000380000380000000000C1
:105740000000000000000000000000000000000059
:1057500000000000000600001C0000700001800036
:105760000E0000380000C0000700001C00003000E0
:1057700000000000000000007F8001FFE003807057
:1057800006001804000804000806001803807001D1
:10579000FFE0007F8000000000000000000001002A
:1057A0000801000801000803FFF807FFF8000008DF
:1057B00000000800000800000000000000000001D8
:1057C000C03802C0580400980401180402180404E8
:1057D00018061C1803F81801E0F80000000000008B
:1057E00000000001C0E003C0F00400080408080441
:1057F000080806180803F41801E7F00001E00000AB
:1058000000000000000000000300000D0000110077
:1058100000610000810803010807FFF80FFFF8008E
:1058200001080001080000000000000000E007FC83
:10583000D0060808061008061008061008061838D2
:10584000060FF00607C00000000000000000000086
:105850003F8001FFE00384300208180410080410A0
:1058600008041008071810030FF00007C00000001C
:1058700000000000000003C0000700000600000652
:1058800000F80607F806180006E00007000006000A
:105890000000000000000001E1E003F7F006341012
:1058A000041808041808040C08040C080616180349
:1058B000F3F001C1E000000000000000F80003FC6C
:1058C0003003063804020804020804020804041025
:1058D0000308F001FFC0007F00000000000000008E
:1058E00000000000000000000000000070380070A0
:1058F00038007038000000000000000000000000C8
:105900000000000000000000000000000000000097
:10591000301A00301C0000000000000000000000F1
:10592000000000000000000000000008000014005B
:10593000002200004100008080010040020020049D
:1059400000100800080000000000000021000021F5
:1059500000002100002100002100002100002100A2
:1059600000210000210000210000000000000000D4
:105970000000080008040010020020010040008020
:105980008000410000220000140000080000000018
:1059900000000003C00004C0000400000800380834
:1059A0000F380808380810000C300007E00003C06A
:1059B00000000000000000003F8000FFE003807056
:1059C000020F1006708804C088048308047F8802D0
:1059D000C09003012000FE400000080000180001F4
:1059E000F8003E0801C20007020007E20000FE00C6
:1059F000001FC80001F80000380000080400080774
:105A0000FFF807FFF8040808040808040808040859
:105A10000806180803F41801E7F00001E000000090
:105A2000000000003F8001FFE003807002001804C6
:105A30000008040008040008040010060020078085
:105A4000C000000004000807FFF807FFF804000882
:105A5000040008040008040018020010038070010C
:105A6000FFE0007F8000000004000807FFF807FF48
:105A7000F8040808040808040808040808043E0894
:105A80000400080600180100600000000400080778
:105A9000FFF807FFF80408080408000408000408D9
:105AA00000043E0006000006000001800000000027
:105AB000000000003F8001FFE00380700600180432
:105AC00000080402080402080203F00783F0000241
:105AD0000000020004000807FFF807FFF8040808A8
