:020000040800F2
:100000003004002045010008FD08000891040008A4
:10001000F908000853020008BB17000800000000A0
:10002000000000000000000000000000A50F000814
:100030005702000800000000110D0008B910000868
:100040005F0100085F0100085F0100085F01000810
:100050005F0100085F0100085F0100085F01000800
:100060005F0100085F0100085F0100085F010008F0
:100070005F0100085F0100085F0100085F010008E0
:100080005F0100085F0100085F0100085F010008D0
:100090005F0100085F0100085F0100085F010008C0
:1000A0005F0100085F0100085F0100085F010008B0
:1000B0005F0100085F0100085F0100085F010008A0
:1000C0005F0100085F0100085F0100085F01000890
:1000D0005F010008F91400085F0100085F010008D3
:1000E0005F0100085F0100085F0100085F01000870
:1000F0005F0100085F0100085F0100085F01000860
:100100005F0100085F0100085F0100085F0100084F
:100110005F0100085F0100085F0100085F0100083F
:100120005F0100085F0100085F0100085F0100082F
:10013000DFF80CD000F05CF800480047191D0008FB
:10014000300400200648804706480047FEE7FEE7E7
:10015000FEE7FEE7FEE7FEE7FEE7FEE7FEE7FEE777
:10016000F91000083101000840EA01039B0703D0A1
:1001700009E008C9121F08C0042AFAD203E011F8E6
:10018000013B00F8013B521EF9D270472DE9F05FA8
:100190000546002092469B468846064681464024F6
:1001A0001BE0284641464746224600F042F85346A7
:1001B0005A46C01A914110D311461846224600F003
:1001C00029F82D1A67EB01084F462246012000212D
:1001D00000F020F817EB00094E41201EA4F10104A5
:1001E000DFDC484631462A464346BDE8F09F000022
:1001F000064C074D06E0E06840F0010394E8070074
:1002000098471034AC42F6D3FFF796FF943A0008B3
:10021000B43A0008202A04DB203A00FA02F1002058
:1002200070479140C2F1200320FA03F31943904034
:100230007047202A04DB203A21FA02F0002170479F
:1002400021FA02F3D040C2F120029140084319463E
:10025000704700BFFEE7704751B18200A2F1C04273
:10026000126842F001038200A2F1C042136009E06B
:100270008200A2F1C0421268034B1A408300A3F12E
:10028000C0431A6070470000FEFF0F00D0E9011262
:100290001143C268114302691143426911438269E3
:1002A0001143C2691143026A1143426A1143826ACF
:1002B0001143C26A1143026B114302689200A2F11A
:1002C000C0421160816808290BD101688900A1F141
:1002D000C041096841F0400201688900A1F1C041B4
:1002E0000A60416B0968426B526841EA0211426B35
:1002F000926841EA0221426B928941EA0241426BD3
:10030000128A41EA0251426B127D41EA0261426B5C
:10031000926911430268521C9200A2F1C04211601E
:10032000C16AB1F5804F1BD1816B0968826B52683D
:1003300041EA0211826B926841EA0221826B128AC1
:1003400041EA0251826B127D41EA0261826B92693D
:10035000114302689200A2F1C042C2F8041107E002
:100360006FF0704201688900A1F1C041C1F8042119
:1003700070472DE9F04102460025002600200023A9
:100380000024002791F803C00CF00F0591F803C07A
:100390000CF0100CBCF1000F03D091F802C04CEA35
:1003A000050591F800C0BCF1000F31D014680020A1
:1003B0002BE04FF0010C0CFA00F3B1F800C00CEA8E
:1003C00003069E4220D183004FF00F0C0CFA03F776
:1003D000BC4305FA03FC4CEA040491F803C0BCF1E9
:1003E000280F06D14FF0010C0CFA00FCC2F814C023
:1003F0000AE091F803C0BCF1480F05D14FF0010CA1
:100400000CFA00FCC2F810C0401C0828D1D31460BC
:10041000B1F800C0BCF1FF0F34DD546800202EE0BD
:1004200000F1080C4FF0010808FA0CF3B1F800C015
:100430000CEA03069E4221D183004FF00F0C0CFA08
:1004400003F7BC4305FA03FC4CEA040491F803C02B
:10045000BCF1280F05D100F1080C08FA0CF8C2F81D
:10046000148091F803C0BCF1480F07D100F1080CCB
:100470004FF0010808FA0CF8C2F81080401C082858
:10048000CED35460BDE8F08141617047016170478F
:1004900000BFFEE708B50121442000F05BFC01200D
:1004A000ADF8000028208DF8030003208DF802002D
:1004B00069460848FFF75DFF1C20ADF800004820A2
:1004C0008DF8030003208DF8020069460248FFF70B
:1004D00050FF08BD000801400018014010B5044657
:1004E00022480078012826D12148006801280AD036
:1004F0002048006838B11F48001F006818B11D4827
:10050000001D0068B8B90A2001F0CEFB0020174991
:10051000087017480068012800D110BD1548006810
:1005200008B90220F9E71348001F006808B9032042
:10053000F3E70420F1E70E48006878B90D48006839
:1005400001280BD10B48001F0068012806D109487B
:10055000001D0068012801D104490870012C02D156
:100560000120024908700020D7E700002400002085
:10057000000121420C01234270B506460F48408815
:10058000401E83B20D480088401E82B200210846FA
:1005900000F05CF800240CE0002504E0304600F098
:1005A0008BF9681C85B205484088A842F6DC601CBF
:1005B00084B202480088A042EEDC70BD1C0000201E
:1005C00000B50246B2B9012000F06AF94FF480701C
:1005D00000F06CF9032000F063F941F2300000F004
:1005E00065F94FF4C8700E494880F020088000205B
:1005F000887114E0012000F053F9002000F056F952
:10060000032000F04DF941F2380000F04FF9F020DE
:10061000034948804FF4C87008800120887100BDEC
:100620001C00002070B504460D4616462B46224697
:100630002946204600F00AF8304600F03DF970BD2A
:1006400001480088704700000008006C30B505467E
:100650000C462E48807950BB4FF4047000F020F90E
:10066000284600F023F940F2112000F019F9104655
:1006700000F01CF940F2122000F012F9204600F0C0
:1006800015F940F2132000F00BF9184600F00EF9AE
:100690004FF4007000F004F9284600F007F940F22A
:1006A000012000F0FDF8204600F000F929E040F2BA
:1006B000122000F0F5F8284600F0F8F840F2132078
:1006C00000F0EEF8104600F0F1F84FF4047000F07E
:1006D000E7F8204600F0EAF840F2112000F0E0F8D8
:1006E000184600F0E3F840F2012000F0D9F828465F
:1006F00000F0DCF84FF4007000F0D2F8204600F073
:10070000D5F840F2022000F0CBF830BD1C000020EC
:100710002DE9F84F80460E4617461C46B346204644
:10072000E31704EB5373DB1021464FEAE47C04EB40
:100730005C7C4FEAEC0CA4EBCC0CBCF1000F02D0BB
:100740004FF0010C01E04FF0000C6344224604EB33
:10075000D27C4FEA6C0C03FB0CF3DBB20093A7F1E5
:100760002000C7B2002556E00C2C07D107EB47004C
:100770002B4901EB800010F8059013E0102C05D1F7
:10078000284800EB071010F805900BE0182C07D153
:1007900007EBC700244901EB800010F8059001E049
:1007A000BDE8F88F4FF0000A2FE009F0800030B16B
:1007B0001E48028831464046FFF734FF07E00A989A
:1007C00028B91B48028831464046FFF72BFF4FEA05
:1007D00049604FEA1069701C86B216484088B042E2
:1007E00000DCDDE7A6EB0B00A0420AD15E4608F173
:1007F00001001FFA80F80F480088404500DCCFE771
:1008000006E00AF1010000F0FF0ABAF1080FCCDBA4
:1008100000BF681CC5B200988542A5DB00BFBFE7DA
:10082000A11E000815230008052900081800002053
:100830001A0000201C0000202DE9F84704460D4650
:1008400090469946DDE9096704F0FF0A08EB0400C9
:100850001FFA80F809EB05001FFA80F916E04445FD
:1008600002DB5446A81985B24D4500DB14E0002098
:1008700000903A78334629462046FFF749FF304634
:1008800006EBD07104EB61018CB27F1C38787E28B6
:1008900002DC38782028E2DA00BFBDE8F8870000E3
:1008A0000149088070470000FE07006C014908807C
:1008B000704700000008006C014908807047000084
:1008C0000008006C08B50121102000F043FAFF2059
:1008D000ADF8000010208DF8030003208DF8020011
:1008E00069460448FFF745FDFF210248FFF7CEFDAA
:1008F00008BD00000010014000BFFEE77047000087
:100900001CB511A103C9CDE90001082000F0FEFAD1
:1009100005226946302000F083F90522694610203F
:1009200000F0C4F8002406E01DF80400A52800D05B
:1009300003E0601CC4B2052CF6DB00BF052C01D01F
:1009400001201CBD0020FCE7A5A5A5A5A500000071
:1009500000B587B00121A82000F0FCF94FF4005049
:10096000ADF8180010208DF81B0003208DF81A0038
:1009700006A93148FFF7FDFC4FF400512E48FFF760
:1009800085FD4FF48050ADF8180006A92B48FFF7FD
:10099000F0FC4FF480512948FFF778FD4FF4407088
:1009A000ADF8180006A92648FFF7E3FC4FF44071A4
:1009B0002348FFF769FD0820ADF8180028208DF8BE
:1009C0001B0006A91F48FFF7D4FC08211D48FFF7AC
:1009D0005BFD00F039FA00211B4800F0ABFA002063
:1009E000ADF804004FF48270ADF806000020ADF8B9
:1009F0000800ADF80A00ADF80C004FF40070ADF837
:100A00000E001820ADF810000020ADF812000720ED
:100A1000ADF8140001A90C4800F0A6FA01210A481B
:100A200000F088FA00200949086001200849C1F84F
:100A3000A40107B000BD000000200140000C0140EF
:100A4000001C01400014014000380040A0812342F6
:100A50000080234210B50020114908600522114989
:100A60002A2000F0DDF80121212000F0F7F8012113
:100A7000222000F0F3F82821252000F0EFF82021B3
:100A8000312000F0EBF80F21262000F0E7F80F21CD
:100A9000202000F0E3F801200349C1F8A00110BDB7
:100AA000A08123428C3A0008008023422DE9F041C6
:100AB00007460D46164600200A490860384600F0F1
:100AC00009FA8046002405E0FF2000F003FA2855CB
:100AD000601CC4B2B442F7DB012002490860404602
:100AE000BDE8F081A481234270B504460020074987
:100AF0000860204600F0EEF9FF2000F0EBF9054613
:100B000001200349C1F8A401284670BDA4812342F5
:100B10000080234270B50446102000F0F7F907204A
:100B2000FFF7E2FF05462946272000F097F805F079
:100B3000400050B1202221466120FFF7B7FFFF217E
:100B4000E22000F08BF8002070BD0120FCE70000DF
:100B500010B500201449086005221449302000F027
:100B60005FF8052212492A2000F05AF801212120BD
:100B700000F074F80121222000F070F81A212420DE
:100B800000F06CF82821252000F068F80F212620BD
:100B900000F064F80E21202000F060F801200549E3
:100BA000C1F8A00110BD0000A0812342873A0008CF
:100BB0008C3A00080080234270B50546082000F0FA
:100BC000A5F900201349086020222946A02000F042
:100BD00027F801201049C1F8A00100BF0F480068A4
:100BE0000028FBD10720FFF77FFF0446214627207E
:100BF00000F034F804F0100028B1FF21E12000F0EB
:100C00002DF8102070BD04F0200008B12020F9E775
:100C1000FF20F7E7A0812342008023420C8122427B
:100C20002DE9F04107460C46154600200A490860A8
:100C3000384600F04FF98046002605E014F8010B15
:100C400000F048F9701CC6B2AE42F7DB0120024941
:100C500008604046BDE8F081A481234270B5054696
:100C60000C46002007490860284600F033F9064684
:100C7000204600F02FF901200349C1F8A4013046B5
:100C800070BD0000A48123420080234270B5002182
:100C900000230F22C47804B3154C246804F4E064E4
:100CA000C4F5E064210AC1F10403CA40447804FA9F
:100CB00003F184781440214309010E4C0678A155B4
:100CC000047804F01F050124AC4005786D11AD00D7
:100CD00005F1E025C5F8004109E0047804F01F059E
:100CE0000124AC40044D0678761145F8264070BDCD
:100CF0000CED00E000E400E080E100E00249014387
:100D0000024A1160704700000000FA050CED00E097
:100D10007047000029B1064A52690243044B5A61E8
:100D200004E0034A52698243014B5A617047000054
:100D30000010024029B1064AD2690243044BDA612D
:100D400004E0034AD2698243014BDA617047000034
:100D50000010024029B1064A92690243044B9A618D
:100D600004E0034A92698243014B9A617047000094
:100D70000010024030B500210022002400232D4D38
:100D80006D6805F00C0121B1042905D0082923D193
:100D900005E0294D056022E0274D05601FE0254D47
:100DA0006D6805F47012234D6D6805F480340225DA
:100DB00005EB92421CB9214D554305600BE01D4DDA
:100DC0006D6805F400351DB11C4D5543056002E00A
:100DD000194D5543056002E0174D056000BF00BF87
:100DE000144D6D6805F0F0010909154D6B5C05683F
:100DF000DD4045600F4D6D6805F4E061090A104D56
:100E00006B5C4568DD4085600A4D6D6805F4605196
:100E1000C90A0B4D6B5C4568DD40C560054D6D68CA
:100E200005F44041890B074D6B5CC568B5FBF3F5D4
:100E3000056130BD0010024000127A0000093D003B
:100E4000040000201400002000B587B00121082014
:100E5000FFF780FF01218803FFF76CFF4FF460402C
:100E6000ADF8180018208DF81B0003208DF81A002B
:100E700006A91648FFF77DFA0020ADF804004FF4EC
:100E80008270ADF806000020ADF808000220ADF831
:100E90000A000120ADF80C004002ADF80E00382029
:100EA000ADF810000020ADF812000720ADF81400D6
:100EB00001A9074800F058F80121054800F03AF868
:100EC000FF2000F007F807B000BD0000000C014053
:100ED0000038004010B5044600BF02210A4800F067
:100EE00035F80028F9D02146074800F03BF800BF4C
:100EF0000121054800F02AF80028F9D0024800F046
:100F00002EF8C0B210BD00000038004010B50446F5
:100F1000074800884FF6C771084005490880084611
:100F20000088204308800121014800F003F810BD2B
:100F30000038004021B1028842F04002028004E003
:100F400002884FF6BF731A400280704702460020A5
:100F500013890B400BB1012000E0002070470146CF
:100F6000888970478181704710B50022028802F499
:100F700041520B884C8823438C882343CC882343DD
:100F80000C8923434C8923438C892343CC892343F5
:100F90001A430280838B4FF2FF74234083830B8AB2
:100FA000038210BD704710B500F002F810BD0000BC
:100FB0000CB50020019000903348006840F4803068
:100FC0003149086000BF3048006800F400300090EC
:100FD0000198401C0190009818B90198B0F5A06FD5
:100FE000F1D12948006800F4003010B101200090D0
:100FF00001E0002000900098012843D123480068B8
:1010000040F01000214908600846006820F0030005
:1010100008600846006840F0020008601A4840680E
:10102000194948600846406848600846406840F4EE
:10103000806048600846406820F47C10486008469C
:10104000406840F4E81048600846006840F080704E
:10105000086000BF0C48006800F000700028F9D05C
:101060000948406820F00300074948600846406886
:1010700040F00200486000BF0348406800F00C00E8
:101080000828F9D10CBD00000010024000200240E9
:10109000042808D14FF0E021096941F004014FF024
:1010A000E022116107E04FF0E021096921F004011D
:1010B0004FF0E022116170477047000010B5044600
:1010C0006FF00400FFF7E4FFE11704EB5171C1F387
:1010D000C701074A11701046007800EB4001C1EBD0
:1010E000C0104FF6FF7101EAC0000249088010BD30
:1010F000260000202800002010B51348006840F0AA
:1011000001001149086008464068104908400E492E
:101110004860084600680E4908400B4908600846C8
:10112000006820F4802008600846406820F4FE0033
:1011300048604FF41F008860FFF735FF4FF00060F4
:101140000449086010BD0000001002400000FFF8D4
:10115000FFFFF6FE08ED00E000B59DB0012108029A
:10116000FFF7D8FD01200790002008900F2009907C
:1011700000200A900B900C900D900090019003209D
:1011800002900020039004900590069006200E9097
:1011900000200F90109010201190002012901490B9
:1011A0001390159016904FF48050179000201890CF
:1011B0004FF48040199000201A9007A81B90CDF89A
:1011C00070D00EA8FFF762F801210620FFF744F85F
:1011D0001DB000BD08B501214FF4B070FFF7BAFD96
:1011E0004CF23370ADF8000018208DF80300032096
:1011F0008DF8020069461048FFF7BBF84FF6807083
:10120000ADF8000018208DF8030003208DF80200CF
:1012100069460A48FFF7ADF841F20100ADF8000059
:1012200018208DF8030003208DF802006946044859
:10123000FFF79FF808BD00000014014000180140AE
:101240000020014010B5FFF7C5FFFFF785FF3220F2
:1012500000F02AFD0020FFF723FBFFF7F1F9A14979
:10126000888008468188A0A000F0AAFA0020FFF735
:1012700017FB0020FFF71AFB0020FFF711FB0020EF
:10128000FFF714FB0020FFF70BFB0020FFF70EFB1E
:101290004FF48060FFF704FB4FF4C440FFF706FBF8
:1012A0000820FFF7FDFA40F60800FFF7FFFA0120DB
:1012B000FFF7F6FA4FF48070FFF7F8FA0220FFF715
:1012C000EFFA4FF48070FFF7F1FA0320FFF7E8FA26
:1012D00041F23000FFF7EAFA0820FFF7E1FA40F6A2
:1012E0000800FFF7E3FA4FF44070FFF7D9FA0C203B
:1012F000FFF7DCFA40F20130FFF7D2FA45F60B2097
:10130000FFF7D4FA40F20230FFF7CAFA40F60610AF
:10131000FFF7CCFA40F20330FFF7C2FA41F21700B0
:10132000FFF7C4FA4FF44170FFF7BAFA4FF40C50CC
:10133000FFF7BCFA40F20530FFF7B2FA4FF4B850AD
:10134000FFF7B4FA40F20630FFF7AAFA46F2093086
:10135000FFF7ACFA40F20730FFF7A2FA40F6094077
:10136000FFF7A4FA4FF44270FFF79AFA41F20C002B
:10137000FFF79CFA40F20930FFF792FA42F232206E
:10138000FFF794FA1020FFF78BFA1420FFF78EFA7C
:101390001120FFF785FA40F20110FFF787FA4FF4AA
:1013A0008070FFF77DFA4FF40C70FFF77FFA322060
:1013B00000F07AFC40F20110FFF772FA40F2472089
:1013C000FFF774FA4FF4FA7401E0601E84B2002C47
:1013D000FBDC322000F068FC40F20310FFF760FAFB
:1013E0004FF42060FFF762FA4FF4FA7401E0601ED8
:1013F00084B2002CFBDC0A2000F056FC4FF4207075
:10140000FFF74EFA4FF2FF00FFF750FA322000F0DC
:101410004BFC4FF4FA7401E0601E84B2002CFBDC3C
:101420004FF48170FFF73CFA4BF2B010FFF73EFA31
:101430004FF4FA7401E0601E84B2002CFBDC322011
:1014400000F032FC4FF40470FFF72AFA0020FFF797
:101450002DFA40F21120FFF723FAEF20FFF726FACA
:1014600040F21220FFF71CFA0020FFF71FFA40F2AB
:101470001320FFF715FA40F28F10FFF717FA4FF419
:101480000070FFF70DFA0020FFF710FA40F201207C
:10149000FFF706FA0020FFF709FA40F20140FFF7D4
:1014A000FFF90020FFF702FA0720FFF7F9F94FF4E0
:1014B0008070FFF7FBF94FF4FA7401E0601E84B20C
:1014C000002CFBDC322000F0EFFB40F20220FFF7A3
:1014D000E7F90020FFF774F84FF6FF70FFF74CF8BC
:1014E00010BD00001C000020204C43442049443A19
:1014F00025780D0A0000000010B540F225510C4877
:1015000000F096F870B10A4800F04EF9C4B22146D6
:10151000074800F04EF900BF4021054800F07BF875
:101520000128F9D14021024800F060F810BD000008
:101530000038014010B586B0044601210420FFF7B1
:1015400009FC01218803FFF705FC01210846FFF78C
:1015500001FC4FF40070ADF8140003208DF8160064
:1015600018208DF8170005A91E48FEF702FF4FF45A
:101570008060ADF8140004208DF8170005A9194803
:10158000FEF7F7FE01940020ADF80800ADF80A0060
:10159000ADF80C00ADF810000C20ADF80E0001A95C
:1015A000114800F095F801210F4800F028F840217B
:1015B0000D4800F01BF8012240F225510A4800F0C6
:1015C00061F825208DF8000003208DF801008DF8CA
:1015D000020001208DF803006846FFF757FB06B0B4
:1015E00010BD0000000801400038014001F4007205
:1015F000B2F5007F00D100BFCA430280704721B11D
:10160000828942F40052828104E082894DF6FF73A0
:101610001A408281704702460020B1F5007F00D158
:1016200000BF13880B400BB1012000E00020704781
:1016300070B50246002400230025002040F66A16FB
:10164000B14200D100BFC1F3421501F01F030126D2
:1016500006FA03F3012D02D19689334006E0022DEC
:1016600002D1168A334001E0968A33400C120126DB
:1016700006FA04F41688344013B10CB1012000E0DE
:10168000002070BDF0B50346002400260025002090
:1016900040F66A17B94200D100BF1846C1F34214A0
:1016A00001F01F06012707FA06F5012C01D10C30C5
:1016B00004E0022C01D1103000E014301AB10768A8
:1016C0002F43076002E00768AF430760F0BD0000EA
:1016D0002DE9F04786B005460E460024A24600BF1D
:1016E000A1460027B08900B100BF2F462C8A4CF6D6
:1016F000FF700440F08804432C82AC894EF6F3104E
:101700000440B08831890843718908430443AC819F
:10171000AC8A4FF6FF400440B0890443AC8201A874
:10172000FFF728FB1F48874202D1DDF810A001E037
:10173000DDF80CA0A88900F4004040B10AEBCA0013
:1017400000EB0A1031684900B0FBF1F807E00AEB42
:10175000CA0000EB0A1031688900B0FBF1F8642080
:10176000B8FBF0F004012009642101FB1089A8896D
:1017700000F4004040B1322000EBC900B0FBF1F0B2
:1017800000F00700044308E0322000EB0910642158
:10179000B0FBF1F000F00F0004432C8106B0BDE86F
:1017A000F08700000038014001468888C0F3080037
:1017B0007047C1F308028280704700BFFEE7000057
:1017C0000FB4054B10B503A9044A029800F018F8AD
:1017D00010BC5DF814FB0000F51C00082C00002074
:1017E00002E008C8121F08C1002AFAD170477047EA
:1017F000002001E001C1121F002AFBD17047000048
:101800002DE9FF4F8DB09B460F460446002606E0AB
:1018100025280BD05A460F999047641C761C2078D7
:101820000028F5D111B03046BDE8F08F0025A8465C
:101830000122984900E0054314F8013F203B02FAD9
:1018400003F00842F7D120782E2817D114F8010FA1
:1018500045F004052A280ED06FF02F022078A0F161
:10186000300109290AD808EB880102EB410100EB9D
:101870000108641CF2E757F8048B641C20786C287C
:101880000DD004DC4C2812D06A2811D104E0742851
:101890000DD07A280CD10AE045F4001507E06178F4
:1018A00045F48015814202D1641C05F58015641C45
:1018B0002278692A45D008DC002AB3D0582A69D09A
:1018C000632A10D0642A08D13BE0702A67D0732ABB
:1018D00013D0752A5CD0782A5CD010465A460F99EE
:1018E0009047761CD3E017F8040B8DF80000002019
:1018F0008DF80100E946012003E057F8049B4FF002
:10190000FF3069074FF0000501D40AE06D1C454522
:101910000DDA8542FADB19F805100029F6D106E048
:101920006D1C8542FCDB19F805100029F8D12E4406
:1019300004E019F8010B5A460F9990476D1EF8D232
:10194000A5E00A200021CDE90801C5F302500228D4
:101950000DD001CFC117031E71F100030DDA4FF056
:10196000000CD0EB0C006CEB01012D2308E0FF1DF7
:1019700027F00707F7E80201EDE72B0504D52B2335
:101980008DF8283001233BE0EB0739D02023F7E71F
:101990000A2000E010200021CDE9080107E0102016
:1019A000002145F00405CDE908014FF00808C5F312
:1019B000025002280FD001CF00214FF0000A2B0760
:1019C0001FD5702A0DD0DDE908C38CF0100C5CEA3D
:1019D000030C0CD015E0FF1D27F00707F7E8020104
:1019E000EBE740228DF828204FF0010A0BE050EA87
:1019F000010306D030238DF828308DF829200223EA
:101A00009A46582A04D024A20DF120090B9209E02D
:101A100026A2F9E7DDE90823FEF7B8FB0B9B9B5CE8
:101A200009F8013D50EA0102F4D1ADEB0900203084
:101A30000890680701D44FF001080899884502DD35
:101A4000A8EB010000E000208046002506E00AA87F
:101A50005A46405D0F9990476D1C761C5545F6DB44
:101A600004E030205A460F999047761CB8F10001E7
:101A7000A8F10108F5DC05E019F8010B5A460F99A9
:101A80009047761C0899481E08900029F4DC641CD5
:101A9000C5E60000092801003031323334353637CD
:101AA00038396162636465660000000030313233AA
:101AB000343536373839414243444546000000004A
:101AC00010B58CB02422584903A8FEF74DFB51E015
:101AD0000020FEF703FD0446012C24D100205349C9
:101AE000087053A01021CDE90010534843880288A4
:101AF0008C210A20FEF7A0FE50A01021CDE9001095
:101B00004D4843880288A0210A20FEF795FE4FA089
:101B10001021CDE90010484843880288A021782090
:101B2000FEF78AFE27E0022C24D101203F490870ED
:101B30004BA01021CDE900103F48438802888C213A
:101B40000A20FEF779FE48A01021CDE900103A489E
:101B500043880288A0210A20FEF76EFE46A01021CD
:101B6000CDE90010344843880288A0217820FEF790
:101B700063FE00E0ACE700BF2C48007860BBFEF7D6
:101B800069FF27E003A8FEF7C5FF70B900208DF8B4
:101B90002C0003A81021CDE90010274843880288B3
:101BA000A0217820FEF748FE15E0012000F07CF827
:101BB00035480088401C3449088008460088B0F544
:101BC0007A7F07D10020088030480068C043304940
:101BD000C1F88401D6E700BF14480078012820D15D
:101BE000FEF7B6FF1BE003A8FEF7E6FF20280BD1A7
:101BF00003A81021CDE900100F4843880288A021D6
:101C00007820FEF719FE0BE022A01021CDE900108C
:101C1000094843880288A0217820FEF70DFEE2E7FC
:101C200000BF0CB010BD0000801E000800000020A6
:101C300052585F4D6F6465001C000020526563655B
:101C40006976656420446174613A00002020202098
:101C50002020202020202020202020200000000004
:101C600054585F4D6F64650053656E642044617421
:101C7000613A202020200000202020202020202049
:101C80002020202020200000020000208401224289
:101C90000000224253656E642044617461204661F5
:101CA000696C6564202000000146114A12884A438D
:101CB0004FF0E0235A6100229A611A46126942F0FD
:101CC00001021A6100BF4FF0E022106900F001022A
:101CD0001AB100F48032002AF5D04FF0E0221269E8
:101CE00022F001024FF0E0231A6100229A6170474E
:101CF0002800002070B504460D46E1B20548FFF704
:101D000058FD00BF80210348FFF785FC0028F9D06B
:101D1000204670BD003801401CB5002400BF48209B
:101D2000FFF7CCF94FF4A060FEF7E8FFFEF7CAFD1D
:101D30004FF41650FFF7FEFBFFF784FAFEF7AAFBFD
:101D4000FEF706FE00203249088032A01021CDE9BE
:101D500000103448438802880A210846FEF76CFDCB
:101D600031A01021CDE900102E48438802881E21A1
:101D70000A20FEF761FD30A01021CDE900102948AE
:101D80004388028832210A20FEF756FD2EA010213A
:101D9000CDE9001023484388028846210A20FEF737
:101DA0004BFD4FF478401A4908800AE02EA010211C
:101DB000CDE900101B484388028832218C20FEF7B1
:101DC0003BFDFEF79DFD0028F0D12AA01021CDE9B2
:101DD000001014484388028832218C20FEF72CFD25
:101DE00014E0FFF76DFE601CC4B2142094FBF0F108
:101DF00000FB114038B92148006808B9012000E013
:101E000000201E4908600A20FFF74EFFE9E70000A6
:101E1000180000205052454348494E2053544D333A
:101E2000324631001C0000207777772E7072656390
:101E300068696E2E6E6574004E524632344C3031F5
:101E400020546573740000004B5F55503A52585F40
:101E50004D6F646520204B5F444F574E3A54585F96
:101E60004D6F6465000000004572726F7220202083
:101E700000000000537563636573730080012242A4
:101E80007777772E7072656368696E2E636E0000D7
:101E90000000000000000000000000000000000042
:101EA0000000000000000000000000000000000032
:101EB000003F400000000000000000300040003003
:101EC000004000000009000BC03D000BC03D0009B0
:101ED0000018C024407FE022403180000018002418
:101EE000C01B000D803240018003801C4027401C35
:101EF000800740004010006000000000000000006B
:101F0000000000000000001F802040402000004032
:101F10002020401F8000000000090006001F8006EE
:101F20000009000000040004003F800400040000D9
:101F30000000100060000000000000000004000429
:101F40000004000400040000000000004000000045
:101F50000000000000002001C00600380040000022
:101F6000001F802040204020401F80000000001003
:101F7000403FC000400000000018C0214022402423
:101F8000401840000010802040244024401B800066
:101F90000002000D0011003FC0014000003C802401
:101FA0004024402440238000001F802440244034EB
:101FB00040038000003000200027C03800200000CF
:101FC000001B802440244024401B8000001C002271
:101FD000C0224022401F8000000000000008400096
:101FE000000000000000000000046000000000008D
:101FF00000000004000A0011002080404009000990
:102000000009000900090000000000404020801184
:10201000000A0004001800200023402400180000DB
:10202000001F802040274029401F4000000040073B
:10203000C039000F0001C0004020403FC0244024B0
:10204000401B8000001F8020402040204030800046
:102050000020403FC0204020401F80000020403F23
:10206000C024402E4030C0000020403FC024402EFD
:1020700000300000000F001080204022403380021A
:102080000020403FC0040004003FC020402040200A
:10209000403FC02040204000000060202020203F22
:1020A000C02000200020403FC024400B0030C02052
:1020B0004020403FC020400040004000C03FC03CA6
:1020C0000003C03C003FC0000020403FC00C402344
:1020D000003FC020001F802040204020401F800083
:1020E0000020403FC024402400180000001F802131
:1020F00040214020E01FA0000020403FC024402697
:102100000019C0004018C024402440224031800003
:1021100000300020403FC020403000000020003F41
:1021200080004000403F80200020003E0001C007AA
:102130000038002000380007C03C0007C03800000D
:1021400000204039C0060039C0204000002000387F
:102150004007C0384020000000304021C0264038F1
:102160004020C00000000000007FE0402040200030
:1021700000000070000C00038000400000000040E0
:102180002040207FE00000000000002000400020F0
:1021900000000000000010001000100010001000EF
:1021A00010000000004000000000000000000002DD
:1021B000800540054003C0004020003FC0044004AB
:1021C00040038000000000038004400440064000FB
:1021D0000000000380044024403FC0004000000392
:1021E000800540054003400000000004401FC0245B
:1021F0004024402000000002E00550055006500435
:102200002020403FC00440040003C0004000000400
:102210004027C000400000000000100010041027FC
:10222000E00000000020403FC00140070004C0045F
:1022300040204020403FC000400040000007C00454
:102240000007C0040003C00000044007C0044004AD
:102250000003C000400000038004400440038000ED
:1022600000041007F0045004400380000000000345
:10227000800440045007F00010044007C0024004EE
:102280000004000000000006400540054004C000B6
:1022900000000004001F800440004000000400070C
:1022A000800040044007C000400400070004C00153
:1022B0008006000400060001C0070001C0060000FF
:1022C00000044006C0010006C004400000041007DE
:1022D0001004E00180060004000000044005C00670
:1022E00040044000000000000004007BE0402000AB
:1022F00000000000000000FFF000000000000040AF
:10230000207BE0040000000000400080004000202E
:10231000002000400000000000000000000000005D
:1023200000000000000000000000001FCC000C00B6
:1023300000000000000000080030006000080030CD
:102340000060000000022003FC1E20022003FC1E8F
:10235000200220000000000E1811043FFF10840C22
:1023600078000000000F0010840F3800C0077818B4
:10237000840078000000780F8410C411240E9800A7
:10238000E4008400080800680070000000000000FD
:10239000000000000000000000000007E018182006
:1023A0000440020000000040022004181807E0006A
:1023B00000000000000240024001800FF001800296
:1023C00040024000000080008000800FF800800084
:1023D00080008000000001000D000E0000000000E1
:1023E00000000000000000008000800080008000ED
:1023F00080008000800000000C000C000000000045
:1024000000000000000000000600180060018006C7
:102410000018002000000007F0080810041004084D
:102420000807F000000000080408041FFC00040076
:10243000040000000000000E0C10141024104411C1
:10244000840E0C000000000C18100411041104127A
:10245000880C700000000000E00320042408241F02
:10246000FC0024000000001F9810841104110410C7
:102470008810700000000007F0088811041104188B
:10248000880070000000001C00100010FC13001CED
:10249000001000000000000E381144108410841158
:1024A000440E38000000000700088C104410440857
:1024B0008807F00000000000000000030C030C007F
:1024C0000000000000000000000001010600000004
:1024D00000000000000000008001400220041008FD
:1024E0000810040000022002200220022002200224
:1024F000200220000000001004080804100220013F
:10250000400080000000000E001200100C106C1043
:10251000800F00000003E00C1813E4142417C40813
:102520002807D000000004003C03C41C4007400002
:10253000E4001C000410041FFC1104110411040E1B
:10254000880070000003E00C181004100410041040
:10255000081C10000010041FFC10041004100408D4
:102560000807F0000010041FFC1104110417C41028
:10257000040818000010041FFC1104110017C010FB
:10258000000800000003E00C181004100410441CA4
:10259000780040000010041FFC10840080008010B0
:1025A000841FFC10040000100410041FFC10041011
:1025B000040000000000030001100110011FFE10C4
:1025C000001000000010041FFC11040380146418A4
:1025D0001C1004000010041FFC1004000400040080
:1025E00004000C000010041FFC1F0000FC1F001F53
:1025F000FC1004000010041FFC0C04030000E01099
:10260000181FFC100007F00808100410041004083C
:102610000807F0000010041FFC10841080108010C8
:10262000800F00000007F0081810241024101C0868
:102630000A07F2000010041FFC1104110011C01160
:10264000300E0C000400000E1C11041084108410C5
:10265000441C3800001800100010041FFC10041067
:10266000001800000010001FF810040004000410FF
:10267000041FF8100010001E0011E0001C00701371
:10268000801C0010001FC0103C00E01F0000E01084
:102690003C1FC000001004180C163401C001C01605
:1026A00034180C100410001C00130400FC13041C4C
:1026B00000100000000804101C1064108413041C97
:1026C00004101800000000000000007FFE400240DF
:1026D0000240020000000030000C00038000600097
:1026E0001C0003000000004002400240027FFE0088
:1026F00000000000000000000020004000400040FA
:1027000000200000000001000100010001000100A4
:102710000100010001000040004000200000000016
:102720000000000000000000980124014401440161
:102730004400FC000410001FFC0088010401040098
:10274000880070000000000070008801040104018E
:1027500004008800000000007000880104010411DA
:10276000081FFC0004000000F8014401440144017A
:102770004400C800000000010401040FFC11041112
:102780000411001800000000D601290129012901C7
:10279000C90106000010041FFC00840100010001B3
:1027A0000400FC000400000104190419FC000400EA
:1027B00004000000000000000300010101190119DC
:1027C000FE0000000010041FFC0024004001B401C2
:1027D0000C010400000000100410041FFC000400A1
:1027E0000400000000010401FC0104010001FC01DF
:1027F00004010000FC010401FC008401000100014F
:102800000400FC0004000000F801040104010401BC
:102810000400F80000010101FF008501040104002B
:1028200088007000000000007000880104010401AD
:102830000501FF00010104010401FC008401040101
:102840000001800000000000CC01240124012401CB
:10285000240198000000000100010007F8010401B4
:102860000400000000010001F8000400040004015D
:102870000801FC0004010001800170000C0010013F
:10288000600180010001F0010C003001C000300146
:102890000C01F0010000000104018C0074017001C2
:1028A0008C01040000010101810171000E0018017A
:1028B000600180010000000184010C013401440129
:1028C00084010C0000000000000000000001003E38
:1028D000FC400240020000000000000000FFFF007A
:1028E00000000000000000400240023EFC01000029
:1028F00000000000000000600080008000400040F8
:102900000020002000000000000000000000000087
:1029100000000000000000000000000000000000B7
:1029200000000000000000000000000000000000A7
:1029300000000000000000000F80380FFE380F80FC
:10294000380000000000000000000000000000004F
:102950000000000100000600000C000038000031FB
:1029600000000600000C00003800003000000000ED
:10297000000000000061800067F807F980006180B6
:102980000061800061800061800067F807F98000C5
:10299000618000000000000000000001C0E003E0D2
:1029A000F00630080418081FFFFE040E080787F021
:1029B0000381E000000000000001F000060C0004AC
:1029C0000408060C7001F9C0000E00003BE000ECAA
:1029D00018070808040C180003E00000000001E0DC
:1029E0000007F003F818041C0804170807E1D003D7
:1029F000C0E00023B0003C080020080000100000E8
:102A0000000000000100003100003200001C000046
:102A100000000000000000000000000000000000B6
:102A200000000000000000000000000000000000A6
:102A300000000000007F0001FFC00780F00C0018BC
:102A4000100004200002000000000000200002101E
:102A500000040C00180780F001FFC0007F00000098
:102A60000000000000000000000000000000000066
:102A7000004200006600006600003C0000180003F1
:102A8000FFC0001800003C00006600006600004225
:102A90000000000000080000080000080000080016
:102AA00000080001FFC00008000008000008000046
:102AB00008000008000000000000010000310000D4
:102AC0003200001C000000000000000000000000B8
:102AD00000000000000000000000000000080000EE
:102AE00008000008000008000008000008000008B6
:102AF00000000800000800000800000000000000BE
:102B0000000000000038000038000038000000001D
:102B100000000000000000000000000000000000B5
:102B20000000000000000600001C00007000018092
:102B3000000E0000380000C0000700001C0000303C
:102B40000000000000000000007F8001FFE0038023
:102B500070060018040008040008060018038070BE
:102B600001FFE0007F800000000000000000000185
:102B7000000801000801000803FFF807FFF8000043
:102B8000080000080000080000000000000000002D
:102B900001C03802C0580400980401180402180447
:102BA0000418061C1803F81801E0F80000000000E3
:102BB0000000000001C0E003C0F0040008040808A1
:102BC00004080806180803F41801E7F00001E00003
:102BD0000000000000000000000300000D000011D4
:102BE0000000610000810803010807FFF80FFFF8EB
:102BF0000001080001080000000000000000E007DC
:102C0000FCD006080806100806100806100806186A
:102C100038060FF00607C0000000000000000000AA
:102C2000003F8001FFE0038430020818041008040C
:102C30001008041008071810030FF00007C0000068
:102C40000000000000000003C000070000060000B4
:102C50000600F80607F806180006E0000700000660
:102C6000000000000000000001E1E003F7F006347E
:102C700010041808041808040C08040C0806161898
:102C800003F3F001C1E000000000000000F80003C1
:102C9000FC30030638040208040208040208040495
:102CA000100308F001FFC0007F00000000000000DA
:102CB000000000000000000000000000007038006C
:102CC00070380070380000000000000000000000B4
:102CD00000000000000000000000000000000000F4
:102CE00000301A00301C000000000000000000004E
:102CF00000000000000000000000000008000014B8
:102D000000002200004100008080010040020020FD
:102D1000040010080008000000000000002100006E
:102D200021000021000021000021000021000021DD
:102D30000000210000210000210000000000000030
:102D400000000008000804001002002001004000FC
:102D500080800041000022000014000008000000F4
:102D60000000000003C00004C00004000008003898
:102D7000080F380808380810000C300007E000037E
:102D8000C000000000000000003F8000FFE0038062
:102D900070020F1006708804C088048308047F88BE
:102DA00002C09003012000FE40000008000018004F
:102DB00001F8003E0801C20007020007E20000FE21
:102DC00000001FC80001F8000038000008040008D7
:102DD00007FFF807FFF804080804080804080804B7
:102DE000080806180803F41801E7F00001E00000E5
:102DF00000000000003F8001FFE003807002001827
:102E0000040008040008040008040010060020075D
:102E100080C000000004000807FFF807FFF8040066
:102E20000804000804000804001802001003807061
:102E300001FFE0007F8000000004000807FFF807A2
:102E4000FFF8040808040808040808040808043EF9
:102E500008040008060018010060000000040008D3
:102E600007FFF807FFF80408080408000408000436
:102E70000800043E0006000006000001800000007B
:102E800000000000003F8001FFE003807006001892
:102E90000400080402080402080203F00783F0009B
:102EA000020000020004000807FFF807FFF804080A
:102EB00008000800000800000800000800040808D6
:102EC00007FFF807FFF804000800000000000004F6
:102ED000000804000804000807FFF807FFF80400D2
:102EE00008040008040008000000000000000000C2
:102EF00000000600000700000104000104000104B6
:102F0000000307FFFE07FFFC0400000400000400AC
:102F10000004000807FFF807FFF8040C0800180079
:102F2000003E0004C7800503C80600F8040038040A
:102F3000001800000804000807FFF807FFF8040065
:102F40000800000800000800000800000800000851
:102F500000001800006000000004000807FFF807E8
:102F6000800807FC00007FC00003F80007C000785D
:102F70000007800807FFF807FFF8040008040008AE
:102F800007FFF807000803C00000E0000038000059
:102F90001E000007000001C00400F007FFF8040055
:102FA00000000000007F8001FFE003807006001831
:102FB00004000804000806001803003001FFE000C8
:102FC0007F8000000004000807FFF807FFF80404F2
:102FD00008040400040400040400040400060C00B7
:102FE00003F80001F000000000000000007F8001F5
:102FF000FFE00380700600880400880400C8060013
:103000003C03003E01FFE6007F840000000400084E
:1030100007FFF807FFF8040808040800040C000480
:103020000F00040BC00610F003F03801E0080000A8
:103030000800000001E0F803F03006301004180822
:10304000041808040C08040C080206180207F0070C
:1030500081E0000000018000060000040000040080
:103060000004000807FFF807FFF804000804000048
:1030700004000006000001800004000007FFE007D4
:10308000FFF004001800000800000800000800001D
:103090000800000804001007FFE00400000400001E
:1030A00006000007E00007FE00041FE00001F80032
:1030B00000380001E0043E0007C0000600000400E4
:1030C0000004000007E00007FFC0041FF80007C06D
:1030D00007F80007FF80043FF80007C004F8000766
:1030E000000004000000000004000806001807C0EB
:1030F0007805F1C8003E00001F800463E80780F8EF
:103100000600180400080000000400000600000784
:10311000800007E008047C08001FF80007F800188A
:103120000804E0080700000600000400000000009A
:103130000100080600380400F80403E8040F08043E
:103140007C0805F00807C0080700180400600000AC
:10315000000000000000000000000000000000006F
:103160003FFFFE200002200002200002200002207B
:10317000000200000000000000000008000007003E
:103180000000C0000038000006000001C000003050
:1031900000000E0000010000000000000000002000
:1031A00000022000022000022000022000023FFF57
:1031B000FE00000000000000000000000000000011
:1031C0000000000000000800001000003000002097
:1031D00000003000001000000800000000000000A7
:1031E00000000001000001000001000001000001DA
:1031F00000000100000100000100000100000100CA
:10320000000100000100000000000000000020009C
:10321000002000001000001000000000000000006E
:103220000000000000000000000000000000F000AE
:1032300019F8001B180022080026080024080024A2
:1032400010003FF8001FF800000800001800000000
:1032500004000007FFF80FFFF00018180010080026
:103260002008002008003018001FF0000FC00000E8
:10327000000000000007C0001FF000183000200808
:10328000002008002008003C08001C10000060001E
:1032900000000000000000000007C0001FF0003820
:1032A0001800200800200800200804101007FFF86C
:1032B0000FFFF00000100000000000000000000000
:1032C00007C0001FF0001230002218002208002260
:1032D00008003208001E10000E2000000000000050
:1032E00000200000200800200801FFF803FFF80676
:1032F0002008042008042008072000030000000024
:103300000000000000000E000E6E001FF30031B13F
:103310000020B10020B1003191001F13002E1E00CB
:10332000200E00300000000004000807FFF80FFF27
:10333000F8001008002000002000002008003FF8DE
:10334000001FF8000008000000000000000000005E
:103350002008002008002008063FF8063FF800007B
:103360000800000800000800000000000000000045
:103370000000000000030000030020010020010005
:103380002003063FFE063FFC000000000000000096
:103390000000000004000807FFF80FFFF800018894
:1033A000000300002FC00038F8002038002008007B
:1033B00000080000000000000000000400080400F5
:1033C0000804000807FFF80FFFF8000008000008D5
:1033D000000008000000000000002008003FF80086
:1033E0003FF8001008002000003FF8003FF80010F0
:1033F00008002000003FF8003FF80000080000002F
:10340000002008003FF8003FF800100800100000FE
:103410002000002008003FF8001FF800000800000E
:10342000000000000007C0000FF000183000300856
:10343000002008002008003008001830000FF000BD
:1034400007C0000000000000002001003FFF003F17
:10345000FF0010110020090020080020080030386B
:10346000001FF0000FC00000000000000007C000B7
:103470001FF0003818002008002008002009001064
:1034800011001FFF003FFF000001000000002008A6
:10349000002008002008003FF8003FF8000808005E
:1034A000100800200800200000300000300000005C
:1034B00000000000000000000C78001E1800330817
:1034C0000023080021080021880021980030F00026
:1034D00038600000000000000020000020000020F4
:1034E0000000FFF003FFF80020080020080020087B
:1034F000000030000000000000000000002000007C
:103500003FF0007FF80000180000080000080020CD
:1035100010003FF8007FF0000010000000000000E5
:10352000002000003000003C00003F800023F0003D
:103530000078000070002380003C00003000002074
:1035400000002000003C00003FE00023F80000E005
:10355000002700003E00003FE00021F80001E000ED
:103560003E00002000000000002008002008003875
:1035700038003E680027800003C8002CF800383867
:1035800000201800200800000000000000200000BB
:103590003003003C01003F830023EC000070002357
:1035A00080003C000020000020000000000000001F
:1035B0000000000038080020380020F80023E80050
:1035C0002F88003E08003808002018000070000016
:1035D00000000000000000000000000000000000EB
:1035E0000008000014001FF7FC3000062000020055
:1035F00000000000000000000000000000000000CB
:1036000000000000000000FFFFFF000000000000BD
:10361000000000000000000000000000000000208A
:1036200000023000061FF7FC001400000800000034
:10363000000000000000000000000000000000008A
:103640001800006000004000004000002000001052
:1036500000000800000400000400000C000010003E
:1036600000C6D50000000000E0380000783C0000F3
:103670003C7800003C70C0001CE1E01FFFFFF00040
:103680001CE3000E1CE7C0079CE78003DCEF00038F
:10369000DCEE0001DCFC60009CF9F07FFFFFF8002D
:1036A00000000001C00E0001FFFF0001C00E00017C
:1036B000C00E0001C00E0001FFFE0001C00E00019F
:1036C000C00E0001C00E0001FFFE0001C00E00018F
:1036D000C00E0000000000D6D0000000000007006F
:1036E000000007800000070000000700000007003E
:1036F00000000701801FFFFFE01FFFFFE01E070122
:10370000C01E0701C01E0701C01E0701C01E070121
:10371000C01E0701C01FFFFFC01FFFFFC01E070123
:10372000C01C070180000700000007000000070020
:10373000000007000000070000000700000007006D
:1037400000000700000007000000000000BFC600E6
:1037500000000000000780003C07C001FC07803F1C
:10376000E0078039C1C78001C0E78001C0F7800150
:10377000C0778001DE77807FFE078001C00780036D
:10378000C3C78003E1E78003F8F78007FCE7F00F89
:10379000DE67F80FDC07F81FC0FF801DDFE7803908
:1037A000CC078071C0078061C0078001C00780011D
:1037B000C0078001E0078001E0078001C00700002A
:1037C000000000BCBC000000000380300003C03CCF
:1037D0000003C03C0003C0380003C0380003C038F9
:1037E0006003F838F07FFFFFF003C0380003C038F3
:1037F0000003C0380003DC39C003FFFFE007E383A8
:10380000C03FC183C07FC1C3803BC1C78003C0EF3D
:103810000003C0EF0003C07E0003C07C0003C07C37
:103820000003C0FE003BC3EF803F8787F80FBF0354
:10383000F8077800E000000000C4EA000000000083
:10384000C0000001F0000001E0000003C000C00360
:10385000C001E007FFFFF00703C0000E03C0001E19
:1038600003C0003C03C3007303C78063FFFFC003B2
:1038700083C0000383C0000383C0000383C0000330
:1038800083C0600383C0F07FFFFFF80003C0000027
:1038900003C0000003C0000003C0000003C000001C
:1038A00003C0000003C0000003C00000000000D4FB
:1038B000C2000000000000000000E0070000FFFF61
:1038C0008000F0078000F0070000F0070000F0071C
:1038D0000000F0070000FFFF0000FFFF0000F007FE
:1038E0000000F0070000F0070000F0070000E0070C
:1038F0000000FFFF0000E0070000E0070000E00715
:103900000001E0070001C0070001C00700038007B5
:10391000000780F7000F007F001E001F0038001C0A
:103920000000000000C8D5000000000000000003F7
:1039300000030003FFFF8003FFFF800380070003F5
:10394000800700038007000380070003800700034F
:10395000800700038007000380070003FFFF0003C8
:10396000800700038007000380070003800700032F
:10397000800700038007000380070003800700031F
:1039800080070003FFFF0003800700038007000398
:103990008007000300000000000000D0C700000006
:1039A00000000000000380070003FFFF8003800782
:1039B00000038007000380070003FFFF0003800768
:1039C000000380070003FFFF0003FFFF00038707DA
:1039D000000387C00003C7810003C7838007FFFF80
:1039E000C0070780000F0780001E0786001C078F96
:1039F000003BFFFF80700780000007800000078009
:103A0000E0000781F07FFFFFF800000000000000E9
:103A100000C6DA0000000006000000079E00000754
:103A20009E7FF0079E7FF0079FF8F03FFFF8F01FA2
:103A30009E78F0079E78F0079E78F007FE7FF007EB
:103A40009E78F0079E78F0079E70F007FE70F007F2
:103A50009E70F0079E7FF0079FFFF03FFFF0F01190
:103A60009070F003DCF0F003DEE0F0078FE0F00F81
:103A70000FE0F00E07C0F01C038FF0380F03E020BA
:103A80001C01C0000000003443101001344310102A
:103A900001000000B43A00080000002030000000DF
:103AA000E0170008E43A000830000020000400009D
:103AB000F0170008020000000000000001020304EB
:103AC0000102030406070809020406080000FFFFBC
:103AD00000000000000000000100000000000000E5
:043AE00000000000E2
:0400000508000131BD
:00000001FF
