:020000040800F2
:100000003004002045010008490F0008DD0A0008FF
:10001000450F00082F0200081F190008000000000B
:1000200000000000000000000000000009110008AE
:10003000A508000800000000D10F00081D120008EC
:100040005F0100085F0100085F0100085F01000810
:100050005F0100085F0100085F0100085F01000800
:100060005F0100085F0100085F0100085F010008F0
:100070005F0100085F0100085F0100085F010008E0
:100080005F0100085F0100085F0100085F010008D0
:100090005F0100085F0100085F0100085F010008C0
:1000A0005F0100085F0100085F0100085F010008B0
:1000B0005F0100085F0100085F0100085F010008A0
:1000C0005F0100085F0100085F0100085F01000890
:1000D0005F0100085D1600085F0100085F0100086D
:1000E0005F0100085F0100085F0100085F01000870
:1000F0005F0100085F0100085F0100085F01000860
:100100005F0100085F0100085F0100085F0100084F
:100110005F0100085F0100085F0100085F0100083F
:100120005F0100085F0100085F0100085F0100082F
:10013000DFF80CD000F04AF800480047951C000892
:10014000300400200648804706480047FEE7FEE7E7
:10015000FEE7FEE7FEE7FEE7FEE7FEE7FEE7FEE777
:100160005D120008310100082DE9F05F054600200E
:1001700092469B4688460646814640241BE0284618
:1001800041464746224600F042F853465A46C01AB6
:10019000914110D311461846224600F029F82D1A35
:1001A00067EB01084F4622460120002100F020F8AD
:1001B00017EB00094E41201EA4F10104DFDC484684
:1001C00031462A464346BDE8F09F0000064C074DE5
:1001D00006E0E06840F0010394E807009847103417
:1001E000AC42F6D3FFF7A8FFC43B0008E43B00088D
:1001F000202A04DB203A00FA02F1002070479140E7
:10020000C2F1200320FA03F3194390407047202ADB
:1002100004DB203A21FA02F00021704721FA02F3B0
:10022000D040C2F12002914008431946704700BFF8
:10023000FEE7000010B50021837A012202FA03F1E3
:100240003D4A126842F001023B4B1A603A4A1C32A6
:1002500012688A43384B1C331A60027BCAB9364A8B
:100260000C3212688A43344B0C331A604288C388BC
:1002700042EA0343304A4032847A42F834300288FA
:10028000838842EA03432C4A4032847A02EBC40258
:100290005360027B012A19D1274A0C3212680A43A3
:1002A000254B0C331A604288038842EA0343224AF2
:1002B0004032847A42F83430C288838842EA034369
:1002C0001D4A4032847A02EBC4025360C27A3AB9C2
:1002D000194A121D12688A43174B1B1D1A6006E04B
:1002E000154A121D12680A43134B1B1D1A6002891E
:1002F00032B9114A143212688A430F4B14331A6010
:100300000289012A06D10C4A143212680A430A4BA8
:1003100014331A60427B012A06D1074A1C32126844
:100320000A43054B1C331A60034A126822F001028B
:10033000014B1A6010BD00000066004030B5024657
:1003400000200023146824F002041460146844F0B0
:100350000104146000E05B1C546804F001041CB943
:100360004FF6FF74A342F6D1546804F001040CB9AF
:1003700000206CE08C79012C04D1146844F08004D6
:10038000146003E0146824F080041460CC79012C1C
:1003900004D1146844F04004146003E0146824F0AD
:1003A000400414600C7A012C04D1146844F0200439
:1003B000146003E0146824F0200414604C7A012CCB
:1003C00004D1146844F01004146003E0146824F0AD
:1003D000100414608C7A012C04D1146844F00804D1
:1003E000146003E0146824F008041460CC7A012C33
:1003F00004D1146844F00404146003E0146824F089
:10040000040414608C78A407CD7844EA05640D795F
:1004100044EA05444D7944EA05540D886D1E2C4389
:10042000D461146824F001041460002300E05B1C14
:10043000546804F001041CB14FF6FF74A342F6D1D6
:10044000546804F001040CB1002000E0012030BD2C
:100450000246002019B9D36803F0030006E0012921
:1004600003D1136903F0030000E00020704700008F
:100470002DE9F04188B004460D4616461F46DDF8CA
:1004800038800121480600F0B5FD0121042000F06C
:10049000C1FD4FF40060ADF81C0048208DF81F002E
:1004A00007A9254800F08DFA4FF48050ADF81C00E4
:1004B00018208DF81F0003208DF81E0007A91E4884
:1004C00000F07FFA00208DF816008DF817008DF8E7
:1004D000180001208DF8190000208DF81A008DF801
:1004E0001B008DF812808DF813408DF814608DF884
:1004F0001550ADF8107004A91048FFF71FFF002039
:100500008DF80A008DF80B0001208DF80C000020FA
:10051000ADF80000ADF80200ADF80400ADF806003B
:10052000ADF8080001208DF80D006846FFF782FE47
:1005300008B0BDE8F0810000000801400064004000
:1005400010B500F5D87303EB01131B6803F0040327
:100550001372137A53B900F5D87303EB01131B68B8
:1005600040F2FF7404EA5353136009E000F5D873B6
:1005700003EB01131B686FF0604404EAD30353607C
:1005800000F5D87303EB01131B6803F002035372E9
:1005900000F5D87303EB01135B6803F00F0393724C
:1005A00000F5D87303EB01135B681B0AD37400F5E5
:1005B000D87303EB01139B68D37200F5D87303EB78
:1005C00001139B681C0A147300F5D87303EB011325
:1005D0009B681C0C547300F5D87303EB01139B68E4
:1005E0001B0E937300F5D87303EB0113DB68D37311
:1005F00000F5D87303EB0113DB681C0A147400F5D3
:10060000D87303EB0113DB681C0C547400F5D8732A
:1006100003EB0113DB681B0E937421B9C36843F02D
:100620002003C36003E0036943F02003036110BDAE
:1006300030B585B0054600210C48FFF709FF10B919
:10064000002005B030BD6A4600210848FFF778FF5A
:10065000002404E00DF10B00005D2855641C9DF89A
:100660000A00A042F6D89DF80A00EAE700640040BC
:10067000F0B585B007460D46002412200090019089
:1006800000208DF808008DF809008DF80A5000BF91
:1006900005E0395D0DF10B000155601C84B2AC42E0
:1006A000F7DB69460C4800F019F80646002401E023
:1006B000601C84B23146084800F0A4F818B940F62E
:1006C000FF708442F4DB40F6FF70844202DB0120BD
:1006D00005B0F0BD0020FBE70064004010B5024605
:1006E0000020936803F08063B3F1806F00D110E0C5
:1006F000936803F00063B3F1006F01D1012008E0BB
:10070000936803F08053B3F1805F01D1022000E0D1
:100710000420042874D002F5C07303EB00131B6897
:1007200003F0010402F5C07303EB00131C600B7AA5
:100730007BB94B7A0C8843EA445302F5C07404EB4E
:1007400000142468234302F5C07404EB00142360F2
:1007500010E00B7A4C6843EAC4034C7A234302F559
:10076000C07404EB00142468234302F5C07404EB46
:10077000001423608B7A03F00F038B7202F5C073B1
:1007800003EB00135B6823F00F0402F5C07303EB67
:1007900000135C6002F5C07303EB00135B688C7A96
:1007A000234302F5C07404EB001463608B7B1C06CA
:1007B0004B7B44EA03440B7B44EA0323CC7A234378
:1007C00002F5C07404EB0014A3608B7C1C064B7C08
:1007D00044EA03440B7C44EA0323CC7B234302F525
:1007E000C07404EB0014E36002F5C07303EB001364
:1007F0001B6843F0010402F5C07303EB00131C6097
:1008000010BD000010B50246002321B1012907D018
:1008100002290FD109E090681D4C00EA04030BE0A7
:1008200090681C4C00EA040306E090681A4C00EA49
:10083000040301E0002300BF00BF184C181BA342B3
:1008400016D007DC83B16FF08060184470B10228C5
:1008500018D111E0B0F5007F10D0114C204448B100
:10086000B0F5003F0ED10BE002230DE000230BE0BA
:10087000002309E0002307E0012305E0012303E052
:10088000012301E0002300BF00BFD8B210BD00006B
:10089000030000040003000800000310000100082A
:1008A0000001FFF77047000051B18200A2F1C04281
:1008B000126842F001038200A2F1C042136009E015
:1008C0008200A2F1C0421268034B1A408300A3F1D8
:1008D000C0431A6070470000FEFF0F00D0E901120C
:1008E0001143C2681143026911434269114382698D
:1008F0001143C2691143026A1143426A1143826A79
:100900001143C26A1143026B114302689200A2F1C3
:10091000C0421160816808290BD101688900A1F1EA
:10092000C041096841F0400201688900A1F1C0415D
:100930000A60416B0968426B526841EA0211426BDE
:10094000926841EA0221426B928941EA0241426B7C
:10095000128A41EA0251426B127D41EA0261426B06
:10096000926911430268521C9200A2F1C0421160C8
:10097000C16AB1F5804F1BD1816B0968826B5268E7
:1009800041EA0211826B926841EA0221826B128A6B
:1009900041EA0251826B127D41EA0261826B9269E7
:1009A000114302689200A2F1C042C2F8041107E0AC
:1009B0006FF0704201688900A1F1C041C1F80421C3
:1009C00070472DE9F0410246002500260020002353
:1009D0000024002791F803C00CF00F0591F803C024
:1009E0000CF0100CBCF1000F03D091F802C04CEADF
:1009F000050591F800C0BCF1000F31D0146800204B
:100A00002BE04FF0010C0CFA00F3B1F800C00CEA37
:100A100003069E4220D183004FF00F0C0CFA03F71F
:100A2000BC4305FA03FC4CEA040491F803C0BCF192
:100A3000280F06D14FF0010C0CFA00FCC2F814C0CC
:100A40000AE091F803C0BCF1480F05D14FF0010C4A
:100A50000CFA00FCC2F810C0401C0828D1D3146066
:100A6000B1F800C0BCF1FF0F34DD546800202EE067
:100A700000F1080C4FF0010808FA0CF3B1F800C0BF
:100A80000CEA03069E4221D183004FF00F0C0CFAB2
:100A900003F7BC4305FA03FC4CEA040491F803C0D5
:100AA000BCF1280F05D100F1080C08FA0CF8C2F8C7
:100AB000148091F803C0BCF1480F07D100F1080C75
:100AC0004FF0010808FA0CF8C2F81080401C082802
:100AD000CED35460BDE8F0810161704700BFFEE7EE
:100AE00008B50121442000F095FA0120ADF800007E
:100AF00028208DF8030003208DF80200694608487D
:100B0000FFF75FFF1C20ADF8000048208DF80300C0
:100B100003208DF8020069460248FFF752FF08BD26
:100B2000000801400018014010B504462248007832
:100B3000012826D12148006801280AD020480068F1
:100B400038B11F48001F006818B11D48001D00681B
:100B5000B8B90A2001F066F8002017490870174854
:100B60000068012800D110BD1548006808B90220AE
:100B7000F9E71348001F006808B90320F3E70420D1
:100B8000F1E70E48006878B90D48006801280BD1DC
:100B90000B48001F0068012806D10948001D0068A5
:100BA000012801D104490870012C02D10120024919
:100BB00008700020D7E70000140000200001214247
:100BC0000C01234270B506460F484088401E83B290
:100BD0000D480088401E82B20021084600F05CF8F3
:100BE00000240CE0002504E0304600F08BF9681C7E
:100BF00085B205484088A842F6DC601C84B20248F1
:100C00000088A042EEDC70BD1A00002000B502464C
:100C1000B2B9012000F06AF94FF4807000F06CF96D
:100C2000032000F063F941F2300000F065F94FF461
:100C3000C8700E494880F02008800020887114E0B8
:100C4000012000F053F9002000F056F9032000F0D5
:100C50004DF941F2380000F04FF9F0200349488087
:100C60004FF4C87008800120887100BD1A00002070
:100C700070B504460D4616462B46224629462046A8
:100C800000F00AF8304600F03DF970BD01480088D8
:100C9000704700000008006C30B505460C462E4831
:100CA000807950BB4FF4047000F020F9284600F022
:100CB00023F940F2112000F019F9104600F01CF958
:100CC00040F2122000F012F9204600F015F940F22F
:100CD000132000F00BF9184600F00EF94FF40070E5
:100CE00000F004F9284600F007F940F2012000F076
:100CF000FDF8204600F000F929E040F2122000F053
:100D0000F5F8284600F0F8F840F2132000F0EEF86D
:100D1000104600F0F1F84FF4047000F0E7F82046B8
:100D200000F0EAF840F2112000F0E0F8184600F078
:100D3000E3F840F2012000F0D9F8284600F0DCF892
:100D40004FF4007000F0D2F8204600F0D5F840F2E1
:100D5000022000F0CBF830BD1A0000202DE9F84F3A
:100D600080460E4617461C46B3462046E31704EB62
:100D70005373DB1021464FEAE47C04EB5C7C4FEAC2
:100D8000EC0CA4EBCC0CBCF1000F02D04FF0010C2A
:100D900001E04FF0000C6344224604EBD27C4FEAA2
:100DA0006C0C03FB0CF3DBB20093A7F12000C7B27D
:100DB000002556E00C2C07D107EB47002B4901EB2F
:100DC000800010F8059013E0102C05D1284800EBA6
:100DD000071010F805900BE0182C07D107EBC7009F
:100DE000244901EB800010F8059001E0BDE8F88F80
:100DF0004FF0000A2FE009F0800030B11E48028851
:100E000031464046FFF734FF07E00A9828B91B48EF
:100E1000028831464046FFF72BFF4FEA49604FEA10
:100E20001069701C86B216484088B04200DCDDE7CD
:100E3000A6EB0B00A0420AD15E4608F101001FFAA2
:100E400080F80F480088404500DCCFE706E00AF153
:100E5000010000F0FF0ABAF1080FCCDB00BF681CEC
:100E6000C5B200988542A5DB00BFBFE7DC1F0008C4
:100E700050240008402A0008160000201800002016
:100E80001A0000202DE9F84704460D469046994681
:100E9000DDE9096704F0FF0A08EB04001FFA80F897
:100EA00009EB05001FFA80F916E0444502DB5446C1
:100EB000A81985B24D4500DB14E0002000903A7877
:100EC000334629462046FFF749FF304606EBD071EE
:100ED00004EB61018CB27F1C38787E2802DC387804
:100EE0002028E2DA00BFBDE8F88700000149088049
:100EF00070470000FE07006C014908807047000041
:100F00000008006C01490880704700000008006C70
:100F100008B50121102000F07DF8FF20ADF8000099
:100F200010208DF8030003208DF802006946044864
:100F3000FFF747FDFF210248FFF7CEFD08BD000087
:100F40000010014000BFFEE77047000070B50021AF
:100F500000230F22C47804B3154C246804F4E06421
:100F6000C4F5E064210AC1F10403CA40447804FADC
:100F700003F184781440214309010E4C0678A155F1
:100F8000047804F01F050124AC4005786D11AD0014
:100F900005F1E025C5F8004109E0047804F01F05DB
:100FA0000124AC40044D0678761145F8264070BD0A
:100FB0000CED00E000E400E080E100E002490143C4
:100FC000024A1160704700000000FA050CED00E0D5
:100FD0007047000029B1064A52690243044B5A6126
:100FE00004E0034A52698243014B5A617047000092
:100FF0000010024029B1064AD2690243044BDA616B
:1010000004E0034AD2698243014BDA617047000071
:101010000010024029B1064A92690243044B9A61CA
:1010200004E0034A92698243014B9A6170470000D1
:101030000010024030B500210022002400232D4D75
:101040006D6805F00C0121B1042905D0082923D1D0
:1010500005E0294D056022E0274D05601FE0254D84
:101060006D6805F47012234D6D6805F48034022517
:1010700005EB92421CB9214D554305600BE01D4D17
:101080006D6805F400351DB11C4D5543056002E047
:10109000194D5543056002E0174D056000BF00BFC4
:1010A000144D6D6805F0F0010909154D6B5C05687C
:1010B000DD4045600F4D6D6805F4E061090A104D93
:1010C0006B5C4568DD4085600A4D6D6805F46051D4
:1010D000C90A0B4D6B5C4568DD40C560054D6D6808
:1010E00005F44041890B074D6B5CC568B5FBF3F512
:1010F000056130BD0010024000127A0000093D0079
:101100000000002010000020704710B500F002F829
:1011100010BD00000CB5002001900090334800681D
:1011200040F480303149086000BF3048006800F466
:10113000003000900198401C0190009818B9019867
:10114000B0F5A06FF1D12948006800F4003010B16B
:101150000120009001E0002000900098012843D178
:101160002348006840F010002149086008460068E4
:1011700020F0030008600846006840F002000860A4
:101180001A4840681949486008464068486008465F
:10119000406840F4806048600846406820F47C1055
:1011A00048600846406840F4E81048600846006817
:1011B00040F08070086000BF0C48006800F00070CC
:1011C0000028F9D00948406820F00300074948602A
:1011D0000846406840F00200486000BF034840688D
:1011E00000F00C000828F9D10CBD000000100240EE
:1011F00000200240042808D14FF0E021096941F0A5
:1012000004014FF0E022116107E04FF0E02109698D
:1012100021F004014FF0E022116170477047000097
:1012200010B504466FF00400FFF7E4FFE11704EB8C
:101230005171C1F3C701074A11701046007800EBE5
:101240004001C1EBC0104FF6FF7101EAC000024936
:10125000088010BD220000202400002010B5134893
:10126000006840F0010011490860084640681049D4
:1012700008400E494860084600680E4908400B497E
:1012800008600846006820F480200860084640682E
:1012900020F4FE0048604FF41F008860FFF735FF20
:1012A0004FF000600449086010BD000000100240CB
:1012B0000000FFF8FFFFF6FE08ED00E000B59DB06E
:1012C00001210802FFF786FE012007900020089008
:1012D0000F20099000200A900B900C900D90009028
:1012E0000190032002900020039004900590069046
:1012F00006200E9000200F901090102011900020DA
:10130000129014901390159016904FF480501790EF
:10131000002018904FF48040199000201A9007A8E0
:101320001B90CDF870D00EA8FFF7D8FA0121062047
:10133000FFF7BAFA1DB000BD08B501214FF4B07037
:10134000FFF768FE4CF23370ADF8000018208DF8FE
:10135000030003208DF8020069461048FFF731FBB7
:101360004FF68070ADF8000018208DF803000320C0
:101370008DF8020069460A48FFF723FB41F201009D
:10138000ADF8000018208DF8030003208DF802004E
:1013900069460448FFF715FB08BD00000014014032
:1013A000001801400020014010B5FFF7C5FFFFF70E
:1013B00085FF322000F036FC0020FFF797FDFFF795
:1013C00065FCA149888008468188A0A000F0AAFA9F
:1013D0000020FFF78BFD0020FFF78EFD0020FFF7B8
:1013E00085FD0020FFF788FD0020FFF77FFD00202E
:1013F000FFF782FD4FF48060FFF778FD4FF4C440A3
:10140000FFF77AFD0820FFF771FD40F60800FFF7AF
:1014100073FD0120FFF76AFD4FF48070FFF76CFD4C
:101420000220FFF763FD4FF48070FFF765FD032096
:10143000FFF75CFD41F23000FFF75EFD0820FFF78B
:1014400055FD40F60800FFF757FD4FF44070FFF7D9
:101450004DFD0C20FFF750FD40F20130FFF746FD37
:1014600045F60B20FFF748FD40F20230FFF73EFD46
:1014700040F60610FFF740FD40F20330FFF736FD5F
:1014800041F21700FFF738FD4FF44170FFF72EFDD2
:101490004FF40C50FFF730FD40F20530FFF726FD0A
:1014A0004FF4B850FFF728FD40F20630FFF71EFD5D
:1014B00046F20930FFF720FD40F20730FFF716FD36
:1014C00040F60940FFF718FD4FF44270FFF70EFD9C
:1014D00041F20C00FFF710FD40F20930FFF706FD66
:1014E00042F23220FFF708FD1020FFF7FFFC142026
:1014F000FFF702FD1120FFF7F9FC40F20110FFF7A2
:10150000FBFC4FF48070FFF7F1FC4FF40C70FFF719
:10151000F3FC322000F086FB40F20110FFF7E6FCFE
:1015200040F24720FFF7E8FC4FF4FA7401E0601E38
:1015300084B2002CFBDC322000F074FB40F203107C
:10154000FFF7D4FC4FF42060FFF7D6FC4FF4FA7499
:1015500001E0601E84B2002CFBDC0A2000F062FB7C
:101560004FF42070FFF7C2FC4FF2FF00FFF7C4FCFE
:10157000322000F057FB4FF4FA7401E0601E84B291
:10158000002CFBDC4FF48170FFF7B0FC4BF2B01085
:10159000FFF7B2FC4FF4FA7401E0601E84B2002C35
:1015A000FBDC322000F03EFB4FF40470FFF79EFCA2
:1015B0000020FFF7A1FC40F21120FFF797FCEF207D
:1015C000FFF79AFC40F21220FFF790FC0020FFF793
:1015D00093FC40F21320FFF789FC40F28F10FFF7D5
:1015E0008BFC4FF40070FFF781FC0020FFF784FCB8
:1015F00040F20120FFF77AFC0020FFF77DFC40F26B
:101600000140FFF773FC0020FFF776FC0720FFF78F
:101610006DFC4FF48070FFF76FFC4FF4FA7401E03B
:10162000601E84B2002CFBDC322000F0FBFA40F29A
:101630000220FFF75BFC0020FFF7E8FA4FF6FF708F
:10164000FFF7C0FA10BD00001A000020204C4344F0
:101650002049443A25780D0A0000000010B540F2F8
:1016600025510C4800F096F870B10A4800F04EF988
:10167000C4B22146074800F04EF900BF402105489A
:1016800000F07BF80128F9D14021024800F060F811
:1016900010BD00000038014010B586B0044601219D
:1016A0000420FFF7B7FC01218803FFF7B3FC0121F9
:1016B0000846FFF7AFFC4FF40070ADF814000320AC
:1016C0008DF8160018208DF8170005A91E48FFF7A1
:1016D00078F94FF48060ADF8140004208DF81700FD
:1016E00005A91948FFF76DF901940020ADF808002D
:1016F000ADF80A00ADF80C00ADF810000C20ADF804
:101700000E0001A9114800F095F801210F4800F0E2
:1017100028F840210D4800F01BF8012240F2255125
:101720000A4800F061F825208DF8000003208DF8AC
:1017300001008DF8020001208DF803006846FFF7D4
:1017400005FC06B010BD0000000801400038014053
:1017500001F40072B2F5007F00D100BFCA430280DD
:10176000704721B1828942F40052828104E082896B
:101770004DF6FF731A408281704702460020B1F592
:10178000007F00D100BF13880B400BB1012000E0A7
:101790000020704770B50246002400230025002079
:1017A00040F66A16B14200D100BFC1F3421501F004
:1017B0001F03012606FA03F3012D02D19689334057
:1017C00006E0022D02D1168A334001E0968A3340AA
:1017D0000C12012606FA04F41688344013B10CB139
:1017E000012000E0002070BDF0B503460024002673
:1017F0000025002040F66A17B94200D100BF184604
:10180000C1F3421401F01F06012707FA06F5012C67
:1018100001D10C3004E0022C01D1103000E0143072
:101820001AB107682F43076002E00768AF430760FB
:10183000F0BD00002DE9F04786B005460E460024B5
:10184000A24600BFA1460027B08900B100BF2F46C5
:101850002C8A4CF6FF700440F08804432C82AC893B
:101860004EF6F3100440B08831890843718908436B
:101870000443AC81AC8A4FF6FF400440B089044376
:10188000AC8201A8FFF7D6FB1F48874202D1DDF8E2
:1018900010A001E0DDF80CA0A88900F4004040B1E0
:1018A0000AEBCA0000EB0A1031684900B0FBF1F8FE
:1018B00007E00AEBCA0000EB0A1031688900B0FBB0
:1018C000F1F86420B8FBF0F004012009642101FB69
:1018D0001089A88900F4004040B1322000EBC90013
:1018E000B0FBF1F000F00700044308E0322000EB09
:1018F00009106421B0FBF1F000F00F0004432C81CB
:1019000006B0BDE8F0870000003801400146888835
:10191000C0F308007047C1F308028280704700BF1F
:10192000FEE700000FB4054B10B503A9044A029866
:1019300000F018F810BC5DF814FB0000711C0008E2
:101940002800002002E008C8121F08C1002AFAD1AE
:1019500070477047002001E001C1121F002AFBD12F
:10196000704700002DE9FF4F8DB09B460F4604469F
:10197000002606E025280BD05A460F999047641C94
:10198000761C20780028F5D111B03046BDE8F08FE4
:101990000025A8460122984900E0054314F8013FBC
:1019A000203B02FA03F00842F7D120782E2817D105
:1019B00014F8010F45F004052A280ED06FF02F020D
:1019C0002078A0F1300109290AD808EB880102EB40
:1019D000410100EB0108641CF2E757F8048B641C1A
:1019E00020786C280DD004DC4C2812D06A2811D144
:1019F00004E074280DD07A280CD10AE045F40015D3
:101A000007E0617845F48015814202D1641C05F538
:101A10008015641C2278692A45D008DC002AB3D0DE
:101A2000582A69D0632A10D0642A08D13BE0702A72
:101A300067D0732A13D0752A5CD0782A5CD0104600
:101A40005A460F999047761CD3E017F8040B8DF88F
:101A5000000000208DF80100E946012003E057F85E
:101A6000049B4FF0FF3069074FF0000501D40AE0F6
:101A70006D1C45450DDA8542FADB19F80510002981
:101A8000F6D106E06D1C8542FCDB19F80510002933
:101A9000F8D12E4404E019F8010B5A460F999047EB
:101AA0006D1EF8D2A5E00A200021CDE90801C5F39A
:101AB000025002280DD001CFC117031E71F100039F
:101AC0000DDA4FF0000CD0EB0C006CEB01012D2374
:101AD00008E0FF1D27F00707F7E80201EDE72B05F7
:101AE00004D52B238DF8283001233BE0EB0739D0B8
:101AF0002023F7E70A2000E010200021CDE90801AB
:101B000007E01020002145F00405CDE908014FF061
:101B10000808C5F3025002280FD001CF00214FF072
:101B2000000A2B071FD5702A0DD0DDE908C38CF001
:101B3000100C5CEA030C0CD015E0FF1D27F0070722
:101B4000F7E80201EBE740228DF828204FF0010A68
:101B50000BE050EA010306D030238DF828308DF8D1
:101B6000292002239A46582A04D024A20DF12009E4
:101B70000B9209E026A2F9E7DDE90823FEF7F4FA63
:101B80000B9B9B5C09F8013D50EA0102F4D1ADEBDF
:101B9000090020300890680701D44FF00108089927
:101BA000884502DDA8EB010000E00020804600250A
:101BB00006E00AA85A46405D0F9990476D1C761CB6
:101BC0005545F6DB04E030205A460F999047761CC5
:101BD000B8F10001A8F10108F5DC05E019F8010BE6
:101BE0005A460F999047761C0899481E089000297C
:101BF000F4DC641CC5E600000928010030313233F2
:101C00003435363738396162636465660000000038
:101C10003031323334353637383941424344454622
:101C2000000000000146114A12884A434FF0E023A9
:101C30005A6100229A611A46126942F001021A6141
:101C400000BF4FF0E022106900F001021AB100F469
:101C50008032002AF5D04FF0E022126922F0010212
:101C60004FF0E0231A6100229A617047240000209F
:101C700070B504460D46E1B20548FFF74CFE00BFC3
:101C800080210348FFF779FD0028F9D0204670BD78
:101C9000003801408AB04FF0000800240026482098
:101CA000FFF7BEFA4FF4A060FFF788F9FFF730F9AD
:101CB0004FF41650FFF7F0FCFEF712FFFFF774FB2E
:101CC00000208649088086A01021CDE900108A48AE
:101CD000438802880A210846FFF7D4F887A010211C
:101CE000CDE900108448438802885A210A20FFF772
:101CF000C9F888A01021CDE900107F4843880288E8
:101D000078210A20FFF7BEF884A01021CDE9001049
:101D100079484388028878213220FFF7B3F884A0FD
:101D20001021CDE9001074484388028896210A20CA
:101D3000FFF7A8F881A01021CDE900106E48438874
:101D40000288B4210A20FFF79DF8002006231A46D6
:101D500005210090FEF78CFB4FF478405F49088026
:101D6000BBE00020FEF7E0FE0546012D3ED106B99E
:101D700000E00020064606231A46052100200096B2
:101D8000FEF776FB71A01021CDE900105A48438878
:101D9000028896215A20FFF775F86CA01021CDE932
:101DA0000010554843880288B4217220FFF76AF872
:101DB00076B96CA0FFF7B6FD58A01021CDE9001050
:101DC0004D484388028878213220FFF75BF80DE008
:101DD00068A0FFF7A7FD6BA01021CDE900104648D1
:101DE0004388028878213220FFF74CF8022D3DD13C
:101DF000002407E008A80455005D303005A9085507
:101E0000601CC4B2082CF5DB00208DF81C0005A86E
:101E10001021CDE9001038484388028896215A20C5
:101E2000FFF730F8082108A8FEF722FC074677B133
:101E300059A0FFF777FD5CA01021CDE900102E48D6
:101E4000438802889621AA20FFF71CF80EE005A916
:101E500057A0FFF767FD5AA01021CDE900102648D2
:101E6000438802889621AA20FFF70CF803A8FEF702
:101E7000DFFB0746E7B1002406E003A8005D303031
:101E800005A90855601CC4B2BC42F6DB00208DF8E1
:101E90001C0005A81021CDE90010174843880288CE
:101EA000B4217220FEF7EEFF05A947A0FFF73AFD27
:101EB00008F1010000F0FF08142098FBF0F100FB8E
:101EC000118038B94448006808B9012000E00020BA
:101ED000414908600A20FFF7A5FE42E716000020EE
:101EE00043414E205465737421204275616E643AFB
:101EF0003530304B627073001A0000204B5F555034
:101F00003A4D4F444520204B5F444F574E3A53655E
:101F10006E6400004D6F64653A00000043414E5FFF
:101F20004D6F64655F4E6F726D616C202020000004
:101F300053656E6420446174613A000052656365C4
:101F400069766520446174613A00000020202020F9
:101F50002020202020202020202020202020202081
:101F6000202000004E6F726D616C204D6F64650D16
:101F70000A0000004C6F6F704261636B204D6F640C
:101F8000650D0A0043414E5F4D6F64655F4C6F6F96
:101F9000704261636B00000053656E6420466169A6
:101FA0006C6564210D0A00004661696C656420005F
:101FB000B7A2CBCDCAFDBEDDA3BA25730D0A0000C2
:101FC0005375636365737300BDD3CAD5CAFDBEDDA7
:101FD000A3BA25730D0A0000800122420000000010
:101FE0000000000000000000000000003F40000072
:101FF0000000000000003000400030004000000001
:1020000009000BC03D000BC03D00090018C0244072
:102010007FE0224031800000180024C01B000D80AA
:102020003240018003801C4027401C800740004054
:102030001000600000000000000000000000000030
:1020400000001F80204040200000402020401F80D2
:1020500000000000090006001F80060009000000C3
:10206000040004003F800400040000000010006031
:102070000000000000000000040004000400040050
:10208000040000000000004000000000000000000C
:10209000002001C006003800400000001F802040E2
:1020A000204020401F800000000010403FC0004042
:1020B0000000000018C021402240244018400000C9
:1020C00010802040244024401B80000002000D00AE
:1020D00011003FC0014000003C80244024402440C7
:1020E000238000001F8024402440344003800000EF
:1020F0003000200027C03800200000001B80244052
:10210000244024401B8000001C0022C022402240AA
:102110001F800000000000000840000000000000D8
:102120000000000004600000000000000000040047
:102130000A00110020804040090009000900090040
:102140000900000000004040208011000A00040047
:102150001800200023402400180000001F802040A9
:10216000274029401F400000004007C039000F00F1
:1021700001C0004020403FC0244024401B8000009C
:102180001F802040204020403080000020403FC081
:10219000204020401F80000020403FC024402E40AF
:1021A00030C0000020403FC024402E00300000001E
:1021B0000F001080204022403380020020403FC0AA
:1021C000040004003FC02040204020403FC0204089
:1021D000204000000060202020203FC02000200080
:1021E00020403FC024400B0030C0204020403FC072
:1021F00020400040004000C03FC03C0003C03C0005
:102200003FC0000020403FC00C4023003FC02000E2
:102210001F802040204020401F80000020403FC001
:1022200024402400180000001F802140214020E0AD
:102230001FA0000020403FC02440260019C00040DD
:1022400018C024402440224031800000300020404B
:102250003FC020403000000020003F800040004090
:102260003F80200020003E0001C007003800200011
:10227000380007C03C0007C038000000204039C0CB
:10228000060039C0204000002000384007C0384018
:1022900020000000304021C02640384020C000000F
:1022A000000000007FE0402040200000000070009F
:1022B0000C000380004000000000402040207FE030
:1022C000000000000000200040002000000000008E
:1022D000001000100010001000100010000000009E
:1022E00040000000000000000000028005400540A2
:1022F00003C0004020003FC00440044003800000B1
:1023000000000380044004400640000000000380F9
:10231000044024403FC000400000038005400540C9
:1023200003400000000004401FC02440244020005F
:10233000000002E0055005500650042020403FC038
:102340000440040003C000400000044027C00040D7
:102350000000000000100010041027E00000000042
:1023600020403FC00140070004C0044020402040FE
:102370003FC000400040000007C0040007C0040048
:1023800003C00000044007C00440040003C0004034
:10239000000003800440044003800000041007F0A4
:1023A00004500440038000000000038004400450F7
:1023B00007F00010044007C00240040004000000C1
:1023C000000006400540054004C000000000040075
:1023D0001F800440004000000400078000400440CB
:1023E00007C000400400070004C00180060004008C
:1023F000060001C0070001C006000000044006C03E
:10240000010006C0044000000410071004E0018031
:10241000060004000000044005C00640044000001F
:102420000000000004007BE04020000000000000ED
:102430000000FFF000000000000040207BE00400EE
:10244000000000004000800040002000200040000C
:10245000000000000000000000000000000000007C
:102460000000000000001FCC000C00000000000075
:10247000000008003000600008003000600000002C
:10248000022003FC1E20022003FC1E20022000006C
:1024900000000E1811043FFF10840C7800000000AB
:1024A0000F0010840F3800C00778188400780000EF
:1024B00000780F8410C411240E9800E400840008F2
:1024C000080068007000000000000000000000002C
:1024D00000000000000007E018182004400200007F
:1024E000000040022004181807E00000000000006F
:1024F0000240024001800FF00180024002400000D3
:102500000080008000800FF80080008000800000C4
:102510000001000D000E000000000000000000009F
:10252000000000800080008000800080008000802B
:102530000000000C000C0000000000000000000083
:10254000000000060018006001800600180020004E
:10255000000007F0080810041004080807F0000045
:102560000000080408041FFC000400040000000030
:1025700000000E0C10141024104411840E0C0000E6
:1025800000000C1810041104110412880C700000D3
:10259000000000E00320042408241FFC00240000A5
:1025A00000001F981084110411041088107000009E
:1025B000000007F00888110411041888007000005A
:1025C00000001C00100010FC13001C001000000094
:1025D00000000E3811441084108411440E3800009D
:1025E00000000700088C10441044088807F0000021
:1025F000000000000000030C030C000000000000BD
:1026000000000000000101060000000000000000C2
:10261000000000800140022004100808100400009F
:1026200002200220022002200220022002200000BC
:10263000000010040808041002200140008000007F
:1026400000000E001200100C106C10800F00000033
:1026500003E00C1813E4142417C4082807D0000062
:102660000004003C03C41C40074000E4001C0004BC
:1026700010041FFC1104110411040E8800700000E6
:1026800003E00C1810041004100410081C100000C3
:1026900010041FFC100410041004080807F00000C8
:1026A00010041FFC1104110417C4100408180000C2
:1026B00010041FFC1104110017C0100008000000D6
:1026C00003E00C181004100410441C7800400000B3
:1026D00010041FFC10840080008010841FFC100474
:1026E0000000100410041FFC10041004000000007F
:1026F00000030001100110011FFE10001000000077
:1027000010041FFC110403801464181C1004000042
:1027100010041FFC1004000400040004000C00005E
:1027200010041FFC1F0000FC1F001FFC1004000011
:1027300010041FFC0C04030000E010181FFC100024
:1027400007F00808100410041004080807F000003F
:1027500010041FFC10841080108010800F000000F7
:1027600007F0081810241024101C080A07F20000B3
:1027700010041FFC1104110011C011300E0C0004D4
:1027800000000E1C11041084108410441C3800003A
:102790001800100010041FFC1004100018000000A6
:1027A00010001FF810040004000410041FF81000AB
:1027B00010001E0011E0001C007013801C001000AF
:1027C0001FC0103C00E01F0000E0103C1FC00000D4
:1027D0001004180C163401C001C01634180C100473
:1027E00010001C00130400FC13041C001000000067
:1027F0000804101C1064108413041C04101800003A
:102800000000000000007FFE400240024002000085
:10281000000030000C0003800060001C000300007A
:1028200000004002400240027FFE00000000000065
:102830000000000020004000400040002000000098
:102840000001000100010001000100010001000180
:1028500000004000400020000000000000000000D8
:1028600000000098012401440144014400FC0004DC
:1028700010001FFC008801040104008800700000A3
:1028800000000070008801040104010400880000B9
:102890000000007000880104010411081FFC0004FE
:1028A000000000F8014401440144014400C8000054
:1028B0000000010401040FFC1104110411001800B0
:1028C000000000D601290129012901C901060000E3
:1028D00010041FFC008401000100010400FC00043E
:1028E00000000104190419FC0004000400000000A9
:1028F0000000000300010101190119FE00000000A1
:1029000010041FFC0024004001B4010C010400006D
:102910000000100410041FFC00040004000000006C
:10292000010401FC0104010001FC0104010000FCA0
:10293000010401FC008401000100010400FC00040A
:10294000000000F8010401040104010400F8000083
:10295000010101FF008501040104008800700000EE
:1029600000000070008801040104010501FF00015E
:102970000104010401FC0084010401000180000045
:10298000000000CC0124012401240124019800004E
:1029900000000100010007F801040104000000002C
:1029A000010001F8000400040004010801FC000417
:1029B000010001800170000C001001600180010025
:1029C00001F0010C003001C00030010C01F00100E9
:1029D00000000104018C00740170018C01040000EE
:1029E000010101810171000E0018016001800100E8
:1029F00000000184010C013401440184010C000039
:102A0000000000000000000001003EFC4002400207
:102A10000000000000000000FFFF000000000000B8
:102A20000000400240023EFC0100000000000000E7
:102A30000000600080008000400040002000200076
:102A40000000000000000000000000000000000086
:102A50000000000000000000000000000000000076
:102A60000000000000000000000000000000000066
:102A70000000000F80380FFE380F80380000000083
:102A80000000000000000000000000000000010045
:102A9000000600000C0000380000310000060000B5
:102AA0000C000038000030000000000000000000B2
:102AB00061800067F807F980006180006180006133
:102AC000800061800067F807F980006180000000E5
:102AD00000000000000001C0E003E0F00630080440
:102AE00018081FFFFE040E080787F00381E00000AE
:102AF0000000000001F000060C00040408060C7041
:102B000001F9C0000E00003BE000EC1807080804C3
:102B10000C180003E00000000001E00007F003F8DB
:102B200018041C0804170807E1D003C0E00023B014
:102B3000003C080020080000100000000000000118
:102B400000003100003200001C0000000000000006
:102B50000000000000000000000000000000000075
:102B60000000000000000000000000000000000065
:102B70007F0001FFC00780F00C0018100004200047
:102B8000020000000000002000021000040C0018E9
:102B90000780F001FFC0007F00000000000000007F
:102BA000000000000000000000000000420000667D
:102BB00000006600003C0000180003FFC000180081
:102BC000003C0000660000660000420000000000BB
:102BD000080000080000080000080000080001FFCD
:102BE000C0000800000800000800000800000800FD
:102BF00000000000000100003100003200001C0055
:102C000000000000000000000000000000000000C4
:102C1000000000000000000008000008000008009C
:102C2000000800000800000800000800000800007C
:102C30000800000800000000000000000000000084
:102C400038000038000038000000000000000000DC
:102C50000000000000000000000000000000000074
:102C6000000600001C000070000180000E0000380B
:102C70000000C0000700001C000030000000000041
:102C8000000000007F8001FFE00380700600180450
:102C9000000804000806001803807001FFE0007FB0
:102CA0008000000000000000000001000801000892
:102CB00001000803FFF807FFF80000080000080003
:102CC000000800000000000000000001C03802C041
:102CD00058040098040118040218040418061C186B
:102CE00003F81801E0F800000000000000000001F7
:102CF000C0E003C0F004000804080804080806182F
:102D00000803F41801E7F00001E0000000000000F3
:102D1000000000000300000D000011000061000031
:102D2000810803010807FFF80FFFF8000108000100
:102D3000080000000000000000E007FCD0060808C2
:102D4000061008061008061008061838060FF006C8
:102D500007C0000000000000000000003F8001FFED
:102D6000E003843002081804100804100804100856
:102D7000071810030FF00007C0000000000000005B
:102D8000000003C0000700000600000600F8060768
:102D9000F806180006E0000700000600000000002A
:102DA00000000001E1E003F7F00634100418080405
:102DB0001808040C08040C0806161803F3F001C1E7
:102DC000E000000000000000F80003FC30030638BB
:102DD0000402080402080402080404100308F001B5
:102DE000FFC0007F000000000000000000000000A5
:102DF00000000000000000007038007038007038DB
:102E000000000000000000000000000000000000C2
:102E1000000000000000000000000000301A003038
:102E20001C00000000000000000000000000000086
:102E30000000000000000008000014000022000054
:102E400041000080800100400200200400100800C2
:102E50000800000000000000210000210000210007
:102E600000210000210000210000210000210000BD
:102E70002100002100000000000000000000080008
:102E80000804001002002001004000808000410082
:102E900000220000140000080000000000000003F1
:102EA000C00004C000040000080038080F380808FB
:102EB000380810000C300007E00003C000000000DC
:102EC000000000003F8000FFE0038070020F10064A
:102ED000708804C088048308047F8802C0900301BE
:102EE0002000FE400000080000180001F8003E0825
:102EF00001C20007020007E20000FE00001FC80038
:102F000001F800003800000804000807FFF807FF78
:102F1000F804080804080804080804080806180843
:102F200003F41801E7F00001E000000000000000D9
:102F30003F8001FFE00380700200180400080400D5
:102F4000080400080400100600200780C0000000EC
:102F500004000807FFF807FFF8040008040008044D
:102F6000000804001802001003807001FFE0007FD9
:102F70008000000004000807FFF807FFF8040808B5
:102F8000040808040808040808043E0804000806A9
:102F9000001801006000000004000807FFF807FFA8
:102FA000F8040808040800040800040800043E00AF
:102FB0000600000600000180000000000000000084
:102FC0003F8001FFE003807006001804000804023F
:102FD000080402080203F00783F000020000020068
:102FE00004000807FFF807FFF804080800080000BD
:102FF000080000080000080004080807FFF807FFA1
:10300000F8040008000000000000040008040008A4
:1030100004000807FFF807FFF8040008040008048C
:103020000008000000000000000000000006000092
:103030000700000104000104000104000307FFFE73
:1030400007FFFC040000040000040000040008075F
:10305000FFF807FFF8040C08001800003E0004C742
:10306000800503C80600F8040038040018000008B2
:1030700004000807FFF807FFF80400080000080034
:103080000008000008000008000008000018000008
:103090006000000004000807FFF807800807FC0034
:1030A000007FC00003F80007C00078000780080711
:1030B000FFF807FFF804000804000807FFF80700FE
:1030C0000803C00000E000003800001E00000700F8
:1030D0000001C00400F007FFF80400000000000039
:1030E0007F8001FFE00380700600180400080400E0
:1030F0000806001803003001FFE0007F8000000098
:1031000004000807FFF807FFF8040408040400049B
:103110000400040400040400060C0003F80001F09D
:1031200000000000000000007F8001FFE0038070CD
:103130000600880400880400C806003C03003E0125
:10314000FFE6007F8400000004000807FFF807FF87
:10315000F8040808040800040C00040F00040BC065
:103160000610F003F03801E008000008000000013C
:10317000E0F803F030063010041808041808040CB6
:1031800008040C080206180207F00781E00000009E
:10319000018000060000040000040000040008078D
:1031A000FFF807FFF8040008040000040000060010
:1031B0000001800004000007FFE007FFF004001892
:1031C00000000800000800000800000800000804D3
:1031D000001007FFE004000004000006000007E004
:1031E0000007FE00041FE00001F80000380001E0C5
:1031F000043E0007C00006000004000004000007B1
:10320000E00007FFC0041FF80007C007F80007FF31
:1032100080043FF80007C004F80007000004000025
:1032200000000004000806001807C07805F1C80077
:103230003E00001F800463E80780F80600180400C1
:103240000800000004000006000007800007E008F6
:10325000047C08001FF80007F800180804E00807BD
:103260000000060000040000000000010008060045
:10327000380400F80403E8040F08047C0805F0088B
:1032800007C00807001804006000000000000000EC
:1032900000000000000000000000003FFFFE2000D2
:1032A0000220000220000220000220000200000094
:1032B00000000000000008000007000000C000003F
:1032C00038000006000001C000003000000E0000C1
:1032D00001000000000000000000200002200002A9
:1032E0002000022000022000023FFFFE000000003C
:1032F00000000000000000000000000000000000CE
:103300000008000010000030000020000030000025
:103310001000000800000000000000000000010094
:103320000001000001000001000001000001000098
:103330000100000100000100000100000100000187
:10334000000000000000000000200000200000102D
:10335000000010000000000000000000000000005D
:10336000000000000000000000F00019F8001B1829
:10337000002208002608002408002410003FF8005E
:103380001FF800000800001800000004000007FFFC
:10339000F80FFFF00018180010080020080020089F
:1033A000003018001FF0000FC000000000000000F7
:1033B00007C0001FF000183000200800200800207F
:1033C00008003C08001C1000006000000000000025
:1033D0000000000007C0001FF0003818002008009F
:1033E000200800200804101007FFF80FFFF000006D
:1033F000100000000000000000000007C0001FF0E7
:1034000000123000221800220800220800320800B2
:103410001E10000E20000000000000002000002010
:103420000800200801FFF803FFF806200804200820
:103430000420080720000300000000000000000036
:10344000000E000E6E001FF30031B10020B100200D
:10345000B1003191001F13002E1E00200E0030001D
:1034600000000004000807FFF80FFFF80010080034
:103470002000002000002008003FF8001FF8000096
:1034800008000000000000000000002008002008E4
:10349000002008063FF8063FF8000008000008007A
:1034A0000008000000000000000000000000000014
:1034B00003000003002001002001002003063FFE5E
:1034C000063FFC00000000000000000000000004B7
:1034D000000807FFF80FFFF8000188000300002F25
:1034E000C00038F800203800200800000800000064
:1034F00000000000000004000804000804000807A1
:10350000FFF80FFFF80000080000080000080000A6
:1035100000000000002008003FF8003FF8001008FD
:10352000002000003FF8003FF800100800200000D5
:103530003FF8003FF8000008000000002008003FAE
:10354000F8003FF8001008001000002000002008DC
:10355000003FF8001FF80000080000000000000015
:1035600007C0000FF00018300030080020080020CD
:1035700008003008001830000FF00007C0000000FD
:10358000000000002001003FFF003FFF001011007D
:103590002009002008002008003038001FF0000F2C
:1035A000C00000000000000007C0001FF000381835
:1035B000002008002008002009001011001FFF0053
:1035C0003FFF00000100000000200800200800204C
:1035D00008003FF8003FF800080800100800200825
:1035E000002000003000003000000000000000005B
:1035F0000000000C78001E1800330800230800218A
:10360000080021880021980030F000386000000098
:1036100000000000200000200000200000FFF00358
:10362000FFF80020080020080020080000300000FB
:1036300000000000000000002000003FF0007FF8C4
:10364000000018000008000008002010003FF800EB
:103650007FF000001000000000000000200000309B
:1036600000003C00003F800023F000007800007064
:10367000002380003C0000300000200000200000FB
:103680003C00003FE00023F80000E0002700003E7F
:1036900000003FE00021F80001E0003E00002000B3
:1036A000000000002008002008003838003E6800B4
:1036B00027800003C8002CF80038380020180020AC
:1036C00008000000000000002000003003003C0162
:1036D000003F830023EC000070002380003C0000CA
:1036E0002000002000000000000000000000003862
:1036F000080020380020F80023E8002F88003E084A
:1037000000380800201800007000000000000000D1
:10371000000000000000000000000000080000148D
:10372000001FF7FC3000062000020000000000002F
:103730000000000000000000000000000000000089
:103740000000FFFFFF00000000000000000000007C
:103750000000000000000000000020000230000611
:103760001FF7FC001400000800000000000000002B
:1037700000000000000000000000001800006000D1
:103780000040000040000020000010000008000081
:103790000400000400000C0000100000C6D500006A
:1037A000000000E0380000783C00003C7800003C5D
:1037B00070C0001CE1E01FFFFFF0001CE3000E1CC6
:1037C000E7C0079CE78003DCEF0003DCEE0001DCD0
:1037D000FC60009CF9F07FFFFFF80000000001C0D2
:1037E0000E0001FFFF0001C00E0001C00E0001C06D
:1037F0000E0001FFFE0001C00E0001C00E0001C05E
:103800000E0001FFFE0001C00E0001C00E0000000E
:103810000000D6D000000000000700000007800074
:1038200000070000000700000007000000070180FB
:103830001FFFFFE01FFFFFE01E0701C01E0701C0C2
:103840001E0701C01E0701C01E0701C01E0701C0E0
:103850001FFFFFC01FFFFFC01E0701C01C07018024
:10386000000700000007000000070000000700003C
:10387000000700000007000000070000000700002C
:103880000007000000000000BFC6000000000000AC
:103890000780003C07C001FC07803FE0078039C17A
:1038A000C78001C0E78001C0F78001C0778001DEDA
:1038B00077807FFE078001C0078003C3C78003E1D4
:1038C000E78003F8F78007FCE7F00FDE67F80FDC0E
:1038D00007F81FC0FF801DDFE78039CC078071C06B
:1038E000078061C0078001C0078001C0078001E038
:1038F000078001E0078001C0070000000000BCBC99
:10390000000000000380300003C03C0003C03C0006
:1039100003C0380003C0380003C0386003F838F033
:103920007FFFFFF003C0380003C0380003C0380039
:1039300003DC39C003FFFFE007E383C03FC183C05E
:103940007FC1C3803BC1C78003C0EF0003C0EF004D
:1039500003C07E0003C07C0003C07C0003C0FE00E7
:103960003BC3EF803F8787F80FBF03F8077800E07D
:1039700000000000C4EA0000000000C0000001F0E8
:10398000000001E0000003C000C003C001E007FF29
:10399000FFF00703C0000E03C0001E03C0003C037D
:1039A000C3007303C78063FFFFC00383C0000383AA
:1039B000C0000383C0000383C0000383C06003838F
:1039C000C0F07FFFFFF80003C0000003C000000349
:1039D000C0000003C0000003C0000003C0000003DB
:1039E000C0000003C00000000000D4C200000000BE
:1039F0000000000000E0070000FFFF8000F00780EB
:103A000000F0070000F0070000F0070000F00700DA
:103A100000FFFF0000FFFF0000F0070000F00700BC
:103A200000F0070000F0070000E0070000FFFF00C3
:103A300000E0070000E0070000E0070001E00700E9
:103A400001C0070001C00700038007000780F700DE
:103A50000F007F001E001F0038001C000000000047
:103A6000C8D500000000000000000300030003FFB1
:103A7000FF8003FFFF8003800700038007000380AF
:103A8000070003800700038007000380070003800E
:103A900007000380070003FFFF0003800700038087
:103AA00007000380070003800700038007000380EE
:103AB000070003800700038007000380070003FF5F
:103AC000FF00038007000380070003800700030056
:103AD000000000000000D0C700000000000000004F
:103AE0000380070003FFFF800380070003800700B7
:103AF0000380070003FFFF00038007000380070027
:103B000003FFFF0003FFFF00038707000387C000D8
:103B100003C7810003C7838007FFFFC0070780003A
:103B20000F0780001E0786001C078F003BFFFF80E9
:103B30007007800000078000000780E0000781F028
:103B40007FFFFFF80000000000000000C6DA000060
:103B5000000006000000079E0000079E7FF0079E01
:103B60007FF0079FF8F03FFFF8F01F9E78F0079E68
:103B700078F0079E78F007FE7FF0079E78F0079EAA
:103B800078F0079E70F007FE70F0079E70F0079EB9
:103B90007FF0079FFFF03FFFF0F0119070F003DC23
:103BA000F0F003DEE0F0078FE0F00F0FE0F00E071B
:103BB000C0F01C038FF0380F03E0201C01C0000090
:103BC00000000000E43B0008000000202C00000082
:103BD00044190008103C00082C00002004040000D8
:103BE000541900080000000001020304010203044C
:103BF000060708090204060801000000FFFF000094
:103C000000000000000000000000000000000000B4
:0400000508000131BD
:00000001FF
