:020000040800F2
:10000000B82300204501000899170008BD13000817
:1000100095170008DD0B0008072900080000000004
:10002000000000000000000000000000411F000868
:10003000E10B0008000000002D1800085520000802
:100040005F0100085F0100085F010008FD1B000858
:100050005F0100085F0100085F0100085F01000800
:100060005F0100085F0100085F0100085F010008F0
:100070005F0100085F0100085F0100085F010008E0
:100080005F0100085F0100085F0100085F010008D0
:100090005F0100085F0100085F0100085F010008C0
:1000A0005F0100085F0100085F0100085F010008B0
:1000B0005F0100085F010008952400085F01000847
:1000C0005F0100085F0100085F0100085F01000890
:1000D0005F010008452600085F0100085F01000875
:1000E0005F0100085F0100085F0100085F01000870
:1000F0005F0100085F0100085F0100085F01000860
:100100005F0100085F010008AD2400085F010008DE
:100110005F0100085F010008C52400085F010008B6
:100120005F0100085F0100085F0100085F0100082F
:10013000DFF80CD000F08CFB004800479D39000828
:10014000B82300200648804706480047FEE7FEE740
:10015000FEE7FEE7FEE7FEE7FEE7FEE7FEE7FEE777
:10016000952000083101000840EA01039B0703D0F5
:1001700009E008C9121F08C0042AFAD203E011F8E6
:10018000013B00F8013B521EF9D27047D2B201E0A8
:1001900000F8012B491EFBD270470022F6E710B58C
:1001A00013460A4604461946FFF7F0FF204610BDE5
:1001B00030B505462A460B4612F8010B13F8014BE1
:1001C00008B1A042F8D01CB1002802D06D1CF1E7A4
:1001D000284630BD10B5044604E00B7800F8013B1A
:1001E00003B1491C521EF8D2204610BDCAB2401EAF
:1001F00010F8011F8A4202D00029F9D1002070476F
:10020000421C10F8011B0029FBD1801A70470346DD
:1002100011F8012B00F8012B002AF9D1184670477C
:1002200030B505460020034600E05B1C934205D232
:10023000EC5CC85C201A01D1002CF6D130BD02461E
:10024000C9B200E0401C0378002BFBD102E0037828
:100250008B4203D0401E9042F9D20020704780EAC2
:10026000010210B502F00043400022D04A001FD026
:10027000010E01EB1261C0F35600C2F3560240F4C6
:10028000000042F40002A0FB022000047F391404A5
:1002900000D0401C50EA124001D44000491EC2B2B6
:1002A0000C0604EBD010401C4008802A02D003E06A
:1002B000002010BD20F00100002900DA00201843C2
:1002C00010BD2DE9FE4F804681EA0300C00F0C46A9
:1002D000009021F0004123F00045B8EB0200A94155
:1002E00005D24046214690461C460B46024623F066
:1002F0000040104347D0270DC7F30A00C3F30A514B
:100300000290401A019040286BDAC3F3130040F4C6
:10031000801B0098924620B10023D2EB030A63EBC6
:100320000B0B01985946C0F14002504600F0CAF943
:1003300006460D4650465946019A00F0E2F910EB88
:1003400008006141002487EA115284EAE7731A43E6
:1003500040D0009A62B3019A012A4FEA075215DC95
:10036000001B61EB02014FF0004202EA0752CDE9A7
:100370000042001C41F5801132462B4600F019FA6C
:1003800003B0BDE8F08F40462146F9E7001B61EB62
:100390000201001C41F5801300185B412018A2F5F2
:1003A000001747EB030140EAD570B6196D4111E023
:1003B0006D084FEA360645EAC0754FEA0752001B42
:1003C00061EB0201001C41F5801149084FEA300041
:1003D0000019514132462B4603B0BDE8F04F00F002
:1003E000D9B90098012240000023D0EB020263EB50
:1003F000E073009821464FEAE074B8EB000061EB2F
:100400000401E9E783F000435BE781F0004158E72E
:100410002DE9FE4F81EA030404F0004421F000417D
:1004200000944FF0000B23F0004350EA01045ED02B
:1004300052EA03045BD0C3F30A54C1F30A552C44B7
:10044000A4F2F3340194A0FB0254C1F3130141F46C
:100450008011C3F3130343F4801301FB024400FB38
:10046000034E840A970A44EA815447EA8357A4FB5F
:10047000076802958D0A05FB07854FEA932C04FB5C
:100480000C542705029D4FEA065847EA1637B5EB8C
:1004900008056EEB070C870E920E47EA811742EAB9
:1004A0008312A7FB0201B6EB0B0164EB00042B0DDA
:1004B00043EA0C335E1844EB1C50DA465146E7FB26
:1004C0000201C5F313044FEA0B3343EA14534FEA16
:1004D0000432019C43EA0603A4F10C040294009C3C
:1004E000CDE900B400F065F903B0BDE8F08F00205D
:1004F0000146F9E72DE9F04D81EA030404F0004BD1
:1005000021F0004514464FF0000A23F0004150EA64
:10051000050220D054EA01021DD0C5F30A57024655
:10052000C5F31303C1F31300C1F30A5640F4801559
:1005300043F48013A7EB0608101BD64608F2FD38DB
:1005400073EB050002D308F1010801E092185B414A
:10055000B8F1000F03DA00200146BDE8F08D00205D
:100560004FF48011064684460EE0171B73EB050717
:1005700005D3121B63EB050306434CEA010C490843
:100580004FEA300092185B4150EA0107EDD152EA80
:10059000030012D082EA040083EA0501084305D073
:1005A000101BAB4106D20122002306E000224FF0CF
:1005B000004302E06FF0010253101AEB06004CEB0F
:1005C000085110EB0A0041EB0B01BDE8F04D00F0C3
:1005D000E1B896230022114600F0AEB820F00040AA
:1005E000C10DC0F3160040F400007F2901DA00209D
:1005F0007047962903DCC1F19601C84070479639CF
:100600008840704700F0004230F000400AD0C10D31
:1006100001F56071C0F3160042EA0151C2084007BB
:100620001143704700200146704701F0004330B489
:1006300021F0004150EA010206D00A0DA2F56072D5
:10064000C1F31301002A02DC30BC00207047440FC4
:1006500044EAC104C100E01830BC00EBC25000F015
:1006600062B82DE9F05F0546002092469B46884619
:100670000646814640241BE028464146474622461E
:1006800000F02FF853465A46C01A914110D3114634
:100690001846224600F016F82D1A67EB01084F465F
:1006A00022460120002100F00DF817EB00094E4111
:1006B000201EA4F10104DFDC484631462A464346A9
:1006C000BDE8F09F202A04DB203A00FA02F1002066
:1006D00070479140C2F1200320FA03F31943904080
:1006E0007047202A04DB203A21FA02F000217047EB
:1006F00021FA02F3D040C2F120029140084319468A
:100700007047202A06DBCB17203A41FA02F043EA71
:10071000E07306E041FA02F3D040C2F120029140BA
:100720000843194670470029A8BF7047401C49007C
:1007300008BF20F00100704710B4B0FA80FC00FA46
:100740000CF050EA010404BF10BC704749B1CCF171
:10075000200421FA04F411FA0CF118BF01212143FD
:100760000843A3EB0C01CB1D4FEA00614FEA1020B8
:1007700042BF002010BC704700EBC350104400295A
:10078000A4BF10BC7047401C490008BF20F0010006
:1007900010BC704710B5141E73F1000408DA401C39
:1007A00041F1000192185B411A4301D120F0010090
:1007B00010BD2DE9F04D92469B4611B1B1FA81F280
:1007C00002E0B0FA80F220329046FFF77BFF044649
:1007D0000F4640EA0A0041EA0B0153465A460843D5
:1007E00013D0114653EA010019D0C8F14002504617
:1007F000FFF777FF05460E46504659464246FFF73B
:1008000061FF084305D0012004E020463946BDE8D9
:10081000F08D0020054346EAE0762C4337430A98E2
:100820006305E40AA0EB08000022FD0A44EA4754ED
:100830000A3002D500200146E9E701051019694197
:10084000DDE9084500196941BDE8F04DA2E7000067
:10085000064C074D06E0E06840F0010394E807000D
:1008600098471034AC42F6D3FFF766FCC0920008FC
:10087000E092000870B58D1810F8014B14F00302D7
:1008800001D110F8012B231106D110F8013B03E030
:1008900010F8016B01F8016B521EF9D1ABB110F8E1
:1008A000012B04F00C048A1A0C2C03D0A2EB841246
:1008B0009B1C08E010F8014BA2EB0422F8E712F8A9
:1008C000014B01F8014B5B1EF9D5A942D4D300209E
:1008D00070BD21B1826842F00102826003E082684B
:1008E00022F0010282607047014600208A6802F00F
:1008F00004020AB1012000E0002070470146C86CE4
:1009000080B270470246002013680B400BB10120F3
:1009100000E000207047014600208A6802F00802CB
:100920000AB1012000E000207047000030B5024607
:100930000020002350680F4C20400D790C6844EAD9
:1009400005242043506090680B4C2040D1E90254AC
:100950002C434D7944EA450420439060D06A20F44A
:1009600070000C7C641EE4B2234340EA0350D06262
:1009700030BD0000FFFEF0FFFDF7F1FFF0B50446CB
:100980000D4600200021092D11DDE068A5F10A06C1
:1009900006EB4607072606FA07F18843A5F10A0683
:1009A00006EB460603FA06F10843E0600CE0206916
:1009B00005EB4507072606FA07F1884305EB4506D0
:1009C00003FA06F108432061072A0FDA606B561E0E
:1009D00006EB86071F2606FA07F18843561E06EB2C
:1009E000860605FA06F10843606322E00D2A0FDA55
:1009F000206BD61F06EB86071F2606FA07F18843F1
:100A0000D61F06EB860605FA06F10843206310E0C0
:100A1000E06AA2F10D0606EB86071F2606FA07F12B
:100A20008843A2F10D0606EB860605FA06F1084397
:100A3000E062F0BD816841F008018160704721B13A
:100A4000826842F4A002826003E0826822F4A0027D
:100A500082607047816841F0040181607047000046
:100A600030B10749096841F40001054A116005E009
:100A70000349096821F40001014A11607047000030
:100A80000824014000B585B00121480200F0FCFEB9
:100A90004FF4004000F0CCFE0120FFF7E1FF002002
:100AA00000908DF804008DF805004FF4602002904E
:100AB0000020039001208DF8100069460F48FFF7D1
:100AC00035FF01210D48FFF704FF0C48FFF7B2FF87
:100AD00000BF0A48FFF71FFF0028FAD10748FFF7B9
:100AE000B9FF00BF0548FFF7FFFE0028FAD101213A
:100AF0000248FFF7A4FF05B000BD0000002401403C
:100B000000B587B001214FF4017000F0BDFE4FF435
:100B1000004000F08DFE0220ADF8180000208DF896
:100B20001B0003208DF81A0006A9184800F08FFB5F
:100B3000002001908DF808008DF809004FF4602026
:100B400003900020049001208DF8140001A91048A2
:100B5000FFF7ECFE01210E48FFF7BBFE0C48FFF744
:100B600069FF00BF0A48FFF7D6FE0028FAD10848FF
:100B7000FFF770FF00BF0648FFF7B6FE0028FAD166
:100B800001210348FFF75BFF07B000BD00080140EB
:100B90000024014010B5012000F086FE002000F086
:100BA00083FE10BD08B50146002000900348009068
:100BB0000098084400900098008808BD006C004030
:100BC00008B500220092044A0092009A0244009262
:100BD000009A116008BD0000006C004000BFFEE7F5
:100BE0007047000070B50446002500F0ADF9FF2203
:100BF0000021104600F080FA04E0681C85B2012054
:100C000002F082F91D2000F05AF900F0010010B93D
:100C1000B5F5FA7FF1DBB5F5FA7F01DB012070BD98
:100C200000204C4908600021082000F041FA002112
:100C3000092000F03DFA00210C2000F039FA0021D3
:100C40000D2000F035FA10210A2000F031FA1A21A7
:100C50000B2000F02DFA1121042000F029FA1A21AE
:100C6000052000F025FAFF21062000F021FA1F21BF
:100C7000072000F01DFAB021382000F019FA3F21BA
:100C8000282000F015FA3021292000F011FAF9216E
:100C9000302000F00DFAF721312000F009FA0D2183
:100CA000C02000F005FA0021C12000F001FA332233
:100CB000C221802000F020FA1221C62000F0F8F9AD
:100CC0000C21C72000F0F4F91521C42000F0F0F940
:100CD000EE21CA2000F0ECF90521CB2000F0E8F964
:100CE0002178E42000F0E4F96178E52000F0E0F9F3
:100CF000A178E22000F0DCF9E178E32000F0D8F9F7
:100D00002179E02000F0D4F96179E12000F0D0F9F8
:100D10004FF48071002000F01FF84FF48071102014
:100D200000F01AF81F2000F0A9F9C0221B21802032
:100D300000F0E2F904221F21802000F0DDF9E42018
:100D400000F0BDF82178884201D1002067E701203A
:100D500065E700004000002070B505460C460026FF
:100D60002946D42000F0A4F9E1B2D62000F0A0F981
:100D7000C4F30721D72000F09BF901E0701C86B274
:100D8000EA2000F09CF800F0010018B140F6FF7076
:100D90008642F3DB70BD00002DE9F04105460F46A9
:100DA000392000F08CF810B90020BDE8F081294806
:100DB0000178002000F07CF926480088C0F3072164
:100DC000012000F075F900213A2000F09DF821493A
:100DD000086000213A2000F097F81E49096841EAAE
:100DE00000201C49086000213A2000F08DF80446DC
:100DF00000213A2000F088F844EA0024241F002152
:100E00003A2000F081F8064600213A2000F07CF8F4
:100E100046EA0026681EA04200D26C1E06F0800042
:100E200008B9002403E03946204600F053F8094889
:100E300001780C2000F03CF906480088C0F3072137
:100E40000D2000F035F940221E21802000F054F9D9
:100E50002046AAE74000002070B504460D46112147
:100E6000022000F025F91A21032000F021F91120B9
:100E70002044C1B2062000F01BF941F611202044A5
:100E8000C0F30721072000F013F9002211467A2051
:100E900000F032F92946204600F016F908221F21F9
:100EA000802000F029F91C2000F009F800F0020071
:100EB00020B108221F21A02000F01EF970BD10B53E
:100EC0000446204600F0DAF82146002000F01CF825
:100ED00010BD000070B505460C46002009490860A9
:100EE0003A2000F0C5FF05E06D1E002000F0C0FFB5
:100EF0002070641C002DF7D10020207001200149D2
:100F0000086070BDB081214270B505460C460026D0
:100F100000200C49086004F01F0040EA0506304636
:100F200000F0A6FFFF2000F0A3FF064604F08000BB
:100F300018B1FF2000F09CFF06460120014908601F
:100F4000304670BDB081214210B500F01BF808207A
:100F500000F0AAFF40F2CF214FF47A7001F0C6FAF8
:100F60000020064908600A2001F0CEFF0120044954
:100F7000C1F8A4010A2001F0C7FF10BDA4812142DD
:100F80000080214200B587B00121880300F06CFC8D
:100F900001214FF4947000F077FC4FF4C040ADF89D
:100FA000040010208DF8070003208DF8060001A929
:100FB0002E4800F04CF94FF4C0412C4800F0D2F913
:100FC0004FF40070ADF8040001A9294800F03FF982
:100FD0004FF40071264800F0C5F94FF49850ADF871
:100FE000040001A9234800F032F94FF49851214838
:100FF00000F0B8F94FF46040ADF8040018208DF807
:10100000070003208DF8060001A91A4800F01FF917
:101010004FF46041174800F0A5F90020ADF8080032
:101020004FF48270ADF80A000020ADF80C00ADF866
:101030000E00ADF810004FF40070ADF8120038202B
:10104000ADF814000020ADF816000720ADF8180028
:1010500002A9094800F056FF0121074800F038FFB7
:10106000FF2000F005FF07B000BD00000020014098
:10107000001C0140000C01400038004010B504463F
:1010800004F060000949097888420ED003221F212C
:10109000A02000F031F8C4F341121F21802000F09D
:1010A0002BF804F060000149087010BD3C000020DE
:1010B00070B504460D462046FFF7E0FF2A4621465C
:1010C000402000F019F870BD70B504460D460020B0
:1010D000084908607A2000F0CBFE04E0641E2878FE
:1010E00000F0C6FE6D1C002CF8D1012001490860FB
:1010F00070BD0000B08121422DE9F04104460D464B
:101100001646002700200949086005F01F0040EA44
:101110000407384600F0ACFE304600F0A9FE01207E
:101120000349C1F8B001BDE8F0810000B08121425F
:101130000080214251B18200A2F1C042126842F007
:1011400001038200A2F1C042136009E08200A2F113
:10115000C0421268034B1A408300A3F1C0431A60D7
:1011600070470000FEFF0F00D0E901121143C26872
:101170001143026911434269114382691143C269F3
:101180001143026A1143426A1143826A1143C26ADF
:101190001143026B114302689200A2F1C042116038
:1011A000816808290BD101688900A1F1C041096853
:1011B00041F0400201688900A1F1C0410A60416B21
:1011C0000968426B526841EA0211426B926841EA37
:1011D0000221426B928941EA0241426B128A41EA42
:1011E0000251426B127D41EA0261426B92691143E6
:1011F0000268521C9200A2F1C0421160C16AB1F5AE
:10120000804F1BD1816B0968826B526841EA0211E1
:10121000826B926841EA0221826B128A41EA025192
:10122000826B127D41EA0261826B9269114302680E
:101230009200A2F1C042C2F8041107E06FF07042C0
:1012400001688900A1F1C041C1F8042170472DE96E
:10125000F04102460025002600200023002400273C
:1012600091F803C00CF00F0591F803C00CF0100CBE
:10127000BCF1000F03D091F802C04CEA050591F8CB
:1012800000C0BCF1000F31D0146800202BE04FF0FB
:10129000010C0CFA00F3B1F800C00CEA03069E4200
:1012A00020D183004FF00F0C0CFA03F7BC4305FA72
:1012B00003FC4CEA040491F803C0BCF1280F06D1EA
:1012C0004FF0010C0CFA00FCC2F814C00AE091F8CF
:1012D00003C0BCF1480F05D14FF0010C0CFA00FC23
:1012E000C2F810C0401C0828D1D31460B1F800C067
:1012F000BCF1FF0F34DD546800202EE000F1080C33
:101300004FF0010808FA0CF3B1F800C00CEA03062C
:101310009E4221D183004FF00F0C0CFA03F7BC431F
:1013200005FA03FC4CEA040491F803C0BCF1280F51
:1013300005D100F1080C08FA0CF8C2F8148091F8F5
:1013400003C0BCF1480F07D100F1080C4FF00108B1
:1013500008FA0CF8C2F81080401C0828CED354605C
:10136000BDE8F081016170472DE9F04105460C466A
:1013700000260723012229460F48FFF7FFFA00271E
:1013800013E001210C48FFF75AFB00BF02210A4875
:10139000FFF7B8FA0028F9D00748FFF7AFFA06447C
:1013A000052001F0B1FD781CC7B2A742E9DBB6FB0E
:1013B000F4F080B2BDE8F0810024014000BFFEE7F8
:1013C0000146CA1701EB92729210A1EB820292B908
:1013D000642091FBF0F200FB121050B94FF4C8707A
:1013E00091FBF0F200FB121008B9012070470020B9
:1013F000FCE70120FAE70020F8E7000070B5064698
:101400000F484088401E83B20D480088401E82B2BB
:101410000021084600F068F800240CE0002504E0F4
:10142000304600F097F9681C85B205484088A8420C
:10143000F6DC601C84B202480088A042EEDC70BD7D
:101440002A00002000B50246B2B9012000F076F96A
:101450004FF4807000F078F9032000F06FF941F24A
:10146000300000F071F94FF4C8700E494880F02048
:1014700008800020887114E0012000F05FF900204E
:1014800000F062F9032000F059F941F2380000F051
:101490005BF9F020034948804FF4C87008800120B0
:1014A000887100BD2A00002070B504460D4616461E
:1014B0002B4622462946204600F016F8304600F01A
:1014C00049F970BD10B50246012000E050430B0001
:1014D000A1F10104E1B2F9D110BD0000014800887A
:1014E000704700000008006C30B505460C462E48D9
:1014F000807950BB4FF4047000F020F9284600F0CA
:1015000023F940F2112000F019F9104600F01CF9FF
:1015100040F2122000F012F9204600F015F940F2D6
:10152000132000F00BF9184600F00EF94FF400708C
:1015300000F004F9284600F007F940F2012000F01D
:10154000FDF8204600F000F929E040F2122000F0FA
:10155000F5F8284600F0F8F840F2132000F0EEF815
:10156000104600F0F1F84FF4047000F0E7F8204660
:1015700000F0EAF840F2112000F0E0F8184600F020
:10158000E3F840F2012000F0D9F8284600F0DCF83A
:101590004FF4007000F0D2F8204600F0D5F840F289
:1015A000022000F0CBF830BD2A0000202DE9F84FD2
:1015B00080460E4617461C46B3462046E31704EB0A
:1015C0005373DB1021464FEAE47C04EB5C7C4FEA6A
:1015D000EC0CA4EBCC0CBCF1000F02D04FF0010CD2
:1015E00001E04FF0000C6344224604EBD27C4FEA4A
:1015F0006C0C03FB0CF3DBB20093A7F12000C7B225
:10160000002556E00C2C07D107EB47002B4901EBD6
:10161000800010F8059013E0102C05D1284800EB4D
:10162000071010F805900BE0182C07D107EBC70046
:10163000244901EB800010F8059001E0BDE8F88F27
:101640004FF0000A2FE009F0800030B11E480288F8
:1016500031464046FFF728FF07E00A9828B91B48A3
:10166000028831464046FFF71FFF4FEA49604FEAC4
:101670001069701C86B216484088B04200DCDDE775
:10168000A6EB0B00A0420AD15E4608F101001FFA4A
:1016900080F80F480088404500DCCFE706E00AF1FB
:1016A000010000F0FF0ABAF1080FCCDB00BF681C94
:1016B000C5B200988542A5DB00BFBFE7B45F000854
:1016C00028640008186A000826000020280000206E
:1016D0002A0000202DE9F84704460D469046994619
:1016E000DDE9096704F0FF0A08EB04001FFA80F83F
:1016F00009EB05001FFA80F916E0444502DB544669
:10170000A81985B24D4500DB14E0002000903A781E
:10171000334629462046FFF749FF304606EBD07195
:1017200004EB61018CB27F1C38787E2802DC3878AB
:101730002028E2DA00BFBDE8F887000001490880F0
:1017400070470000FE07006C0149088070470000E8
:101750000008006C01490880704700000008006C18
:1017600008B50121102000F08FF8FF20ADF800002F
:1017700010208DF8030003208DF80200694604480C
:10178000FFF765FDFF210248FFF7ECFD08BD0000F3
:101790000010014000BFFEE77047000070B5002157
:1017A00000230F22C47804B3154C246804F4E064C9
:1017B000C4F5E064210AC1F10403CA40447804FA84
:1017C00003F184781440214309010E4C0678A15599
:1017D000047804F01F050124AC4005786D11AD00BC
:1017E00005F1E025C5F8004109E0047804F01F0583
:1017F0000124AC40044D0678761145F8264070BDB2
:101800000CED00E000E400E080E100E0024901436B
:10181000024A1160704700000000FA050CED00E07C
:10182000014908627047000000000E427047000046
:1018300001460020034A506820F4404008435060AD
:10184000704700000010024029B1064A5269024365
:10185000044B5A6104E0034A52698243014B5A61C6
:10186000704700000010024029B1064AD2690243C5
:10187000044BDA6104E0034AD2698243014BDA6126
:10188000704700000010024029B1064A92690243E5
:10189000044B9A6104E0034A92698243014B9A61C6
:1018A00070470000001002400149086070470000C6
:1018B0004004424230B500210022002400232D4D77
:1018C0006D6805F00C0121B1042905D0082923D148
:1018D00005E0294D056022E0274D05601FE0254DFC
:1018E0006D6805F47012234D6D6805F4803402258F
:1018F00005EB92421CB9214D554305600BE01D4D8F
:101900006D6805F400351DB11C4D5543056002E0BE
:10191000194D5543056002E0174D056000BF00BF3B
:10192000144D6D6805F0F0010909154D6B5C0568F3
:10193000DD4045600F4D6D6805F4E061090A104D0A
:101940006B5C4568DD4085600A4D6D6805F460514B
:10195000C90A0B4D6B5C4568DD40C560054D6D687F
:1019600005F44041890B074D6B5CC568B5FBF3F589
:10197000056130BD0010024000127A0000093D00F0
:10198000110000202100002010B501460022002394
:1019900000204A11012A02D1094C236806E0022ADC
:1019A00002D1074C236A01E0054C636A01F01F0273
:1019B000012494401C400CB1012000E0002010BD27
:1019C0000010024000210B4A11700A4A203A82F8A6
:1019D0002010012802D0042808D103E00121054A83
:1019E000117004E00521034A117000E000BF00BF40
:1019F0007047000020100240014908607047000055
:101A00003C0442420249096A0143014A116270479B
:101A100000100240024909888143014A1180704741
:101A2000042800400348008840F010000149088065
:101A30007047000004280040034800884FF6EF710B
:101A400008400149088070470428004070B500260E
:101A50000024002500F07AF806463848B6FBF0F47A
:101A600037480088A0423CD035490C8040F2B2751E
:101A700010E02846FFF7A4FC40B1B4F5B77F02D3CD
:101A8000A4F5B77404E0681C85B206E0A4F26D14F6
:101A9000681C85B2B4F5B67FEBD800BF29488580B5
:101AA000002516E027498888FFF78AFC30B1012D10
:101AB00004D11D2C01D31D3C09E00CE02248405DFF
:101AC000A04203D82048405D241A00E003E0681CCF
:101AD00085B21C2CE6D200BF681C1A498871601CB4
:101AE000C8711648B6FBF0F100FB11644FF4616059
:101AF000B4FBF0F0134908704FF46160B4FBF0F1EF
:101B000000FB11403C21B0FBF1F00E4948704FF44E
:101B10006160B4FBF0F100FB11403C21B0FBF1F23D
:101B200001FB1200074988700B46DA799979988889
:101B300000F028F803490872002070BD80510100B0
:101B400034000020E4060020A67B000800210348A2
:101B50000188001F008841EA004070471C280040AF
:101B600001460020064A12880A40D0B2044A121FD9
:101B700012880A4012B108B1012000E0002070472D
:101B800004280040F0B503460C461546642093FB3C
:101B9000F0F0C6B2642093FBF0F700FB1730C1B23F
:101BA000132E02DD01F16400C1B20846CF1701EB2C
:101BB000977701EBA707BAB2072092FBF0F700FB7B
:101BC000172082B25719601EDFF82CC01CF80000E5
:101BD000384482B2CF1701EB9777BF10A1EB87078C
:101BE0001FB9032C01DA501E82B2072092FBF0F7D6
:101BF00000FB1720C0B2F0BD9A7B000810B5012091
:101C0000FFF7AEFF20B1012009490870FFF71EFF62
:101C10000220FFF7A5FF20B10220FFF7FBFEFFF730
:101C200015FF0520FFF7F6FE00F006F910BD0000D5
:101C30003200002029B1064A12880243044B1A8060
:101C400004E0034A12888243014B1A807047000067
:101C5000002800401CB5002401214FF0C050FFF7C0
:101C600003FE0120FFF7DCFD0420FEF79BFF4AF294
:101C7000A001884240D0FEF78DFF0120FFF7A2FEB1
:101C800004E0601CC4B20A2001F03EF94120FFF7D5
:101C90007BFE08B9FA2CF4DBFA2C01DB01201CBD19
:101CA0004FF48070FFF7AEFE0120FFF7A5FE00F0B5
:101CB000C3F800F0CBF801210846FFF7BBFF00F0A6
:101CC000BBF8FFF7AFFE47F6FF7000F0A5F800F095
:101CD000B3F83720222111231622CDE90010032169
:101CE00040F2E17000F026F8FFF7A6FE4AF2A001EC
:101CF0000420FEF765FF07E000F0A8F80121084680
:101D0000FFF798FF00F098F800F004F8FFF79EFE48
:101D10000020C4E708B503208DF8000000208DF8EE
:101D200001008DF8020001208DF803006846FFF7DE
:101D300035FD08BD2DE9F05F06460F4690469946F1
:101D4000DDE90AAB002440F2B270864203DB40F6C4
:101D50003300864202DD0120BDE8F09F40F2B275FB
:101D60000AE02846FFF72CFB10B12048044401E0AC
:101D70001F480444681C85B2B542F2DB781EC7B226
:101D8000002510E01B48405D40F2A321484304EBCE
:101D9000C0143046FFF714FB18B1012D01D11648CD
:101DA0000444681C85B2BD42ECDBA8F1010040F29E
:101DB000A321484304EBC014C9EB4910C0EB092030
:101DC00004EB0014CAEB0A1004EB80045C4401210C
:101DD0004FF0C050FFF748FD0120FFF721FD2046DE
:101DE00000F00CF800F028F80020B5E70085E201CB
:101DF0008033E101A67B00088051010000B5024656
:101E0000FFF710FE100C03490880091D0A80FFF738
:101E100013FE00BD1828004000B50246FFF702FE81
:101E2000C2F3034003490880091D0A80FFF704FE3E
:101E300000BD00000828004000BF0348008800F0F3
:101E400020000028F9D07047042800400748008887
:101E50004FF6F77108400549088000BF0348008825
:101E600000F008000028F9D0704700000428004066
:101E700010B5044600BF02210A4800F035F80028DA
:101E8000F9D02146074800F03BF800BF0121054882
:101E900000F02AF80028F9D0024800F02EF8C0B26D
:101EA00010BD00000038004010B504460748008807
:101EB0004FF6C7710840054908800846008820434E
:101EC00008800121014800F003F810BD00380040EF
:101ED00021B1028842F04002028004E002884FF6FD
:101EE000BF731A40028070470246002013890B40DE
:101EF0000BB1012000E0002070470146888970473F
:101F00008181704710B50022028802F441520B888B
:101F10004C8823438C882343CC8823430C89234358
:101F20004C8923438C892343CC8923431A43028061
:101F3000838B4FF2FF74234083830B8A038210BD8F
:101F4000704710B500F002F810BD00000CB500207D
:101F5000019000903348006840F4803031490860B7
:101F600000BF3048006800F4003000900198401C29
:101F70000190009818B90198B0F5A06FF1D12948E7
:101F8000006800F4003010B10120009001E0002052
:101F900000900098012843D12348006840F01000C9
:101FA000214908600846006820F0030008600846E0
:101FB000006840F0020008601A484068194948600B
:101FC0000846406848600846406840F480604860C1
:101FD0000846406820F47C1048600846406840F499
:101FE000E81048600846006840F08070086000BF54
:101FF0000C48006800F000700028F9D009484068DB
:1020000020F00300074948600846406840F002009D
:10201000486000BF0348406800F00C000828F9D170
:102020000CBD00000010024000200240042808D12E
:102030004FF0E021096941F004014FF0E022116105
:1020400007E04FF0E021096921F004014FF0E022A0
:10205000116170477047000010B504466FF004002E
:10206000FFF7E4FFE11704EB5171C1F3C701074A21
:1020700011701046007800EB4001C1EBC0104FF624
:10208000FF7101EAC0000249088010BD4400002031
:102090004600002010B51348006840F001001149C7
:1020A000086008464068104908400E4948600846E4
:1020B00000680E4908400B4908600846006820F493
:1020C000802008600846406820F4FE0048604FF415
:1020D0001F008860FFF735FF4FF00060044908607B
:1020E00010BD0000001002400000FFF8FFFFF6FEE8
:1020F00008ED00E000B59DB001210802FFF7A4FB48
:1021000001200790002008900F20099000200A90DD
:102110000B900C900D9000900190032002900020F5
:10212000039004900590069006200E9000200F90DA
:102130001090102011900020129014901390159080
:1021400016904FF480501790002018904FF4804064
:10215000199000201A9007A81B90CDF870D00EA8F7
:10216000FFF702F801210620FEF7E4FF1DB000BDD5
:1021700008B501214FF4B070FFF786FB4CF23370C5
:10218000ADF8000018208DF8030003208DF8020040
:1021900069461048FFF75BF84FF68070ADF8000015
:1021A00018208DF8030003208DF8020069460A48C4
:1021B000FFF74DF841F20100ADF8000018208DF84E
:1021C000030003208DF8020069460448FFF73FF83A
:1021D00008BD00000014014000180140002001402B
:1021E00010B5FFF7C5FFFFF785FF322000F08CFE2A
:1021F0000020FFF7A3FAFFF771F9A149888008468C
:102200008188A0A000F082FB0020FFF797FA002051
:10221000FFF79AFA0020FFF791FA0020FFF794FAEF
:102220000020FFF78BFA0020FFF78EFA4FF4806052
:10223000FFF784FA4FF4C440FFF786FA0820FFF74F
:102240007DFA40F60800FFF77FFA0120FFF776FAE3
:102250004FF48070FFF778FA0220FFF76FFA4FF41F
:102260008070FFF771FA0320FFF768FA41F230003F
:10227000FFF76AFA0820FFF761FA40F60800FFF757
:1022800063FA4FF44070FFF759FA0C20FFF75CFA3D
:1022900040F20130FFF752FA45F60B20FFF754FAEF
:1022A00040F20230FFF74AFA40F60610FFF74CFA08
:1022B00040F20330FFF742FA41F21700FFF744FA09
:1022C0004FF44170FFF73AFA4FF40C50FFF73CFA25
:1022D00040F20530FFF732FA4FF4B850FFF734FA06
:1022E00040F20630FFF72AFA46F20930FFF72CFADF
:1022F00040F20730FFF722FA40F60940FFF724FAD0
:102300004FF44270FFF71AFA41F20C00FFF71CFA83
:1023100040F20930FFF712FA42F23220FFF714FAC6
:102320001020FFF70BFA1420FFF70EFA1120FFF729
:1023300005FA40F20110FFF707FA4FF48070FFF73B
:10234000FDF94FF40C70FFF7FFF9322000F0DCFDCF
:1023500040F20110FFF7F2F940F24720FFF7F4F9DD
:102360004FF4FA7401E0601E84B2002CFBDC3220D2
:1023700000F0CAFD40F20310FFF7E0F94FF42060CF
:10238000FFF7E2F94FF4FA7401E0601E84B2002C0A
:10239000FBDC0A2000F0B8FD4FF42070FFF7CEF907
:1023A0004FF2FF00FFF7D0F9322000F0ADFD4FF4FF
:1023B000FA7401E0601E84B2002CFBDC4FF48170E3
:1023C000FFF7BCF94BF2B010FFF7BEF94FF4FA7407
:1023D00001E0601E84B2002CFBDC322000F094FD92
:1023E0004FF40470FFF7AAF90020FFF7ADF940F2AF
:1023F0001120FFF7A3F9EF20FFF7A6F940F2122012
:10240000FFF79CF90020FFF79FF940F21320FFF738
:1024100095F940F28F10FFF797F94FF40070FFF72E
:102420008DF90020FFF790F940F20120FFF786F9BF
:102430000020FFF789F940F20140FFF77FF9002003
:10244000FFF782F90720FFF779F94FF48070FFF763
:102450007BF94FF4FA7401E0601E84B2002CFBDCBF
:10246000322000F051FD40F20220FFF767F9002012
:10247000FEF7E8FF4FF6FF70FEF7C0FF10BD00004B
:102480002A000020204C43442049443A25780D0A74
:102490000000000010B50121034800F066F801219A
:1024A000014800F053F810BD0008004010B50121AC
:1024B000034800F05AF80121014800F047F810BD28
:1024C000000C004010B50121064800F04EF820B184
:1024D00005480068401C044908600121014800F0DB
:1024E00035F810BD00100040380000207FB50546CB
:1024F0000C4601211020FFF7B7F9ADF80850ADF8F0
:1025000004400020ADF80A00ADF8060001A90E480D
:1025100000F046F8012241210B4800F037F8362040
:102520008DF8000001208DF8010002208DF80200D6
:1025300001208DF803006846FFF730F901210248B9
:1025400000F007F87FBD000000100040CA4302827F
:10255000704721B1028842F00102028004E0028843
:102560004FF6FE731A400280704730B502460020D5
:1025700000230024158A05EA0103958905EA010470
:1025800013B10CB1012000E0002030BD1AB18389E5
:102590000B43838102E083898B4383817047000072
:1025A000002202881D4B98420ED01D4B98420BD042
:1025B000B0F1804F08D01B4B984205D01A4B98427F
:1025C00002D01A4B984204D14FF68F731A404B88B1
:1025D0001A43174B984207D0164B984204D04FF637
:1025E000FF431A40CB881A4302808B8883850B886F
:1025F00003850A4B98420BD0094B984208D00E4BEA
:10260000984205D00D4B984202D00D4B984201D113
:102610000B7A03860123838270470000002C01405F
:10262000003401400004004000080040000C00405D
:1026300000100040001400400040014000440140F0
:102640000048014010B540F225510C4800F096F8C2
:1026500070B10A4800F04EF9C4B22146074800F0B4
:102660004EF900BF4021054800F07BF80128F9D160
:102670004021024800F060F810BD00000038014021
:1026800010B586B0044601210420FFF7FDF80121B2
:102690008803FFF7F9F801210846FFF7F5F84FF432
:1026A0000070ADF8140003208DF8160018208DF886
:1026B000170005A91E48FEF7CAFD4FF48060ADF86B
:1026C000140004208DF8170005A91948FEF7BFFD76
:1026D00001940020ADF80800ADF80A00ADF80C0038
:1026E000ADF810000C20ADF80E0001A9114800F063
:1026F00095F801210F4800F028F840210D4800F01E
:102700001BF8012240F225510A4800F061F825200B
:102710008DF8000003208DF801008DF802000120E3
:102720008DF803006846FFF739F806B010BD0000C9
:10273000000801400038014001F40072B2F5007F4A
:1027400000D100BFCA430280704721B1828942F4A0
:102750000052828104E082894DF6FF731A40828123
:10276000704702460020B1F5007F00D100BF1388FA
:102770000B400BB1012000E00020704770B502460D
:10278000002400230025002040F66A16B14200D143
:1027900000BFC1F3421501F01F03012606FA03F33F
:1027A000012D02D19689334006E0022D02D1168A0E
:1027B000334001E0968A33400C12012606FA04F4F5
:1027C0001688344013B10CB1012000E0002070BD28
:1027D000F0B50346002400260025002040F66A17C5
:1027E000B94200D100BF1846C1F3421401F01F06E0
:1027F000012707FA06F5012C01D10C3004E0022C68
:1028000001D1103000E014301AB107682F4307607F
:1028100002E00768AF430760F0BD00002DE9F04714
:1028200086B005460E460024A24600BFA1460027FA
:10283000B08900B100BF2F462C8A4CF6FF700440CF
:10284000F08804432C82AC894EF6F3100440B08823
:1028500031890843718908430443AC81AC8A4FF63F
:10286000FF400440B0890443AC8201A8FFF722F87E
:102870001F48874202D1DDF810A001E0DDF80CA06E
:10288000A88900F4004040B10AEBCA0000EB0A102E
:1028900031684900B0FBF1F807E00AEBCA0000EB31
:1028A0000A1031688900B0FBF1F86420B8FBF0F041
:1028B00004012009642101FB1089A88900F400406B
:1028C00040B1322000EBC900B0FBF1F000F007008E
:1028D000044308E0322000EB09106421B0FBF1F062
:1028E00000F00F0004432C8106B0BDE8F087000023
:1028F0000038014001468888C0F308007047C1F3E2
:1029000008028280704700BFFEE700000FB4054B4D
:1029100010B503A9044A029800F02CF810BC5DF829
:1029200014FB00009D2F0008E00600200FB41CB52A
:102930000A46521ECDE9000207A9054B6A460698D1
:1029400000F018F8009A002111701CBC5DF814FB0F
:10295000D72D000802E008C8121F08C1002AFAD1CA
:1029600070477047002001E001C1121F002AFBD10F
:10297000704700002DE9FF4F8DB00F460546002639
:1029800006E025280BD0DDE90F1290476D1C761C60
:1029900028780028F5D111B03046BDE8F08F00242A
:1029A000A246A1460122EC4900E0044315F8013F8C
:1029B000203B02FA03F00842F7D128782A2810D0E9
:1029C0006FF02F022878A0F13001092914D80AEB02
:1029D0008A0102EB410144F0020400EB010A6D1C84
:1029E000F0E701CF5FEA000A03D544F40054CAF1CE
:1029F000000A44F002046D1C28782E2817D115F81F
:102A0000010F44F004042A280ED06FF02F0228781A
:102A1000A0F1300109290AD809EB890102EB410133
:102A200000EB01096D1CF2E757F8049B6D1C287838
:102A30006C280FD006DC4C2817D068280DD06A28E7
:102A400014D104E0742810D07A280FD10DE044F49A
:102A500000140AE044F4801401E044F4401469785E
:102A6000814202D104F580146D1C6D1C2A786E2AF7
:102A70001FD00CDC632A31D004DC002A8BD0582A0A
:102A800011D1A3E0642A68D0692A0CD165E0732AC9
:102A90002ED004DC6F2A73D0702A04D19BE0752AF3
:102AA0006FD0782A6ED01046DDE90F129047761C61
:102AB00050E1C4F30250022806D0032809D00428AC
:102AC00001CF09D0066045E101CFF117C0E90061EF
:102AD00040E101CF06803DE106703BE117F8040BB1
:102AE0008DF8000000208DF80100EB46012003E086
:102AF00057F804BB4FF0FF3061074FF0000102D4DC
:102B00000DE008F10101884649450FDA8045F8DB00
:102B10001BF808100029F4D108E008F101018846EB
:102B20008142FADB1BF808100029F6D1DDE90F23FA
:102B3000AAEB08008146214600F036F9304400EB4C
:102B4000080604E0DDE90F121BF8010B9047B8F10D
:102B50000108F7D221464846F7E00A21C4F30253A0
:102B60004FF0000B0891022B04D001CFC117032BAB
:102B700009D00AE0FF1D27F00707F7E8020108E087
:102B800032E01FE020E000B2C117042B01D140B2B7
:102B9000C117031E71F1000307DA4FF0000CD0EBF0
:102BA0000C006CEB01012D2302E0230504D52B233F
:102BB0008DF82430012303E0E30701D02023F7E759
:102BC000984658E00A2110E010210EE010204FF046
:102BD000000B08900CE010214FF0000B44F00404AF
:102BE0004FF00809089103E008214FF0000B08910D
:102BF000C4F30253022B04D001CF0021032B06D0D3
:102C000006E0FF1D27F00707F7E8020103E080B2A6
:102C1000042B00D1C0B24FF0000823072BD5702A37
:102C200007D0DDF820C08CF0100C5CEA0B0C05D04E
:102C30000EE040238DF82430012308E050EA010320
:102C400006D030238DF824308DF8252002239846B5
:102C5000DDF820C08CF0080C5CEA0B0C0BD150EABC
:102C6000010301D1630706D530238DF824304FF0DE
:102C70000108A9F10109582A04D038A20B9208AA28
:102C80000A920BE03AA2F9E75B46089AFDF7E9FCE5
:102C90000B9B9B5C0A9A521E0A92137050EA010227
:102CA000F2D10A98ADEB000000F1200B600702D5CD
:102CB00024F4803401E04FF00109D94502DDA9EB8D
:102CC0000B0000E0002000EB0B0141440890AAEB50
:102CD000010AE00306D4DDE90F232146504600F047
:102CE00063F806444FF0000908E009A911F809004B
:102CF000DDE90F12904709F10109761CC145F4DBAB
:102D0000E0030CD5DDE90F232146504600F04CF8D6
:102D1000064404E0DDE90F1230209047761C089944
:102D2000481E08900029F5DC08E00A980A99007806
:102D3000491C0A91DDE90F129047761CBBF1000196
:102D4000ABF1010BF1DC21465046DDE90F2300F029
:102D500019F806446D1C1BE6092801003031323396
:102D600034353637383961626364656600000000C7
:102D700030313233343536373839414243444546B1
:102D8000000000002DE9F041044600251E461746CC
:102D9000880404D405E039462020B0476D1C641E29
:102DA000F9D52846BDE8F0812DE9F041044600251B
:102DB0001E469046C80301D5302700E0202788042E
:102DC00004D505E041463846B0476D1C641EF9D570
:102DD0002846BDE8F0814A68002A06D00A68531CDC
:102DE0000B6010704868401E4860704730B504465C
:102DF00013E010680578206805701068401C1060AA
:102E00002068401C20601888401E1880A088401E42
:102E1000A0808D4201D1022030BDA088002802DDB3
:102E200018880028E5DC188808B90020F4E70BE0D2
:102E3000106805781888401E18801068401C1060C3
:102E40008D4201D10320E7E718880028F0DC01203B
:102E5000E2E7016082807047F0B50B4614461946E0
:102E60001E19751E0BE04E780F7806EB0726B2B2DE
:102E70008618B0B2904201DA461CB0B2891CA94251
:102E8000F1D3A9420AD10E78002707EB0626B2B289
:102E90008618B0B2904201DA461CB0B2F0BD000014
:102EA000014800687047000038000020014691F892
:102EB0002000062821D11248007800F00100E0B17E
:102EC000088A104A1268528A90420CDD088A0D4A1C
:102ED0001268528A801A08820A4A48681268528A1E
:102EE0001044486005E00A8A4868104448600020A1
:102EF0000882012081F8200070470020FCE70000D4
:102F0000680000206C0000200146114A12884A43E4
:102F10004FF0E0235A6100229A611A46126942F08A
:102F200001021A6100BF4FF0E022106900F00102B7
:102F30001AB100F48032002AF5D04FF0E022126975
:102F400022F001024FF0E0231A6100229A617047DB
:102F50004600002070B504460D46208D10B1612852
:102F600014D103E000BF6120208500BF2021284646
:102F7000FDF73CF9461C3246074904F1280000F0F1
:102F8000A3FE08B9002070BD00BF00BF00BF002035
:102F900020850220F7E70000C12F000870B5044625
:102FA0000D46E1B20548FFF7AAFC00BF80210348A7
:102FB000FFF7D7FB0028F9D0204670BD003801404C
:102FC00070B504462546284600F090FC0646334678
:102FD00004A240F6CA7104480068FFF7A7FC80B25B
:102FE00070BD0000253575005C00002070B50446FA
:102FF0002546B5F8AC00064931F8103005A240F678
:10300000CA7106480068FFF791FC80B270BD0000ED
:10301000841D00202535750A000000005C0000209A
:1030200070B505462C469C2000590D490968498A0F
:10303000884205DD0A480068408AC4F8A00003E021
:103040009C200059C4F8A00098340648A268216862
:103050000068FDF789F82089983C80B270BD0000B7
:103060006C0000205C0000202DE9F04F8BB005467D
:103070000A950A9DB5F8AC0000EB8000234901EBEE
:10308000C004E08800F0BCFB0646608800F0B8FB96
:10309000C7B2608800F0B4FB4FEA2028208800F017
:1030A000AFFB00F0FF09208800F0AAFB4FEA202ABE
:1030B000A08800F0A5FB8346607E00F0100008B1F8
:1030C000212200E02022208A08B12A2300E02023C8
:1030D000A07EE17ECDE90832CDE90610607E00F0E9
:1030E0000F000B4951F820005B460A4A40F6CA71AE
:1030F000CDE900A9CDE90287CDE904600648006862
:10310000FFF714FC80B20BB0BDE8F08FF41600207E
:10311000A8000020389200085C0000202DE9FE4F36
:1031200004460A211020FEF71FF90546FDF751FA63
:1031300002900298FDF766FA07464FF066321E4B82
:10314000FDF766F90546FDF770FA02900298FDF763
:1031500059FA1A4A1A4BCDE90001FDF756F907460C
:10316000184A194BFDF7C6F905460022174BFDF723
:10317000A8F88246FDF759FA029015490298FDF722
:103180006EF80546FDF72AFA1FFA80F90A2099FB26
:10319000F0F085B202222146284600F073FD2E2071
:1031A000A0700A2099FBF0F100FB11903030E07024
:1031B00000202071BDE8FE8F66664A3FE17A14AEBA
:1031C00047E1F63F22FDF675E09C713F0000394073
:1031D0000000204110B50446FEF738FC2D20207178
:1031E000E0712020A0723A20607300202074114901
:1031F00088880422214600F045FD0E498879022284
:10320000611D00F03FFD0B49C879022204F108015D
:1032100000F038FD07490878022204F10B0100F0A4
:1032200031FD04494878022204F10E0100F02AFD24
:1032300010BD0000E406002010B50446204600F052
:1032400009F894F89600012802D1204600F096F97A
:1032500010BD000070B586B00446A08848B1B0F536
:10326000827F0BD0B0F5837F26D0B0F5A57F7BD1D0
:103270002CE100BF4FF48270A08000BF2021201DF0
:1032800000F092FD10B9002006B070BD00BF04220E
:103290009D4904F15000FCF7C3FF40B100BF10206E
:1032A0009A49087000BF0020A0800120ECE700BF11
:1032B0004FF48370A08000BF2021201D00F074FD1A
:1032C00008B90020E0E700BF94F850002F2808D08C
:1032D00000BF10208D49087000BF0020A080012091
:1032E000D2E75120005D202803D05120005D3F2807
:1032F0007DD15120005D3F2853D15620005D3128FB
:103300004FD18348006808B9012000E000208049BF
:10331000086080A18148FCF74BFF0546002D22D0B4
:103320007FA12846FCF744FF054679480068E0B1D4
:1033300006227DA1E81DFCF74DFF02227CA105F1CC
:103340001800FCF747FF7BA12846FCF731FF054634
:103350007A480068FCF754FF064632467748016811
:103360002846FCF737FF77E0C8E0062274A1E81D85
:10337000FCF730FF022274A105F11800FCF72AFFC8
:103380006CA12846FCF714FF054670480068FCF75E
:1033900037FF064632466D4801682846FCF71AFF9B
:1033A0005AE05120005D3F2856D15620005D32285A
:1033B00052D15748001D006808B9012000E00020E4
:1033C0005349091D086062A15448FCF7F1FE054607
:1033D000002D41D052A12846FCF7EAFE05464C4894
:1033E000001D0068E8B106224FA1E81D00E057E08B
:1033F000FCF7F0FE02224EA105F11800FCF7EAFEF0
:103400004CA12846FCF7D4FE05464C480068FCF762
:10341000F7FE06463246494801682846FCF7DAFEC0
:103420001AE006224CA1E81DFCF7D4FE022246A1B8
:1034300005F11800FCF7CEFE3EA12846FCF7B8FEC9
:10344000054647480068FCF7DBFE0646324644481E
:1034500001682846FCF7BEFE42A13048FCF7A8FEF2
:1034600005463DB101A8FFF759FE281F042201A916
:10347000FCF7B0FE3CA12846FCF79AFE054645B194
:1034800001A8FFF7A7FE102201A905F12100FCF712
:10349000A1FE1422374904F18200FCF79BFE0CE0E8
:1034A000201D00F00AFC401E04F1500100220A54C5
:1034B000142204F18200FCF78DFE012084F89600AE
:1034C0001BE000BF4FF4A570A08000BF0A21201DA3
:1034D00000F06AFC08B90020D6E600BF08222649A1
:1034E00004F15000FCF79CFE38B9201D00F0E5FB0C
:1034F000801E04F1500100220A54E2E700BF0020C0
:10350000A0800220C0E600002B8F00086800002089
:10351000800122424431D7B4CCAC0000D900002055
:10352000636F6C6F723A23003542354235420000BA
:10353000C3F00000687474703A000000940000202A
:103540004646303030300000C1C100008C00002001
:103550004432D7B4CCAC00003030464630300000A6
:1035600090000020A1E60000525443CAB1BCE43AE6
:1035700000000000708F0008868F000870B50446B8
:10358000B4F84C00E6283AD005DC48B1E1281DD05B
:10359000E32868D127E0EB284ED0EE2863D157E02E
:1035A00004F1980104F1820000F0BAF910BB04F1B3
:1035B0009801304800F0B4F92E4904F18200FCF77C
:1035C00026FE00BFE120A4F84C0000BF2A49204697
:1035D00000F0C0FC08B9002070BD00BF00BFE320B0
:1035E000A4F84C0000BF204600F084FC08B900207D
:1035F000F2E734E000BFE620A4F84C0000BF1F490A
:10360000204600F0A7FC08B90020E5E700BF2E2106
:1036100004F18200FCF7EAFD0546A5B1062218492F
:103620002846FCF7FDFD70B90020A4F84E0000BF4D
:10363000EB20A4F84C0000BF204600F025F808B9A4
:103640000020C9E70BE000BFEE20A4F84C0000BF4B
:10365000204600F04FFC08B90020BDE700BF102055
:103660000849087000BF00BF0020A4F84C000220E9
:10367000B2E700007C8F0008E38F00088F8F0008FE
:1036800034910008680000202DE9F0410446B4F8A8
:103690004E0030B190282BD0922836D0B1287DD161
:1036A0008CE09FE0D4F898000078252846D1D4F823
:1036B00098004078212841D1D4F89800C01CC4F863
:1036C000A4009C200059C01EC4F8A800D4F8A4008F
:1036D00010F8010C3A2813D1D4F8A410481C04F1B6
:1036E000980100F01DF900BF9020A4F84E0000BF23
:1036F000204600F0FFFB10B90020BDE8F08112E089
:1037000000BF9220A4F84E0000BFD4F8A40000F03F
:10371000CFF80746D4F8A46031462046B84708B928
:103720000020EAE700BF204600F092FA9834E068F3
:1037300020602169983C9C20015153E09C20005955
:103740002E490968498A884205DD2C480068408A6C
:10375000C4F8A00003E09C200059C4F8A000D4F8ED
:1037600098000078252807D1D4F89810481C252106
:10377000FCF73CFD054605E02521D4F89800FCF750
:1037800035FD0546ADB1D4F89800A84211D054F8E3
:10379000980F281AA060A068983C00E028E017491C
:1037A0000968498A884204DB14480068408AC4F8E2
:1037B000A00000BFB120A4F84E0000BF204600F0DA
:1037C000C3FC08B9002098E700BF54F8980FA1681F
:1037D000084444F898099C200059D4F8A010411AD4
:1037E0009C2001519C20005900283FF75BAF00BF8F
:1037F00000BF0020A4F84E0002207EE76C000020ED
:103800000146080240EA212080B2704710B52648E0
:10381000006800F11C042548007800F01000002822
:1038200040D12248007800F0200000283AD11F48FB
:10383000007800F08000002834D11C48007800F0A7
:103840004000B0B1312204F15001201D00F07EFA99
:10385000312204F1500104F1280000F077FA002031
:10386000A4F84C0084F8960020702046FFF7E4FC92
:1038700018E0A4B10D48007800F0080058B1207895
:10388000401C20702078142803DB20200749087092
:1038900001E0002020702046FFF7CEFC02E020204F
:1038A0000249087010BD00006C0000206800002074
:1038B00070B505460B4C0FE021680868FCF7A0FCCA
:1038C00006462168324608682946FCF7A9FC10B96B
:1038D0002068406870BD241D20680028ECD1024893
:1038E000F8E7000098000020733C000870B5064619
:1038F0000025094C0BE03046616800F037F818B934
:10390000064830F8150070BD681C85B22468002C8C
:10391000F1D10020F7E70000008F0008A01F002071
:103920002DE9F04107460D4600260E4C15E03846BD
:10393000616800F01BF868B9A0682860E0686860FA
:10394000094830F81600401C074921F816000120EC
:10395000BDE8F081701C86B22468002CE7D10020FD
:10396000F6E70000008F0008A01F002010B50246F7
:103970000B46002100BF585C28B1505C0D2802D0D6
:10398000505C0A2801D1002010BD505C5C5CA04254
:1039900001D00120F8E7481CC1B2ECE70EB5482081
:1039A000FEF75AFB4FF4A060FDF730FFFDF7D8FE9D
:1039B0004FF41650FEF764FEFEF712FC4FF4784009
:1039C0005749088057A01021CDE900105B48438873
:1039D00002880A210846FDF77DFE59A01021CDE995
:1039E00000105648438802881E210A20FDF772FE07
:1039F000FEF730F9FDF784F8FDF744F80DE054A028
:103A00001021CDE900104D484388028832210A2058
:103A1000FDF760FE54A0FEF779FF00F0B3FB00282D
:103A2000EDD1574908605749C1F8840156A0FEF707
:103A30006DFF5AA01021CDE900104048438802884C
:103A400032210A20FDF746FE01F0AEF959A01021FF
:103A5000CDE9001039484388028850210A20FDF73B
:103A600039FE58A01021CDE900103448438802885F
:103A700064210A20FDF72EFE57A01021CDE9001089
:103A80002E484388028878210A20FDF723FE00BFD4
:103A90004AF6C000ADF8080041F20100ADF80A0096
:103AA00000BF00BFBDF8080050490880BDF80A00FB
:103AB000488000BF00BF4AF6C000ADF8080040F2E1
:103AC0000110ADF80A0000BF00BFBDF8080048496A
:103AD0000880BDF80A00488000BF00BF4FF6FF70A5
:103AE000ADF80800FF20ADF80A0000BF00BFBDF828
:103AF000080040490880BDF80A00488000BF4BF22A
:103B0000040001F099F94FF4A04001F095F900F09C
:103B10007BFC04E001F0C0F90120FFF7F5F9F9E7BB
:103B200026000020454E4332384A3630204574681E
:103B300065726E6574205465737421002A0000203C
:103B40007777772E7072656368696E2E636F6D008C
:103B5000454E4332384A363020496E6974204572EA
:103B6000726F722100000000454E4332384A3630F1
:103B700020496E6974204572726F72210D0A00002F
:103B80008001224200002242454E4332384A3630FC
:103B900020496E6974204F4B210D0A0020202020FF
:103BA0002020202020202020202020202020202015
:103BB0000000000049503A3139322E3136382E316A
:103BC0002E3136004D41534B3A3235352E32353594
:103BD0002E3235352E300000474154455741593A71
:103BE0003139322E3136382E312E31004800002046
:103BF0004C0000205000002070B504460D46208D7A
:103C000010B1C3281CD107E00020A4F8AC0012E0DA
:103C100000BFC320208500BF22460C4904F12800C4
:103C200000F052F808B9002070BD00BFB4F8AC0035
:103C3000401CA4F8AC00B4F8AC001628E8D300BFD0
:103C400000BF002020850220EEE70000ED2F0008D5
:103C500070B5044654F8A40F0A21FCF7C7FA451CB6
:103C60002188691A89B26068401A606044F8A459D2
:103C700070BD0246108D00B900BF00BF0020108546
:103C8000022070472DE9F04106460F4615460024F4
:103C90000FE0281B411E0A20FDF714FC96FBF0F0F4
:103CA0000A2190FBF1F201FB120030303855601C04
:103CB000C4B2AC42EDDBBDE8F08101468A8B088BD3
:103CC000101A80B2704700002DE9F04104460D46FD
:103CD0001646608810B1EE282FD11BE02DB900BF29
:103CE000002060800120BDE8F0813046A847208296
:103CF000144800686060002084F8200000BF12486B
:103D0000007800F0040008B13046A84700BFEE205C
:103D1000608000BF2046FFF7C9F80746204600F044
:103D2000C1F807400FB90020DDE700BF208A002856
:103D3000E5DC002084F8200000BF00BF0020608088
:103D40000220D0E75C0000206800002070B5044627
:103D50000E461546002084F820006082E660E5618A
:103D6000AAB2314604F11400FFF773F80020208056
:103D7000608070BD0146488A002801DD012070473F
:103D800091F82000022804D1032081F820000020AF
:103D9000F5E70448007800F0020008B10120EEE7E2
:103DA0000020ECE76800002070B504460D466088EE
:103DB00020B1A0F21B10002836D10EE0A08B82B2F9
:103DC00004F11400E168FFF744F800BF608AA0B96D
:103DD00000BF40F21B10608000BF2046FFF7CAFF03
:103DE00008B9002070BD00BF022084F820001148EF
:103DF0000068A06010480088608204F1120304F19A
:103E000008022946981CFEF7F1FF00F00200002886
:103E1000DCD02046FFF751FF28B9002084F82000AD
:103E200000BF6080DEE700BF00BF0020608002208E
:103E3000D8E700005C000020640000202DE9F0417C
:103E400004460E461546608810B1CF2824D110E0F4
:103E50002DB900BF002060800120BDE8F0816660C0
:103E60002582002084F820000FE000BFCF20608072
:103E700000BF2046FFF71AF80746204600F012F868
:103E800007400FB90020E8E700BF208A0028ECDCDB
:103E9000002084F8200000BF00BF002060800220C6
:103EA000DBE7000010B5044694F82000062804D192
:103EB0000E48007800F00400A8B1208A0C49096877
:103EC000498A884206DD0A4A1268518A606802F00F
:103ED0002FF803E0218A606802F02AF8062084F8AF
:103EE0002000012010BD0020FCE700006800002039
:103EF0006C00002010B50446208D10B1642821D13B
:103F000004E000BF00BF6420208500BF22461049A6
:103F100004F12800FFF7D8FE08B9002010BD00BF4B
:103F20009C200059D4F8A010411A9C20015154F84B
:103F3000980FA168084444F898099C20005900286B
:103F4000E0DC00BF00BF002020850220E6E7000083
:103F5000213000082DE9F04104460E46208DCB2883
:103F600065D007DC78B1C22811D0C62829D0C9286D
:103F70007ED144E0CD2872D0CF287AD0D12879D014
:103F8000D328F5D1B1E000BFC220208500BF304664
:103F9000FCF736F907463A46314604F12800FFF7A8
:103FA0004DFF10B90020BDE8F08100BF2E2104F1C3
:103FB0008200FCF744F905468DB900BFC620208574
:103FC00000BF5448FCF71CF907463A46514904F132
:103FD0002800FFF733FF08B90020E4E793E005224B
:103FE00029464D48FCF71CF928B1062229464B48C2
:103FF000FCF716F988B900BFC920208500BF4848E2
:10400000FCF7FEF807463A46454904F12800FFF759
:1040100015FF08B90020C6E775E00422294641488B
:10402000FCF7FEF888B900BFCB20208500BF3E48D2
:10403000FCF7E6F807463A463B4904F12800FFF74B
:10404000FDFE08B90020AEE75DE0042229463748AE
:10405000FCF7E6F8A8B900BFCD20208500BF3448A2
:10406000FCF7CEF807463A46314904F1280002E051
:104070004AE010E027E0FFF7E1FE08B9002092E7F0
:1040800041E0042229462B48FCF7CAF888B900BF52
:10409000CF20208500BF2848FCF7B2F807463A46F3
:1040A000254904F12800FFF7C9FE08B900207AE786
:1040B00029E0042229462148FCF7B2F888B900BF5C
:1040C000D120208500BF1E48FCF79AF807463A46E3
:1040D0001B4904F12800FFF7B1FE08B9002062E790
:1040E00011E000BFD320208500BF1648FCF788F8F8
:1040F00007463A46134904F12800FFF79FFE08B926
:10410000002050E700BF00BF00BF00202085022034
:1041100049E70000039100082E910008349100083F
:104120005B900008409100087790000845910008D6
:10413000AE9000084A910008CA9000084F9100080C
:10414000E69000083E90000810B50446208D10B19E
:10415000712811D103E000BF7120208500BF04F158
:104160002800D4F8A020D4F89810FFF767FE08B90B
:10417000002010BD00BF00BF00BF0020208502202E
:10418000F7E7000070B500250A48FCF72BFD05464F
:10419000002405E00748005D07490855601CC4B2CB
:1041A000062CF7DB40F276411420FCF7D5FD2846BB
:1041B00070BD0000C07B00085400002010B503490A
:1041C00040F2EE50FCF7E8FD80B210BDF006002092
:1041D00010B5034903480088FCF73EFE10BD0000FF
:1041E000F00600206400002010B50648007820F09A
:1041F00080000449087000F007F903A000F03CFEBD
:1042000010BD0000880000207463705F636C6965F6
:104210006E742061626F72746564210D0A00000083
:1042200010B50548006800F11C040020A06003A040
:1042300000F022FE10BD00006C0000207463705F6F
:10424000636C69656E742061636B6564210D0A009F
:1042500010B50648007820F080000449087000F08E
:10426000D3F803A000F008FE10BD00008800002075
:104270007463705F636C69656E7420636C6F7365E3
:1042800064210D0A0000000010B50B48006800F121
:104290001C040A48007840F080000849087008A013
:1042A00000F0EAFD00202070A0600BA06060606854
:1042B000FBF7A6FFA06010BD6C0000208800002066
:1042C0007463705F636C69656E7420636F6E6E6596
:1042D00063746564210D0A00414C49454E54454BB9
:1042E0002053544D333220426F61726420436F6E0D
:1042F0006E65637465642053756363657373667577
:104300006C6C79210D0A000010B53948006800F185
:104310001C043848007800F0200008B1FFF764FF63
:104320003448007800F0800008B100F093F831487C
:10433000007800F0100008B1FFF78AFF2D480078E0
:1043400000F0400008B1FFF79FFF2A48007800F016
:10435000010008B1FFF764FF2648007800F0020072
:10436000C8B12548007800F0400020BB23480088F1
:10437000C72804DD00202249096881F8C7002048C9
:1043800001682048FBF743FF1B48007840F04000DD
:10439000194908700FE01848007800F0200050B16B
:1043A00018486060FBF72CFFA0601348007820F0ED
:1043B0002000114908700F48007800F0040098B9F7
:1043C0000C48007800F0020070B90A48007800F04C
:1043D000010048B90748007800F0400020B90548BE
:1043E000007800F0080008B100F024F810BD0000CB
:1043F0006C0000206800002088000020640000207D
:104400005C000020101E002038B500BF4AF6C00036
:10441000ADF8000040F21730ADF8020000BF4FF4D5
:10442000AF60FFF7EDF904462146684600F034FC22
:1044300038BD000010B50648006800F11C04A068F3
:10444000002803DDD4E9010101F072FD10BD000078
:104450006C00002010B50548007820F0800003496A
:10446000087003A000F008FD10BD000088000020C7
:104470007463705F636C69656E742074696D656FD9
:104480007574210D0A00000010B51048006880887E
:10449000B0F5A04F04D0A0F53040043830B902E0A8
:1044A000FFF7B4F903E000F09FF800E000BF00BFA1
:1044B00006480068C088A0F5F040053810B9FFF73D
:1044C00023FF00E000BF00BF10BD00006C00002013
:1044D00010B50548007820F080000349087003A05B
:1044E00000F0CAFC10BD0000890000207463705FFA
:1044F0007365727665722061626F72746564210DF6
:104500000A00000010B50548006800F11C040020F6
:10451000A06003A000F0B0FC10BD00006C00002003
:104520007463705F7365727665722061636B656436
:10453000210D0A0010B50548007820F080000349DD
:10454000087003A000F098FC10BD00008900002056
:104550007463705F73657276657220636C6F7365E8
:1045600064210D0A0000000010B50B48006800F13E
:104570001C040A48007840F080000849087008A030
:1045800000F07AFC00202070A0600BA060606068E2
:10459000FBF736FEA06010BD6C00002089000020F3
:1045A0007463705F73657276657220636F6E6E659B
:1045B00063746564210D0A00436F6E6E6563742039
:1045C000746F20414C49454E54454B2053544D3354
:1045D0003220426F61726420537563636573736642
:1045E000756C6C79210D0A0010B53948006800F12E
:1045F0001C043848007800F0200008B1FFF768FF7D
:104600003448007800F0800008B100F07DF83148AF
:10461000007800F0100008B1FFF78CFF2D480078FB
:1046200000F0400008B1FFF79FFF2A48007800F033
:10463000010008B1FFF766FF2648007800F002008D
:10464000C8B12548007800F0400020BB234800880E
:10465000C72804DD00202249096881F8C7002048E6
:1046600001682048FBF7D3FD1B48007840F040006C
:10467000194908700FE01848007800F0200050B188
:1046800018486060FBF7BCFDA0601348007820F07C
:104690002000114908700F48007800F0040098B914
:1046A0000C48007800F0020070B90A48007800F069
:1046B000010048B90748007800F0400020B90548DB
:1046C000007800F0080008B100F00EF810BD0000FE
:1046D0006C00002068000020890000206400002099
:1046E0005C000020D81E002010B50648006800F1CC
:1046F0001C04A068002803DDD4E9010101F018FCC6
:1047000010BD00006C00002010B50548007820F0B6
:1047100080000349087003A000F0AEFB10BD00004C
:10472000890000207463705F73657276657220740F
:10473000696D656F7574210D0A00000070B504463F
:104740000D46208D10B1AB2827D112E00020A4F82F
:10475000AC001DE0B4F8AC0000EB8000114901EBA7
:10476000C000407E00F00F0068B100BFAB20208584
:1047700000BF22460C4904F12800FFF7A5FA08B94A
:10478000002070BD00BFB4F8AC00401CA4F8AC0021
:10479000B4F8AC002828DDDB00BF00BF0020208576
:1047A0000220EEE7F41600206930000810B5044638
:1047B000FEF776FB2168401A6168884201DB012020
:1047C00010BD0020FCE7D0E90012114401607047E1
:1047D00070B504460D466560FEF762FB206070BD53
:1047E000C2780A44194BDA70827802EB21229A705F
:1047F00042785A7002781A701A469278B2EB212FDA
:104800000ADA1A465278521C5A701A4652781AB965
:104810001A461278521C1A700C4AD278CBB29A42BD
:1048200012DA0A4A9278521C084B9A701A46927809
:1048300052B91A465278521C5A701A4652781AB90E
:104840001A461278521C1A70704700007800002037
:1048500010B5044621460D4800680830FFF7C0FF38
:104860000B480078094909680872094841780748E7
:1048700000684172064881780448006881720448E3
:10488000C17802480068C17210BD00006C000020B1
:104890007800002010B5354800882A2803D200206F
:1048A0003249088010BD0020304908803048808A95
:1048B000B0F5807F03D0B0F5007F54D141E02C48A3
:1048C000C08C2C49098888423AD12948008D294951
:1048D0004988884234D126491631881D00F04AF9AA
:1048E0004FF40070224988820846D1F816200262EF
:1048F000498B818420490A68C0F816208988418341
:104900001D490A68C0F806208988418101460A6A63
:104910000260898C8180808B1549C8840846C18BD0
:10492000018514480088124988831248418810483C
:10493000C1834FF4C1600E4988812A200B49088049
:1049400011E00B48C08C0B49098888420AD10848FD
:10495000008D08494988884204D105491631881DCF
:1049600000F008F900BF00BF00BF9BE76400002013
:10497000F0060020480000205400002010B55B48DD
:10498000C08B5B49098888420CD15848008C584933
:104990004988884206D1554856490A680260898884
:1049A000818091E05148C08B5349098808405349A0
:1049B0000988514A1288114088420BD14B48008C1B
:1049C0004D49498808404D4949884B4A5288114011
:1049D000884208D000BF4A4800884A4908804848B1
:1049E0004088488008E000BF4048C08B45490880A7
:1049F0003E48008C488000BF00204349087016E004
:104A00004148007800EB4000404901EB80043D48FC
:104A100000882188884205D13A48408861888842C8
:104A200000D108E038480078401C37490870364803
:104A300000780828E4DB00BF3348007808283ED11E
:104A4000FF2206212948FBF7A1FB2848002101622B
:104A500081842F490A68C0F80620898841812C4941
:104A60000A68C0F816208988418300BF254800885D
:104A70001E49C884234841881C48018500BF00BFE7
:104A80001E480088194988831C4841881748C183FB
:104A900000BF4FF4807015498882C88108200882C1
:104AA000062088740420C8744FF4C160888101F125
:104AB0003600184908602A201749088010BD0B48A5
:104AC0006168016021898180084811490A68C0F83D
:104AD0000620898841810820044988810E48008881
:104AE0000E300D49088000BFE8E70000F006002006
:104AF000BC7B0008B67B0008500000204800002066
:104B00004C0000208000002084000020B01D002008
:104B1000540000205C000020640000201249097845
:104B2000491C114A11700021104A117017E00F49F9
:104B3000097801EB41010E4A02EB810001884288AD
:104B4000114339B1817A084A1278511A782901DB68
:104B50000021016005490978491C044A1170034984
:104B600009780829E3DB70478600002084000020D4
:104B7000B01D002010B502460023424C23701FE0F8
:104B8000404B1B7803EB43033F4C04EB830003884B
:104B90008BB143887BB113880488A3420BD153881F
:104BA0004488A34207D10B6843608B880381374B4D
:104BB0001B78837210BD334B1B785B1C314C237008
:104BC000304B1B78082BDBDB00232E4C237010E0CE
:104BD0002C4B1B7803EB43032B4C04EB8300038823
:104BE00013B9438803B908E0264B1B785B1C254C9E
:104BF0002370244B1B78082BEADB00BF214B1B786A
:104C0000082B34D10023224C2370224C23701D4CDE
:104C100023701DE01B4B1B7803EB43031A4C04EB82
:104C20008300837A194C2478E31A194C2478A34220
:104C300009DD837A154C2478E31A154C2370114B47
:104C40001B78144C23700F4B1B785B1C0D4C23708E
:104C50000C4B1B78082BDDDB0E4B1B78094C2370AB
:104C600023461B7803EB4303074C04EB83001368D4
:104C700003600B6843608B880381044B1B7883724D
:104C800000BF97E784000020B01D002086000020B0
:104C9000870000208500002030B504460D4600BF87
:104CA0003D480088401C3C49088008460088B0F513
:104CB000FA4F02DB4FF4805008800020374908701B
:104CC00015E03648007800EB8000354901EBC00262
:104CD000507E38B130480088FEF792FD91888842B6
:104CE00000D1DDE72D480078401C2C4908702B4886
:104CF00000782828E5DB002200202849087018E009
:104D00002648007800EB8000254901EBC003587E5F
:104D100008B91A4611E0587E072805D11AB1987EC5
:104D2000917E884200DD1A461C480078401C1B49D1
:104D300008701A4800782828E2DB00BF0AB9002072
:104D400030BD02205076174800781073154841781E
:104D5000517381789173C178D17340F6CA705082D3
:104D60009082012010820020D076012090760320CE
:104D70001076002090751020D07507480088FEF747
:104D80003FFD9080D58000BF2088108060885080D3
:104D900000BF1046D4E70000760000207C00002011
:104DA000F4160020720000200020164908700AE066
:104DB00000201549134A127821F812001148007892
:104DC000401C104908700F4800782828F0DB0020AC
:104DD0000C4908700DE000200A49097801EB8101B7
:104DE0000A4A02EBC101487606480078401C054992
:104DF0000870044800782828EDDB4FF480600449EF
:104E0000088070477C000020341D0020F41600202C
:104E10007600002010B5142206490020FEF71CF889
:104E2000044614B94FF6FF7010BD2046FEF7E8FCAB
:104E3000FAE70000FE06002000210D4A117010E084
:104E40000C490B4A127831F8121029B90949084A5D
:104E5000127821F81200704705490978491C044A64
:104E60001170034909782829EADB00BFF3E7000045
:104E70007C000020341D002010B50446214602A00D
:104E8000FDF744FD10BD0000754950206C6F673A76
:104E900025730D0A0000000010B53348007858B99A
:104EA00001203149087032213048FFF791FC4FF45E
:104EB0007A712F48FFF78CFCFFF780F92D490880A5
:104EC00008460088002824DD4FF40060FEF798FCB7
:104ED0002949898988420BD1012000F053F82548DF
:104EE000008800283FDDFFF749FDFFF771F93AE040
:104EF00040F60600FEF784FC1F498989884232D1BA
:104F0000FFF7C8FC1B48008800282CDDFFF760F97C
:104F100029E01648FFF74AFC28B31448FFF753FC72
:104F2000002415E000BF04EB8400144901EBC0002D
:104F300013490860022000F025F800BF0D480088E2
:104F4000002803DDFFF71AFDFFF742F9601CC4B229
:104F5000282CE7DB0648FFF729FC20B10448FFF7BF
:104F600032FCFFF7DBFD10BD100000200000002028
:104F70000800002064000020F0060020F416002045
:104F80006C00002070B50546FA480468FA48FB49F1
:104F90000860FB490860032D0ED1607E00F00F0011
:104FA000032807D1208A28B90820F6490870FFF79E
:104FB0006BFAF8E300F0A9BF022D73D1F248C07874
:104FC000401CC0B2F049C87078B908468078401CCF
:104FD000C0B2887048B908464078401CC0B24870DA
:104FE00018B908460078401C08700020E74908807E
:104FF000E7490880607E072802D0607E052808D136
:10500000A07E401CA076A07E782860D1002060762B
:105010005DE0607E00285AD0208A00284CD0A17E16
:10502000481EA076002952D1E07E082808D0607E74
:10503000022802D0607E01280FD1E07E05280CD125
:10504000002060768020CF490870FFF71DFA1421F8
:10505000C948363880F82F10FEE3E07E042801DDD1
:10506000042000E0E07E03218140A176E07E401C28
:10507000E076C848C08C401C81B2C648C184607EBE
:1050800000F00F00092822D2DFE800F02105060D0C
:1050900013211421150057E30021B748363880F852
:1050A0002F1056E314E00420B6490870FFF7ECF91E
:1050B000DFE300BF00BFDDE3607E00F00F000328E8
:1050C00005D10820AF490870FFF7DEF971E771E7F5
:1050D000B0484088401CAF494880A7483638807B9C
:1050E00045280BD008460088401C08800846C08828
:1050F000401CC880A8A0FFF7BFFE5BE79E4836387B
:10510000417C007C01EB0020A0490988884208DC32
:1051100099483638417C007C01EB00209B4908808F
:1051200003E0A7A0FFF7A8FE44E793483638007DC8
:1051300000F03F0018B990483638407D60B195487E
:105140000088401C9349088008468089401C88815B
:10515000A7A0FFF791FE2DE7AB480088AB4909886F
:10516000884205D1A8484088A8494988884213D078
:1051700081483638C08BA4490988884206D17E48C8
:105180003638008CA0494988884205D0814800887B
:10519000401C804908800DE7FFF73CFE4FF6FF7189
:1051A00088420CD07B480088401C7A490880084619
:1051B000C089401CC88196A0FFF75EFEFAE66E48E3
:1051C0003638C07D062800D162E06B483638C07D95
:1051D00001280CD06F480088401C6E4908800846A2
:1051E000008A401C08828FA0FFF746FEE2E669486D
:1051F000808A401C81B2674881825F48363890F8C7
:10520000220008280ED06348408A401C6149488229
:105210000846008B401C81B25E48018388A0FFF7DE
:105220002BFEC7E600215448363880F82210808CC7
:105230004FF6F771884208DB4F483638808C0930CA
:1052400081B24D483638818407E04B483638808C2F
:10525000083081B248483638818400BF4648363825
:10526000418BC183818B018400BF00BF66480188E8
:10527000414836384183644841883F483638818305
:1052800000BF4448C08A401C81B24248C182F4E356
:105290004048808B401C81B23E48818300F060FE14
:1052A0004FF6FF7188420ED03A48408B401C394976
:1052B00048830846008C401C81B23648018466A0B1
:1052C000FFF7DAFD76E6694C1BE0607EC0B12A4844
:1052D0003638808CA188884212D127483638408CD5
:1052E000E18888420CD124483638408B2188884296
:1052F00006D121483638808B6188884200D144E24B
:1053000028345B488442E0D91B48363890F82F0097
:1053100000F03F00022800D022E017483638808C89
:10532000544908800020544908700EE053485249FF
:10533000097830F811004F490988884200D123E1EB
:105340004D480078401C4C4908704B48007828288C
:10535000ECDB1048408D401C81B20E48418500BFF7
:105360000548363890F82F0000F0040000B121E61F
:1053700086E000006C000020260700205C00002072
:1053800060000020680000207200002064000020FF
:1053900066000020841D002069703A20696E7661E5
:1053A0006C69642076657273696F6E206F72206815
:1053B0006561646572206C656E6774682E0000001C
:1053C00069703A207061636B65742073686F7274E2
:1053D0006572207468616E207265706F72746564A6
:1053E00020696E204950206865616465722E000056
:1053F00069703A20667261676D656E742064726FC1
:10540000707065642E00000048000020B27B000828
:1054100069703A2062616420636865636B73756DBF
:105420002E00000069703A206E656974686572200C
:10543000746370206E6F722069636D702E000000BF
:1054400069636D703A206E6F742069636D702065BA
:1054500063686F2E000000007463703A206261641C
:1054600020636865636B73756D2E0000F416002071
:105470000C1D00207E0000207C000020341D002038
:10548000FD48808C401C81B2FB4881841421FB487C
:1054900080F82F102820FA4908805021F74880F81A
:1054A0002E1090F82900F7490870F44890F82D1054
:1054B00080F82910F3480178F04880F82D1090F812
:1054C0002800F0490870ED4890F82C1080F828105A
:1054D000EC480178E94880F82C1090F82700E94959
:1054E0000870E64890F82B1080F82710E5480178FE
:1054F000E24880F82B1090F82600E2490870DF4857
:1055000090F82A1080F82610DE480178DB4880F8F1
:105510002A1090F82D00401CC1B2D84880F82D10F8
:10552000B1B990F82C00401CC1B2D44880F82C10BE
:1055300071B990F82B00401CC1B2D04880F82B10F4
:1055400031B990F82A00401CC1B2CC4880F82A102A
:10555000CA48408CCC490880C848818C4184CA48DC
:105560000188C648818400BF418BC183818B01843F
:1055700000BF00BFC5480188C0484183C348418877
:10558000BE48818300BFF5E300240020BD490870B8
:1055900030E0BC48007800EB8000BD4901EBC00062
:1055A000407E30B9B748007800EB800001EBC004C2
:1055B00024E0B448007800EB8000B54901EBC0005E
:1055C000407E072811D14CB1AE48007800EB800036
:1055D00001EBC000807EA17E884206DDA9480078EC
:1055E00000EB8000AA4901EBC004A6480078401CEB
:1055F000A4490870A34800782828CADB00BF4CB92A
:105600009D48008D401C81B29B480185A1A0FFF7F9
:1056100033FCCFE4A84804600320A0762076002065
:10562000A0750420E0750020E0769448808CA0806E
:105630009248408CE08000BF9048408B20808F488B
:10564000808B608000BF012060769C4800782073CA
:105650009A48417861738178A173C178E173012020
:105660002082864890F82910E17290F82810A172E3
:1056700090F82710617290F8260020720120FFF741
:10568000E7F87E4890F82E0000F0F00050285ADD30
:1056900000207C4908704AE07A4800783630774923
:1056A000085C874908700846007800B94AE08448D9
:1056B0000078012805D173480078401C71490870B2
:1056C00035E07F480078022820D16E4800783730D6
:1056D0006A49085C042819D16A4800783930095CA5
:1056E000684800783830654A105C41EA0020664915
:1056F00008800846008840F6CA71884201DD0846E5
:1057000001E0614800886082A0821BE05D4800786B
:1057100037305A49085C00B914E05A4800783730ED
:105720005649085C57490978084456490870534857
:1057300090F82E000521C1EB201052490978B1EBF9
:10574000800FA9DB00BF00BF10214C4880F82F104C
:1057500000BF4A4890F82F0040F00201474880F807
:105760002F10022180F83610042180F837100F2105
:1057700080F83810CA2180F839102C204049088060
:1057800060213E4880F82E1037E34B48046000202B
:105790004C490870394890F82F0000F0040060B1BF
:1057A0000020607600E02FE247A0FFF765FB202095
:1057B00044490870FEF768FEA7E3304890F82E00D1
:1057C000001180002F4908702D4800880978401A80
:1057D00014382B490880607E00F00F00022806D1A3
:1057E000264890F82F0000F03F00122822D02448CD
:1057F0000088002805DC214890F82F0000F0030005
:10580000C0B11E4890F82600217A884211D11B4869
:1058100090F82710607A81420BD1184890F8281030
:10582000A07A814205D1154890F82910E07A81428A
:1058300000D0D4E2114890F82F0000F01000D0B151
:10584000208AC0B1218A04F10C00FEF7C9FF0B4881
:1058500090F82A00264900E0C6E2097888420AD179
:10586000064890F82B002249497888427ED10348A7
:1058700040E00BE26CE179E0841D0020F00600209E
:10588000640000207C0000207E00002048000020F2
:10589000F41600207463703A20666F756E64206E93
:1058A0006F20756E7573656420636F6E6E656374CB
:1058B000696F6E732E0000006C00002072000020E3
:1058C0007D000020680000207463703A20676F74C8
:1058D0002072657365742C2061626F7274696E67E3
:1058E00020636F6E6E656374696F6E2E000000003A
:1058F0007800002090F82C00FC498978884235D146
:10590000FB4890F82D00F949C97888422ED1F74814
:1059100000782073F548417861738178A173C1786C
:10592000E173E07ED8B9217EA27E891A48B2A17DBA
:10593000A0EBE10148B2A17D0144A175002801DA84
:10594000414248B2E17DA0EBA10148B2E17D0144B2
:10595000E175E17DA27D01EBE201217600BF01202E
:10596000E4490870207EA07600202082607E00F04E
:105970000F0009286BD2DFE800F06A0525C0F4F3B8
:10598000F2F1F000DB48007800F00100C8B103201C
:1059900060764020D749087000202082D6480088D1
:1059A000002808DD0846007840F002000870D24860
:1059B0000088FEF74DFF0020D0490880FEF764FD07
:1059C00022E1A2E2CB48007800F00100F0B3C84821
:1059D00090F82F0000F03F00122837D1C44890F80B
:1059E0002E0000F0F00050285EDD0020C449087051
:1059F0004EE0C34800783630BD49085CC1490870A4
:105A00000846007800B94EE0BE480078012805D16C
:105A1000BB480078401CBA49087039E0B9480078A2
:105A2000022823D1B64800783730B149085C0428F1
:105A30001CD1B34800783930095CB148007838305F
:105A4000AB4A105C41EA0020AF4901E04BE0C4E101
:105A500008800846008840F6CA71884201DD084681
:105A600001E0A94800886082A0821CE0A448007878
:105A700037309F49085C08B915E03DE2A04800783E
:105A800037309B49085C9E49097808449C49087056
:105A9000974890F82E000521C1EB2010984909780D
:105AA000B1EB800FA5DB00BF03206076904890F833
:105AB000260020728E4890F82710617290F8281006
:105AC000A17290F82910E1720120FEF7C1FE422078
:105AD000884908700020208287490880874908800B
