:020000040800F2
:100000004804002045010008890A0008F30400089C
:10001000850A00082F020008C3180008000000002D
:10002000000000000000000000000000490C000873
:100030003302000800000000110B00085D0D0008ED
:100040005F0100085F0100085F0100085F01000810
:100050005F0100085F0100085F0100085F01000800
:100060005F0100085F0100085F0100085F010008F0
:100070005F0100085F0100085F0100085F010008E0
:100080005F0100085F0100085F0100085F010008D0
:100090005F0100085F0100085F0100085F010008C0
:1000A0005F0100085F0100085F0100085F010008B0
:1000B0005F01000855110008551300085F01000892
:1000C0005F0100085F0100085F0100085F01000890
:1000D0005F010008011600085F0100085F010008C9
:1000E0005F0100085F0100085F0100085F01000870
:1000F0005F0100085F0100085F0100085F01000860
:100100005F0100085F010008851400085F01000816
:100110005F0100085F0100085F0100085F0100083F
:100120005F0100085F0100085F0100085F0100082F
:10013000DFF80CD000F04AF800480047B11E000874
:10014000480400200648804706480047FEE7FEE7CF
:10015000FEE7FEE7FEE7FEE7FEE7FEE7FEE7FEE777
:100160009D0D0008310100082DE9F05F05460020D3
:1001700092469B4688460646814640241BE0284618
:1001800041464746224600F042F853465A46C01AB6
:10019000914110D311461846224600F029F82D1A35
:1001A00067EB01084F4622460120002100F020F8AD
:1001B00017EB00094E41201EA4F10104DFDC484684
:1001C00031462A464346BDE8F09F0000064C074DE5
:1001D00006E0E06840F0010394E807009847103417
:1001E000AC42F6D3FFF7A8FFA0290308C0290308F3
:1001F000202A04DB203A00FA02F1002070479140E7
:10020000C2F1200320FA03F3194390407047202ADB
:1002100004DB203A21FA02F00021704721FA02F3B0
:10022000D040C2F12002914008431946704700BFF8
:10023000FEE7704751B18200A2F1C042126842F05D
:1002400001038200A2F1C042136009E08200A2F122
:10025000C0421268034B1A408300A3F1C0431A60E6
:1002600070470000FEFF0F00D0E901121143C26881
:100270001143026911434269114382691143C26902
:100280001143026A1143426A1143826A1143C26AEE
:100290001143026B114302689200A2F1C042116047
:1002A000816808290BD101688900A1F1C041096862
:1002B00041F0400201688900A1F1C0410A60416B30
:1002C0000968426B526841EA0211426B926841EA46
:1002D0000221426B928941EA0241426B128A41EA51
:1002E0000251426B127D41EA0261426B92691143F5
:1002F0000268521C9200A2F1C0421160C16AB1F5BD
:10030000804F1BD1816B0968826B526841EA0211F0
:10031000826B926841EA0221826B128A41EA0251A1
:10032000826B127D41EA0261826B9269114302681D
:100330009200A2F1C042C2F8041107E06FF07042CF
:1003400001688900A1F1C041C1F8042170472DE97D
:10035000F04102460025002600200023002400274B
:1003600091F803C00CF00F0591F803C00CF0100CCD
:10037000BCF1000F03D091F802C04CEA050591F8DA
:1003800000C0BCF1000F31D0146800202BE04FF00A
:10039000010C0CFA00F3B1F800C00CEA03069E420F
:1003A00020D183004FF00F0C0CFA03F7BC4305FA81
:1003B00003FC4CEA040491F803C0BCF1280F06D1F9
:1003C0004FF0010C0CFA00FCC2F814C00AE091F8DE
:1003D00003C0BCF1480F05D14FF0010C0CFA00FC32
:1003E000C2F810C0401C0828D1D31460B1F800C076
:1003F000BCF1FF0F34DD546800202EE000F1080C42
:100400004FF0010808FA0CF3B1F800C00CEA03063B
:100410009E4221D183004FF00F0C0CFA03F7BC432E
:1004200005FA03FC4CEA040491F803C0BCF1280F60
:1004300005D100F1080C08FA0CF8C2F8148091F804
:1004400003C0BCF1480F07D100F1080C4FF00108C0
:1004500008FA0CF8C2F81080401C0828CED354606B
:10046000BDE8F081016170472DE9F04104460D4679
:100470001646281D83B2201D82B22946204600F070
:100480008BF900270EE04FF0000806E0304600F040
:10049000D9FA08F1010000F0FF08B8F1050FF5DB0B
:1004A000781CC7B2052FEEDBBDE8F0812DE9F041E5
:1004B00004460D461646681C83B204F11D0082B244
:1004C0002946204600F068F900270EE04FF00008AA
:1004D00006E0304600F0B6FA08F1010000F0FF082F
:1004E000B8F11E0FF5DB781CC7B2022FEEDBBDE8BA
:1004F000F08100BFFEE7000008B50121442000F0B4
:1005000029FB0120ADF8000028208DF8030003200E
:100510008DF8020069460848FFF719FF1C20ADF866
:10052000000048208DF8030003208DF80200694682
:100530000248FFF70CFF08BD000801400018014009
:1005400010B5044622480078012826D121480068C9
:1005500001280AD02048006838B11F48001F0068F1
:1005600018B11D48001D0068B8B90A2001F088FBC9
:1005700000201749087017480068012800D110BDF5
:100580001548006808B90220F9E71348001F006801
:1005900008B90320F3E70420F1E70E48006878B9B2
:1005A0000D48006801280BD10B48001F0068012886
:1005B00006D10948001D0068012801D104490870CE
:1005C000012C02D10120024908700020D7E7000069
:1005D00023000020000121420C01234270B5064691
:1005E0000F484088401E83B20D480088401E82B2EA
:1005F0000021084600F0D0F800240CE0002504E0BB
:10060000304600F01FFA681C85B205484088A842B1
:10061000F6DC601C84B202480088A042EEDC70BDAB
:100620001800002000B502467AB9362000F0FEF925
:10063000002000F001FA4FF4F0700C4948804FF4AC
:10064000A0700880002088710EE0362000F0EEF9DE
:10065000602000F0F1F94FF4A070044948804FF495
:10066000F07008800120887100BD00001800002093
:1006700070B504460D4616462B46224629462046AE
:1006800000F08AF8304600F0DDF970BD2DE9FF4F2B
:1006900084B081468A460020039002900698A0EB21
:1006A00009050798A0EB0A06CDF80490CDF800A044
:1006B000002D01DD012705E00DB9002702E04FF014
:1006C000FF376D42002E02DD4FF0010806E016B93B
:1006D0004FF0000802E04FF0FF387642B54201DDEE
:1006E0002C4600E034464FF0000B21E0009A91B216
:1006F000019A90B200F022F80398284403900298DF
:10070000304402900398A04205DD0398001B03903B
:100710000198384401900298A04205DD0298001B20
:1007200002900098404400900BF101001FFA80FBFA
:10073000601C8345DADD08B0BDE8F08F30B50446B3
:100740000D462B4622462946204600F025F8024851
:10075000008800F077F930BD14000020F0B50446A1
:100760000D4616461F462B46324629462046FFF7C1
:100770008DFF3B46224629462046FFF787FF3B4632
:10078000324639462046FFF781FF3B46324629462E
:100790003046FFF77BFFF0BD70B504460D462A20BA
:1007A00000F044F92646E11704EB1161C1F30F2074
:1007B00000F042F9E11704EB11610912A4EB0121E9
:1007C00088B200F039F91646D11702EB1161C1F376
:1007D0000F2000F031F91646D11702EB1161091212
:1007E000A2EB012188B200F027F92B2000F01EF9BE
:1007F0002E46E91705EB1161C1F30F2000F01CF93B
:10080000E91705EB11610912A5EB012188B200F08F
:1008100013F91E46D91703EB1161C1F30F2000F045
:100820000BF91E46D91703EB11610912A3EB012145
:1008300088B200F001F92C2000F0F8F870BD00003B
:100840002DE9F84F80460E4617461C46B346204613
:10085000E31704EB5373DB1021464FEAE47C04EB0F
:100860005C7C4FEAEC0CA4EBCC0CBCF1000F02D08A
:100870004FF0010C01E04FF0000C6344224604EB02
:10088000D27C4FEA6C0C03FB0CF3DBB20093A7F1B4
:100890002000C7B2002556E00C2C07D107EB47001B
:1008A0002B4901EB800010F8059013E0102C05D1C6
:1008B000284800EB071010F805900BE0182C07D122
:1008C00007EBC700244901EB800010F8059001E018
:1008D000BDE8F88F4FF0000A2FE009F0800030B13A
:1008E0001E48028831464046FFF7C2FE07E00A98DC
:1008F00028B91B48028831464046FFF7B9FE4FEA47
:1009000049604FEA1069701C86B216484088B042B0
:1009100000DCDDE7A6EB0B00A0420AD15E4608F141
:1009200001001FFA80F80F480088404500DCCFE73F
:1009300006E00AF1010000F0FF0ABAF1080FCCDB73
:1009400000BF681CC5B200988542A5DB00BFBFE7A9
:10095000B81F00082C2400081C2A000814000020DE
:1009600016000020180000202DE9F0478046894637
:1009700015461E4600270024A24609EB0600401E2D
:1009800083B208EB0500401E82B249464046FFF79D
:1009900003FF05FB06F04FEA400A00BF0849601C50
:1009A0000F5C4FF6FF7000EA07270846005D07431B
:1009B000384600F047F8A41C5445EFDBBDE8F0874B
:1009C0009E3B00082DE9F84704460D46904699469F
:1009D000DDE9096704F0FF0A08EB04001FFA80F85C
:1009E00009EB05001FFA80F916E0444502DB544686
:1009F000A81985B24D4500DB14E0002000903A783C
:100A0000334629462046FFF71BFF304606EBD071E0
:100A100004EB61018CB27F1C38787E2802DC3878C8
:100A20002028E2DA00BFBDE8F8870000014908800D
:100A300070470000FE07006C014908807047000005
:100A40000008006C01490880704700000008006C35
:100A500008B50121102000F07DF8FF20ADF800005E
:100A600010208DF8030003208DF802006946044829
:100A7000FFF76DFCFF210248FFF7F4FC08BD000002
:100A80000010014000BFFEE77047000070B5002174
:100A900000230F22C47804B3154C246804F4E064E6
:100AA000C4F5E064210AC1F10403CA40447804FAA1
:100AB00003F184781440214309010E4C0678A155B6
:100AC000047804F01F050124AC4005786D11AD00D9
:100AD00005F1E025C5F8004109E0047804F01F05A0
:100AE0000124AC40044D0678761145F8264070BDCF
:100AF0000CED00E000E400E080E100E00249014389
:100B0000024A1160704700000000FA050CED00E099
:100B10007047000029B1064A52690243044B5A61EA
:100B200004E0034A52698243014B5A617047000056
:100B30000010024029B1064AD2690243044BDA612F
:100B400004E0034AD2698243014BDA617047000036
:100B50000010024029B1064A92690243044B9A618F
:100B600004E0034A92698243014B9A617047000096
:100B70000010024030B500210022002400232D4D3A
:100B80006D6805F00C0121B1042905D0082923D195
:100B900005E0294D056022E0274D05601FE0254D49
:100BA0006D6805F47012234D6D6805F480340225DC
:100BB00005EB92421CB9214D554305600BE01D4DDC
:100BC0006D6805F400351DB11C4D5543056002E00C
:100BD000194D5543056002E0174D056000BF00BF89
:100BE000144D6D6805F0F0010909154D6B5C056841
:100BF000DD4045600F4D6D6805F4E061090A104D58
:100C00006B5C4568DD4085600A4D6D6805F4605198
:100C1000C90A0B4D6B5C4568DD40C560054D6D68CC
:100C200005F44041890B074D6B5CC568B5FBF3F5D6
:100C3000056130BD0010024000127A0000093D003D
:100C40000000002010000020704710B500F002F8EE
:100C500010BD00000CB500200190009033480068E2
:100C600040F480303149086000BF3048006800F42B
:100C7000003000900198401C0190009818B901982C
:100C8000B0F5A06FF1D12948006800F4003010B130
:100C90000120009001E0002000900098012843D13D
:100CA0002348006840F010002149086008460068A9
:100CB00020F0030008600846006840F00200086069
:100CC0001A48406819494860084640684860084624
:100CD000406840F4806048600846406820F47C101A
:100CE00048600846406840F4E810486008460068DC
:100CF00040F08070086000BF0C48006800F0007091
:100D00000028F9D00948406820F0030007494860EE
:100D10000846406840F00200486000BF0348406851
:100D200000F00C000828F9D10CBD000000100240B2
:100D300000200240042808D14FF0E021096941F069
:100D400004014FF0E022116107E04FF0E021096952
:100D500021F004014FF0E02211617047704700005C
:100D600010B504466FF00400FFF7E4FFE11704EB51
:100D70005171C1F3C701074A11701046007800EBAA
:100D80004001C1EBC0104FF6FF7101EAC0000249FB
:100D9000088010BD400000204200002010B513481C
:100DA000006840F001001149086008464068104999
:100DB00008400E494860084600680E4908400B4943
:100DC00008600846006820F48020086008464068F3
:100DD00020F4FE0048604FF41F008860FFF735FFE5
:100DE0004FF000600449086010BD00000010024090
:100DF0000000FFF8FFFFF6FE08ED00E000B59DB033
:100E000001210802FFF786FE0120079000200890CC
:100E10000F20099000200A900B900C900D90152047
:100E2000009001900520029000200390049005900E
:100E3000069006200E9000200F9010901020119028
:100E40000020129014901390159016904FF480503B
:100E50001790002018904FF48040199000201A90AD
:100E600007A81B90CDF870D00EA8FFF7FDF901215F
:100E70000620FFF7DFF91DB000BD000008B5012115
:100E80004FF4B070FFF766FE4CF23370ADF800001F
:100E900018208DF8030003208DF8020069461048E1
:100EA000FFF755FA4FF68070ADF8000018208DF866
:100EB000030003208DF8020069460A48FFF747FA4D
:100EC00041F20100ADF8000018208DF80300032066
:100ED0008DF8020069460448FFF739FA08BD0000A2
:100EE00000140140001801400020014010B5FFF738
:100EF000C5FFFFF783FF322000F0C2FED320FFF7CB
:100F000095FD8E4800888E4988808C4800888880AE
:100F10008A4800888880084680884FF6FF7101EA79
:100F200000208749888008468088844909880843CA
:100F3000834988800846818882A000F0C5FCB020E3
:100F4000FFF774FD0020FFF777FD1120FFF76EFD1E
:100F5000142000F095FEB320FFF768FD0220FFF794
:100F60006BFD0020FFF768FD0020FFF765FD002006
:100F7000FFF762FDC020FFF759FD1020FFF75CFD71
:100F80003B20FFF759FD0020FFF756FD0220FFF739
:100F900053FD0020FFF750FD0120FFF74DFD00201D
:100FA000FFF74AFD4320FFF747FDC120FFF73EFD55
:100FB0001020FFF741FD1020FFF73EFD0820FFF74E
:100FC0003BFD0820FFF738FDC420FFF72FFD11205F
:100FD000FFF732FD0720FFF72FFD0320FFF72CFD61
:100FE0000320FFF729FDC620FFF720FD0020FFF7B3
:100FF00023FDC820FFF71AFD0320FFF71DFD032086
:10100000FFF71AFD1320FFF717FD5C20FFF714FD13
:101010000320FFF711FD0720FFF70EFD1420FFF757
:101020000BFD0820FFF708FD0020FFF705FD21203C
:10103000FFF702FD0820FFF7FFFC1420FFF7FCFC80
:101040000720FFF7F9FC5320FFF7F6FC0C20FFF711
:10105000F3FC1320FFF7F0FC0320FFF7EDFC032067
:10106000FFF7EAFC2120FFF7E7FC0020FFF7E4FC94
:101070003520FFF7DBFC0020FFF7DEFC3620FFF712
:10108000D5FC0020FFF7D8FC3A20FFF7CFFC552015
:10109000FFF7D2FC4420FFF7C9FC0020FFF7CCFC8F
:1010A0000120FFF7C9FCB620FFF7C0FC0020FFF7C6
:1010B000C3FC2220FFF7C0FC3B20FFF7BDFCD02083
:1010C000FFF7B4FC0720FFF7B7FC0720FFF7B4FCDD
:1010D0001D20FFF7B1FCD120FFF7A8FC0020FFF78F
:1010E000ABFC0320FFF7A8FC0020FFF7A5FCD220F3
:1010F000FFF79CFC0320FFF79FFC1420FFF79CFCEC
:101100000420FFF799FC2920FFF790FC142000F041
:10111000B7FDB420FFF78AFC0020FFF78DFC1420F8
:1011200000F0AEFD2C20FFF781FC0020FFF77AFADB
:101130004FF6FF70FFF752FA10BD00000008006C78
:1011400018000020204C43442049443A25780D0AD9
:101150000000000010B50121604800F0E4F900280B
:1011600070D05F4800780028FAD05E4A51885078E5
:101170000022FFF779F95B480078012806D00228A1
:101180000ED0032816D0042828D11DE055484078F9
:10119000401C5449487008464088401E48801DE065
:1011A00050484078401E4F49487008464088401ECD
:1011B000488013E04B484078401E4A494870084632
:1011C0004088401C488009E046484078401C45491A
:1011D000487008464088401C488000BF00BF414A14
:1011E000518850784FF6FF72FFF73EF93D4840882E
:1011F00001280AD13B480078012803D1042039494D
:10120000087002E0032037490870364841883648A4
:101210000089401F814220D13248417832484068DD
:10122000401F814219DB2F4841782F4840681E300B
:10123000814212DC2B480078042804D1012029497E
:10124000087003E044E00220264908700120244988
:101250000871084640880A30488022484188224860
:101260000089401F814202DD00201D4908701D4891
:101270004078EA280AD11B480078012803D10220CF
:101280001849087002E00320164908701548407894
:1012900001280AD113480078032803D104201149FA
:1012A000087002E001200F49087010480078401CC7
:1012B0000E490870084600781E2809D100200870E1
:1012C0000B48006808B9012000E0002008490860C8
:1012D0000121024800F018F910BD00000004004090
:1012E00034000020240000202800002022000020DC
:1012F000840122427FB505460C4601210220FFF7FA
:1013000019FCADF80850ADF804400020ADF80A0013
:10131000ADF8060001A90E4800F020F9012211469F
:101320000B4800F011F91D208DF8000000208DF809
:10133000010003208DF8020001208DF803006846AB
:10134000FFF7A4FB0121024800F0E1F87FBD000097
:101350000004004010B501212A4800F0E4F80028FC
:101360004BD029480078002847D0284A1189928814
:1013700090B20022FFF79AF80120FFF7E1F8244924
:10138000087008460078032815D122480078401CD0
:10139000204908700846007803280CDB00200870FC
:1013A0001A484068401F19494860084640680128AB
:1013B00001DC0120486016480078042815D1164841
:1013C0000078401C144908700846007803280CDB9C
:1013D000002008700D484068401D0C4948600846D0
:1013E0004068D12801DBD1204860084A11899288E1
:1013F00090B24FF6FF72FFF759F80121014800F053
:1014000083F810BD000800403400002028000020B0
:101410003A00002020000020210000207FB5054672
:101420000C4601210420FFF785FBADF80850ADF80C
:1014300004400020ADF80A00ADF8060001A91048EC
:1014400000F08CF8012211460D4800F07DF80121D2
:101450000B4800F059F81E208DF8000000208DF890
:10146000010002208DF8020001208DF8030068467B
:10147000FFF70CFB0121024800F049F87FBD000096
:101480000008004010B50121064800F04CF820B1DA
:101490000120FFF755F8044908700121014800F0C8
:1014A00033F810BD000C00403A0000207FB505461F
:1014B0000C4601210820FFF73DFBADF80850ADF8C0
:1014C00004400020ADF80A00ADF8060001A90D485F
:1014D00000F044F8012211460A4800F035F83220A5
:1014E0008DF8000000208DF8010001208DF8020029
:1014F0008DF803006846FFF7C9FA0121014800F0A2
:1015000006F87FBD000C0040CA430282704721B13B
:10151000028842F00102028004E002884FF6FE7366
:101520001A400280704730B5024600200023002494
:10153000158A05EA0103958905EA010413B10CB186
:10154000012000E0002030BD1AB183890B43838164
:1015500002E083898B438381704700000022028868
:101560001D4B98420ED01D4B98420BD0B0F1804FCE
:1015700008D01B4B984205D01A4B984202D01A4B08
:10158000984204D14FF68F731A404B881A43174B79
:10159000984207D0164B984204D04FF6FF431A40AA
:1015A000CB881A4302808B8883850B8803850A4B7E
:1015B00098420BD0094B984208D00E4B984205D068
:1015C0000D4B984202D00D4B984201D10B7A038605
:1015D0000123838270470000002C01400034014049
:1015E0000004004000080040000C004000100040D3
:1015F0000014004000400140004401400048014008
:1016000010B540F225510C4800F096F870B10A4828
:1016100000F04EF9C4B22146074800F04EF900BF71
:101620004021054800F07BF80128F9D1402102480B
:1016300000F060F810BD00000038014010B586B021
:10164000044601210420FFF785FA01218803FFF7F2
:1016500081FA01210846FFF77DFA4FF40070ADF8DA
:10166000140003208DF8160018208DF8170005A926
:101670001E48FEF76CFE4FF48060ADF814000420A5
:101680008DF8170005A91948FEF761FE01940020A6
:10169000ADF80800ADF80A00ADF80C00ADF8100088
:1016A0000C20ADF80E0001A9114800F095F80121B9
:1016B0000F4800F028F840210D4800F01BF80122E7
:1016C00040F225510A4800F061F825208DF800000D
:1016D00003208DF801008DF8020001208DF8030031
:1016E0006846FFF7D3F906B010BD000000080140BE
:1016F0000038014001F40072B2F5007F00D100BF54
:10170000CA430280704721B1828942F4005282812B
:1017100004E082894DF6FF731A40828170470246C9
:101720000020B1F5007F00D100BF13880B400BB142
:10173000012000E00020704770B50246002400231D
:101740000025002040F66A16B14200D100BFC1F367
:10175000421501F01F03012606FA03F3012D02D101
:101760009689334006E0022D02D1168A334001E00B
:10177000968A33400C12012606FA04F41688344087
:1017800013B10CB1012000E0002070BDF0B503469C
:10179000002400260025002040F66A17B94200D137
:1017A00000BF1846C1F3421401F01F06012707FAD3
:1017B00006F5012C01D10C3004E0022C01D11030CF
:1017C00000E014301AB107682F43076002E0076891
:1017D000AF430760F0BD00002DE9F04786B0054635
:1017E0000E460024A24600BFA1460027B08900B1E2
:1017F00000BF2F462C8A4CF6FF700440F08804434B
:101800002C82AC894EF6F3100440B088318908432D
:10181000718908430443AC81AC8A4FF6FF40044011
:10182000B0890443AC8201A8FFF7A4F91F4887429E
:1018300002D1DDF810A001E0DDF80CA0A88900F4C9
:10184000004040B10AEBCA0000EB0A1031684900C1
:10185000B0FBF1F807E00AEBCA0000EB0A103168B0
:101860008900B0FBF1F86420B8FBF0F00401200916
:10187000642101FB1089A88900F4004040B13220A6
:1018800000EBC900B0FBF1F000F00700044308E0F2
:10189000322000EB09106421B0FBF1F000F00F00E2
:1018A00004432C8106B0BDE8F087000000380140F9
:1018B00001468888C0F308007047C1F3080282809F
:1018C000704700BFFEE700000FB4054B10B503A939
:1018D000044A029800F018F810BC5DF814FB0000F0
:1018E000CD1C00084400002002E008C8121F08C1F7
:1018F000002AFAD170477047002001E001C1121F91
:10190000002AFBD1704700002DE9FF4F8DB09B46A8
:101910000F460446002606E025280BD05A460F99AC
:101920009047641C761C20780028F5D111B0304611
:10193000BDE8F08F0025A8460122984900E0054344
:1019400014F8013F203B02FA03F00842F7D1207857
:101950002E2817D114F8010F45F004052A280ED0BF
:101960006FF02F022078A0F1300109290AD808EB86
:10197000880102EB410100EB0108641CF2E757F813
:10198000048B641C20786C280DD004DC4C2812D009
:101990006A2811D104E074280DD07A280CD10AE00D
:1019A00045F4001507E0617845F48015814202D1C5
:1019B000641C05F58015641C2278692A45D008DC72
:1019C000002AB3D0582A69D0632A10D0642A08D1DB
:1019D0003BE0702A67D0732A13D0752A5CD0782A2E
:1019E0005CD010465A460F999047761CD3E017F802
:1019F000040B8DF8000000208DF80100E94601205D
:101A000003E057F8049B4FF0FF3069074FF00005E3
:101A100001D40AE06D1C45450DDA8542FADB19F860
:101A200005100029F6D106E06D1C8542FCDB19F893
:101A300005100029F8D12E4404E019F8010B5A468C
:101A40000F9990476D1EF8D2A5E00A200021CDE93C
:101A50000801C5F3025002280DD001CFC117031EA3
:101A600071F100030DDA4FF0000CD0EB0C006CEBC1
:101A700001012D2308E0FF1D27F00707F7E8020109
:101A8000EDE72B0504D52B238DF8283001233BE00F
:101A9000EB0739D02023F7E70A2000E010200021CF
:101AA000CDE9080107E01020002145F00405CDE94B
:101AB00008014FF00808C5F3025002280FD001CFEB
:101AC00000214FF0000A2B071FD5702A0DD0DDE949
:101AD00008C38CF0100C5CEA030C0CD015E0FF1D61
:101AE00027F00707F7E80201EBE740228DF82820EE
:101AF0004FF0010A0BE050EA010306D030238DF8C5
:101B000028308DF8292002239A46582A04D024A28E
:101B10000DF120090B9209E026A2F9E7DDE908237F
:101B2000FEF722FB0B9B9B5C09F8013D50EA01028A
:101B3000F4D1ADEB090020300890680701D44FF0D4
:101B400001080899884502DDA8EB010000E00020AB
:101B50008046002506E00AA85A46405D0F99904746
:101B60006D1C761C5545F6DB04E030205A460F9973
:101B70009047761CB8F10001A8F10108F5DC05E0FA
:101B800019F8010B5A460F999047761C0899481E80
:101B900008900029F4DC641CC5E600000928010057
:101BA00030313233343536373839616263646566D3
:101BB0000000000030313233343536373839414295
:101BC00043444546000000001CB52848007898B9F9
:101BD000002201212648FFF7B7FC002201212548F9
:101BE000FFF7B2FC00212248FFF791FC00212148B9
:101BF000FFF78DFC00F0C6F81C480079012834D1AD
:101C000000201A49087108464088642190FBF1F0D1
:101C100030301949087015484088642190FBF1F272
:101C200001FB12000A2190FBF1F03030124948709C
:101C30000E484088642190FBF1F201FB12000A215A
:101C400090FBF1F201FB120030300B49887000204C
:101C5000C87008461021CDE9001008484388028862
:101C60004FF4A5716420FEF7ADFE1CBD34000020CA
:101C700000040040000800403B0000201800002045
:101C80000146114A12884A434FF0E0235A6100226C
:101C90009A611A46126942F001021A6100BF4FF0C0
:101CA000E022106900F001021AB100F48032002A2B
:101CB000F5D04FF0E022126922F001024FF0E0234C
:101CC0001A6100229A6170474200002070B50446F4
:101CD0000D46E1B20548FFF7F0FD00BF8021034843
:101CE000FFF71DFD0028F9D0204670BD00380140E7
:101CF0001CB501201B4908706420487048801A49AF
:101D0000486040F22910088101201849087000201D
:101D10004880FEF763FC4FF4FC601549088040F2F0
:101D20008F13EF2200210846FEF718FD4FF496733B
:101D3000EF2219460020FEF7A9FC0B4A1189928870
:101D400090B24FF6FF72FEF7B1FB0AA01021CDE969
:101D500000100B48438802884FF4A5710A20FEF753
:101D600031FE1CBD2400002028000020340000208B
:101D70001400002047616D6520536F6372653A005F
:101D8000180000201CB50020FEF728FC37A0102109
:101D9000CDE9001038484388028864215A20FEF7B4
:101DA00011FE36A01021CDE9001033484388028887
:101DB00078211E20FEF706FE36484088642190FBFD
:101DC000F1F030303449087032484088642190FB8B
:101DD000F1F201FB12000A2190FBF1F030302E49A4
:101DE00048702C484088642190FBF1F201FB1200FE
:101DF0000A2190FBF1F201FB120030302649887075
:101E00000020C87025A01021CDE900101A48438891
:101E1000028896210A20FEF7D5FD1F481021CDE942
:101E2000001015484388028896216420FEF7CAFDF9
:101E300019E00020FEF784FB012814D1FFF758FFBA
:101E4000012211461848FFF77FFB0122114617486F
:101E5000FFF77AFB01211448FFF759FB01211348D2
:101E6000FFF755FB00E0E4E700BF1CBD47616D656F
:101E7000204F7665722100001800002050726573B3
:101E800073204B5F5550204B6579205374617274F9
:101E90002E2E2E00340000203B00002047616D658F
:101EA00020536F6372653A00000400400008004050
:101EB0001CB54820FEF754FF4FF4A060FEF71EFE4D
:101EC000FEF7C6FD4FF41650FFF7B8FBFFF70EF80C
:101ED000FEF712FB1F20FEF781FB4FF4C873F022C0
:101EE00000210846FEF740FD41F61F416420FFF740
:101EF000DDFA1FE04FF478401D4908801DA0102135
:101F0000CDE900102248438802880A211420FEF7F8
:101F100059FDC820FFF7B4FE1EA01021CDE9001026
:101F20001B48438802880A211420FEF74BFDC82075
:101F3000FFF7A6FE1E4800780128DBD10022012110
:101F40001C48FFF701FB00211A48FFF7E0FAFFF7F2
:101F5000CFFE41F61F416420FFF7CCF941F61F4147
:101F60003220FFF75BFA01E0FFF72EFEFCE70000EE
:101F7000140000205072657373204B5F5550206B26
:101F8000657920746F20456E7465722E2E2E0000C8
:101F90001800002020202020202020202020202089
:101FA0002020202020202020202020202020000071
:101FB0003A000020000C004000000000000000007B
:101FC00000000000000000003F4000000000000092
:101FD00000003000400030004000000009000BC04D
:101FE0003D000BC03D00090018C024407FE02240A6
:101FF00031800000180024C01B000D803240018099
:1020000003801C4027401C800740004010006000F7
:1020100000000000000000000000000000001F8021
:10202000204040200000402020401F800000000091
:10203000090006001F8006000900000004000400DB
:102040003F80040004000000001000600000000059
:10205000000000000400040004000400040000006C
:10206000000000400000000000000000002001C04F
:1020700006003800400000001F8020402040204023
:102080001F800000000010403FC000400000000022
:1020900018C02140224024401840000010802040F9
:1020A000244024401B80000002000D0011003FC0AE
:1020B000014000003C802440244024402380000054
:1020C0001F80244024403440038000003000200062
:1020D00027C03800200000001B80244024402440FA
:1020E0001B8000001C0022C0224022401F800000F4
:1020F0000000000008400000000000000000000098
:102100000460000000000000000004000A0011004C
:102110002080404009000900090009000900000072
:1021200000004040208011000A0004001800200038
:1021300023402400180000001F8020402740294031
:102140001F400000004007C039000F0001C00040E0
:1021500020403FC0244024401B8000001F802040BE
:10216000204020403080000020403FC020402040E0
:102170001F80000020403FC024402E4030C000009F
:1021800020403FC024402E00300000000F0010808F
:10219000204022403380020020403FC00400040061
:1021A0003FC02040204020403FC020402040000051
:1021B0000060202020203FC02000200020403FC0A1
:1021C00024400B0030C0204020403FC02040004051
:1021D000004000C03FC03C0003C03C003FC00000C6
:1021E00020403FC00C4023003FC020001F80204003
:1021F000204020401F80000020403FC02440240099
:10220000180000001F802140214020E01FA0000096
:1022100020403FC02440260019C0004018C0244080
:102220002440224031800000300020403FC0204048
:102230003000000020003F80004000403F80200030
:1022400020003E0001C0070038002000380007C011
:102250003C0007C038000000204039C0060039C0EB
:10226000204000002000384007C038402000000017
:10227000304021C02640384020C00000000000004F
:102280007FE0402040200000000070000C00038030
:10229000004000000000402040207FE000000000DF
:1022A000000020004000200000000000001000108E
:1022B000001000100010001000000000400000009E
:1022C00000000000000002800540054003C00040FF
:1022D00020003FC004400440038000000000038051
:1022E00004400440064000000000038004402440F5
:1022F0003FC000400000038005400540034000004F
:10230000000004401FC0244024402000000002E0E0
:10231000055005500650042020403FC004400400F2
:1023200003C000400000044027C00040000000003F
:1023300000100010041027E00000000020403FC003
:102340000140070004C00440204020403FC000403E
:102350000040000007C0040007C0040003C00000E4
:10236000044007C00440040003C000400000038094
:102370000440044003800000041007F004500440AF
:1023800003800000000003800440045007F00010A8
:10239000044007C0024004000400000000000640A2
:1023A0000540054004C00000000004001F800440F8
:1023B00000400000040007800040044007C00040C7
:1023C0000400070004C0018006000400060001C0EC
:1023D000070001C006000000044006C0010006C05E
:1023E000044000000410071004E00180060004000F
:1023F0000000044005C0064004400000000000004A
:1024000004007BE040200000000000000000FFF01E
:1024100000000000000040207BE0040000000000FD
:10242000400080004000200020004000000000002C
:10243000000000000000000000000000000000009C
:1024400000001FCC000C000000000000000008008D
:10245000300060000800300060000000022003FC33
:102460001E20022003FC1E200220000000000E1887
:1024700011043FFF10840C78000000000F0010844E
:102480000F3800C0077818840078000000780F84A7
:1024900010C411240E9800E40084000808006800AD
:1024A00070000000000000000000000000000000BC
:1024B000000007E01818200440020000000040025D
:1024C0002004181807E0000000000000024002404D
:1024D00001800FF001800240024000000080008077
:1024E00000800FF800800080008000000001000DD7
:1024F000000E00000000000000000000000000804E
:102500000080008000800080008000800000000CBF
:10251000000C0000000000000000000000000006A9
:10252000001800600180060018002000000007F07D
:10253000080810041004080807F000000000080450
:1025400008041FFC000400040000000000000E0C42
:1025500010141024104411840E0C000000000C18FC
:1025600010041104110412880C700000000000E037
:102570000320042408241FFC0024000000001F98EE
:10258000108411041104108810700000000007F07E
:1025900008881104110418880070000000001C0055
:1025A000100010FC13001C001000000000000E388A
:1025B00011441084108411440E38000000000700FC
:1025C000088C10441044088807F000000000000048
:1025D0000000030C030C00000000000000000000DD
:1025E0000001010600000000000000000000008063
:1025F00001400220041008081004000002200220FC
:10260000022002200220022002200000000010040C
:1026100008080410022001400080000000000E00A5
:102620001200100C106C10800F00000003E00C185A
:1026300013E4142417C4082807D000000004003C49
:1026400003C41C40074000E4001C000410041FFCED
:102650001104110411040E880070000003E00C182E
:1026600010041004100410081C10000010041FFCBB
:10267000100410041004080807F0000010041FFCE8
:102680001104110417C410040818000010041FFCE2
:102690001104110017C010000800000003E00C181E
:1026A0001004100410441C780040000010041FFCAB
:1026B00010840080008010841FFC100400001004AF
:1026C00010041FFC100410040000000000030001AF
:1026D000100110011FFE10001000000010041FFC6C
:1026E000110403801464181C1004000010041FFC63
:1026F0001004000400040004000C000010041FFC7F
:102700001F0000FC1F001FFC1004000010041FFC31
:102710000C04030000E010181FFC100007F008086C
:10272000100410041004080807F0000010041FFC37
:1027300010841080108010800F00000007F008182F
:1027400010241024101C080A07F2000010041FFCBB
:102750001104110011C011300E0C000400000E1CF9
:1027600011041084108410441C380000180010005C
:1027700010041FFC100410001800000010001FF8C7
:1027800010040004000410041FF8100010001E00C4
:1027900011E0001C007013801C0010001FC0103CD2
:1027A00000E01F0000E0103C1FC000001004180CE7
:1027B000163401C001C01634180C100410001C009F
:1027C000130400FC13041C00100000000804101C7B
:1027D0001064108413041C04101800000000000092
:1027E00000007FFE40024002400200000000300076
:1027F0000C0003800060001C000300000000400289
:10280000400240027FFE00000000000000000000C7
:1028100020004000400040002000000000010001B6
:102820000001000100010001000100010000400062
:1028300040002000000000000000000000000098A0
:10284000012401440144014400FC000410001FFC69
:10285000008801040104008800700000000000707E
:1028600000880104010401040088000000000070D9
:1028700000880104010411081FFC0004000000F896
:10288000014401440144014400C800000000010467
:1028900001040FFC1104110411001800000000D6FF
:1028A00001290129012901C90106000010041FFCAA
:1028B000008401000100010400FC00040000010488
:1028C000190419FC000400040000000000000003CB
:1028D00000010101190119FE0000000010041FFC95
:1028E0000024004001B4010C0104000000001004A9
:1028F00010041FFC0004000400000000010401FC9F
:102900000104010001FC0104010000FC010401FCC0
:10291000008401000100010400FC0004000000F834
:10292000010401040104010400F80000010101FF99
:1029300000850104010400880070000000000070A0
:10294000008801040104010501FF000101040104E4
:1029500001FC00840104010001800000000000CCA3
:102960000124012401240124019800000000010039
:10297000010007F80104010400000000010001F853
:10298000000400040004010801FC000401000180AF
:102990000170000C001001600180010001F0010CC9
:1029A000003001C00030010C01F001000000010402
:1029B000018C00740170018C01040000010101818F
:1029C0000171000E00180160018001000000018407
:1029D000010C013401440184010C000000000000DE
:1029E0000000000001003EFC400240020000000028
:1029F00000000000FFFF0000000000000000400297
:102A000040023EFC010000000000000000006000E9
:102A100080008000400040002000200000000000F6
:102A200000000000000000000000000000000000A6
:102A30000000000000000000000000000000000096
:102A40000000000000000000000000000000000F77
:102A500080380FFE380F80380000000000000000B2
:102A6000000000000000000000000100000600005F
:102A70000C00003800003100000600000C00003897
:102A800000003000000000000000000061800067CE
:102A9000F807F9800061800061800061800061803A
:102AA0000067F807F9800061800000000000000066
:102AB000000001C0E003E0F00630080418081FFF22
:102AC000FE040E080787F00381E00000000000000C
:102AD00001F000060C00040408060C7001F9C000A7
:102AE0000E00003BE000EC18070808040C18000377
:102AF000E00000000001E00007F003F818041C08E3
:102B000004170807E1D003C0E00023B0003C080030
:102B1000200800001000000000000001000031004B
:102B2000003200001C000000000000000000000057
:102B30000000000000000000000000000000000095
:102B40000000000000000000000000007F0001FF06
:102B5000C00780F00C0018100004200002000000E4
:102B60000000002000021000040C00180780F00193
:102B7000FFC0007F00000000000000000000000017
:102B80000000000000000000420000660000660037
:102B9000003C0000180003FFC0001800003C0000CB
:102BA0006600006600004200000000000800000807
:102BB0000000080000080000080001FFC000080035
:102BC00000080000080000080000080000000000E5
:102BD000000100003100003200001C000000000075
:102BE00000000000000000000000000000000000E5
:102BF00000000000080000080000080000080000B5
:102C00000800000800000800000800000800000894
:102C10000000000000000000000000003800003844
:102C2000000038000000000000000000000000006C
:102C3000000000000000000000000000000600008E
:102C40001C000070000180000E0000380000C00071
:102C50000700001C00003000000000000000000021
:102C60007F8001FFE0038070060018040008040064
:102C70000806001803807001FFE0007F800000005C
:102C80000000000000000100080100080100080326
:102C9000FFF807FFF8000008000008000008000027
:102CA0000000000000000001C03802C05804009875
:102CB000040118040218040418061C1803F818016B
:102CC000E0F800000000000000000001C0E003C0C8
:102CD000F004000804080804080806180803F4189B
:102CE00001E7F00001E0000000000000000000002B
:102CF0000300000D000011000061000081080301C5
:102D00000807FFF80FFFF8000108000108000000A5
:102D10000000000000E007FCD006080806100806C6
:102D20001008061008061838060FF00607C0000045
:102D300000000000000000003F8001FFE00384303D
:102D400002081804100804100804100807181003DB
:102D50000FF00007C000000000000000000003C0EA
:102D6000000700000600000600F80607F806180035
:102D700006E000070000060000000000000000015F
:102D8000E1E003F7F0063410041808041808040CF6
:102D900008040C0806161803F3F001C1E000000057
:102DA00000000000F80003FC3003063804020804A9
:102DB00002080402080404100308F001FFC0007FA9
:102DC0000000000000000000000000000000000003
:102DD00000000000703800703800703800000000FB
:102DE00000000000000000000000000000000000E3
:102DF0000000000000000000301A00301C0000003D
:102E000000000000000000000000000000000000C2
:102E100000000008000014000022000041000080B3
:102E2000800100400200200400100800080000009B
:102E3000000000002100002100002100002100000E
:102E400021000021000021000021000021000021BC
:102E5000000000000000000000000800080400104E
:102E6000020020010040008080004100002200009C
:102E7000140000080000000000000003C00004C0AF
:102E800000040000080038080F380808380810004F
:102E90000C300007E00003C000000000000000004C
:102EA0003F8000FFE0038070020F1006708804C0AE
:102EB00088048308047F8802C09003012000FE403C
:102EC0000000080000180001F8003E0801C20007D9
:102ED000020007E20000FE00001FC80001F8000029
:102EE0003800000804000807FFF807FFF804080886
:102EF00004080804080804080806180803F4180160
:102F0000E7F00001E0000000000000003F8001FF4A
:102F1000E0038070020018040008040008040008A0
:102F20000400100600200780C0000000040008070D
:102F3000FFF807FFF8040008040008040008040074
:102F40001802001003807001FFE0007F8000000085
:102F500004000807FFF807FFF8040808040808043D
:102F60000808040808043E080400080600180100C8
:102F70006000000004000807FFF807FFF8040808D5
:102F8000040800040800040800043E0006000006CF
:102F90000000018000000000000000003F8001FFF1
:102FA000E003807006001804000804020804020808
:102FB0000203F00783F0000200000200040008078B
:102FC000FFF807FFF80408080008000008000008E0
:102FD0000000080004080807FFF807FFF8040008CD
:102FE00000000000000004000804000804000807B6
:102FF000FFF807FFF80400080400080400080000B8
:1030000000000000000000000006000007000001B2
:1030100004000104000104000307FFFE07FFFC0495
:10302000000004000004000004000807FFF807FF88
:10303000F8040C08001800003E0004C7800503C80F
:103040000600F8040038040018000008040008070F
:10305000FFF807FFF804000800000800000800005F
:1030600008000008000008000018000060000000D0
:1030700004000807FFF807800807FC00007FC00075
:1030800003F80007C000780007800807FFF807FF73
:10309000F804000804000807FFF807000803C00050
:1030A00000E000003800001E000007000001C0041E
:1030B00000F007FFF8040000000000007F8001FF1F
:1030C000E0038070060018040008040008060018D9
:1030D00003003001FFE0007F8000000004000807CB
:1030E000FFF807FFF80404080404000404000404C3
:1030F00000040400060C0003F80001F000000000CA
:10310000000000007F8001FFE0038070060088045B
:1031100000880400C806003C03003E01FFE6007F73
:103120008400000004000807FFF807FFF8040808FF
:10313000040800040C00040F00040BC00610F00388
:10314000F03801E00800000800000001E0F803F09A
:1031500030063010041808041808040C08040C0881
:103160000206180207F00781E00000000180000657
:10317000000004000004000004000807FFF807FF37
:10318000F8040008040000040000060000018000AC
:1031900004000007FFE007FFF0040018000008002B
:1031A000000800000800000800000804001007FFE5
:1031B000E004000004000006000007E00007FE0035
:1031C000041FE00001F80000380001E0043E0007A1
:1031D000C00006000004000004000007E00007FF34
:1031E000C0041FF80007C007F80007FF80043FF87D
:1031F0000007C004F80007000004000000000004FD
:10320000000806001807C07805F1C8003E00001F3E
:10321000800463E80780F806001804000800000036
:1032200004000006000007800007E008047C080096
:103230001FF80007F800180804E00807000006005F
:10324000000400000000000100080600380400F837
:103250000403E8040F08047C0805F00807C0080709
:1032600000180400600000000000000000000000E2
:10327000000000000000003FFFFE200002200002CE
:1032800020000220000220000200000000000000D8
:10329000000008000007000000C000003800000621
:1032A000000001C000003000000E0000010000001E
:1032B0000000000000002000022000022000022088
:1032C00000022000023FFFFE00000000000000009E
:1032D00000000000000000000000000000080000E6
:1032E0001000003000002000003000001000000836
:1032F00000000000000000000000010000010000CC
:1033000001000001000001000001000001000001B7
:1033100000000100000100000100000100000000A9
:10332000000000000020000020000010000010003D
:10333000000000000000000000000000000000008D
:103340000000000000F00019F8001B18002208001F
:103350002608002408002410003FF8001FF8000091
:103360000800001800000004000007FFF80FFFF03D
:10337000001818001008002008002008003018006D
:103380001FF0000FC00000000000000007C0001F79
:10339000F0001830002008002008002008003C0839
:1033A000001C100000600000000000000000000091
:1033B00007C0001FF0003818002008002008002077
:1033C0000804101007FFF80FFFF0000010000000C5
:1033D0000000000000000007C0001FF000123000D5
:1033E0002218002208002208003208001E10000ED9
:1033F000200000000000000020000020080020083D
:1034000001FFF803FFF8062008042008042008073D
:10341000200003000000000000000000000E000E6D
:103420006E001FF30031B10020B10020B1003191D6
:10343000001F13002E1E00200E00300000000004AC
:10344000000807FFF80FFFF8001008002000002018
:1034500000002008003FF8001FF8000008000000EE
:1034600000000000000000200800200800200806DE
:103470003FF8063FF80000080000080000080000C0
:103480000000000000000000000000000300000336
:10349000002001002001002003063FFE063FFC0043
:1034A000000000000000000000000004000807FF0A
:1034B000F80FFFF8000188000300002FC00038F863
:1034C0000020380020080000080000000000000074
:1034D000000004000804000804000807FFF80FFFBC
:1034E000F8000008000008000008000000000000CC
:1034F000002008003FF8003FF800100800200000FE
:103500003FF8003FF8001008002000003FF8003F9F
:10351000F8000008000000002008003FF8003FF815
:10352000001008001000002000002008003FF800F4
:103530001FF80000080000000000000007C0000F96
:10354000F000183000300800200800200800300883
:10355000001830000FF00007C0000000000000005D
:103560002001003FFF003FFF001011002009002054
:1035700008002008003038001FF0000FC0000000D5
:103580000000000007C0001FF000381800200800ED
:103590002008002009001011001FFF003FFF00005D
:1035A00001000000002008002008002008003FF86B
:1035B000003FF80008080010080020080020000064
:1035C0003000003000000000000000000000000C8F
:1035D00078001E1800330800230800210800218805
:1035E0000021980030F0003860000000000000006A
:1035F000200000200000200000FFF003FFF8002062
:103600000800200800200800003000000000000032
:10361000000000002000003FF0007FF800001800CC
:103620000008000008002010003FF8007FF00000B4
:1036300010000000000000002000003000003C00EE
:10364000003F800023F0000078000070002380001D
:103650003C00003000002000002000003C00003F43
:10366000E00023F80000E0002700003E00003FE0FB
:103670000021F80001E0003E0000200000000000F2
:103680002008002008003838003E6800278000032A
:10369000C8002CF80038380020180020080000006E
:1036A000000000002000003003003C01003F8300C8
:1036B00023EC000070002380003C0000200000206C
:1036C0000000000000000000000000380800203862
:1036D0000020F80023E8002F88003E08003808008A
:1036E0002018000070000000000000000000000032
:1036F000000000000000000008000014001FF7FC9C
:103700003000062000020000000000000000000061
:103710000000000000000000000000000000FFFFAB
:10372000FF0000000000000000000000000000009A
:103730000000000000002000023000061FF7FC001F
:10374000140000080000000000000000000000005D
:1037500000000000000000180000600000400000B1
:1037600040000020000010000008000004000004D9
:1037700000000C0000100000C6D50000000000E0B2
:10378000380000783C00003C7800003C70C0001C11
:10379000E1E01FFFFFF0001CE3000E1CE7C0079CE8
:1037A000E78003DCEF0003DCEE0001DCFC60009C42
:1037B000F9F07FFFFFF80000000001C00E0001FFDC
:1037C000FF0001C00E0001C00E0001C00E0001FF8D
:1037D000FE0001C00E0001C00E0001C00E0001FF7E
:1037E000FE0001C00E0001C00E0000000000D6D097
:1037F0000000000000070000000780000007000034
:103800000007000000070000000701801FFFFFE025
:103810001FFFFFE01E0701C01E0701C01E0701C0F9
:103820001E0701C01E0701C01E0701C01FFFFFC009
:103830001FFFFFC01E0701C01C070180000700001A
:10384000000700000007000000070000000700005C
:10385000000700000007000000070000000700004C
:1038600000000000BFC60000000000000780003C10
:1038700007C001FC07803FE0078039C1C78001C055
:10388000E78001C0F78001C0778001DE77807FFE8E
:10389000078001C0078003C3C78003E1E78003F806
:1038A000F78007FCE7F00FDE67F80FDC07F81FC0B2
:1038B000FF801DDFE78039CC078071C0078061C0C1
:1038C000078001C0078001C0078001E0078001E098
:1038D000078001C0070000000000BCBC0000000021
:1038E0000380300003C03C0003C03C0003C038002C
:1038F00003C0380003C0386003F838F07FFFFFF0E2
:1039000003C0380003C0380003C0380003DC39C0EE
:1039100003FFFFE007E383C03FC183C07FC1C380D3
:103920003BC1C78003C0EF0003C0EF0003C07E00AF
:1039300003C07C0003C07C0003C0FE003BC3EF80DB
:103940003F8787F80FBF03F8077800E0000000000A
:10395000C4EA0000000000C0000001F0000001E027
:10396000000003C000C003C001E007FFFFF0070331
:10397000C0000E03C0001E03C0003C03C30073035D
:10398000C78063FFFFC00383C0000383C0000383BD
:10399000C0000383C0000383C0600383C0F07FFFC7
:1039A000FFF80003C0000003C0000003C0000003D4
:1039B000C0000003C0000003C0000003C0000003FB
:1039C000C00000000000D4C20000000000000000A1
:1039D00000E0070000FFFF8000F0078000F0070014
:1039E00000F0070000F0070000F0070000FFFF00F4
:1039F00000FFFF0000F0070000F0070000F00700E4
:103A000000F0070000E0070000FFFF0000E00700F3
:103A100000E0070000E0070001E0070001C0070028
:103A200001C00700038007000780F7000F007F0038
:103A30001E001F0038001C0000000000C8D5000058
:103A40000000000000000300030003FFFF8003FFED
:103A5000FF800380070003800700038007000380C6
:103A6000070003800700038007000380070003802E
:103A7000070003FFFF0003800700038007000380A7
:103A8000070003800700038007000380070003800E
:103A90000700038007000380070003FFFF00038087
:103AA00007000380070003800700030000000000F8
:103AB0000000D0C7000000000000000003800700E5
:103AC00003FFFF80038007000380070003800700D7
:103AD00003FFFF00038007000380070003FFFF00D0
:103AE00003FFFF00038707000387C00003C78100AF
:103AF00003C7838007FFFFC0070780000F07800010
:103B00001E0786001C078F003BFFFF8070078000A8
:103B100000078000000780E0000781F07FFFFFF8CA
:103B20000000000000000000C6DA000000000600EF
:103B30000000079E0000079E7FF0079E7FF0079F12
:103B4000F8F03FFFF8F01F9E78F0079E78F0079E90
:103B500078F007FE7FF0079E78F0079E78F0079ECA
:103B600070F007FE70F0079E70F0079E7FF0079FD1
:103B7000FFF03FFFF0F0119070F003DCF0F003DE97
:103B8000E0F0078FE0F00F0FE0F00E07C0F01C032D
:103B90008FF0380F03E0201C01C000000000084235
:103BA00008420842084208420842084208420842C5
:103BB00008420842082110E710C708A700240002A5
:103BC00000230024002400240024002400230044B7
:103BD00010C708A708A7006500030003000300033F
:103BE0000003000300A6180418041804180418049D
:103BF00018041804180418041804180418040045BC
:103C00000024000300230023002300230045004577
:103C100000020023002318041804180418041804D0
:103C200018041804180418041804180418041804B4
:103C300018041804180418041804180418041804A4
:103C40001804180418041804180418041804180494
:103C50001804180418041804180418041804180484
:103C60001804180418041804180418041804180474
:103C70001804180418041804180418041804180464
:103C80001804180418041804180418041804180454
:103C90001804180418041804180418041804180444
:103CA0001804180418041804180418041804180434
:103CB0001804180418041804180418041804180424
:103CC0001804180418041804180418041804180414
:103CD0001804180418041804180418041804180404
:103CE00018041804180418041804180418041804F4
:103CF00018041804180418041804180418041804E4
:103D000018041804180400230003000300450024CD
:103D1000000300230023002300230045004518046E
:103D200018041804180418041804180418041804B3
:103D300018041804180400450023000300030003BE
:103D400000030003086610C710C70865002300249D
:103D5000002400240024002400230003000208861D
:103D600008A610A710E708210842084208420822C6
:103D7000082200E600E600E600E600E600E608426B
:103D800008420842084208420842084208420842E3
:103D900008420842082110C7002500250023000220
:103DA00000230024002400240024002400230844CD
:103DB00008860025002500240003000200020002FE
:103DC00000020002008618041804180418041804DD
:103DD00018041804180418041804180418040023FC
:103DE00000230003002400240024002400240023D6
:103DF000000300030023180418041804180418040E
:103E000018041804180418041804180418041804D2
:103E100018041804180418041804180418041804C2
:103E200018041804180418041804180418041804B2
:103E300018041804180418041804180418041804A2
:103E40001804180418041804180418041804180492
:103E50001804180418041804180418041804180482
:103E60001804180418041804180418041804180472
:103E70001804180418041804180418041804180462
:103E80001804180418041804180418041804180452
:103E90001804180418041804180418041804180442
:103EA0001804180418041804180418041804180432
:103EB0001804180418041804180418041804180422
:103EC0001804180418041804180418041804180412
:103ED0001804180418041804180418041804180402
:103EE00018041804180400230023000300230023EF
:103EF000002400240024002400230023004518048B
:103F000018041804180418041804180418041804D1
:103F10001804180418040023000200020002000222
:103F20000002000200240025084608850023002422
:103F300000240024002400240023000300020024A5
:103F40000025002510C7082108420842084208221F
:103F500000C500E600E600E600E600E600E60842EE
:103F60000842084208420842084208420842084201
:103F700008420842082110C700250045002300021E
:103F800000230024002400240024002400230844EB
:103F900008870025004500240023000200020002DB
:103FA000000200030025180418041804180418045B
:103FB000180418041804180418041804180400231A
:103FC00000230003002400240023002400240024F4
:103FD000000300030023180418041804180418042C
:103FE00018041804180418041804180418041804F1
:103FF00018041804180418041804180418041804E1
:1040000018041804180418041804180418041804D0
:1040100018041804180418041804180418041804C0
:1040200018041804180418041804180418041804B0
:1040300018041804180418041804180418041804A0
:104040001804180418041804180418041804180490
:104050001804180418041804180418041804180480
:104060001804180418041804180418041804180470
:104070001804180418041804180418041804180460
:104080001804180418041804180418041804180450
:104090001804180418041804180418041804180440
:1040A0001804180418041804180418041804180430
:1040B0001804180418041804180418041804180420
:1040C000180418041804002300230003002400240B
:1040D00000240024002400240023002300451804A9
:1040E00018041804180418041804180418041804F0
:1040F0001804180418040023000200020002000241
:104100000002000200240025086608850023002420
:1041100000240024002400240023000300020025C2
:104120000045002510C708210842084208220863FC
:1041300000C600E600E600E600E600E600E608420B
:10414000084208420842084208420842084208421F
:1041500008420842082110C700250045002300023C
:104160000023002400240024002400240023084409
:1041700008870025004500240023000200020002F9
:104180000002000300451804180418041804180459
:104190001804180418041804180418041804002338
:1041A0000023000300240024002300240024002412
:1041B000000300030023180418041804180418044A
:1041C000180418041804180418041804180418040F
:1041D00018041804180418041804180418041804FF
:1041E00018041804180418041804180418041804EF
:1041F00018041804180418041804180418041804DF
:1042000018041804180418041804180418041804CE
:104210001804180418041065184518040886184571
:104220001804180418041804108610861804108640
:10423000108618041086108618041086108618043C
:104240001086108618251804180418041804180479
:10425000180418041804180418041804180418047E
:10426000180418041804180418041804180418046E
:10427000180418041804180418041804180418045E
:10428000180418041804180418041804180418044E
:10429000180418041804180418041804180418043E
:1042A0001804180418040023002300030024002429
:1042B00000240024002400240023002300451804C7
:1042C000180418041804180418041804180418040E
:1042D000180418041804002300020002000200025F
:1042E000000200020024002508660885002300243F
:1042F00000240024002400240023000300020025E1
:104300000045002510C708210842084208220884F9
:1043100000E600E600E600E600E600E600E6084209
:10432000084208420842084208420842084208423D
:1043300008420842082110C700250045002300025A
:104340000023002400240024002400240023084427
:104350000887002500450024002300020002000217
:104360000002000300451804180418041804180477
:104370001804180418041804180418041804002356
:104380000023000300240024002300240024002430
:104390000003000300231804180418041804180468
:1043A000180418041804180418041804180418042D
:1043B000180418041804180418041804180418041D
:1043C000180418041804180418041804180418040D
:1043D00018041804180418041804180418041804FD
:1043E00018041804180418041804180418041804ED
:1043F00018041804180410A718660044184500850E
:10440000180418041804180408A70085182508A71C
:104410000086182508A70085182508A700851825F7
:1044200008C70023002318041804180418041804EB
:10443000180418041804180418041804180418049C
:10444000180418041804180418041804180418048C
:10445000180418041804180418041804180418047C
:10446000180418041804180418041804180418046C
:10447000180418041804180418041804180418045C
:104480001804180418040023002300030024002447
:1044900000240024002400240023002300451804E5
:1044A000180418041804180418041804180418042C
:1044B000180418041804002300020002000200027D
:1044C000000200020024002508660885002300245D
:1044D00000240024002400240023000300020025FF
:1044E0000045002510C7082108420822084300E6BD
:1044F00000E600E600E600E600E600E600E6084228
:10450000084208420842084208420842084208425B
:1045100008420842082110C7002500450023000278
:104520000023002400240024002400240023084445
:104530000887002500450024002300020002000235
:104540000002000300451804180418041804180495
:104550001804180418041804180418041804002374
:10456000002300030024002400230024002400244E
:104570000003000300231804180418041804180486
:10458000180418041804180418041804180418044B
:10459000180418041804180418041804180418043B
:1045A000180418041804180418041804180418042B
:1045B000180418041804180418041804180418041B
:1045C000180418041804180418041804180418040B
:1045D000180418041804DEFF5EA6004418455EA601
:1045E0001804182418041804FFFF18040003FFFF20
:1045F00018040003DEFF5EA60044DEFF5EA6004452
:10460000FFFF1804180418041804180418041804E8
:1046100018041804180418041804180418041804BA
:1046200018041804180418041804180418041804AA
:10463000180418041804180418041804180418049A
:10464000180418041804180418041804180418048A
:10465000180418041804180418041804180418047A
:104660001804180418040023002300030024002465
:104670000024002400240024002300230045180403
:10468000180418041804180418041804180418044A
:10469000180418041804002300020002000200029B
:1046A000000200020024002508660885002300247B
:1046B000002400240024002400230003000200251D
:1046C0000045002510C7082108420822086300E6BB
:1046D00000E600E600E600E600E600E600E6084246
:1046E000084208420842084208420842084208427A
:1046F00008420842082108A70025004500230002BF
:10470000002300240024002400240024002300446B
:104710000886002500450024002300020002000254
:104720000002000300251803182418241824182454
:1047300018241824182418241824182418240024B1
:10474000002300030024002300230024002400246D
:1047500000030003002318041804180418041804A4
:104760001804180418041804180418041804180469
:104770001804180418041804180418041804180459
:104780001804180418041804180418041804180449
:104790001804180418041804180418041804180439
:1047A0001804180418041804180418041804180429
:1047B000180418041804DEFFDEFF004418455EA646
:1047C0001803DEFF188618035EA6DEFF1825DEFF3D
:1047D00018041804DEFF5EA60024FFFFDEFF0803B6
:1047E000FFFF10E71825180418041804180418040B
:1047F00018041804180418041804180418041804D9
:1048000018041804180418041804180418041804C8
:1048100018041804180418041804180418041804B8
:1048200018041804180418041804180418041804A8
:104830001804180418041804180418041804180498
:104840001804180418040023002300030024002483
:104850000024002300230024002300230045180324
:104860001824182418241824182418241824182468
:104870001824182418240023000200020002000259
:1048800000020002002400250866086500230024B9
:10489000002400240024002400230003000200253B
:1048A0000045002508A708210842082100E700E686
:1048B00000E600E600E600E600E600E600E6084264
:1048C0000842084208420842084208420842084298
:1048D00008420842082110A70025004500230002D5
:1048E000002300240024002400240024002300448A
:1048F0000886002500450024002300020002000273
:104900000002000300250842008300A400A400A4C4
:1049100000A40083084208420842084208420024DA
:1049200000230003002300030023002400240024AC
:1049300000030003002318041804180418041804C2
:104940001804180418041804180418041804180487
:104950001804180418041804180418041804180477
:104960001804180418041804180418041804180467
:104970001804180418041804180418041804180457
:104980001804180418041804180418041804180447
:10499000180418041804F8C6186500441825188669
:1049A00018040085004418031845186510245EA6F5
:1049B00018251804F8C618660024DEFF10651804D0
:1049C000F8C610021804180418041804180418046F
:1049D00018041804180418041804180418041804F7
:1049E00018041804180418041804180418041804E7
:1049F00018041804180418041804180418041804D7
:104A000018041804180418041804180418041804C6
:104A100018041804180418041804180418041804B6
:104A200018041804180400230023000300240024A1
:104A30000024000300230024002300230025084253
:104A4000008300A400A400A400A40083084208423C
:104A5000084208420842002300020002000200024D
:104A600000020002002400250866086500230024D7
:104A70000024002400240024002300030002002559
:104A80000045002510A708210822086300E600E67B
:104A900000E600E600E600E600E600E600E6084282
:104AA00008420842084208420842084208420842B6
:104AB00008420842082108A70025004500230002FB
:104AC00000230024002300230023002400230044AB
:104AD0000886002500450024002300020002000291
:104AE0000002000300250842088400C500A500A5B7
:104AF00000A500A4084208430843084308420024D4
:104B000000230003002300030003002400240024EA
:104B100000030003002318041804180418041804E0
:104B200018041804180418041804180418041804A5
:104B30001804180418041804180418041804180495
:104B40001804180418041804180418041804180485
:104B50001804180418041804180418041804180475
:104B60001804180418041804180418041804180465
:104B700018041804180410A71866002410A7186653
:104B8000180410031804180408C710A7002308C746
:104B900010A7082408C710A7002310A71866182517
:104BA00008C71086182518041804180418041804D7
:104BB0001804180418041804180418041804180415
:104BC0001804180418041804180418041804180405
:104BD00018041804180418041804180418041804F5
:104BE00018041804180418041804180418041804E5
:104BF00018041804180418041804180418041804D5
:104C000018041804180400230023000300240024BF
:104C10000023000300030023002300230025084293
:104C2000088400C500A500A500A500A4084208430B
:104C30000843084308420023000200020002000269
:104C4000000200020024002500460865002300241D
:104C50000024002300230024002300030002002579
:104C60000045002508A70821082100C500E600E648
:104C700000E600E600E600E600E600E600E60842A0
:104C800008420842084208420842084208420842D4
:104C900008420842082108A7002500450023000219
:104CA000002300230002000200020023002300442E
:104CB00008860025004500240023000200020002AF
:104CC0000002000300250842086300A400A400A419
:104CD00000A400A4084208420842084208420024F6
:104CE0000023000300030023000300240024002409
:104CF00000030003002318041804180418041804FF
:104D000018041804180418041804180418041804C3
:104D100018041804180418041804180418041804B3
:104D200018041804180418041804180418041804A3
:104D30001804180418041804180418041804180493
:104D40001804180418041804180418041804180483
:104D5000180418041804002318040003182400235E
:104D6000180418041804180418240023180418241C
:104D7000002318041824002318040023180408032F
:104D8000002300230023180418041804180418042E
:104D90001804180418041804180418041804180433
:104DA0001804180418041804180418041804180423
:104DB0001804180418041804180418041804180413
:104DC0001804180418041804180418041804180403
:104DD00018041804180418041804180418041804F3
:104DE00018041804180400230023000300240024DE
:104DF00000230003000300230023002300250842B2
:104E0000086300A400A400A400A400A4084208426F
:104E10000842084208420023000200020002000289
:104E2000000200020024002500460865002300243B
:104E300000230002000200230023000300020025DB
:104E40000045002508A70821088400E600E600E6E2
:104E500000E600E600E600E600E600E600E60842BE
:104E600008420842084208420842084208420842F2
:104E700008420822084208210841002400230002B9
:104E8000002300230002000200020024002400444A
:104E900008860025002500240023000200020002ED
:104EA000000200030025106308A500E600E600E606
:104EB00000E600C6106310631063106310630024E3
:104EC0000023000300030023000300240024002427
:104ED000000300030023180418041804180418041D
:104EE00018041804180418041804180418041804E2
:104EF00018041804180418041804180418041804D2
:104F000018041804180418041804180418041804C1
:104F100018041804180418041804180418041804B1
:104F200018041804180418041804180418041804A1
:104F30001804180418041804180418041804180491
:104F40001804180418041804180418041804180481
:104F50001804180418041804180418041804180471
:104F60001804180418041804180418041804180461
:104F70001804180418041804180418041804180451
:104F80001804180418041804180418041804180441
:104F90001804180418041804180418041804180431
:104FA0001804180418041804180418041804180421
:104FB0001804180418041804180418041804180411
:104FC00018041804180400230023000300240024FC
:104FD00000230003000300230023002300251063A7
:104FE00008A500E600E600E600E600C610631063D0
:104FF000106310631063002300020002000200022D
:10500000000200020024002500450865002300245A
:10501000000200020002000200230003000200253B
:105020000025002508A70821008400E600E600E628
:1050300000E600E600E600E600E600E600E60842DC
:105040000842084208420842084208420842084210
:105050000822084218C6DEFFF8C6106200030002EC
:1050600000240002000200020002000200240044AA
:105070000886084500030024002300020002000205
:10508000000200030025086300E600C600C600C653
:1050900000C608A51043106310631063106300245A
:1050A0000023000300230003000300240024002445
:1050B000000300030023180418041804180418043B
:1050C0001804180418041804180418041804180400
:1050D00018041804180418041804180418041804F0
:1050E00018041804180418041804180418041804E0
:1050F00018041804180418041804180418041804D0
:1051000018041804180418041804180418041804BF
:1051100018041804180418041804180418041804AF
:10512000180418041804180418041804180418049F
:10513000180418041804180418041804180418048F
:10514000180418041804180418041804180418047F
:10515000180418041804180418041804180418046F
:10516000180418041804180418041804180418045F
:10517000180418041804180418041804180418044F
:10518000180418041804180418041804180418043F
:10519000180418041804180418041804180418042F
:1051A000180418041804002300230003002400241A
:1051B00000230003000300230023002300250863CD
:1051C00000E600C600C600C600C608A5104310636E
:1051D000106310631063002300020002000200024B
:1051E0000002000200230023088608650023002433
:1051F000000200020002000200030003000200247B
:105200000023004508A7084200E700E600E600E6A4
:1052100000E600E600E600E600E600E600E60842FA
:10522000084208420842084208420842084208224E
:1052300008421084FFFFFFFFFFFFDEFF00020002B5
:1052400000230002000200020002000200240044C9
:10525000006510C7002300230023000200020002A3
:10526000000200030025088300A400C400C400A4B9
:1052700000C50822084208420842084208420024A9
:105280000023000300230003002300240024002344
:105290000003000300231804180418041804180459
:1052A000180418041804180418041804180418041E
:1052B000180418041804180418041804180418040E
:1052C00018041804180418041804180418041804FE
:1052D00018041804180418041804180418041804EE
:1052E00018041804180418041804180418041804DE
:1052F00018041804180418041804180418041804CE
:1053000018041804180418041804180418041804BD
:1053100018041804180418041804180418041804AD
:10532000180418041804180418041804180418049D
:10533000180418041804180418041804180418048D
:10534000180418041804180418041804180418047D
:10535000180418041804180418041804180418046D
:10536000180418041804180418041804180418045D
:10537000180418041804180418041804180418044D
:105380001804180418040023002300030024002438
:1053900000240003002300240023002300250883A9
:1053A00000A400A400A400A400C5082208420842EA
:1053B00008420842084200230002000200020002E4
:1053C000000200020003088610E7006400240002C7
:1053D000000200020002000200020003000200239B
:1053E000084508860886008400E600E600E600E638
:1053F00000E600E600E600E600E600E600E6084219
:10540000084208420842084208420842084208226C
:10541000084218C6DEFFFFFFFFFFFFFF1063000218
:1054200000020002000300230023000300020044E6
:105430000865084500240023002300020003002320
:1054400000230023002500C500840044004400849C
:105450000883084208420823082308421042002417
:105460000023002300240023002300240024002420
:105470000024002400231804180408240824180415
:10548000180418041804180418041804180418043C
:10549000180418041804180418041804180418042C
:1054A000180418041804180418041804180418041C
:1054B000180418041804180418041804180418040C
:1054C00018040824082418041804180418040824CC
:1054D00008241804180418041804102410241804AC
:1054E00018041804180408240824180418041804BC
:1054F000180408240824180418041804180408249C
:10550000082418041804180418040824082418048B
:10551000180418041804082408241804180418048B
:10552000180418041804180418041804180418049B
:10553000180418041804180418041804180418048B
:10554000180418041804180418041804180418047B
:10555000180418041804180418041804180418046B
:105560001804180418040023002300030024002456
:10557000002400230023002400230023002500C56D
:1055800000A500A500A500A508830842084308431C
:1055900008430843104200230002000200020002F8
:1055A000000200020003088610C700640025000204
:1055B00000020002000200020002000300020002DA
:1055C00008660865088600E600E600E600E600E6F4
:1055D00000E600E600E600E600E600E600E6084237
:1055E000084208420842084208420842084208228B
:1055F000108418C6DEFFFFFFFFFFFFFFF8C60002A2
:1056000000020002002500250045000300020045BD
:1056100000250025002500240003000200250025A8
:1056200000450023002400A5002500250025008555
:1056300008630842084400250024084200A400230F
:105640000024002500250023002300240025002538
:1056500000450045002418040025002500451004DD
:10566000180418041804180418041804180418045A
:10567000180418041804180418041804180418044A
:10568000180418041804180418041804180418043A
:10569000180418041804180418041804180418042A
:1056A00000250025004510041804180400250025D5
:1056B00000451004180418041004002508251804D7
:1056C00018041804002500250045100418041804C7
:1056D00000250025004510041804180400250025A5
:1056E0000045100418041804002500250045100486
:1056F0001804180400250025004510041804180497
:1057000018041804180418041804180418041804B9
:1057100018041804180418041804180418041804A9
:105720001804180418041804180418041804180499
:105730001804180418041804180418041804180489
:105740001804180418040023002300030024002474
:10575000002400240024002400230023002500C48A
:1057600000A500A500A500C508630842084308433A
:105770000843084200A400030002000200020002E5
:105780000002000200030045004408650003000217
:1057900000020002000200020002000300020023D7
:1057A00000240024088600E600E600E600E600E6A5
:1057B00000E600E600E600E600E600E600E6084255
:1057C00008420842084208420842084208420821AA
:1057D00018C614A5DEFFFFFFFFFFFFFFF8C600227B
:1057E0000002002308C700230024088700020046A7
:1057F00008C70023002408870003002308C70023EC
:1058000000240887002500C508C700230024088756
:1058100008430842088508C70886100300A400034F
:10582000086508C7108608030023004408C7002342
:10583000000300031003182508C700230024008775
:105840001804180418041804180418041804180478
:105850001804180418041804180418041804180468
:105860001804180418041804180418041804180458
:105870001804180418041804180418041804182527
:1058800008C70023002400871804182408C7002331
:105890000024008718041804106508C708A6180318
:1058A0001804182508C700230024008718041824AA
:1058B00008C70023002400871804182408C7002301
:1058C000002400871804182408C700230024008738
:1058D0001804182408C7002300240087180418049B
:1058E00018041804180418041804180418041804D8
:1058F00018041804180418041804180418041804C8
:1059000018041804180418041804180418041804B7
:1059100018041804180418041804180418041804A7
:105920001804180418040023002300030024002492
:10593000002400240024002400230023002500C4A8
:1059400000A500A500A508630842084308430843D2
:105950000842084200A40003000200020002000204
:105960000002000200230002004408650002000259
:1059700000020002000200020002000200020024F5
:1059800000020003088600E600E600E600E600E606
:1059900000E600E600E600E600E600E600E6084273
:1059A00008420842084208420842084208420821C8
:1059B00018C618C618A6108410841084DEFF0002D2
:1059C0000002002310E71024102410E708230846E3
:1059D00010E71024102510E70824002310E71024F6
:1059E000102410E7084500C5F8C61024106410E71D
:1059F00010440842106410C710A7084400C50003F3
:105A0000086510C710A708030023004410E71065BD
:105A1000104510240803182510E71024182410E757
:105A20001825180418041804180418041804180475
:105A30001804180418041804180418041804180486
:105A40001804180418041804180418041804180476
:105A50001804180418041804180418041804182545
:105A600010E71024182410E71824182510E7102434
:105A7000182410E718251804184510C710A7180394
:105A80001804182510E71024182410E718241825E6
:105A900010E71024182410E71824182510E7102404
:105AA000182410E71824182510E71024182410E7EC
:105AB0001824182510E71024182410E718251804B6
:105AC00018041804180418041804180418041804F6
:105AD00018041804180418041804180418041804E6
