:020000040800F2
:100000002808002045010008AD0900086F09000814
:10001000A909000801020008AD1200080000000054
:100020000000000000000000000000004D0B000870
:100030000502000800000000350A0008610C0008F5
:100040005F0100085F0100085F0100085F01000810
:100050005F0100085F0100085F0100085F01000800
:100060005F0100085F0100085F0100085F010008F0
:100070005F0100085F0100085F0100085F010008E0
:100080005F0100085F0100085F0100085F010008D0
:100090005F0100085F0100085F0100085F010008C0
:1000A0005F0100085F0100085F0100085F010008B0
:1000B0005F0100085F0100085F0100085F010008A0
:1000C0005F0100085F0100085F0100085F01000890
:1000D0005F010008010D0008F50D0008390F000848
:1000E0005F0100085F0100085F0100085F01000870
:1000F0005F0100085F0100085F0100085F01000860
:100100005F0100085F0100085F0100085F0100084F
:100110005F0100085F0100085F0100085F0100083F
:100120005F0100085F0100085F0100085F0100082F
:10013000DFF80CD000F052F800480047B115000875
:10014000280800200648804706480047FEE7FEE7EB
:10015000FEE7FEE7FEE7FEE7FEE7FEE7FEE7FEE777
:10016000A10C000831010008D2B201E000F8012B17
:10017000491EFBD270470022F6E710B513460A4627
:1001800004461946FFF7F0FF204610BD30B505467E
:100190002A460B4612F8010B13F8014B08B1A04296
:1001A000F8D01CB1002802D06D1CF1E7284630BD04
:1001B00030B50B46014600202022012409E021FA37
:1001C00002F59D4205D303FA02F5491B04FA02F534
:1001D0002844151EA2F10102F1DC30BD064C074D8A
:1001E00006E0E06840F0010394E807009847103407
:1001F000AC42F6D3FFF7A0FF3C1600085C160008DF
:1002000000BFFEE77047000010B5002440210C48F5
:1002100000F0ABFB4FF47A7001F060F90CE04FF4A2
:10022000FA73002207A108A000F090FA00B110BDF7
:1002300000F064F9601CC4B20A2CF0DB00BFF6E7E2
:10024000001801404F4B00004154000010B586B02B
:1002500004460CB1012000E00020024606A101A8DE
:1002600001F036F84FF4FA73002207A101A800F05C
:100270006DFA06B010BD000041542B4349504D5556
:10028000583D2564000000004F4B000010B54FF4AE
:100290007A7001F023F904A1044800F084FF4FF4C0
:1002A000FA7001F01BF910BD2B2B2B00004400400D
:1002B00010B54FF4FA7300220DA10EA000F046FA1B
:1002C000A0B110A11248FFF761FF08B1022010BDD4
:1002D00010A10F48FFF75AFF08B10320F7E710A15C
:1002E0000B48FFF753FF08B10420F0E70020EEE7CA
:1002F0004F4B000041542B434950535441545553E4
:10030000000000005354415455533A320D0A000086
:10031000200000205354415455533A330D0A000035
:100320005354415455533A340D0A000038B504462D
:1003300001214FF4A07000F08FFB4020ADF80000C9
:1003400010208DF8030003208DF8020069460B4849
:1003500000F07EFA8020ADF800006946084800F001
:1003600077FA204600F096FD4021044800F0FDFA9F
:100370008021034800F0F7FA38BD00000018014062
:100380000020014030B59FB004460D462B46224662
:1003900006A101A800F09CFF41F28833002208A1C9
:1003A00001A800F0D3F91FB030BD000041542B4329
:1003B000574A41503D222573222C222573220000EA
:1003C0004F4B0000F0B5B9B006460F4614461D4627
:1003D000642120A8FFF7CFFE16B1012E10D107E04F
:1003E0003B4614A214A120A8009400F071FF08E07D
:1003F0003B4615A210A120A8009400F069FF00E080
:1004000000BF00BF052D06DA20AB2A460FA102A8C7
:1004100000F05EFF04E020AA11A102A800F058FF3E
:100420004FF47A6312A216A102A800F08FF939B036
:10043000F0BD000054435000222573222C22257366
:10044000222C2573000000005544500041542B43DA
:10045000495053544152543D25642C2573000000EB
:1004600041542B43495053544152543D257300008D
:10047000414C5245415920434F4E4E454354000094
:100480004F4B000010B5044624B1012C0AD0022CB9
:1004900018D10FE040F6C4130BA20EA10EA000F07D
:1004A00055F910BD40F6C41307A20AA10DA000F033
:1004B0004DF9F6E740F6C41303A206A10CA000F024
:1004C00045F9EEE70020ECE76E6F206368616E6728
:1004D000650000004F4B000041542B43574D4F44E3
:1004E000453D310041542B43574D4F44453D32006B
:1004F00041542B43574D4F44453D330010B54021E7
:10050000054800F030FA4FF4FA7000F0E7FF4021A0
:10051000014800F02AFA10BD001801409AB0642189
:1005200001A8FFF728FE30A000F0C2FE8021374866
:1005300000F01BFAFFF768FE0020FFF7A3FF00BFE3
:1005400033A136A0FFF71EFF0028F9D00020FFF7E7
:100550007DFE00BF052333A234A10020FFF732FF48
:100560000028F7D000BF00F04DF90028FBD033A0E1
:1005700000F09EFE36E037A101A800F0A9FE052399
:10058000002201A9012000F091F84FF47A7000F0E8
:10059000A5FF35480078002824D0FFF777FE00BF7C
:1005A000FFF786FE0446002CFAD0042C15D12FA0AC
:1005B00000F07EFE00BF16A118A0FFF7E3FE0028A2
:1005C000F9D000BF052317A218A10020FFF7FAFEFB
:1005D0000028F7D02EA000F06BFE00BF00F012F94B
:1005E0000028FBD0C7E700000D0AD5FDD4DAC5E42A
:1005F000D6C345535038323636C7EBC4CDD0C4B518
:10060000C8B4FD2E2E2E0D0A00000000002001406F
:1006100070757A686F6E67313638000050555A48E9
:100620004F4E470038303830000000003139322E4C
:100630003136382E3139312E310000000D0AC5E433
:10064000D6C345535038323636204F4BA3A10D0A3E
:10065000000000007777772E7072656368696E2EF0
:10066000636E0D0A00000000180000200D0AC7EBA1
:10067000C9D4B5C8A3ACD5FDD4DAD6D8C1ACC8C8E6
:10068000B5E3BACDB7FECEF1C6F72E2E2E0D0A0079
:100690000D0AD6D8C1ACC8C8B5E3BACDB7FECEF105
:1006A000C6F7B3C9B9A60D0A000000002DE9F04154
:1006B00086B007460C4615461E464FF000083FB16F
:1006C000224614A1144800F06EFD4FF001081CE012
:1006D000052E06DAAB1C324610A101A800F0F8FD89
:1006E00004E0AA1C12A101A800F0F2FD4FF47A73F5
:1006F000002213A101A800F029F84FF47A73002218
:1007000010A1204600F022F88046404606B0BDE821
:10071000F0810000257300000044004041542B4349
:10072000495053454E443D25642C2564000000008B
:1007300041542B43495053454E443D25640000002D
:100740003E20000053454E44204F4B002DE9F04120
:1007500006460C4615461F462548B0F800046FF3C0
:100760000E002349A1F80004324622A1234800F0DC
:100770001AFD1CB915B90120BDE8F081B8B200F02E
:10078000ADFE00201A49B1F80014C1F30E01184A59
:10079000505411461AA000F08BFDB4B1ADB1214602
:1007A0001348FFF7F3FC08B1012000E0002040B936
:1007B00029460F48FFF7EAFC08B1012000E00020BD
:1007C00008B10120D8E70020D6E744B12146084807
:1007D000FFF7DCFC08B10120CEE70020CCE729467A
:1007E0000348FFF7D3FC08B10120C5E70020C3E7A9
:1007F0002000002025730D0A000000000044004086
:100800002573000010B54FF4FA73002207A108A069
:10081000FFF79CFF08B9002010BD4FF4FA7308A23F
:1008200002A108A0FFF792FFF6E700004F4B00007F
:1008300041542B4349504D4F44453D310000000089
:100840003E00000041542B43495053454E440000A4
:100850002DE9F04102460025002600200023002457
:10086000002791F803C00CF00F0591F803C00CF0BD
:10087000100CBCF1000F03D091F802C04CEA050542
:1008800091F800C0BCF1000F31D0146800202BE0BB
:100890004FF0010C0CFA00F3B1F800C00CEA0306AB
:1008A0009E4220D183004FF00F0C0CFA03F7BC439B
:1008B00005FA03FC4CEA040491F803C0BCF1280FCC
:1008C00006D14FF0010C0CFA00FCC2F814C00AE08B
:1008D00091F803C0BCF1480F05D14FF0010C0CFAA0
:1008E00000FCC2F810C0401C0828D1D31460B1F835
:1008F00000C0BCF1FF0F34DD546800202EE000F191
:10090000080C4FF0010808FA0CF3B1F800C00CEA2B
:1009100003069E4221D183004FF00F0C0CFA03F71F
:10092000BC4305FA03FC4CEA040491F803C0BCF193
:10093000280F05D100F1080C08FA0CF8C2F8148051
:1009400091F803C0BCF1480F07D100F1080C4FF03B
:10095000010808FA0CF8C2F81080401C0828CED311
:100960005460BDE8F081416170470161704700BF8C
:10097000FEE7000008B50121102000F06DF8FF200F
:10098000ADF8000010208DF8030003208DF8020060
:1009900069460448FFF75CFFFF210248FFF7E5FFC7
:1009A00008BD00000010014000BFFEE770470000D6
:1009B00070B5002100230F22C47804B3154C2468BD
:1009C00004F4E064C4F5E064210AC1F10403CA4000
:1009D000447804FA03F184781440214309010E4C51
:1009E0000678A155047804F01F050124AC40057871
:1009F0006D11AD0005F1E025C5F8004109E004786E
:100A000004F01F050124AC40044D0678761145F82A
:100A1000264070BD0CED00E000E400E080E100E065
:100A200002490143024A1160704700000000FA05C4
:100A30000CED00E07047000029B1064AD26902437C
:100A4000044BDA6104E0034AD2698243014BDA6164
:100A5000704700000010024029B1064A9269024323
:100A6000044B9A6104E0034A92698243014B9A6104
:100A7000704700000010024030B500210022002421
:100A800000232D4D6D6805F00C0121B1042905D01E
:100A9000082923D105E0294D056022E0274D056096
:100AA0001FE0254D6D6805F47012234D6D6805F447
:100AB0008034022505EB92421CB9214D5543056057
:100AC0000BE01D4D6D6805F400351DB11C4D5543FF
:100AD000056002E0194D5543056002E0174D0560C1
:100AE00000BF00BF144D6D6805F0F0010909154DF8
:100AF0006B5C0568DD4045600F4D6D6805F4E06195
:100B0000090A104D6B5C4568DD4085600A4D6D68D3
:100B100005F46051C90A0B4D6B5C4568DD40C5604A
:100B2000054D6D6805F44041890B074D6B5CC56848
:100B3000B5FBF3F5056130BD0010024000127A00EC
:100B400000093D000000002010000020704710B593
:100B500000F002F810BD00000CB5002001900090DC
:100B60003348006840F480303149086000BF3048A5
:100B7000006800F4003000900198401C019000983B
:100B800018B90198B0F5A06FF1D12948006800F4B8
:100B9000003010B10120009001E00020009000988A
:100BA000012843D12348006840F010002149086023
:100BB0000846006820F0030008600846006840F01E
:100BC000020008601A4840681949486008464068B1
:100BD00048600846406840F48060486008464068C5
:100BE00020F47C1048600846406840F4E8104860F3
:100BF0000846006840F08070086000BF0C4800683C
:100C000000F000700028F9D00948406820F0030087
:100C1000074948600846406840F00200486000BF4D
:100C20000348406800F00C000828F9D10CBD000012
:100C30000010024000200240042808D14FF0E021BB
:100C4000096941F004014FF0E022116107E04FF023
:100C5000E021096921F004014FF0E02211617047A1
:100C60007047000010B504466FF00400FFF7E4FF82
:100C7000E11704EB5171C1F3C701074A1170104627
:100C8000007800EB4001C1EBC0104FF6FF7101EAA4
:100C9000C0000249088010BD14000020160000208A
:100CA00010B51348006840F001001149086008467B
:100CB0004068104908400E494860084600680E49DF
:100CC00008400B4908600846006820F4802008604E
:100CD0000846406820F4FE0048604FF41F0088601A
:100CE000FFF735FF4FF000600449086010BD0000B9
:100CF000001002400000FFF8FFFFF6FE08ED00E0E4
:100D000010B540F225510C4800F088F970B10A483E
:100D100000F040FAC4B22146074800F040FA00BF94
:100D20004021054800F06DF90128F9D14021024821
:100D300000F052F910BD00000038014010B586B037
:100D4000044601210420FFF787FE01218803FFF7F5
:100D500083FE01210846FFF77FFE4FF40070ADF8D7
:100D6000140003208DF8160018208DF8170005A92F
:100D70001E48FFF76DFD4FF48060ADF814000420AD
:100D80008DF8170005A91948FFF762FD01940020AE
:100D9000ADF80800ADF80A00ADF80C00ADF8100091
:100DA0000C20ADF80E0001A9114800F087F90121CF
:100DB0000F4800F01AF940210D4800F00DF901220A
:100DC00040F225510A4800F053F925208DF8000023
:100DD00003208DF801008DF8020001208DF803003A
:100DE0006846FFF7E5FD06B010BD000000080140B1
:100DF0000038014010B540F22551204800F00EF9AE
:100E0000D8B11E4800F0C6F9C4B21D48B0F80004BD
:100E1000C0F30E0040F2FF3188420EDA1849B1F8F3
:100E20000014C1F30E00411C154AB2F8002461F30E
:100E30000E021349A1F800240C5440F224410F483B
:100E400000F0ECF8012817D10D48B0F8000420F4A8
:100E5000004000F500400A49A1F80004074800F0EE
:100E600099F9C4B207A10648FFF790F908B101202B
:100E700000E000200649087010BD0000004400405A
:100E800020000020434C4F5345440D0A0000000051
:100E90001800002010B586B0044601214804FFF771
:100EA000CBFD01210420FFF7D7FD0420ADF814008D
:100EB00003208DF8160018208DF8170005A91C488E
:100EC000FFF7C6FC0820ADF8140004208DF81700C9
:100ED00005A91748FFF7BCFC26208DF8000000206C
:100EE0008DF801008DF8020001208DF8030068469E
:100EF000FFF75EFD01940020ADF80800ADF80A0090
:100F0000ADF80C00ADF810000C20ADF80E0001A9F2
:100F1000084800F0D3F8012240F22551054800F0BE
:100F2000A7F80121034800F060F806B010BD0000EA
:100F3000000801400044004010B540F2255120480F
:100F400000F06CF8D8B11E4800F024F9C4B21D4876
:100F5000B0F80004C0F30E0040F2FF3188420EDA10
:100F60001849B1F80014C1F30E00411C154AB2F83B
:100F7000002461F30E021349A1F800240C5440F23E
:100F800024410F4800F04AF8012817D10D48B0F865
:100F9000000420F4004000F500400A49A1F80004D4
:100FA000074800F0F7F8C4B207A10648FFF7EEF8CB
:100FB00008B1012000E000200649087010BD0000C3
:100FC0000048004020000020434C4F5345440D0A88
:100FD000000000001800002001F40072B2F5007F4C
:100FE00000D100BFCA430280704721B1828942F418
:100FF0000052828104E082894DF6FF731A4082819B
:10100000704702460020B1F5007F00D100BF138871
:101010000B400BB1012000E00020704770B5024684
:10102000002400230025002040F66A16B14200D1BA
:1010300000BFC1F3421501F01F03012606FA03F3B6
:10104000012D02D19689334006E0022D02D1168A85
:10105000334001E0968A33400C12012606FA04F46C
:101060001688344013B10CB1012000E0002070BD9F
:10107000F0B50346002400260025002040F66A173C
:10108000B94200D100BF1846C1F3421401F01F0657
:10109000012707FA06F5012C01D10C3004E0022CDF
:1010A00001D1103000E014301AB107682F430760F7
:1010B00002E00768AF430760F0BD00002DE9F0478C
:1010C00086B005460E460024A24600BFA146002772
:1010D000B08900B100BF2F462C8A4CF6FF70044047
:1010E000F08804432C82AC894EF6F3100440B0889B
:1010F00031890843718908430443AC81AC8A4FF6B7
:10110000FF400440B0890443AC8201A8FFF7B4FC5F
:101110001F48874202D1DDF810A001E0DDF80CA0E5
:10112000A88900F4004040B10AEBCA0000EB0A10A5
:1011300031684900B0FBF1F807E00AEBCA0000EBA8
:101140000A1031688900B0FBF1F86420B8FBF0F0B8
:1011500004012009642101FB1089A88900F40040E2
:1011600040B1322000EBC900B0FBF1F000F0070005
:10117000044308E0322000EB09106421B0FBF1F0D9
:1011800000F00F0004432C8106B0BDE8F08700009A
:101190000038014001468888C0F308007047C1F359
:1011A0000802828070470FB470B586B006460CA85E
:1011B000019073E00B9800785C281CD10B98401CC0
:1011C0000B9000786E2809D072280FD10D2130467F
:1011D000FFF7E5FF0B98401C0B900BE00A2130460F
:1011E000FFF7DDFF0B98401C0B9003E00B98401CB1
:1011F0000B9000BF4BE00B980078252840D10B984E
:10120000401C0B900078642818D0732833D10198C3
:1012100010C801900BE021783046FFF7C0FF00BFF7
:1012200080213046FFF7EDFE0028F9D0641C2078BD
:101230000028F0D10B98401C0B9020E0019820C8AA
:1012400001900A2202A9284600F080F902AC0BE0C6
:1012500021783046FFF7A3FF00BF80213046FFF71B
:10126000D0FE0028F9D0641C20780028F0D10B981B
:10127000401C0B9003E00B98401C0B9000BF06E055
:101280000B9810F8011B0B903046FFF788FF00BF4A
:1012900080213046FFF7B5FE0028F9D00B98007882
:1012A000002887D106B070BC5DF814FB00BFFEE7D4
:1012B0000FB4054B10B503A9044A029800F02CF8AE
:1012C00010BC5DF814FB0000291500081C0000206C
:1012D0000FB4084B10B504A902AA039800F01CF83B
:1012E000044602A9002000F0F3F8204610BC5DF887
:1012F00014FB0000D114000802E008C8121F08C146
:10130000002AFAD170477047002001E001C1121F86
:10131000002AFBD1704700002DE9FF4F8BB09A46A1
:101320000F460546002606E025280BD052460D99AB
:1013300090476D1C761C28780028F5D10FB03046F8
:10134000BDE8F08F0024A0460122604900E004437C
:1013500015F8013F203B02FA03F00842F7D1287844
:101360002E2817D115F8010F44F004042A280ED0B6
:101370006FF02F022878A0F1300109290AD808EB74
:10138000880102EB410100EB01086D1CF2E757F800
:10139000048B6D1C287869283ED006DC0028CDD04F
:1013A00063280BD0642804D136E0732810D0752848
:1013B0004BD052460D999047761C85E017F8040BE8
:1013C0008DF8000000208DF80100E946012003E0BF
:1013D00057F8049B4FF0FF3061074FF0000401D431
:1013E0000AE0641C44450DDA8442FADB19F8041063
:1013F0000029F6D106E0641C8442FCDB19F80410D5
:101400000029F8D1264404E019F8010B52460D9941
:101410009047641EF8D257E001CF4FF00A0B002826
:1014200002DA40422D2102E0210504D52B218DF85E
:101430002410012103E0E10705D02021F7E70DF199
:10144000200908910CE00021F9E701CF4FF00A0BC9
:10145000F9E75946FEF7ACFE01F1300209F8012D1B
:101460000028F6D1ADEB090000F1200B600701D494
:101470004FF00108D84502DDA8EB0B0000E000208A
:101480008046002406E009A85246005D0D99904769
:10149000641C761C08988442F5DB04E03020524638
:1014A0000D999047761CB8F10001A8F10108F5DC10
:1014B00005E019F8010B52460D999047761CBBF1D7
:1014C0000001ABF1010BF4DC6D1C34E709280100CD
:1014D0000A68531C0B601070704700000146114AE7
:1014E00012884A434FF0E0235A6100229A611A465B
:1014F000126942F001021A6100BF4FF0E022106948
:1015000000F001021AB100F48032002AF5D04FF049
:10151000E022126922F001024FF0E0231A6100225A
:101520009A6170471600002070B504460D46E1B27E
:101530000548FFF734FE00BF80210348FFF761FD37
:101540000028F9D0204670BD00380140F0B50346B0
:101550000D461646002729460A2E03D000200870A3
:101560002846F0BD33B9302001F8010B0020087087
:101570002846F6E7002B03DA2D2001F8010B5B4229
:1015800042F210720DE093FBF2F404B937B104F1AA
:10159000300001F8010B04FB123301270A2092FBF3
:1015A000F0F2002AEFDC002008702846D9E700009E
:1015B0004820FFF757FB4FF4A060FFF731FAFFF721
:1015C000D9F94FF4E130FFF7B9FB0FA0FFF770FE38
:1015D0004FF4E130FEF7AAFEFEF7A0FF12E0601C18
:1015E000C4B2142094FBF0F100FB114038B912484A
:1015F000006808B9012000E000200F4908600A20B7
:10160000FFF76CFFEBE70000C6D5D6D0BFC6BCBC69
:10161000455350383236362057494649C4A3BFE9AE
:1016200053544120544350436C656E74CDB8B4ABF1
:10163000B2E2CAD40D0A0000800122425C16000802
:101640000000002020000000F81200087C160008AE
:101650002000002008080000081300080000000017
:101660000102030401020304060708090204060834
:0C1670000000000000000000000000006E
:0400000508000131BD
:00000001FF
