:020000040800F2
:10000000E036002045010008E70F0008ED0A00086F
:100010007D0F00080D0800089F6100080000000027
:10002000000000000000000000000000355900083A
:10003000B50800080000000053070008495A0008EE
:100040005F0100085F0100085F010008ED5500082E
:100050005F0100085F0100085F0100085F01000800
:100060005F0100085F0100085F0100085F010008F0
:100070005F0100085F0100085F0100085F010008E0
:100080005F0100085F0100085F0100085F010008D0
:100090005F0100085F0100085F0100085F010008C0
:1000A0005F0100085F0100085F0100085F010008B0
:1000B0005F0100085F0100085F0100085F010008A0
:1000C0005F0100085F0100085F0100085F01000890
:1000D0005F010008D55E00085F0100085F010008AD
:1000E0005F0100085F0100085F0100085F01000870
:1000F0005F0100085F0100085F0100085F01000860
:100100005F0100085F0100085F0100085F0100084F
:100110005F0100085F0100085F0100085F0100083F
:100120005F0100085F0100085F0100085F0100082F
:10013000DFF80CD000F0C8FA0048004755780008F6
:10014000E03600200648804706480047FEE7FEE705
:10015000FEE7FEE7FEE7FEE7FEE7FEE7FEE7FEE777
:10016000D55A00083101000872B6704762B6704770
:10017000EFF3108072B6704780F31088704730BF7D
:10018000704720BF7047B0FA80F0704790FAA0F037
:10019000B0FA80F0704790FAA0F070472DE9F05F58
:1001A0000546002092469B468846064681464024E6
:1001B0001BE0284641464746224600F006FA5346D1
:1001C0005A46C01A914110D311461846224600F0F3
:1001D000EDF92D1A67EB01084F4622460120002158
:1001E00000F0E4F917EB00094E41201EA4F10104D0
:1001F000DFDC484631462A464346BDE8F09F40EAE8
:1002000001039B0703D009E008C9121F08C0042A94
:10021000FAD203E011F8013B00F8013B521EF9D27B
:1002200070472DE9FE4F804681EA0300C00F0C465F
:10023000009021F0004123F00045B8EB0200A941F5
:1002400005D24046214690461C460B46024623F006
:100250000040104347D0270DC7F30A00C3F30A51EB
:100260000290401A019040286BDAC3F3130040F467
:10027000801B0098924620B10023D2EB030A63EB67
:100280000B0B01985946C0F14002504600F08EF920
:1002900006460D4650465946019A00F0A6F910EB65
:1002A00008006141002487EA115284EAE7731A4387
:1002B00040D0009A62B3019A012A4FEA075215DC36
:1002C000001B61EB02014FF0004202EA0752CDE948
:1002D0000042001C41F5801132462B4600F0A6F981
:1002E00003B0BDE8F08F40462146F9E7001B61EB03
:1002F0000201001C41F5801300185B412018A2F593
:10030000001747EB030140EAD570B6196D4111E0C3
:100310006D084FEA360645EAC0754FEA0752001BE2
:1003200061EB0201001C41F5801149084FEA3000E1
:100330000019514132462B4603B0BDE8F04F00F0A2
:1003400066B90098012240000023D0EB020263EB63
:10035000E073009821464FEAE074B8EB000061EBCF
:100360000401E9E783F000435BE781F0004158E7CF
:100370002DE9FE4F81EA030404F0004421F000411E
:1003800000944FF0000B23F0004350EA01045ED0CC
:1003900052EA03045BD0C3F30A54C1F30A552C4458
:1003A000A4F2F3340194A0FB0254C1F3130141F40D
:1003B0008011C3F3130343F4801301FB024400FBD9
:1003C000034E840A970A44EA815447EA8357A4FB00
:1003D000076802958D0A05FB07854FEA932C04FBFD
:1003E0000C542705029D4FEA065847EA1637B5EB2D
:1003F00008056EEB070C870E920E47EA811742EA5A
:100400008312A7FB0201B6EB0B0164EB00042B0D7A
:1004100043EA0C335E1844EB1C50DA465146E7FBC6
:100420000201C5F313044FEA0B3343EA14534FEAB6
:100430000432019C43EA0603A4F10C040294009CDC
:10044000CDE900B400F0F2F803B0BDE8F08F002071
:100450000146F9E72DE9F04D81EA030404F0004B71
:1004600021F0004514464FF0000A23F0004150EA05
:10047000050220D054EA01021DD0C5F30A570246F6
:10048000C5F31303C1F31300C1F30A5640F48015FA
:1004900043F48013A7EB0608101BD64608F2FD387C
:1004A00073EB050002D308F1010801E092185B41EB
:1004B000B8F1000F03DA00200146BDE8F08D0020FE
:1004C0004FF48011064684460EE0171B73EB0507B8
:1004D00005D3121B63EB050306434CEA010C4908E4
:1004E0004FEA300092185B4150EA0107EDD152EA21
:1004F000030012D082EA040083EA0501084305D014
:10050000101BAB4106D20122002306E000224FF06F
:10051000004302E06FF0010253101AEB06004CEBAF
:10052000085110EB0A0041EB0B01BDE8F04D00F063
:100530006EB80EB5C10F80EAE0700844CA0700210A
:1005400040F233438DE80E000A460B4600F06EF889
:1005500003B000BD0EB540F2334102910021CDE958
:1005600000110A460B4600F061F803B000BD70B5FB
:10057000C1F30A5201F000450024C1F3130140F217
:10058000FF3341F480119A4201DA002070BD40F23D
:1005900033439A42A2F2334203DC524200F015F890
:1005A00000E090402C43F1D0404270BD202A04DB93
:1005B000203A00FA02F1002070479140C2F1200376
:1005C00020FA03F3194390407047202A04DB203AB5
:1005D00021FA02F00021704721FA02F3D040C2F163
:1005E00020029140084319467047202A06DBCB17AA
:1005F000203A41FA02F043EAE07306E041FA02F3DE
:10060000D040C2F12002914008431946704710B50E
:10061000141E73F1000408DA401C41F10001921825
:100620005B411A4301D120F0010010BD2DE9F04DCE
:1006300092469B4611B1B1FA81F202E0B0FA80F223
:1006400020329046FFF7B2FF04460F4640EA0A0008
:1006500041EA0B0153465A46084313D0114653EA68
:10066000010019D0C8F140025046FFF7AEFF054621
:100670000E46504659464246FFF798FF084305D0BC
:10068000012004E020463946BDE8F08D00200543F6
:1006900046EAE0762C4337430A986305E40AA0EB68
:1006A00008000022FD0A44EA47540A3002D500201F
:1006B0000146E9E7010510196941DDE9084500191E
:1006C0006941BDE8F04DA2E7064C074D06E0E06841
:1006D00040F0010394E8070098471034AC42F6D389
:1006E000FFF72AFDB89A0008D89A000870B521F0E3
:1006F000004303430CD0C1F30A550024D5EB040595
:1007000064EB0403D617AD1AB34102DB00200146A7
:1007100070BD201841EB025170BD00001D484FF61E
:10072000FF710170002080F309881B48016881F384
:1007300008881A484FF08051016062B6FEE71748FA
:100740004FF080510160704714484FF080510160B4
:10075000704772B6EFF3098028B1203880E8F00FB7
:100760000F490968086000B50E4880475DF804EB42
:100770000D480E490A78027009480D490A6802605E
:10078000106890E8F00F203080F309884EF0040ED6
:1007900062B6704722ED00E0FC00002004ED00E0AE
:1007A000F4000020F52100088200002083000020D2
:1007B000F800002010B5012004F06EFD002004F0C8
:1007C0006BFD10BD08B50146002000900348009065
:1007D0000098084400900098008808BD006C004014
:1007E00008B500220092044A0092009A0244009246
:1007F000009A116008BD0000006C004000B585B093
:10080000684604F04FFD019805B000BD00BFFEE74B
:1008100010B500F01FF800F019F810BD10B5002455
:1008200000BF00BFFFF7A4FC044600BF00BF1021BB
:10083000054800F0A5FB00BF00BF2046FFF79CFC69
:1008400000BF00BF10BD00005E17002010B5FFF70D
:10085000E5FF10BD10B500200249086000F00AF85D
:1008600010BD00002800002001490860704700000A
:100870002800002010B5FFF7C1FF044608480068B3
:1008800040F080700649086000200649486008462C
:10089000006840F0010008602046FFF7E5FF10BD4A
:1008A000FCED00E0001000E00149486870470000DE
:1008B000001000E07047000051B18200A2F1C04278
:1008C000126842F001038200A2F1C042136009E005
:1008D0008200A2F1C0421268034B1A408300A3F1C8
:1008E000C0431A6070470000FEFF0F00D0E90112FC
:1008F0001143C2681143026911434269114382697D
:100900001143C2691143026A1143426A1143826A68
:100910001143C26A1143026B114302689200A2F1B3
:10092000C0421160816808290BD101688900A1F1DA
:10093000C041096841F0400201688900A1F1C0414D
:100940000A60416B0968426B526841EA0211426BCE
:10095000926841EA0221426B928941EA0241426B6C
:10096000128A41EA0251426B127D41EA0261426BF6
:10097000926911430268521C9200A2F1C0421160B8
:10098000C16AB1F5804F1BD1816B0968826B5268D7
:1009900041EA0211826B926841EA0221826B128A5B
:1009A00041EA0251826B127D41EA0261826B9269D7
:1009B000114302689200A2F1C042C2F8041107E09C
:1009C0006FF0704201688900A1F1C041C1F80421B3
:1009D00070472DE9F0410246002500260020002343
:1009E0000024002791F803C00CF00F0591F803C014
:1009F0000CF0100CBCF1000F03D091F802C04CEACF
:100A0000050591F800C0BCF1000F31D0146800203A
:100A10002BE04FF0010C0CFA00F3B1F800C00CEA27
:100A200003069E4220D183004FF00F0C0CFA03F70F
:100A3000BC4305FA03FC4CEA040491F803C0BCF182
:100A4000280F06D14FF0010C0CFA00FCC2F814C0BC
:100A50000AE091F803C0BCF1480F05D14FF0010C3A
:100A60000CFA00FCC2F810C0401C0828D1D3146056
:100A7000B1F800C0BCF1FF0F34DD546800202EE057
:100A800000F1080C4FF0010808FA0CF3B1F800C0AF
:100A90000CEA03069E4221D183004FF00F0C0CFAA2
:100AA00003F7BC4305FA03FC4CEA040491F803C0C5
:100AB000BCF1280F05D100F1080C08FA0CF8C2F8B7
:100AC000148091F803C0BCF1480F07D100F1080C65
:100AD0004FF0010808FA0CF8C2F81080401C0828F2
:100AE000CED35460BDE8F0810161704700BFFEE7DE
:100AF0000146CA1701EB92729210A1EB820292B9E1
:100B0000642091FBF0F200FB121050B94FF4C87052
:100B100091FBF0F200FB121008B901207047002091
:100B2000FCE70120FAE70020F8E7000070B5064670
:100B30000F484088401E83B20D480088401E82B294
:100B40000021084600F0C4F800240CE0002504E071
:100B5000304600F0F3F9681C85B205484088A84289
:100B6000F6DC601C84B202480088A042EEDC70BD56
:100B70001800002000B50246B2B9012000F0D2F9F9
:100B80004FF4807000F0D4F9032000F0CBF941F26B
:100B9000300000F0CDF94FF4C8700E494880F020C5
:100BA00008800020887114E0012000F0BBF90020CB
:100BB00000F0BEF9032000F0B5F941F2380000F072
:100BC000B7F9F020034948804FF4C870088001202D
:100BD000887100BD1800002070B504460D46164609
:100BE0002B4622462946204600F072F8304600F097
:100BF000A5F970BD2DE9FF4F84B081468A460020DB
:100C0000039002900698A0EB09050798A0EB0A064E
:100C1000CDF80490CDF800A0002D01DD012705E0FE
:100C20000DB9002702E04FF0FF376D42002E02DDC4
:100C30004FF0010806E016B94FF0000802E04FF04F
:100C4000FF387642B54201DD2C4600E034464FF0D5
:100C5000000B21E0009A91B2019A90B200F022F8C4
:100C60000398284403900298304402900398A042CD
:100C700005DD0398001B0390019838440190029809
:100C8000A04205DD0298001B0290009840440090AD
:100C90000BF101001FFA80FB601C8345DADD08B010
:100CA000BDE8F08F30B504460D462B462246294656
:100CB000204600F00DF80248008800F03FF930BDF2
:100CC0001400002001480088704700000008006CF4
:100CD00030B505460C462E48807950BB4FF4047061
:100CE00000F020F9284600F023F940F2112000F02E
:100CF00019F9104600F01CF940F2122000F012F928
:100D0000204600F015F940F2132000F00BF91846C8
:100D100000F00EF94FF4007000F004F9284600F0DE
:100D200007F940F2012000F0FDF8204600F000F93C
:100D300029E040F2122000F0F5F8284600F0F8F81B
:100D400040F2132000F0EEF8104600F0F1F84FF4F6
:100D5000047000F0E7F8204600F0EAF840F21120B5
:100D600000F0E0F8184600F0E3F840F2012000F04F
:100D7000D9F8284600F0DCF84FF4007000F0D2F803
:100D8000204600F0D5F840F2022000F0CBF830BD4C
:100D9000180000202DE9F84F80460E4617461C46E5
:100DA000B3462046E31704EB5373DB1021464FEAAA
:100DB000E47C04EB5C7C4FEAEC0CA4EBCC0CBCF1C7
:100DC000000F02D04FF0010C01E04FF0000C634423
:100DD000224604EBD27C4FEA6C0C03FB0CF3DBB233
:100DE0000093A7F12000C7B2002556E00C2C07D1D4
:100DF00007EB47002B4901EB800010F8059013E04A
:100E0000102C05D1284800EB071010F805900BE0D6
:100E1000182C07D107EBC700244901EB800010F81C
:100E2000059001E0BDE8F88F4FF0000A2FE009F0CF
:100E3000800030B11E48028831464046FFF7CCFEA4
:100E400007E00A9828B91B48028831464046FFF758
:100E5000C3FE4FEA49604FEA1069701C86B216481B
:100E60004088B04200DCDDE7A6EB0B00A0420AD1CF
:100E70005E4608F101001FFA80F80F4800884045DF
:100E800000DCCFE706E00AF1010000F0FF0ABAF14A
:100E9000080FCCDB00BF681CC5B200988542A5DBFB
:100EA00000BFBFE7607B0008D47F0008C48500084E
:100EB0001400002016000020180000202DE9F8473B
:100EC00004460D4690469946DDE9096704F0FF0A9D
:100ED00008EB04001FFA80F809EB05001FFA80F9FF
:100EE00016E0444502DB5446A81985B24D4500DBA7
:100EF00014E0002000903A78334629462046FFF758
:100F000049FF304606EBD07104EB61018CB27F1CC7
:100F100038787E2802DC38782028E2DA00BFBDE885
:100F2000F88700000149088070470000FE07006C48
:100F300001490880704700000008006C01490880E2
:100F4000704700000008006C08B50121102004F073
:100F500093F9FF20ADF8000010208DF80300032066
:100F60008DF8020069460448FFF733FDFF2102486F
:100F7000FFF7BAFD08BD00000010014000BFFEE70A
:100F800030B505460C4622460021284600F001F8FF
:100F900030BD2DE9F04105460B469446002700245C
:100FA00002E03F021F43641C042CFAD3604605F0A4
:100FB0000306294646B1344603E001F8013B401ED2
:100FC000641C08B1042CF8D30A4601E080C2001F5B
:100FD0000428FBD2114602E001F8013B401E002824
:100FE000FAD1BDE8F081704770B5002100230F22CF
:100FF000C47804B3154C246804F4E064C4F5E064D8
:10100000210AC1F10403CA40447804FA03F1847848
:101010001440214309010E4C0678A155047804F0D0
:101020001F050124AC4005786D11AD0005F1E025E8
:10103000C5F8004109E0047804F01F050124AC4024
:10104000044D0678761145F8264070BD0CED00E0A1
:1010500000E400E080E100E002490143024A11603F
:10106000704700000000FA050CED00E01548164836
:1010700016481748174818481848194819481A4870
:101080001A481B481B481C481C481D481D481E4840
:101090001E481F481F482048204821482148224810
:1010A00022482348234824482448254825482648E0
:1010B000264827482748284828482948294800BF63
:1010C000704700002498000884970008889700085B
:1010D0008C9700089097000894970008989700084C
:1010E0009C970008A0970008A4970008A8970008FC
:1010F000AC970008B0970008B4970008B8970008AC
:10110000BC970008C0970008C4970008C89700085B
:10111000CC970008D0970008D4970008D89700080B
:10112000DC970008E0970008E4970008E8970008BB
:10113000EC970008F0970008F4970008F89700086B
:10114000FC97000800980008049800080898000818
:101150000C980008109800081498000818980008C7
:101160001C9800082098000810B50348006810B1CA
:1011700001480068804710BD4000002070B504465B
:1011800000F0C2F8002048490870484908704849F2
:10119000087048490860484908604849087048494B
:1011A000087048490870484908604849086048493B
:1011B000086048490870484800680A21B0FBF1F00F
:1011C000464908604648006858B14648056845B138
:1011D0004348066803E0761E002028602D1D002E7F
:1011E000F9D1002040490860404908604049086042
:1011F000404908604049086040490860404908602B
:101200004049087002F02EF902F00EFA204601F073
:10121000BDFA208800B170BD204601F09FFE2088F5
:1012200000B1F8E7204601F0C1FE208800B1F2E7E6
:10123000204601F08DFF208800B1ECE7204602F047
:1012400041F9208800B1E6E7204602F065FB2088DE
:1012500000B1E0E7204602F087FE208800B1DAE71F
:10126000204601F0E7FD208800B1D4E7204601F0D8
:10127000FFFB208800B1CEE7204603F0E5FD208883
:1012800000B1C8E7204602F0B3FD208800B1C2E7F4
:10129000204603F035FE208800B1BCE701F09EF93E
:1012A000FFF7E4FE00BFB6E7540000205500002021
:1012B0009C000020F4000020F800002082000020A4
:1012C0008300002084000020900000209400002073
:1012D00098000020A4000020E4970008A00000204F
:1012E000B4970008B09700083400002038000020B0
:1012F0003C00002040000020440000204800002066
:101300004C000020D20000200A4A1168002002E0B0
:10131000002204C1401C084A12689042F8D3054AD2
:101320001268054B1B6802EB8302121F034B1A6005
:1013300070470000B0970008B4970008FC00002038
:1013400008480078012800D0704707480078FA283C
:1013500000DBF9E704480078401C0349087000BF2F
:10136000F2E70000550000205400002010B50024D2
:101370002E480078012800D010BD00BFFEF7F8FE0F
:10138000044600BF2A48007828B900BF2046FEF76F
:10139000F3FE00BFF0E726480078401E244908709D
:1013A00008460078002805DD00BF2046FEF7E4FE71
:1013B00000BFE1E71F480078002805DD00BF204698
:1013C000FEF7DAFE00BFD7E702F038F81A490870D6
:1013D0000846007800EB4000184951F820001849F1
:1013E00008600846006817490968884205D100BFAF
:1013F0002046FEF7C1FE00BFBEE711480068D0F8E6
:101400009000401C0E490968C1F890000E48006821
:10141000401C0D4908604FF080500C49086000BF27
:101420002046FEF7A9FE00BF00BFA5E7550000203B
:10143000540000209C00002083000020942D0020F8
:10144000F8000020F4000020C800002004ED00E0B7
:1014500010B5002420480078002800DD10BD1F488A
:101460000078002800DDF9E700BFFEF781FE0446A2
:1014700000BF01F0E3FF1A4908700846007800EB4E
:101480004000184951F820001749086008460068D4
:1014900016490968884205D100BF2046FEF76CFE58
:1014A00000BFDBE710480068D0F89000401C0E49F0
:1014B0000968C1F890000E480068401C0C4908609B
:1014C0004FF080500B49086000BF2046FEF754FEE5
:1014D00000BF00BFC2E70000540000209C000020B5
:1014E00083000020942D0020F8000020F40000204C
:1014F000C800002004ED00E070B50446002518483F
:101500000078002803DD46F66250208070BD154843
:101510000078012803D045F689602080F6E712485C
:101520000078FA2803DB45F209202080EEE700BFAF
:1015300000BFFEF71DFE054600BF00BF0A48007849
:10154000401C0949087002F053F900BF00BF28464B
:10155000FEF712FE00BF00BF0020208000BFD5E7CD
:1015600054000020550000209C0000202DE9F0418F
:1015700005460C461646002700BF00BFFEF7F8FDE3
:10158000074600BF00BF012D03D000200D490870A1
:1015900002E001200B49087014B10B48046006E01A
:1015A0000A4800680A21B0FBF1F00749086000BF53
:1015B00000BF3846FEF7E0FD00BF00BF00203080CE
:1015C000BDE8F081A4000020A0000020E4970008FE
:1015D00070B50446002520480078002803DD46F653
:1015E0006550208070BD1D480078012803D045F665
:1015F00089602080F6E71A48007818B946F66450EA
:101600002080EFE700BF00BFFEF7B2FD054600BF38
:1016100000BF13480078401E114908700846007842
:1016200000280ADD00BF00BF2846FEF7A5FD00BF69
:1016300000BF46F663502080D4E702F0E7F800BF11
:1016400000BF2846FEF798FD00BF00BFFFF700FF70
:101650000020208000BFC5E7540000205500002076
:101660009C00002010B5044612480078E8B901F04B
:10167000E5FE1149087008460078104908700E48C8
:10168000007800EB40000E4951F820000D49086039
:10169000084600680C490860012006490870FFF7F9
:1016A0003DF843F69920208002E045F68A602080CC
:1016B00010BD0000550000208300002082000020A3
:1016C000942D0020F8000020F40000202DE9F041C6
:1016D00007464FF0000800BF00BFFEF749FD8046F7
:1016E00000BF00BF00203D4908603D4908803D49DA
:1016F00008803D4908603D4908603D4908603D4912
:1017000008603D49088100BF00BF4046FEF734FD38
:1017100000BF00BF00BF00BFFEF72AFD804600BF2C
:1017200000BF3648046800BF00BF4046FEF724FDF6
:1017300000BF00BF21E000BF00BFFEF719FD8046DB
:1017400000BF00BF00207834E06320602063A06108
:10175000A082E0826062A062FFF7A6F82062783C77
:1017600004F164060020B081D4F8BC4000BF00BF83
:101770004046FEF701FD00BF00BF002CDBD100BFDB
:1017800000BFFEF7F5FC804600BF00BF1C4805689F
:1017900000BF00BF4046FEF7EFFC00BF00BF12E0F5
:1017A00000BF00BFFEF7E4FC804600BF00BF05F1AC
:1017B00020060020B081AD6900BF00BF4046FEF7A3
:1017C000DBFC00BF00BF002DEAD103F019FA03F0E3
:1017D00093FC00203880BDE8F08100006800002004
:1017E00062000020B2000020C4000020D8000020C9
:1017F000E400002094000020882D0020CC00002070
:1018000088000020F8B5044600266946324800F0FA
:10181000C1FCBDF8000018B1BDF800002080F8BD83
:101820006A460021022000F029FDBDF8000018B131
:10183000BDF800002080F2E700BF00BFFEF798FC73
:10184000064600BF00BF00202449086000BF00BF5B
:101850003046FEF791FC00BF00BF0025204800681D
:1018600020490968884205D91D4800681D49096852
:10187000B0FBF1F525B91A4800680A21B0FBF1F573
:101880006A460021284600F0F9FC6946124800F03B
:1018900063FABDF8000018B1BDF800002080BEE773
:1018A00000BF00BFFEF764FC064600BF00BF00207B
:1018B0000D490860094800680C49086001200C497E
:1018C000087000BF00BF3046FEF756FC00BF00BFE7
:1018D0000020208000BFA2E71C320020B4000020BE
:1018E000E4970008CC970008C4000020B80000204E
:1018F000C000002010B50348006810B1014800681E
:10190000804710BD440000202DE9FF4F87B00446FA
:101910009046DDE91BA5DDE91496179F0020039092
:1019200087480078002805DD47F24A1028800BB070
:10193000BDE8F08F1CB947F2AD102880F7E7B8F189
:10194000000F03D147F24F102880F0E71EB946F68A
:101950002F602880EBE77B480068874203D246F679
:1019600030602880E3E71698B84203D346F631602A
:101970002880DCE7B9F1400F03D346F273202880BA
:10198000D5E7B9F1000F06D16F48844203D046F283
:1019900073202880CBE7B9F13F0F06D16B48844212
:1019A00003D046F273202880C1E7204602F0ECFA0B
:1019B000002028800AF0010090B10AF0020078B1FE
:1019C00005960020069008E0002105980160059822
:1019D000001D05900698401C06900698B842F3D367
:1019E000169806EB80000490CDE9007A3246404616
:1019F000049B0A9900F06EFB0590C4F828800A98B1
:101A0000E0620898206284F8379005982060049876
:101A1000A06019986065199818B94D480068A065CC
:101A200001E01998A0651A9860606662A763A4F83F
:101A30003CA04FF0000B08E0002104F17C0040F8CE
:101A40002B100BF1010000F0FF0BBBF1000FF3D0E6
:101A500004F16400189901F0F5FA204600F082F8CC
:101A600000BF00BF00BFFEF783FB039000BF00BFB5
:101A700038480078401C3749087000BF00BF039801
:101A8000FEF77AFB00BF00BF00BF94F8370001F0FB
:101A9000F5FC204601F010FE204602F02BFA2E48FD
:101AA0000088401C2C4908802C48007801282DD043
:101AB00000BF00BF00BFFEF75BFB039000BF00BF8D
:101AC00024480078401E2349087008460078A0B9D1
:101AD00023480088002809DD00BF00BF0398FEF7F7
:101AE0004BFB00BF00BF01F055FE0DE000BF00BF83
:101AF0000398FEF741FB00BF06E000BF00BF03985C
:101B0000FEF73AFB00BF00BF00BF10E700BF00BFF9
:101B100000BFFEF72DFB039000BF00BF0D4800780B
:101B2000401E0C49087000BF00BF0398FEF724FB5D
:101B300000BF00BF00BFFFF78BFC00BFF7E600004F
:101B400054000020E0970008C42C0020002C002046
:101B5000A00000209C000020D000002055000020A4
:101B60006000002010B504460348006818B1204604
:101B700001490968884710BD3400002070B504464B
:101B80000D46002667480078002803DD47F24E1016
:101B9000288070BD6448844203D147F24C102880ED
:101BA000F7E76248844203D147F24D102880F0E7FE
:101BB0007CB900BF00BFFEF7DBFA064600BF00BFDE
:101BC0005B48046800BF00BF3046FEF7D5FA00BF8F
:101BD00000BF00BF00BF00BFFEF7CAFA064600BF45
:101BE00000BF54480078401C5249087000BF00BF35
:101BF0003046FEF7C1FA00BF00BF00BF94F83600C0
:101C000008282DD2DFE800F004090E10080A0F1191
:101C1000204601F091FD54E053E000BF204602F061
:101C2000D3FF4EE000BF00BF00BF204602F0CCFF54
:101C300094F83400082810D2DFE800F00407050803
:101C4000090A0B0600BF00BF08E000BF00BF00BFCD
:101C500000BF204601F043FB00E000BF00BF30E0C2
:101C600000BF00BF00BFFEF783FA064600BF00BFFB
:101C700030480078401E2F49087008460078A0B907
:101C80002D480088002809DD00BF00BF3046FEF760
:101C900073FA00BF00BF01F07DFD0DE000BF00BF83
:101CA0003046FEF769FA00BF06E000BF00BF3046CD
:101CB000FEF762FA00BF00BF00BF46F62D60288025
:101CC00067E700BF04F1640001F09AF9204600F0D4
:101CD00037F8204602F026F918480088401E1749B8
:101CE0000880204602F050F9FF2084F8360000BF3B
:101CF00000BF00BFFEF73CFA064600BF00BF0D481C
:101D00000078401E0B49087000BF00BF3046FEF748
:101D100033FA00BF00BF00BF00202880FFF798FB08
:101D200000BF36E754000020002C0020C42C002007
:101D3000F40000209C00002060000020D000002063
:101D400010B504460348006818B1204601490968E7
:101D5000884710BD380000207FB504460D46002698
:101D600000BF00BFFEF704FA064600BF00BF1CB16B
:101D70001548006884420AD100BF00BF3046FEF714
:101D8000FBF900BF00BF47F2571028807FBD00BF9E
:101D900000BF3046FEF7F0F900BF00BF0B480078E7
:101DA00000280BDD002000900190034602462146EA
:101DB000CDE90205064800F093FEE7E729462046F4
:101DC00002F05AFA00BFE1E7F400002054000020BE
:101DD0005452455310B504460348006818B12046D4
:101DE00001490968884710BD3C0000202DE9F047F3
:101DF00080460E4614461D464FF000097D48007887
:101E0000002805DD46F2AE1028800020BDE8F087EE
:101E10001EB1B6F5004F02D100E000BF04E045F668
:101E2000256028800020F1E700BF0CB10020206071
:101E300000BF00BFFEF79CF9814600BF00BF6E489F
:101E40000068406CA8B36C480068406C401E6A494A
:101E50000968486468480068476C1CB166480068B7
:101E6000006C2060FEF720FD63490968096C401A88
:101E700061490968C1F8A4005F480068D0F8A8006B
:101E80005D490968D1F8A410884207D25A48006811
:101E9000D0F8A40058490968C1F8A80000BF00BFE5
:101EA0004846FEF769F900BF00BF00202880384689
:101EB000ACE7FFE706F4004058B100BF00BF48465A
:101EC000FEF75AF900BF00BF46F2B010288000208C
:101ED0009CE74A48007800280BDD00BF00BF484659
:101EE000FEF74AF900BF00BF46F663502880002085
:101EF0008CE700BF41480078401C4049087000BF93
:101F000000BF4846FEF738F900BF00BF00BF434698
:101F100007220021084601F027F900BF00BF00BFDB
:101F2000FEF726F9814600BF00BF34480078401E06
:101F30003249087000BF00BF4846FEF71DF900BFD8
:101F400000BF00BFFFF784FA00BF00BFFEF710F923
:101F5000814600BF00BF2848006890F8350020B1D6
:101F6000012826D0032834D12CE0FCB12248006897
:101F7000006C2060FEF798FC1F490968096C401A44
:101F80001D490968C1F8A4001B480068D0F8A800E2
:101F900019490968D1F8A410884207D21648006888
:101FA000D0F8A40014490968C1F8A80000202880CE
:101FB00013E01CB110480068006C206046F2A910C4
:101FC00028800AE00CB10020206047F2D920288048
:101FD00003E046F62E60288000BF00BF0648006878
:101FE000476C00BF00BF4846FEF7C6F800BF00BF01
:101FF00038460BE754000020F40000209C0000202D
:102000002DE9F04705460E4617461C464FF0000ADC
:102010002E480078002804DD47F259102080BDE8E2
:10202000F0871EB946F2D5202080F8E71FB946F2A6
:10203000D5202080F3E700BF00BFFEF799F8824665
:1020400000BF00BF0DB922480568286868B900BF05
:1020500000BF5046FEF790F800BF00BF0020306080
:10206000386047F252102080D9E795F83C0000F024
:10207000010068B900BF00BF5046FEF77DF800BF01
:1020800000BF00203060386047F254102080C6E75F
:1020900000BF00BF5046FEF76FF800BF00BF4FF013
:1020A0000008D5F8249003E009F1040908F10108BB
:1020B000D9F800000028F7D0C6F80080A86BA0EB84
:1020C000080038600020208000BFA8E754000020EE
:1020D000F4000020F0B50446DDE9055602EB85006A
:1020E0004FF0807C071F3846C7F800C0071F3846EE
:1020F0003C60DFF89CC0071F3846C7F800C04FF0AF
:10210000123C071F3846C7F800C04FF0033C071FBA
:102110003846C7F800C04FF0023C071F3846C7F8E2
:1021200000C0071F38463B60071F384639604FF034
:10213000113C071F3846C7F800C04FF0103C071F7E
:102140003846C7F800C04FF0093C071F3846C7F8AB
:1021500000C04FF0083C071F3846C7F800C04FF0DA
:10216000073C071F3846C7F800C04FF0063C071F62
:102170003846C7F800C04FF0053C071F3846C7F87F
:1021800000C04FF0043C071F3846C7F800C0F0BD40
:10219000B94300087FB505460C461248854203D175
:1021A00047F25B1020807FBD0F48854203D147F284
:1021B0005C102080F7E70D48007800280BDD002038
:1021C00000900190034602462946CDE902040848E2
:1021D00000F086FCE7E72146284602F05BFB00BFE3
:1021E000E1E70000002C0020C42C00205400002057
:1021F0005453555310B51D48006810B11B48006872
:102200008047FEF751FB04461948006819490968E0
:10221000884215D016480068D0F89800201A144952
:102220000968C1F8940012480068D0F89C00104971
:102230000968D1F8941008440D490968C1F89C0058
:102240000C480068C0F8984009480068D0F8B4000D
:1022500009490968884205D20748006804490968A5
:10226000C1F8B40000200449086010BD48000020F7
:10227000F4000020F8000020980000202DE9F04133
:1022800005460E46144600273F480078002804DD26
:1022900047F275202080BDE8F0813C480078002896
:1022A00003DD46F663502080F5E736B1022E05D0F7
:1022B000042E0AD0082E09D101E000BF00BF1DB9CD
:1022C00047F27E202080E6E704E003E045F6256043
:1022D0002080E0E700BF00BF00BF00BFFDF748FF60
:1022E000074600BF00BF29480078401C27490870F6
:1022F00000BF00BF3846FDF73FFF00BF00BF00BF73
:1023000001202349096881F83600234632462946D0
:102310001F48006802F07AFB2088A8B100BF00BF08
:1023200000BFFDF725FF074600BF00BF1748007834
:10233000401E1649087000BF00BF3846FDF71CFF5D
:1023400000BF00BF00BFA6E71148006801F0F4F924
:1023500000BF00BF00BFFDF70BFF074600BF00BF77
:102360000A480078401E0949087000BF00BF38467F
:10237000FDF702FF00BF00BF00BFFFF769F80020B4
:10238000208000BF87E70000540000209C00002050
:10239000F40000202DE9FF5F05460E4617469846DB
:1023A000DDE90EA40020009072480078002804DDCA
:1023B00047F275202080BDE8FF9F6F480078002815
:1023C00003DD46F663502080F5E70AF00E0BBBF103
:1023D000000F09D0BBF1020F07D0BBF1040F10D0E2
:1023E000BBF1080F0ED101E000BF00BFB8F1000F34
:1023F00006D12FB926B91DB947F27E202080DAE731
:1024000004E003E045F625602080D4E700BF2AF011
:102410001E0008B1012000E000200390039801286D
:1024200003D145F625602080C5E7CAF3001002906D
:102430000298C0B9B8F57A7F03D347F27B20208099
:10244000B9E73B2F03DD47F27A202080B3E73B2E2C
:1024500003DD47F279202080ADE7632D12DD47F2DE
:1024600078202080A7E742F20F70864203DD47F212
:10247000792020809FE7B5F57A7F03DB47F278204B
:10248000208098E73D48D0F800904FF4FA70B0FBF8
:10249000F9F0404400FB09F04FF47A71B0FBF1F120
:1024A0004FF461606843C6EB061200EB82003844CB
:1024B00000FB091001900198002856D000BF00BF12
:1024C00000BFFDF755FE009000BF00BF2A4800780E
:1024D000401C2949087000BF00BF0098FDF74CFE62
:1024E00000BF00BF00BF01202549096881F8360000
:1024F00023465A4622480199006802F087FA20884C
:10250000A8B100BF00BF00BFFDF732FE009000BFC2
:1025100000BF19480078401E1749087000BF00BF6F
:102520000098FDF729FE00BF00BF00BF43E7144835
:10253000006801F001F900BF00BF00BFFDF718FE01
:10254000009000BF00BF0C480078401E0A49087088
:1025500000BF00BF0098FDF70FFE00BF00BF00BF27
:10256000FEF776FF0020208002E047F27E202080E8
:1025700000BF20E7540000209C000020E4970008E2
:10258000F400002010B586B000F01EF8FEF78CF9BC
:10259000044605A800210091CDE9011403900748E5
:1025A000007800EB4000064A02EB800100231A4647
:1025B000044800F095FA06B010BD0000820000202B
:1025C000942D00205449434B10B50348006810B1C6
:1025D00001480068804710BD4C0000202448254871
:1025E0002548264826482748274828482848294873
:1025F00029482A482A482B482B482C482C482D4843
:102600002D482E482E482F482F4830483048314812
:1026100031483248324833483348344834483548E2
:1026200035483648364837483748384838483948B2
:1026300039483A483A483B483B483C483C483D4882
:102640003D483E483E483F483F4840484048414852
:102650004148424842484348434844484448454822
:102660004548464846484748474800BF704700002D
:1026700028980008909900082A9800082B980008CC
:102680002C98000830980008349800083198000809
:102690005C9800085D9800085E9800086098000843
:1026A0006298000864980008669800086898000816
:1026B000889800088A9800088C9800088E9800086E
:1026C000909800089298000894980008C098000814
:1026D000C1980008C2980008C4980008C69800086D
:1026E000C7980008C8980008CA980008CC98000845
:1026F000CE980008D0980008D2980008D498000816
:10270000049900080599000806990008079900082F
:10271000089900080A9900080C99000834990008E3
:10272000359900083699000837990008389900084B
:102730003A9900083C99000840990008419900081E
:1027400042990008439900084499000845990008F7
:102750004699000847990008489900084A990008D6
:102760004B9900084C9900084E99000850990008B0
:10277000519900085499000888990008899900081F
:102780008A9900088C9900088E9900080021034A54
:102790001160034A11800180704700006C00002026
:1027A000700000202DE9F04F85B00446894692461E
:1027B0009B46DDF838800020009000BF00BFFDF789
:1027C000D7FC009000BF00BFBAF1000F0AD0BAF1E9
:1027D000010F0DD0BAF5004F05D06FF40040504402
:1027E00060B906E000BF206A40EA0900206214E0F8
:1027F00000BF206A20EA090020620EE000BF00BF8F
:102800000098FDF7B9FC00BF00BF45F62560A8F8A9
:102810000000002005B0BDE8F08F00BFC4F824B070
:1028200004F1080001900198008958B900BF00BF69
:102830000098FDF7A1FC00BF00BF0020A8F8000031
:10284000206AE7E700BF61480078401C5F490870D4
:1028500000BF00BF0098FDF78FFC00BF00BF00BFA6
:1028600001980768BD687FE07868029095F8880055
:1028700000F00F0003900398012821D002282ED0E9
:10288000042802D0082836D10EE0206AD5F880103E
:1028900000EA0106D5F88000B04204D15A4631461C
:1028A000284600F097F859E0206AD5F8801000EA31
:1028B000010626B15A463146284600F08BF84DE015
:1028C000D5F88000216A20EA0106D5F88000B042E0
:1028D00004D15A463146284600F07CF83EE0D5F84F
:1028E0008000216A20EA010626B15A463146284670
:1028F00000F070F832E000BF00BF00BFFDF738FC09
:10290000009000BF00BF31480078401E2F4908707A
:1029100008460078A0B92E480088002809DD00BFCD
:1029200000BF0098FDF728FC00BF00BF00F032FF99
:102930000DE000BF00BF0098FDF71EFC00BF06E0E1
:1029400000BF00BF0098FDF717FC00BF00BF00BF2D
:1029500043F6FF20A8F8000000205BE700BF029FBD
:102960000FB1BD6800E00025002D7FF47DAF00BFF2
:1029700000BF00BFFDF7FCFB009000BF00BF134885
:102980000078401E1149087000BF00BF0098FDF795
:10299000F3FB00BF00BF00BF0AF4004008B9FEF718
:1029A00057FD00BF00BFFDF7E3FB009000BF00BF75
:1029B000206A049000BF00BF0098FDF7DDFB00BF58
:1029C00000BF0020A8F80000049823E79C00002026
:1029D0006000002070B504460E4615463434266566
:1029E000002060702070E560A078343C082816D282
:1029F000DFE800F0040508090706101100BF00BF5A
:102A000000BF0DE000BF204601F028FC002084F844
:102A1000360005E000BF042084F8360000E000BF67
:102A200000BF204600F05BFC70BD0000002400BF2A
:102A300019E000BF00BFFDF79BFB044600BF00BFCD
:102A400009480068401C0849086008480068401CA4
:102A50000649086000BF00BF2046FDF78DFB00BFA0
:102A600000BFFEF781FBE4E750000020B400002027
:102A700010B58AB0044600200E4908600B200021E2
:102A80000591CDE90704069108460B4909680B4AF0
:102A900012680B4B1B68CDE90132CDE903103F20D2
:102AA0000023084A08A100900C48FEF72DFF0AB049
:102AB00010BD0000500000208C9700088897000887
:102AC000849700082D2A000875432F4F532D49493C
:102AD000492049646C65205461736B00002C002010
:102AE0002DE9F84F04460D4616461F46DDE90BABAF
:102AF000DDF82890DDF834800020009000BF00BF92
:102B0000FDF736FB009000BF00BF2B4800882B4923
:102B1000098888423EDA28480088401C26490880F7
:102B2000274800880988884203DA23480088244916
:102B300008802448006804602248006885602148B5
:102B40000068C6601F48006807821E480068C0F819
:102B500014901C480068A0F818A01A480068C0F833
:102B60001CB01848006840681649086001201649E2
:102B70000881164808604860002000F07FFC144877
:102B8000007818B112480078124908700020A8F89F
:102B9000000008E010480088401C0F49088044F2FB
:102BA0005360A8F8000000BF00BF0098FDF7E4FAEA
:102BB00000BF00BFBDE8F88F6000002098970008B4
:102BC0006200002058000020942D0020C42C00201A
:102BD0008200002084000020640000203EB5594897
:102BE00000680068584A811A904279D00FDC574932
:102BF000084400283ED056490844A8B15549084425
:102C0000002860D05449084400286AD13FE0534866
:102C10000844002850D052490844002862D0514945
:102C200008440028F1D110E002A8464D00902D681C
:102C3000EB69444D2D682A8B424D2D686969414DE1
:102C40002D68A868FFF7AEFD7AE002A93D4800684C
:102C5000C0693C4DCDE900012D682B8B394D2D68A5
:102C60002A8A384D2D68E968364D2D68A86800F02D
:102C700035FC65E0334B1B68DA69324B1B68198BF6
:102C8000304B1B68986802AB00F052FE58E002A976
:102C90002C480068C0692B4DCDE900012D682B8BB5
:102CA000284D2D682A8A274D2D68E968254D2D6805
:102CB000A86801F0CDF943E022490968886802A9B3
:102CC00001F0DAFA3CE01F4B1B68DA691D4B1B6808
:102CD000198B1C4B1B68986802AB01F079FB2FE045
:102CE00007E02CE017490968886802A901F0D2FDC5
:102CF00026E01D49097801EB41011C4A02EB8100E5
:102D000000F0A2FD0F48006802AB0021C26918481C
:102D100001F05EFB17480068401E1649086008462F
:102D2000006858B9144800680860FDF7BDFD044606
:102D300002AB22460021114801F04AFB00E000BF2F
:102D400000BF3EBD5C0000205449434BADBAB2BE4B
:102D50000DF90BFAF2F8F7FF0006F6FF00F7FDF7A2
:102D600000FFEFFF03FE0FFE84000020942D0020E3
:102D700058310020F0000020EC0000201C32002020
:102D8000002700BF4CE0002648E000BF00BFFDF771
:102D9000EFF9074600BF00BF2248008888B900202D
:102DA000214908810860486000F07AFB00BF00BF3D
:102DB0003846FDF7E1F900BF00BFFEF749FB0126E9
:102DC0002CE000BF00BF3846FDF7D6F900BF00BFBA
:102DD000FDF76AFD0546FFF701FFFDF765FD441BA2
:102DE00012480068A04201D21048046000BF00BF32
:102DF000FDF7BEF9074600BF00BF0D4800684068F8
:102E00000B49086007480088401E0649088000BF3B
:102E100000BF3846FDF7B0F900BF00BF002EB4D0A8
:102E2000B1E7000060000020942D00206800002021
:102E30005C000020F0B589B00546002031490880CB
:102E40003148006820B944F25260288009B0F0BDD2
:102E50002E480088022803DA44F254602880F5E7FF
:102E600000202B49086028480468264620360027A1
:102E70000CE0284820600020A060E06020826061B3
:102E80002083666020342036781C87B21F48008873
:102E90008742EEDB203C1C48066866601E480660E0
:102EA0001E48066000201E4908801E4908801E48F2
:102EB000006818B944F255602880C7E71B480068CD
:102EC0001B490968884203D244F256602880BDE756
:102ED000032000210591CDE90705069113480068FC
:102EE000144A1268104B1B68CDE90301CDE9013289
:102EF00000910B46104A11A11748FEF705FD00BFCF
:102F0000A4E7000064000020949700089897000848
:102F1000680000204E4F4E45580000205C00002005
:102F20006000002062000020A0970008A897000819
:102F3000E0970008A4970008812D000875432F4FE3
:102F4000532D4949492049535220517565756520D3
:102F50005461736B00000000C42C00200021034A60
:102F60001160034A11800180704700007400002046
:102F70007800002070B502460B461046114610310D
:102F80005E1EB5B2002408E001600026466006819E
:102F9000C66010301031661CB4B2AC42F4DB0026BF
:102FA000066046600681C66070BD000010B504462C
:102FB0001048006818B945F21E70208010BD0E48F8
:102FC000008818B945F21D702080F7E70A4801888B
:102FD00008480068FFF7CEFF064800680749086008
:102FE0000548008888800020C8800881208000BFB4
:102FF000E4E70000C4970008BC970008882D002073
:1030000010B5014648894B89002B17DD0A680C4B27
:103010001B6813600A4C4B6823602346DB884C898D
:103020001B1B074CE38023469B884C892344044C9C
:10303000A38000234B818B810B604B6010BD00008F
:10304000882D00200181002242818281026042603D
:10305000704700002DE9F0410D46DDE90674B0F837
:103060000AC0B0F80880C44505DB46F2935CA4F8BA
:1030700000C0BDE8F081DFF8D4C0BCF804C0BCF1EA
:10308000000F04D145F21D7CA4F800C0F1E7DFF881
:10309000BCC0DCF80010DFF8B480D1F800C0C8F87C
:1030A00000C0C446BCF804C0ACF1010CA8F804C0D0
:1030B000C446BCF806C00CF1010CA8F806C0C44612
:1030C000BCF808C0B8F80680C44507DADFF87CC051
:1030D000BCF806C0DFF87480A8F808C0B0F80AC0D1
:1030E000BCF1000F06D1016041604FF0010CA0F867
:1030F0000AC017E003F0100CBCF1000F07D10668FE
:1031000031604FF0000CC1F800C0016004E0D0F85D
:1031100004C0C1F800C04160B0F80AC00CF1010C55
:10312000A0F80AC0B0F80CC0B0F80A80C44503DAB1
:10313000B0F80AC0A0F80CC04D600A81CF604FF013
:10314000000CA4F800C000BF93E70000882D002009
:103150000021034A1160034A11800180704700007A
:103160007C000020800000202DE9F04105460C463F
:1031700016461F461548006880F834600020134941
:10318000096881F8350039461048006800F096FE5D
:103190006CB104F10808EC60012229460B48006874
:1031A00000F016F82946404600F066F806E00020D8
:1031B00006490968C8870549096808630348016822
:1031C000204600F019F8BDE8F0810000F40000206E
:1031D00010B5C287016300230AE000244C600C6034
:1031E0000C614C610C83CC61886020315C1CA3B203
:1031F0009342F2DB10BD000030B548B14568C1F81C
:10320000C05000F10804226893681D6AC56113E08C
:1032100091F83450022D02D0072D08D103E007A504
:10322000C1F8C05007E007A5C1F8C05003E008A5E9
:10323000C1F8C05000BF00BF30BD00005461736BC7
:10324000205100005461736B2053656D0000000035
:103250002000000030B507A5C1F8C05000F10804F7
:1032600022681AB193681D6AC56101E001A5C561B4
:1032700030BD000020000000F0B58E6896F8375091
:1032800007893FB90127078100274F600F60016060
:10329000416023E007897F1C0781026806E094688B
:1032A00094F83770AF4200DD02E05268002AF6D190
:1032B00000BF32B900274F6043680B60596041601E
:1032C0000CE017682FB9116000270F604A60016099
:1032D00004E013680B604A6059601160F0BD2DE98D
:1032E000F0410446256BE68F0AE0D5F80C8008F122
:1032F00008072946384600F00AF82035701E86B2C5
:10330000002EF2DC0020E0872063BDE8F08110B5DC
:103310000489012C03D100240460446011E00C688E
:1033200024B94A680024146002600AE04C6824B999
:103330000B6800245C60436003E00B684A685A60D5
:1033400013600489641E048100244C600C6010BD6D
:103350002DE9F84306460C4617469846089D94F812
:103360003600082850D2DFE800F0040508090607F7
:103370002B2C00BF00BF00BF47E000BF94F8340013
:10338000032807D143463A4621463046009500F0CF
:103390003FF803E0E765A4F86080256436B1204675
:1033A000FFF79DFF21463046FFF754FF204600F00F
:1033B00055FF00203434A070607004F8340924E014
:1033C00000BF94F83400032807D143463A4621460B
:1033D0003046009500F01CF803E0E765A4F8608033
:1033E0002564204601F0F0FB36B12046FFF777FF59
:1033F00021463046FFF72EFF04203434A070002011
:10340000607004F8340900E000BF00BFBDE8F88335
:10341000F0B50446059E086BCD8F0AE0C768A74249
:1034200004D1046142610383C66104E020306F1E51
:10343000BDB2002DF2DC00BFF0BD000070B500256C
:10344000074C03E005F12000C5B2241D20680028C8
:10345000F8D02068FCF797FE2844C5B2284670BD16
:103460002C000020002004E00021034A42F8201034
:10347000401C0228F8D370472C00002030B54209C8
:1034800000F01F030121C3F11F04A140034C54F8B5
:1034900022400C43014D45F8224030BD2C00002055
:1034A00030B5420900F01F030121C3F11F04A14000
:1034B000034C54F822408C43014D45F8224030BD66
:1034C0002C0000200021034A1160034A1180018072
:1034D00070470000880000208C0000202DE9F04F8C
:1034E00085B007468A4693461C460020029000BFDE
:1034F00000BF00BFFCF73CFE029000BF00BF484881
:103500000078401C4649087000BF00BF0298FCF7D5
:1035100033FE00BF00BF00BF07F108063089002856
:1035200042D104F0100010B94FF0000801E04FF054
:103530001008DDE90E0143465A46CDE90001514627
:1035400007F12000FFF786FD00BF00BF00BFFCF7BA
:103550000FFE029000BF00BF31480078401E304986
:10356000087008460078A0B92E480088002809DDB8
:1035700000BF00BF0298FCF7FFFD00BF00BF00F0D6
:1035800009F90DE000BF00BF0298FCF7F5FD00BF90
:1035900006E000BF00BF0298FCF7EEFD00BF00BFD1
:1035A00000BF05B0BDE8F08F04F4007008B13589A4
:1035B00000E00125D6F8009011E0D9F8080003904A
:1035C000D9F8040004900E985B46524600903846A5
:1035D0000399FFF7BDFEDDF81090681E85B2002D3F
:1035E000EBD100BF00BF00BFFCF7C2FD029000BFDF
:1035F00000BF0B480078401E0949087000BF00BF9B
:103600000298FCF7B9FD00BF00BF00BF04F4004002
:1036100008B9FDF71DFF00210F98018000BFC0E72A
:103620009C0000206000002000210AE001EB410224
:10363000054B03EB820000220281026042604A1CBB
:10364000D1B24029F2D37047942D002010B5044622
:1036500094F83700FFF712FF94F83700054909780E
:10366000884203D1204600F027F802E0204600F00F
:1036700003F810BD8200002010B590F8373003EB3E
:1036800043030C4C04EB83010B893BB901230B81F1
:103690000023C36003610860486009E00B895B1C7C
:1036A0000B810B68C360002303610A681061086026
:1036B00010BD0000942D002010B590F8373003EBBA
:1036C00043030B4C04EB83010B893BB901230B81B2
:1036D0000023C36003610860486008E00B895B1C3D
:1036E0000B810023C3604A680261D060486010BD4E
:1036F000942D002010B501460C8924B1012C03D073
:10370000022C0CD101E000BF14E008684A68026195
:103710000024C4601461D0600A6048600AE0086850
:103720004A68C36800241C61C4600261D0600B60F9
:10373000486000BF00BF10BD2DE9F041054695F877
:10374000370000EB4000124901EB80042F69EE685E
:1037500087B946B9002020812060606095F8370065
:10376000FFF79EFE0EE02089401E20810020306180
:10377000266007E02089401E2081FE600EB9676048
:1037800000E0376100202861E860BDE8F0810000BA
:10379000942D002010B5002400BFFCF7E9FC04467E
:1037A00000BF00200D4908700D480E49086008460A
:1037B0000068D0F89000401C0968C1F890000A48E1
:1037C0000068401C084908604FF0805007490860B5
:1037D00000BF2046FCF7D0FC00BF10BD83000020D6
:1037E000C42C0020F8000020C800002004ED00E0F8
:1037F00010B504480078012803D1FDF755F80249B7
:10380000086010BD9C0000209000002010B50A4800
:10381000007880B9FDF748F808490968441A084853
:103820000068A04201D20648046006480068A04231
:1038300001D20448046010BD9C00002090000020CC
:10384000940000209800002070B5054600262E4800
:103850000078012800D070BD00BF00BFFCF788FCD5
:10386000064600BF00BF2C683CB900BF00BF304611
:10387000FCF782FC00BF00BFEDE72448844207D17B
:1038800000BF00BF3046FCF777FC00BF00BFE2E797
:10389000A06D10B1A06D401EA065A06D38B100BF35
:1038A00000BF3046FCF768FC00BF00BFD3E72889A3
:1038B000022807DA00BF00BF3046FCF75DFC00BFFE
:1038C00000BFC8E712480078002807DD00BF00BF2E
:1038D0003046FCF751FC00BF00BFBCE72846FFF7AD
:1038E00009FF2C68606D18B90A480068A06501E0FE
:1038F000606DA06500BF00BF3046FCF73DFC00BF17
:1039000000BF00BFA7E70000A4000020002C00209B
:103910009C000020A00000200021034A1160034AFF
:103920001180018070470000A8000020AC0000203A
:103930002DE9FF5F0446884691461D460020019010
:1039400000BF00BFFCF714FC019000BF00BF04F1F2
:103950000807388900284FD10420012804D0022804
:1039600014D0042834D123E0206AFF280DD100BFF1
:1039700000BF0198FCF700FC00BF00BF46F6C55031
:103980002880002004B0BDE8F09F22E04FF6FF71D0
:10399000206A88420BD100BF00BF0198FCF7ECFB06
:1039A00000BF00BF46F6C55028800020EAE710E0BF
:1039B000206A401C58B900BF00BF0198FCF7DCFB2F
:1039C00000BF00BF46F6C55028800020DAE700E0BF
:1039D00000BF00BF206A401C2062D4F820A0C4F8B9
:1039E000249000BF00BF0198FCF7C6FB00BF00BFDA
:1039F000002028805046C5E700BF25480078401CBD
:103A00002349087000BF00BF0198FCF7B5FB00BF59
:103A100000BF00BF08F4007008B13E8900E0012635
:103A2000D7F800B011E0DBF808000290DBF80400E2
:103A3000039000231A46CDF8009020460299FFF724
:103A400087FCDDF80CB0701E86B2002EEBD1D4F8E6
:103A500020A000BF00BF00BFFCF78AFB019000BFA1
:103A600000BF0B480078401E0949087000BF00BF26
:103A70000198FCF781FB00BF00BF00BF08F40040C5
:103A800008B9FDF7E5FC0020288050467AE70000E1
:103A90009C00002086B00020009000BF06E0C349D3
:103AA0000968480001AA0021FEF7E8FBC048007839
:103AB0000128F4D101A8FDF709FE0027BD480068E0
:103AC000BA490968884205D9BA480068B7490968FF
:103AD000B0FBF1F727B9B74800680A21B0FBF1F74E
:103AE00062E1FCF7E1FE804600BF00BFFCF740FB4F
:103AF000009000BF00BFB0480068B04908600020D7
:103B0000AD49086000BF00BF0098FCF735FB00BF5F
:103B100000BFAB480068A9490968884248D9A8484D
:103B20000068A849884205D242F210700390012033
:103B3000029023E0A2480068A349884205D24FF4CE
:103B40007A7003900A20029018E09D4800689F490F
:103B5000884203D26420039002900FE098480068E6
:103B60009B49884205D20A2003904FF47A70029054
:103B700004E00120039042F2107002909048016826
:103B80000298B1FBF0FA8D49039809684843B0FBED
:103B9000FAF042F21071081A8E4908808E480088A7
:103BA0000988884208DA8B4800888B49088003E03E
:103BB00042F2107087490880FDF79CFE002500BF87
:103BC00000BFFCF7D5FA009000BF00BF834804682F
:103BD00000BF00BF0098FCF7CFFA00BF00BF5AE05B
:103BE00000BF00BF00BFFCF7C3FA009000BF00BFDA
:103BF0007B480078401C7A49087000BF00BF0098DD
:103C0000FCF7BAFA00BF00BF00BF54F89C0F606019
:103C1000002044F89C0900BF00BF00BFFCF7A8FAD1
:103C2000009000BF00BF6E480078401E6C490870CD
:103C300008460078A0B96B480088002809DD00BF5D
:103C400000BF0098FCF798FA00BF00BFFFF7A2FD85
:103C50000DE000BF00BF0098FCF78EFA00BF06E041
:103C600000BF00BF0098FCF787FA00BF00BF00BF8D
:103C7000D4F8A000054400BF00BFFCF779FA00901B
:103C800000BF00BFD4F8BC4000BF00BF0098FCF7E5
:103C900073FA00BF00BF002CA2D145B3494885424A
:103CA00005D242F2107005904FF0010B1BE0464820
:103CB000854205D24FF47A7005904FF00A0B12E05E
:103CC0004248854203D26420059083460BE0404879
:103CD000854204D20A2005904FF47A7B03E001204C
:103CE000059042F2107BB5FBFBF0049003E000204E
:103CF00005900120049000BF00BFFCF739FA009046
:103D000000BF00BF3548046800BF00BF0098FCF743
:103D100033FA00BF00BF2BE0D4F8A0000599484358
:103D20000499B0FBF1F086B242F21070864200D9DD
:103D30000646A4F88C60B4F88E00B04201DAA4F80C
:103D40008E6001AB04F1AC02111D2046FEF758F95C
:103D500000BF00BFFCF70CFA009000BF00BFD4F812
:103D6000BC4000BF00BF0098FCF706FA00BF00BFD0
:103D7000002CD1D11C480078012805D100201A4917
:103D8000087001A8FDF7A2FCFCF78EFDA0EB080966
:103D900016480068484502D21448C0F8009001AAAD
:103DA00000213846FEF76AFA9BE60000CC9700082F
:103DB000C0000020E4970008B4000020BC000020F0
:103DC000B8000020801A060000093D00005A620277
:103DD0000084D717B0000020B2000020CC000020E3
:103DE0009C00002060000020AE000020C4000020E5
:103DF00010B58AB0044600201F4908601F490860BA
:103E00001F4908601F4908701F4908701F48006853
:103E100020B946F62B6020800AB010BD1C4800680F
:103E20001C490968884203D246F62C602080F3E7DB
:103E3000194800783F2803D346F62A602080EBE734
:103E4000032000210591CDE9070406910846104999
:103E50000968124A12680D4B1B68CDE90132CDE9A1
:103E600003100D48007800230D4A0EA1009012485F
:103E7000FDF74AFD00BFCFE7B4000020BC000020E2
:103E8000B8000020C0000020AE000020D09700083D
:103E9000D8970008E0970008C8970008D497000852
:103EA000953A000875432F4F532D494949205374C3
:103EB0006174205461736B009430002038B504465F
:103EC0000D4685B16B4602222946204600F09EFD34
:103ED000BDF8000018B9032084F8360006E002207F
:103EE00084F8360002E0022084F836002046FFF70E
:103EF00023FC38BD0021C0F8B8100949096819B978
:103F00000021C0F8BC1007E005490968C0F8BC10E2
:103F100003490968C1F8B80001490860704700000A
:103F2000CC000020D0F8B820D0F8BC104AB90D4B16
:103F3000196011B10023C1F8B8300023C0F8BC30BB
:103F40000FE029B90023C2F8BC30C0F8B83008E04F
:103F5000C2F8BC10C1F8B8200023C0F8BC30C0F8CB
:103F6000B8307047CC0000200021044A1160044A98
:103F70001180044A1160018070470000CC000020CD
:103F8000D0000020C800002070B50446002020604A
:103F9000A0606060E06020616061A061E06129A0D4
:103FA000206200206062A062E0622064E065A4F804
:103FB0006000002104F16400FFF744F8002044F899
:103FC000740F6060E060A0822061743C002506E010
:103FD000002104F17C0040F82510681CC5B2002DBA
:103FE000F6D000203434206120676067606084F878
:103FF0005600E067A06720814FF00040606100201C
:10400000A061E06120626062A4F85800A4F85A0040
:10401000E0652066FCF748FC064666660020A06660
:10402000C4F8800020706070A0704020E070002014
:10403000C4F88400C4F8880004A0C4F88C00343CA0
:1040400070BD00003F5461736B0000002000000051
:104050002DE9FC4704460F4690469946DDE90A657E
:104060004FF0000A00BF00BF00BFFCF781F8824696
:1040700000BF00BF76480078401C7549087000BF3B
:1040800000BF5046FCF778F800BF00BF00BF0CB976
:10409000704804680020288094F8360008287DD2F3
:1040A000DFE800F004053E3F0607404100BF00BFC7
:1040B00000BF4B464246394604F16400CDE9006535
:1040C000FEF7C8FF00BF00BF00BFFCF751F88246F3
:1040D00000BF00BF5E480078401E5D49087008467A
:1040E0000078A0B95C480088002809DD00BF00BF47
:1040F0005046FCF741F800BF00BFFFF74BFB0DE057
:1041000000BF00BF5046FCF737F800BF06E000BF15
:1041100000BF5046FCF730F800BF00BF00BF93E07F
:1041200000BF00BF00BF94F83400022821D14346ED
:104130003A46214600200096FFF70AF900BF00BF6B
:1041400000BFFCF715F8824600BF00BF404800786A
:10415000401E3F49087000BF00BF5046FCF70CF8F6
:1041600000BF00BF00BF09F4004090BBFDF770F92D
:1041700038E04B464246394604F16400CDE900651B
:10418000FEF768FF00BF00BF00BFFBF7F1FF8246EC
:1041900000BF00BF2E480078401E00E023E02C49FD
:1041A000087008460078A8B92B480088002809DD67
:1041B00000BF00BF5046FBF7DFFF00BF00BFFFF7A7
:1041C000E9FA0EE000BF00BF5046FBF7D5FF00BF85
:1041D00007E007E000BF00BF5046FBF7CDFF00BF80
:1041E00000BF00BF30E000BF00BF00BFFBF7C0FF53
:1041F000824600BF00BF16480078401E1449087070
:1042000008460078A0B914480088002809DD00BFDE
:1042100000BF5046FBF7B0FF00BF00BFFFF7BAFA80
:104220000DE000BF00BF5046FBF7A6FF00BF06E051
:1042300000BF00BF5046FBF79FFF00BF00BF00BF9D
:1042400046F62D60288000BF00BFBDE8FC87000057
:104250009C000020F40000206000002010B50446FF
:10426000204600F0B1FC94F8360000F0040010B9CC
:104270002046FFF7EBF910BD70B504460D46002649
:1042800000BF00BFFBF774FF064600BF00BF002061
:10429000288094F8360008287BD2DFE800F0040577
:1042A00006071243556700BF00BF00BF00BF00BF35
:1042B0003046FBF761FF00BF00BF47F25310288074
:1042C00072E000BF3B480078401C3A49087000BFCC
:1042D00000BF3046FBF750FF00BF00BF00BF14F81F
:1042E0008A0F401E207014F88A0928B9002084F82B
:1042F00036002046FFF7B2FF00BF00BF00BFFBF74C
:1043000037FF064600BF00BF2A480078401E2949F3
:10431000087000BF00BF3046FBF72EFF00BF00BF94
:1043200000BF41E014F88A0F401E207014F88A097B
:1043300010B9012084F8360000BF00BF3046FBF7FB
:104340001BFF00BF00BF2FE014F88A0F401E207033
:1043500014F88A0910B9022084F8360000BF00BFA3
:104360003046FBF709FF00BF00BF1DE014F88A0FBD
:10437000401E207014F88A0910B9032084F8360012
:1043800000BF00BF3046FBF7F7FE00BF00BF0BE0E9
:10439000FFE700BF00BF3046FBF7EEFE00BF00BFE7
:1043A00046F62D60288070BD00BFFDF751F800BFB4
:1043B000F9E700009C00002008B504480068FDF7FC
:1043C00009FD69460020FDF7D9FB08BDF400002077
:1043D0002DE9F8430446884617461D464FF000096C
:1043E00000BF00BF00BFFBF7C3FE814600BF00BF98
:1043F000FE480078401CFD49087000BF00BF4846D9
:10440000FBF7BAFE00BF00BF00BF0CB9F848046854
:1044100027640020288094F83600082871D2DFE84D
:1044200000F00405EBEC0607EDEE00BF00BF00BF97
:104430000420012804D0022839D004286FD170E06C
:10444000606CFF2832D100BF00BF00BFFBF790FEB9
:10445000814600BF00BFE5480078401EE349087070
:1044600008460078A0B9E3480088002809DD00BFAD
:1044700000BF4846FBF780FE00BF00BFFFF78AF988
:104480000DE000BF00BF4846FBF776FE00BF06E028
:1044900000BF00BF4846FBF76FFE00BF00BF00BF74
:1044A00046F6C55028800020BDE8F88371E04FF63D
:1044B000FF71606C884233D100BF00BF00BFFBF7C3
:1044C00057FE814600BF00BFC8480078401EC7495C
:1044D000087008460078A8B9C6480088002809DD99
:1044E00000BF00BF4846FBF747FE00BF00BFFFF715
:1044F00051F90EE000BF00BF4846FBF73DFE00BF8C
:1045000007E08DE100BF00BF4846FBF735FE00BF66
:1045100000BF00BF46F6C55028800020C4E737E042
:1045200037E0606C401C88BB00BF00BF00BFFBF7DA
:104530001FFE814600BF00BFAC480078401EAB495B
:10454000087008460078A0B9AA480088002809DD4C
:1045500000BF00BF4846FBF70FFE00BF00BFFFF7DC
:1045600019F90DE000BF00BF4846FBF705FE00BF8C
:1045700006E000BF00BF4846FBF7FEFD00BF00BFDE
:1045800000BF46F6C550288000208DE7FFE700E019
:1045900000BF00BF606C401C6064666C00BF00BF61
:1045A00000BFFBF7E5FD814600BF00BF8F480078E4
:1045B000401E8E49087008460078A0B98D480088D2
:1045C000002809DD00BF00BF4846FBF7D5FD00BF4E
:1045D00000BFFFF7DFF80DE000BF00BF4846FBF764
:1045E000CBFD00BF06E000BF00BF4846FBF7C4FD9F
:1045F00000BF00BF00BF45E100BF00BF00BF94F88F
:104600003400072823D100231A4621461846009774
:10461000FEF79EFE666C00BF00BF00BFFBF7A8FD63
:10462000814600BF00BF71480078401E6F49087086
:1046300000BF00BF4846FBF79FFD00BF00BF00BFA3
:1046400008F40040002801D1FCF702FFE7E0042055
:10465000012804D0022838D004286ED16EE0606CA6
:10466000FF2831D100BF00BF00BFFBF781FD8146AD
:1046700000BF00BF5D480078401E5C4908700846D6
:104680000078A0B95B480088002809DD00BF00BFA2
:104690004846FBF771FD00BF00BFFFF77BF80DE058
:1046A00000BF00BF4846FBF767FD00BF06E000BF44
:1046B00000BF4846FBF760FD00BF00BF00BF46F6E5
:1046C000C55028800020EFE670E04FF6FF71606C67
:1046D000884231D100BF00BF00BFFBF749FD8146D2
:1046E00000BF00BF41480078401E4049087008469E
:1046F0000078A0B93F480088002809DD00BF00BF4E
:104700004846FBF739FD00BF00BFFFF743F80DE057
:1047100000BF00BF4846FBF72FFD00BF06E000BF0B
:1047200000BF4846FBF728FD00BF00BF00BF46F6AC
:10473000C55028800020B7E638E036E0606C401CA9
:1047400088BB00BF00BF00BFFBF712FD814600BF62
:1047500000BF26480078401E2449087008460078AB
:10476000A0B924480088002809DD00BF00BF4846E2
:10477000FBF702FD00BF00BFFFF70CF80DE000BF24
:1047800000BF4846FBF7F8FC00BF06E000BF00BFD3
:104790004846FBF7F1FC00BF00BF00BF46F6C5501E
:1047A0002880002080E6FFE700E000BF00BF606CCB
:1047B000401C6064666C00BF00BF00BFFBF7D8FC04
:1047C000814600BF00BF09480078401E07490870B5
:1047D00008460078D8B907480088002810DD00BFD7
:1047E00000BF4846FBF7C8FC00BF05E09C00002066
:1047F000F40000206000002000BFFEF7CBFF0DE0BA
:1048000000BF00BF4846FBF7B7FC00BF06E000BF93
:1048100000BF4846FBF7B0FC00BF00BF00BF31E05F
:1048200000BF00BF00BFFBF7A3FC814600BF00BF75
:1048300016480078401E1549087008460078A0B94F
:1048400013480088002809DD00BF00BF4846FBF779
:1048500093FC00BF00BFFEF79DFF0DE000BF00BF4F
:104860004846FBF789FC00BF06E000BF00BF484692
:10487000FBF782FC00BF00BF00BF46F62D6028801A
:10488000002600BF00BF30460EE600009C0000205E
:104890006000002070B504460D46002600BF00BF32
:1048A000FBF766FC064600BF00BF0CB94B48046826
:1048B0004A48006884420ED14948007800280ADD41
:1048C00000BF00BF3046FBF757FC00BF00BF46F6F5
:1048D0006350288070BD0020288094F83600082896
:1048E0006CD2DFE800F004313F4D5B5C5D5E00BFE1
:1048F0003B480078401C3A49087000BF00BF304672
:10490000FBF73AFC00BF00BF00BF042084F836006C
:10491000012084F88A002046FEF70EFF00BF00BF8A
:1049200000BFFBF725FC064600BF00BF2C480078FF
:10493000401E2B49087000BF00BF3046FBF71CFC2F
:1049400000BF00BF00BF44E0052084F8360001200E
:1049500084F88A0000BF00BF3046FBF70DFC00BFA3
:1049600000BF36E0062084F83600012084F88A0073
:1049700000BF00BF3046FBF7FFFB00BF00BF28E0D1
:10498000072084F83600012084F88A0000BF00BFA9
:104990003046FBF7F1FB00BF00BF1AE000BF00BFCD
:1049A00000BF94F88A00401C84F88A0000BF00BF52
:1049B0003046FBF7E1FB00BF00BF0AE000BF00BFCD
:1049C0003046FBF7D9FB00BF00BF46F62D602880BC
:1049D00080E700BFFCF73CFD00BF7BE7F400002050
:1049E0009C000020002108E0064A02EBC1000022E2
:1049F00002608280C2804A1C91B2034A12889142AE
:104A0000F2DB7047F0280020FC9700082DE9F04FFA
:104A10000C4616461D46042E1ED1DFF8A091D9F88B
:104A20000090A4EB0909A9F1010313F5803F0DD90A
:104A30004FF00009C0F84C90C0F85090C0F81C909E
:104A400047F27E29A5F80090BDE8F08FC46403F119
:104A50000109C0F850903FE084B3082E25D1D0F86A
:104A6000489009EB0407DFF85491D9F80090A7EBC0
:104A70000909A9F10103A34201D2C76406E0DFF8E6
:104A80003C91D9F80090A144C0F84C90DFF82CA1DB
:104A9000D0F84C90DAF800A0A9EB0A09C0F85090C1
:104AA000D0F84C90C0F8489016E0DFF81091D9F893
:104AB0000090A144C0F84C9004650DE0FFE74FF072
:104AC0000009C0F84C90C0F85090C0F81C9047F214
:104AD0007E29A5F80090B7E7DFF8E4A0BAF800A0B7
:104AE000D0F84C90B9FBFAFB0AFB1B991FFA89F826
:104AF000DFF8D09009EBC802B2F80490B9F1000FCA
:104B00000BD14FF00009C0F81490C0F81890106055
:104B10004FF00109A2F804903EE0116834E0DFF89C
:104B20009CA0D1F84C90DAF800A0A9EB0A09C1F8D2
:104B30005090D0F85090D1F850A0D1450ED9D1F86E
:104B40001490B9F1000F01D049691DE04FF0000940
:104B5000C0F8149081614861002115E0D1F81890E7
:104B6000B9F1000F07D14FF00009C0F8189041616A
:104B70008861106007E0D1F818C0C0F818C0416122
:104B8000CCF81400886100210029C8D1B2F8049043
:104B900009F10109A2F80490B2F80690B2F804A055
:104BA000D14503DAB2F80490A2F80690C2614FF042
:104BB0000009A5F8009000BF46E70000D4000020DF
:104BC000FC970008F028002010B5C269BAB1002493
:104BD00004651468844205D14169116039B100242B
:104BE0008C6104E0816943694B6103B199610024E0
:104BF00044618461C461C4649488641E948010BD5F
:104C0000002006E0054A02EBC0010022CA80421CD7
:104C100090B2034A12889042F4DB7047F0280020DB
:104C2000FC9700082DE9F05F4FF0000B00BF00BFBC
:104C300000BFFBF79DFA834600BF00BF71480078B4
:104C4000401C7049087000BF00BF5846FBF794FA3B
:104C500000BF00BF00BFFBF727FE05466A4800689B
:104C6000401C694908600846006868490988B0FB2B
:104C7000F1F201FB12001FFA80FA654800EBCA0846
:104C8000D8F80040002782E0002C7FD0D4F81490A0
:104C900094F83600082875D2DFE800F00408051BF8
:104CA000063D075000BF00BF00BF6CE05649E06CF6
:104CB0000968401A20655449E06C0968884206D1A9
:104CC000002084F836002046FFF7C8FA00E00127EC
:104CD00059E04D49E06C0968401A20654A49E06C8A
:104CE0000968884215D10020E065A4F86000FBF750
:104CF000DBFD20642046FEF7F2FA2046FFF7AEFA0D
:104D000000203434A07003206070002004F83409BF
:104D100000E0012737E03C49E06C0968401A206553
:104D20003949E06C0968884206D1042084F83600CD
:104D30002046FFF749FF00E0012724E03249E06CFC
:104D40000968401A20653049E06C0968884217D12B
:104D50000020E065A4F86000FBF7A6FD2064204673
:104D6000FEF7BDFA2046FFF72FFF04203434A07071
:104D700003206070002004F8340902E006E001E03E
:104D8000012700E000BF00BF4C4600E00127002FD4
:104D90003FF47AAFFBF788FD461B1E480068B0421F
:104DA00001D21C48066000BF00BF00BFFBF7E0F95E
:104DB000834600BF00BF13480078401E11490870A9
:104DC00008460078A0B914480088002809DD00BF13
:104DD00000BF5846FBF7D0F900BF00BFFEF7DAFC72
:104DE0000DE000BF00BF5846FBF7C6F900BF06E064
:104DF00000BF00BF5846FBF7BFF900BF00BF00BFB0
:104E0000BDE8F09F9C000020D4000020FC97000823
:104E1000F0280020D8000020600000201CB500BF52
:104E20000EE001AB6A4600210846FCF7DFFFBDF843
:104E3000040028B903480078012801D1FFF7F2FEE9
:104E4000EFE700005500002010B58AB004460020AE
:104E50001D4908601D490860FFF7C4FD1C48006833
:104E600020B947F2122020800AB010BD194800680E
:104E700019490968884203D247F213202080F3E7DA
:104E8000164800783F2803D347F211202080EBE733
:104E90000B20002105910A46CDE9070406910D4833
:104EA00000680F4909680A4B1B68CDE90131CDE95B
:104EB00003020A48007800230A4A0BA100900F4819
:104EC000FCF722FD00BFCFE7D4000020D80000206F
:104ED000EC970008F4970008E0970008E8970008AE
:104EE000F09700081D4E000875432F4F532D494978
:104EF00049205469636B205461736B005831002062
:104F000070B58AB004460020314908603148006815
:104F100040B1314800682F490968B0FBF1F02F49D2
:104F2000086006E02C4800680A21B0FBF1F02B492C
:104F300008602A4800682A4908600020294908605A
:104F400029490860002508E0284800EBC506002034
:104F5000B080F0803060681C85B2254800888542AA
:104F6000F2DB2448006820B947F2473020800AB0BD
:104F700070BD2148006821490968884203D247F280
:104F800048302080F3E71E4800783F2803D347F2DB
:104F900046302080EBE70B2000210591CDE9070486
:104FA0000691084614490968164A1268114B1B6895
:104FB000CDE90132CDE90310114800780023124AEF
:104FC00012A100901748FCF79FFC00BFCFE700003C
:104FD000DC00002008980008E4970008EC0000209E
:104FE000F0000020E8000020E4000020782B0020E2
:104FF0001C9800080C98000814980008E097000816
:1050000004980008109800081D51000875432F4FA0
:10501000532D4949492054696D6572205461736B61
:10502000000000001C320020F0B50C46022680F87B
:105030002A60012C05D12D4F466A3F683E448661A7
:105040000CE0066A2EB9294F466A3F683E448661E5
:1050500004E0264F066A3F683E448661244F3F883D
:105060008669B6FBF7FC07FB1C66B5B2214E06EB62
:10507000C502166836B90026066146611060012631
:1050800096802CE0194F86693F68F61BC66111684F
:1050900020E0164F8E693F68F61BCE61C669CF6966
:1050A000BE4209D90E690EB1096913E000260661F6
:1050B0004161086100210DE04E692EB9002646616C
:1050C00001614861106004E04B694361016118614E
:1050D000486100210029DCD19688761C9680D6880C
:1050E0009788BE4201DA9688D680F0BDE80000209D
:1050F0001C980008782B0020002006E0054A02EBEF
:10510000C0010022CA80421C90B2034A1288904219
:10511000F4DB7047782B00201C9800081CB500BFFA
:1051200053E001AB6A4600210846FCF75FFE01A888
:10513000FCF7E2F9FBF7B8FB064624480068401C80
:10514000224908600846006821490988B0FBF1F24D
:1051500001FB12001FFA80FA1E4800EBCA08D8F8BB
:1051600000404FF0000B21E0F4B1D4F81090174943
:10517000A0690968884214D1204600F02FF8208DDC
:10518000022804D101212046FFF74EFF02E0032050
:1051900084F82A00A56815B12046E168A8474C4666
:1051A00004E04FF0010B01E04FF0010BBBF1000FE9
:1051B000DAD0FBF779FB871B01A8FCF709FA064850
:1051C0000068B84201D204480760AAE7E80000205E
:1051D0001C980008782B0020E4000020F0B5114E48
:1051E00036888569B5FBF6F706FB1755ACB20E4D50
:1051F00005EBC4021568854205D10169116039B11A
:1052000000254D6104E0416903690B6103B15961F7
:10521000012580F82A5000250561456195886D1E9D
:105220009580F0BD1C980008782B00200149086289
:105230007047000000000E4229B1064A526902433D
:10524000044B5A6104E0034A52698243014B5A619C
:10525000704700000010024029B1064AD26902439B
:10526000044BDA6104E0034AD2698243014BDA61FC
:10527000704700000010024029B1064A92690243BB
:10528000044B9A6104E0034A92698243014B9A619C
:10529000704700000010024001490860704700009C
:1052A0004004424230B500210022002400232D4D4D
:1052B0006D6805F00C0121B1042905D0082923D11E
:1052C00005E0294D056022E0274D05601FE0254DD2
:1052D0006D6805F47012234D6D6805F48034022565
:1052E00005EB92421CB9214D554305600BE01D4D65
:1052F0006D6805F400351DB11C4D5543056002E095
:10530000194D5543056002E0174D056000BF00BF11
:10531000144D6D6805F0F0010909154D6B5C0568C9
:10532000DD4045600F4D6D6805F4E061090A104DE0
:105330006B5C4568DD4085600A4D6D6805F4605121
:10534000C90A0B4D6B5C4568DD40C560054D6D6855
:1053500005F44041890B074D6B5CC568B5FBF3F55F
:10536000056130BD0010024000127A0000093D00C6
:10537000000000201000002010B50146002200238C
:1053800000204A11012A02D1094C236806E0022AB2
:1053900002D1074C236A01E0054C636A01F01F0249
:1053A000012494401C400CB1012000E0002010BDFD
:1053B0000010024000210B4A11700A4A203A82F87C
:1053C0002010012802D0042808D103E00121054A59
:1053D000117004E00521034A117000E000BF00BF16
:1053E000704700002010024001490860704700002B
:1053F0003C0442420249096A0143014A1162704772
:1054000000100240024909888143014A1180704717
:10541000042800400348008840F01000014908803B
:105420007047000004280040034800884FF6EF71E1
:1054300008400149088070470428004070B50026E4
:105440000024002500F07AF806463848B6FBF0F450
:1054500037480088A0423CD035490C8040F2B275F4
:1054600010E02846FBF744FB40B1B4F5B77F02D308
:10547000A4F5B77404E0681C85B206E0A4F26D14CC
:10548000681C85B2B4F5B67FEBD800BF294885808B
:10549000002516E027498888FBF72AFB30B1012D4B
:1054A00004D11D2C01D31D3C09E00CE02248405DD5
:1054B000A04203D82048405D241A00E003E0681CA5
:1054C00085B21C2CE6D200BF681C1A498871601C8A
:1054D000C8711648B6FBF0F100FB11644FF461602F
:1054E000B4FBF0F0134908704FF46160B4FBF0F1C5
:1054F00000FB11403C21B0FBF1F00E4948704FF425
:105500006160B4FBF0F100FB11403C21B0FBF1F213
:1055100001FB1200074988700B46DA79997998885F
:1055200000F028F803490872002070BD8051010086
:105530002200002054170020529700080021034841
:105540000188001F008841EA004070471C28004085
:1055500001460020064A12880A40D0B2044A121FAF
:1055600012880A4012B108B1012000E00020704703
:1055700004280040F0B503460C461546642093FB12
:10558000F0F0C6B2642093FBF0F700FB1730C1B215
:10559000132E02DD01F16400C1B20846CF1701EB02
:1055A000977701EBA707BAB2072092FBF0F700FB51
:1055B000172082B25719601EDFF82CC01CF80000BB
:1055C000384482B2CF1701EB9777BF10A1EB870762
:1055D0001FB9032C01DA501E82B2072092FBF0F7AC
:1055E00000FB1720C0B2F0BD4697000810B501209F
:1055F000FFF7AEFF20B1012009490870FFF71EFF39
:105600000220FFF7A5FF20B10220FFF7FBFEFFF706
:1056100015FF0520FFF7F6FE00F006F910BD0000AB
:105620002000002029B1064A12880243044B1A8048
:1056300004E0034A12888243014B1A80704700003D
:10564000002800401CB5002401214FF0C050FFF796
:1056500003FE0120FFF7EAFD0420FBF7B3F84AF24E
:10566000A001884240D0FBF7A5F80120FFF7A2FE79
:1056700004E0601CC4B20A2001F0B6FA4120FFF732
:105680007BFE08B9FA2CF4DBFA2C01DB01201CBDEF
:105690004FF48070FFF7AEFE0120FFF7A5FE00F08B
:1056A000C3F800F0CBF801210846FFF7BBFF00F07C
:1056B000BBF8FFF7AFFE47F6FF7000F0A5F800F06B
:1056C000B3F83720222111231622CDE9001003213F
:1056D00040F2E17000F026F8FFF7A6FE4AF2A001C2
:1056E0000420FBF77DF807E000F0A8F80121084648
:1056F000FFF798FF00F098F800F004F8FFF79EFE1F
:105700000020C4E708B503208DF8000000208DF8C4
:1057100001008DF8020001208DF803006846FBF7B8
:1057200063FC08BD2DE9F05F06460F46904699469A
:10573000DDE90AAB002440F2B270864203DB40F69A
:105740003300864202DD0120BDE8F09F40F2B275D1
:105750000AE02846FBF7CCF910B12048044401E0E8
:105760001F480444681C85B2B542F2DB781EC7B2FC
:10577000002510E01B48405D40F2A321484304EBA4
:10578000C0143046FBF7B4F918B1012D01D1164809
:105790000444681C85B2BD42ECDBA8F1010040F274
:1057A000A321484304EBC014C9EB4910C0EB092006
:1057B00004EB0014CAEB0A1004EB80045C440121E2
:1057C0004FF0C050FFF748FD0120FFF72FFD2046A6
:1057D00000F00CF800F028F80020B5E70085E201A1
:1057E0008033E101529700088051010000B5024664
:1057F000FFF710FE100C03490880091D0A80FFF70F
:1058000013FE00BD1828004000B50246FFF702FE57
:10581000C2F3034003490880091D0A80FFF704FE14
:1058200000BD00000828004000BF0348008800F0C9
:1058300020000028F9D0704704280040074800885D
:105840004FF6F77108400549088000BF03480088FB
:1058500000F008000028F9D070470000042800403C
:1058600086B04FF6E0702649088026A01021CDE9C9
:1058700000102948438802880A210846FBF71EFBCE
:10588000FFF7E0FE01F018FA01F03CFA37E0234898
:10589000007801281AD1224B9A785978187801F0AB
:1058A000ABFD00201D490870FFF7C8FD1C4880783B
:1058B00000901B48437802781AA102A800F082FCED
:1058C000174B9A785978187801F0EEFB01F0F4F94B
:1058D00001F018FA02A81021CDE900100E48438803
:1058E000028832215020FBF7E9FA05A8082132236B
:1058F0000022CDE9001011461046FCF74BFDC6E72B
:105900001400002054686973206973206120525488
:1059100043207465787421001800002020000020C6
:1059200054170020252E32643A252E32643A252E53
:1059300032640000704710B500F002F810BD00009E
:105940000CB50020019000903348006840F480308E
:105950003149086000BF3048006800F40030009012
:105960000198401C0190009818B90198B0F5A06FFB
:10597000F1D12948006800F4003010B101200090F6
:1059800001E0002000900098012843D123480068DE
:1059900040F01000214908600846006820F003002C
:1059A00008600846006840F0020008601A48406835
:1059B000194948600846406848600846406840F415
:1059C000806048600846406820F47C1048600846C3
:1059D000406840F4E81048600846006840F0807075
:1059E000086000BF0C48006800F000700028F9D083
:1059F0000948406820F003000749486008464068AD
:105A000040F00200486000BF0348406800F00C000E
:105A10000828F9D10CBD000000100240002002400F
:105A2000042808D14FF0E021096941F004014FF04A
:105A3000E022116107E04FF0E021096921F0040143
:105A40004FF0E0221161704710B505480078012839
:105A500005D1FBF775FCFCF795FDFBF787FC10BD46
:105A60005500002070B504466FF00400FFF7D8FF22
:105A70002046E11704EB5171C1F3C701114A1170BF
:105A8000E11704EB5171CD100F4800680F49B1FBCD
:105A9000F0F045430C4800684FF47A71B1FBF0F028
:105AA0000B4908804FF0E020006940F002004FF001
:105AB000E021086108464561006940F00100086185
:105AC00070BD000024000020E497000840420F0051
:105AD0002600002010B51348006840F0010011496D
