:020000040800F2
:1000000040D0002045010008B1130008510A000843
:10001000AD1300082F0200082B2500080000000087
:10002000000000000000000000000000151D000896
:10003000330200080000000039140008291E0008DF
:100040005F0100085F0100085F0100085F01000810
:100050005F0100085F0100085F0100085F01000800
:100060005F0100085F0100085F0100085F010008F0
:100070005F0100085F0100085F0100085F010008E0
:100080005F0100085F0100085F0100085F010008D0
:100090005F0100085F0100085F0100085F010008C0
:1000A0005F0100085F0100085F0100085F010008B0
:1000B0005F0100085F0100085F0100085F010008A0
:1000C0005F0100085F0100085F0100085F01000890
:1000D0005F010008692200085F0100085F01000855
:1000E0005F0100085F0100085F0100085F01000870
:1000F0005F0100085F0100085F0100085F01000860
:100100005F0100085F0100085F0100085F0100084F
:100110005F0100085F0100085F0100085F0100083F
:100120005F0100085F0100085F0100085F0100082F
:10013000DFF80CD000F04AF8004800479547000867
:1001400040D000200648804706480047FEE7FEE70B
:10015000FEE7FEE7FEE7FEE7FEE7FEE7FEE7FEE777
:10016000691E0008310100082DE9F05F05460020F6
:1001700092469B4688460646814640241BE0284618
:1001800041464746224600F042F853465A46C01AB6
:10019000914110D311461846224600F029F82D1A35
:1001A00067EB01084F4622460120002100F020F8AD
:1001B00017EB00094E41201EA4F10104DFDC484684
:1001C00031462A464346BDE8F09F0000064C074DE5
:1001D00006E0E06840F0010394E807009847103417
:1001E000AC42F6D3FFF7A8FFA41C0308C41C030805
:1001F000202A04DB203A00FA02F1002070479140E7
:10020000C2F1200320FA03F3194390407047202ADB
:1002100004DB203A21FA02F00021704721FA02F3B0
:10022000D040C2F12002914008431946704700BFF8
:10023000FEE7704710B50446214610A002F082FB8D
:10024000240300F043F900F0DBF800200D490860BA
:10025000202001F0F7FCC4F3074001F0F3FCC4F3E5
:10026000072001F0EFFCE0B201F0ECFC01200649B0
:10027000C1F8B40100F0C4F810BD000066653A256D
:10028000780D0A00B40124420000244208B501217F
:100290004FF4C47001F0F2F84FF40050ADF80000D4
:1002A00010208DF8030003208DF8020069461E48D7
:1002B00000F0B9FA4FF400511B4800F04AFB4FF42C
:1002C0008040ADF800006946174800F0ACFA4FF4E2
:1002D0008041154800F03DFB4FF48050ADF8000020
:1002E00010208DF803006946104800F09CFA4FF486
:1002F00080510E4800F02DFB4FF40070ADF8000067
:1003000069460B4800F08FFA4FF40071084800F07E
:1003100020FB01200749086001F04EFC00F036F890
:100320000549088008BD000000200140000C014084
:10033000001C0140B4012442220000202DE9F041BC
:1003400006460C46174600200F490860032001F0BE
:1003500079FCC4F3074001F075FCC4F3072001F0F9
:1003600071FCE0B201F06EFC002505E0FF2001F019
:1003700069FC7055681C85B2BD42F7DB012002495B
:100380000860BDE8F0810000B401244210B50024EB
:1003900000200E490860902001F054FC002001F07C
:1003A00051FC002001F04EFC002001F04BFCFF202E
:1003B00001F048FC44EA0024FF2001F043FC044320
:1003C00001200349C1F8B401204610BDB401244204
:1003D0000000244210B500240020074908600520D1
:1003E00001F030FCFF2001F02DFC04460120034900
:1003F000C1F8B401204610BDB401244200002442DB
:1004000010B500BFFFF7E6FF00F001000028F9D1AA
:1004100010BD00002DE9F05F81460F461646DFF85B
:10042000A8B04FEA1738C7F30B0ACAF58054A642A2
:1004300000DC344644E04FEA08314FF4805258461D
:10044000FFF77CFF002508E00AEB05001BF8000021
:10045000FF2800D003E0681C85B2A542F4DB00BF92
:10046000A54216DA4046FFF7E5FE002507E019F839
:10047000050005EB0A010BF80100681C85B2A542D6
:10048000F5DB4FEA08314FF48052584600F02EF861
:1004900004E022463946484600F028F8A64200D13A
:1004A0000FE008F101084FF0000AA1442744301B77
:1004B00086B2B6F5805F02DD4FF4805400E034462A
:1004C000B9E700BFBDE8F09FD00C002010B50020B8
:1004D00004490860062001F0B5FB01200249C1F87B
:1004E000B40110BDB4012442000024422DE9F041C2
:1004F00007460E461446F0B2C0F58075AC4200DCEB
:10050000254612E02A463146384600F013F8AC4240
:1005100000D10BE02F442E44601B84B2B4F5807FE1
:1005200002DD4FF4807500E02546EBE700BFBDE833
:10053000F08100002DE9F04106460C461746FFF712
:10054000C5FF00200F490860022001F07BFBC4F3C7
:10055000074001F077FBC4F3072001F073FBE0B222
:1005600001F070FB002504E0705D01F06BFB681C7E
:1005700085B2BD42F8DB012002490860FFF740FF69
:10058000BDE8F081B40124422DE9FC4707460C4642
:100590001546002000908046814601AA69463846EB
:1005A00003F055F906468EB901984069801E0199FD
:1005B000897800FB01F901988078009900FB01F827
:1005C0004FEA590020604FEA580028603046BDE8E5
:1005D000FC87000010B500240EE04FF40C710020E1
:1005E00004F0FAFA184941F82400084650F82400AB
:1005F00000B903E0601CC4B2032CEEDB00BF4FF473
:100600000A71002004F0E8FA104908604FF40A71FA
:10061000002004F0E1FA0E4908604FF40071002058
:1006200004F0DAFA0B490860032C0AD10748006885
:1006300038B10748006820B10846006808B10020BA
:1006400010BD0120FCE70000ECC600204C0000209B
:10065000500000205C0000202DE9F04192B00746D8
:100660000D460026284810904FF4807011903946AE
:1006700001A803F066FA8046B8F1000F40D138E0D7
:100680009DF8310000B93AE09DF83000202801D1F2
:10069000012000E000209DF83010102901D1012137
:1006A00000E00021084320B31098007808B11098AA
:1006B00001E00DF131000446002605E02178A81D77
:1006C0008155701CC6B2641C20782E2802D0207878
:1006D0000028F3D10021A81D8155002604E02078D0
:1006E000A855701CC6B2641C20780028F7D1A85504
:1006F0006A350AA901A803F040FB0028C0D000BF5A
:10070000404612B0BDE8F0813CC7002051B18200E4
:10071000A2F1C042126842F001038200A2F1C0427D
:10072000136009E08200A2F1C0421268034B1A4034
:100730008300A3F1C0431A6070470000FEFF0F0062
:10074000D0E901121143C2681143026911434269A1
:10075000114382691143C2691143026A1143426A1B
:100760001143826A1143C26A1143026B114302684A
:100770009200A2F1C0421160816808290BD1016882
:100780008900A1F1C041096841F040020168890077
:10079000A1F1C0410A60416B0968426B526841EAAD
:1007A0000211426B926841EA0221426B928941EA4E
:1007B0000241426B128A41EA0251426B127D41EAC8
:1007C0000261426B926911430268521C9200A2F1CD
:1007D000C0421160C16AB1F5804F1BD1816B0968BD
:1007E000826B526841EA0211826B926841EA0221EF
:1007F000826B128A41EA0251826B127D41EA0261E8
:10080000826B9269114302689200A2F1C042C2F861
:10081000041107E06FF0704201688900A1F1C04146
:10082000C1F8042170472DE9F04102460025002659
:10083000002000230024002791F803C00CF00F05CE
:1008400091F803C00CF0100CBCF1000F03D091F82C
:1008500002C04CEA050591F800C0BCF1000F31D090
:10086000146800202BE04FF0010C0CFA00F3B1F8F3
:1008700000C00CEA03069E4220D183004FF00F0C0B
:100880000CFA03F7BC4305FA03FC4CEA040491F8A4
:1008900003C0BCF1280F06D14FF0010C0CFA00FC8C
:1008A000C2F814C00AE091F803C0BCF1480F05D1AA
:1008B0004FF0010C0CFA00FCC2F810C0401C0828D4
:1008C000D1D31460B1F800C0BCF1FF0F34DD54681F
:1008D00000202EE000F1080C4FF0010808FA0CF39C
:1008E000B1F800C00CEA03069E4221D183004FF00C
:1008F0000F0C0CFA03F7BC4305FA03FC4CEA0404A2
:1009000091F803C0BCF1280F05D100F1080C08FADA
:100910000CF8C2F8148091F803C0BCF1480F07D15D
:1009200000F1080C4FF0010808FA0CF8C2F810802A
:10093000401C0828CED35460BDE8F0810246002058
:1009400093680B400BB1012000E00020704741612B
:10095000704701617047000010B54FF478401849A6
:10096000088018A20021502000F048FB18A2152191
:100970005A2000F07FFA18A22A213C2000F07AFACF
:1009800019A23F214C2000F075FA1BA2542100202F
:1009900000F070FA1CA26921002000F06BFA1FA27F
:1009A000A721002000F066FA20A2BC21002000F060
:1009B00061FA22A2D121002000F05CFA10BD0000F3
:1009C00014000020C6D5D6D0BFC6BCBC00000000B5
:1009D0005052454348494E007777772E70726563D1
:1009E00068696E2E636F6D004D5033B2A5B7C5C6F2
:1009F000F7CAB5D1E9000000D2F4C1BFC9E8D6C337
:100A0000CEAAA3BA32333000D5FDD4DAB2A5B7C529
:100A1000B5C4B8E8C7FACEAAA3BA00004B45595FDF
:100A20005550A3BAD2F4C1BF2B0000004B45595F0B
:100A3000574F574EA3BAD2F4C1BF2D004B45595F53
:100A40005249474854A3BACFC2D2BBC7FA000000EC
:100A50000AE00648006808B9012000E000200349C8
:100A60000860642002F05AFBF3E700008401224290
:100A700008B50121442000F001FD0120ADF800007F
:100A800028208DF8030003208DF8020069460848ED
:100A9000FFF7C9FE1C20ADF8000048208DF80300C8
:100AA00003208DF8020069460248FFF7BCFE08BD2E
:100AB000000801400018014010B5044622480078A3
:100AC000012826D12148006801280AD02048006862
:100AD00038B11F48001F006818B11D48001D00688C
:100AE000B8B90A2002F01AFB00201749087017480D
:100AF0000068012800D110BD1548006808B902201F
:100B0000F9E71348001F006808B90320F3E7042041
:100B1000F1E70E48006878B90D48006801280BD14C
:100B20000B48001F0068012806D10948001D006815
:100B3000012801D104490870012C02D10120024989
:100B400008700020D7E700002400002000012142A7
:100B50000C01234270B506460F484088401E83B200
:100B60000D480088401E82B20021084600F08CF833
:100B700000240CE0002504E0304600F0EFFA681C89
:100B800085B205484088A842F6DC601C84B2024861
:100B90000088A042EEDC70BD1800002000B50246BF
:100BA000B2B9012000F0CEFA4FF4807000F0D0FA14
:100BB000032000F0C7FA41F2300000F0C9FA4FF408
:100BC000C8700E494880F02008800020887114E029
:100BD000012000F0B7FA002000F0BAFA032000F07C
:100BE000B1FA41F2380000F0B3FAF020034948802E
:100BF0004FF4C87008800120887100BD18000020E3
:100C000070B504460D4616462B4622462946204618
:100C100000F03AF8304600F0A1FA70BD2DE9F0433B
:100C200004460D4616461F46DDF81C80B44201DC22
:100C3000BD4201DDBDE8F083781E83B2701E82B232
:100C40002946204600F020F8301B401C84B2781B57
:100C5000401C85B20BE0A94602E0404600F07EFA57
:100C60005FEA0900A9F101011FFA81F9F5D120001D
:100C7000A4F101018CB2EED100BFDBE7014800888E
:100C8000704700000008006C30B505460C462E4841
:100C9000807950BB4FF4047000F054FA284600F0FD
:100CA00057FA40F2112000F04DFA104600F050FAC9
:100CB00040F2122000F046FA204600F049FA40F2D5
:100CC000132000F03FFA184600F042FA4FF400708B
:100CD00000F038FA284600F03BFA40F2012000F01C
:100CE00031FA204600F034FA29E040F2122000F0F8
:100CF00029FA284600F02CFA40F2132000F022FADC
:100D0000104600F025FA4FF4047000F01BFA20465C
:100D100000F01EFA40F2112000F014FA184600F01C
:100D200017FA40F2012000F00DFA284600F010FA00
:100D30004FF4007000F006FA204600F009FA40F285
:100D4000022000F0FFF930BD180000202DE9F84F17
:100D500080460E4617461C46B3462046E31704EB72
:100D60005373DB1021464FEAE47C04EB5C7C4FEAD2
:100D7000EC0CA4EBCC0CBCF1000F02D04FF0010C3A
:100D800001E04FF0000C6344224604EBD27C4FEAB2
:100D90006C0C03FB0CF3DBB20093A7F12000C7B28D
:100DA000002556E00C2C07D107EB47002B4901EB3F
:100DB000800010F8059013E0102C05D1284800EBB6
:100DC000071010F805900BE0182C07D107EBC700AF
:100DD000244901EB800010F8059001E0BDE8F88F90
:100DE0004FF0000A2FE009F0800030B11E48028861
:100DF00031464046FFF704FF07E00A9828B91B4830
:100E0000028831464046FFF7FBFE4FEA49604FEA51
:100E10001069701C86B216484088B04200DCDDE7DD
:100E2000A6EB0B00A0420AD15E4608F101001FFAB2
:100E300080F80F480088404500DCCFE706E00AF163
:100E4000010000F0FF0ABAF1080FCCDB00BF681CFC
:100E5000C5B200988542A5DB00BFBFE7AA4F0008D6
:100E60001E5400080E5A000814000020160000202E
:100E7000180000202DE9F04F89B005460F461446B2
:100E80000026A9E02078802849DA2078A0F1200601
:100E90003601554806441022314601A8FFF74EFAA4
:100EA00007F10F0083B2E81D82B239462846FFF7EA
:100EB000EBFE4FF0000921E001A810F809B04FF057
:100EC000000814E00BF08000802804D14748008817
:100ED00000F044F903E04648008800F03FF94FEA8B
:100EE0004B604FEA106B08F1010000F0FF08B8F109
:100EF000080FE7DB09F1010000F0FF09B9F1100F5D
:100F0000DADB641C05F1080085B23A48008808382D
:100F1000A84261DA002507F1100087B25CE0207872
:100F200081381FFA80FABE200AFB00F694F801A06F
:100F3000BAF17F0F04DAAAF140001FFA80FA03E049
:100F4000AAF141001FFA80FA564476012A48064465
:100F50002022314601A8FFF7F1F907F10F0083B213
:100F600005F10F0082B239462846FFF78DFE4FF09B
:100F7000000821E001A810F808B04FF0000914E0C3
:100F80000BF08000802804D11848008800F0E6F8B3
:100F900003E01748008800F0E1F84FEA4B604FEAA1
:100FA000106B09F1010000F0FF09B9F1080FE7DB50
:100FB00008F1010000F0FF08B8F1200FDADB05F1BD
:100FC000100085B20B4800880F38A84203DA0025CC
:100FD00007F1100087B2A41C207800287FF452AFDC
:100FE00009B0BDE8F08F00004E465D0014000020FF
:100FF0001600002018000020004C5D002DE9F04F85
:1010000091B0074688461446002659E0207881387A
:1010100085B2BE2005FB00F665787F2D03DAA5F1C9
:10102000400085B202E0A5F1410085B22E44C6EB36
:101030008616264806443F22314601A8FFF77EF96E
:1010400008F1140083B207F1170082B24146384616
:10105000FFF71AFE4FF0000921E001A810F809B0CF
:101060004FF0000A14E00BF08000802804D11848EB
:10107000008800F073F803E01648008800F06EF86E
:101080004FEA4B604FEA106B0AF1010000F0FF0AD3
:10109000BAF1080FE7DB09F1010000F0FF09B9F12F
:1010A0003F0FDADB07F1150087B20B4800881538CF
:1010B000B84204DA002708F115001FFA80F8A41CD2
:1010C00020780028A2D111B0BDE8F08F82FC680022
:1010D0001400002016000020180000202DE9F84719
:1010E00004460D4690469946DDE9096704F0FF0A7B
:1010F00008EB04001FFA80F809EB05001FFA80F9DD
:1011000016E0444502DB5446A81985B24D4500DB84
:1011100014E0002000903A78334629462046FFF735
:1011200015FE304606EBD07104EB61018CB27F1CDA
:1011300038787E2802DC38782028E2DA00BFBDE863
:10114000F88700000149088070470000FE07006C26
:1011500001490880704700000008006C01490880C0
:10116000704700000008006C08B50121102000F055
:1011700085F9FF20ADF8000010208DF80300032052
:101180008DF8020069460448FFF74DFBFF21024835
:10119000FFF7DFFB08BD00000010014070B50446FA
:1011A0000025C4F1FE00C4B244EA042529460B2000
:1011B00001F08AFB70BD2DE9F04105460E46174649
:1011C0009846002405F00F044FF6FF7000EA04145F
:1011D00008F00F0004434FF6FF7000EA041407F014
:1011E0000F0004434FF6FF7000EA041406F00F00EE
:1011F00004432146022001F067FBBDE8F08170B591
:101200000546002001F03EFA044605F0010010B149
:1012100044F0100401E024F0200405F0020010B1B5
:1012200044F0800401E024F080042146002001F015
:101230004BFB70BD10B501F07BF901F0DFF90446FE
:1012400048F2FF30844202D04FF0FF3010BD01F071
:101250007DFA00231A4619461846FFF7ACFF002016
:10126000FFF7CDFF0020F1E770B5ADF5866D0546BF
:101270000122294682A802F099FB064600202B494C
:10128000086001F0C9FA00202949C1F88401002E44
:101290004AD144E081AB4FF4007201A982A802F068
:1012A00094FC0646002400BF01A9081901F02CFA9D
:1012B00018B904F1200084B22AE00020FFF7FCFBFB
:1012C000012804D0022810D004281FD11BE019489F
:1012D0000078401C1749087008460078FFF75EFF49
:1012E0001448007800F028F811E012480078401EF9
:1012F0001049087008460078FFF750FF0D48007845
:1013000000F01AF803E00DF5866D70BD00BF00BF58
:1013100081988442C8D30EB9819800B900E0B9E73A
:1013200000BF82A802F083FA00BFECE780012242EE
:1013300000002242250000203EB504460020029015
:101340004FF47A7094FBF0F100FB1140642190FBA4
:10135000F1F03030C0B28DF80800642094FBF0F159
:1013600000FB11400A2190FBF1F03030C0B28DF843
:1013700009000A2094FBF0F100FB11403030C0B2AC
:101380008DF80A004FF478400649088002A8102121
:10139000CDE9001004484388028854216020FFF7FB
:1013A0009DFE3EBD140000201800002000BFFEE797
:1013B0007047000070B5002100230F22C47804B3E9
:1013C000154C246804F4E064C4F5E064210AC1F11A
:1013D0000403CA40447804FA03F18478144021439A
:1013E00009010E4C0678A155047804F01F0501246C
:1013F000AC4005786D11AD0005F1E025C5F8004160
:1014000009E0047804F01F050124AC40044D06787F
:10141000761145F8264070BD0CED00E000E400E0D8
:1014200080E100E002490143024A11607047000078
:101430000000FA050CED00E07047000029B1064AF3
:1014400052690243044B5A6104E0034A52698243E1
:10145000014B5A61704700000010024029B1064A52
:10146000D2690243044BDA6104E0034AD269824341
:10147000014BDA61704700000010024029B1064AB2
:1014800092690243044B9A6104E0034A92698243E1
:10149000014B9A61704700000010024030B50021F6
:1014A0000022002400232D4D6D6805F00C0121B1B0
:1014B000042905D0082923D105E0294D056022E043
:1014C000274D05601FE0254D6D6805F47012234D12
:1014D0006D6805F48034022505EB92421CB9214D5C
:1014E000554305600BE01D4D6D6805F400351DB1D9
:1014F0001C4D5543056002E0194D5543056002E05F
:10150000174D056000BF00BF144D6D6805F0F00178
:101510000909154D6B5C0568DD4045600F4D6D6830
:1015200005F4E061090A104D6B5C4568DD4085609B
:101530000A4D6D6805F46051C90A0B4D6B5C456836
:10154000DD40C560054D6D6805F44041890B074DD0
:101550006B5CC568B5FBF3F5056130BD001002405A
:1015600000127A0000093D00000000201000002059
:1015700010B5012002490860FF2000F0C3F910BD3A
:10158000B801244270B5054601220021092000F06F
:1015900002FA044624B91021284600F055F9044601
:1015A000FFF7E6FF0CB1012070BD0020FCE770B52D
:1015B00005464FF6FF7401E0601E84B2FF2000F084
:1015C000A1F9A84201D0002CF6D10CB9FF2070BDC2
:1015D0000020FCE77FB56846FFF7D4FF10B100207C
:1015E00004B070BD9DF8000000F0C000402809D193
:1015F0009DF809009DF8081000EB0120401C84B202
:10160000A50220E09DF8050000F00F009DF80A10EB
:1016100000EBD1109DF8091001F0030100EB41002F
:10162000861C9DF8080080119DF8071000EB8100D2
:101630009DF8061001F0030100EB8120441CA6F187
:10164000090004FA00F52846CAE70000F8B500F0E2
:1016500017F900F062F9002504E0FF2000F052F9CC
:10166000681C85B20A2DF8DB142600BF95220021E4
:10167000084600F090F90446012C04D03000A6F191
:1016800001018EB2F2D1002051490870012C4AD1DB
:1016900087224FF4D571082000F07DF9012847D149
:1016A000002506E0FF2000F02DF90DF80500681C6C
:1016B00085B2042DF6DB9DF80200012879D19DF852
:1016C0000300AA2875D14FF6FE7600BF0122002143
:1016D000372000F060F901229107292000F05BF922
:1016E000044624B13000A6F101018EB2EED1002EE5
:1016F0005FD0012200213A2000F04DF9002858D196
:10170000002506E0FF2000F0FDF80DF80500681C3C
:1017100085B2042DF6DB9DF8000000F0400018B102
:1017200006202B49087044E004202949087040E055
:1017300001220021372000F02EF90122002129206A
:1017400000F029F90446012C17DC0220204908701A
:101750004FF6FE7600BF01220021372000F01BF972
:1017600001220021292000F016F90446BCB1300006
:10177000A6F101018EB2EED111E0012014490870EA
:101780004FF6FE7600BF01220021104600F003F95B
:10179000044624B13000A6F101018EB2F3D12EB17E
:1017A00001225102102000F0F6F810B10020084983
:1017B0000870FFF7DDFE00F0ABF80548007808B1CF
:1017C0000020F8BD0CB12046FBE7AA20F9E7000095
:1017D000200000202DE9F04106460F461546194825
:1017E0000078062800D07F02012D0CD10122394655
:1017F000112000F0D0F80446FCB96902304600F030
:1018000023F8044619E001223946122000F0C3F8FB
:10181000044600BF4FF40071304600F015F804464E
:1018200006F50076681EC0B2050001D0002CF1D08C
:10183000012200210C2000F0AEF8FFF799FE2046AF
:10184000BDE8F0812000002070B504460D46FE2062
:10185000FFF7ADFE08B1012070BD04E0FF2000F0ED
:10186000F1F92070641C2800A5F101018DB2F5D1B9
:10187000FF2000F047F8FF2000F044F80020EBE7DD
:1018800008B501214FF4C470FFF7F8FD4FF4805004
:10189000ADF8000010208DF8030003208DF8020041
:1018A00069461448FEF7BFFF4FF480511148FFF717
:1018B00050F84FF40070ADF8000069460E48FEF78E
:1018C000B2FF4FF400710C48FFF743F84FF4C040EB
:1018D000ADF8000069460948FEF7A5FF4FF4005136
:1018E0000648FFF736F800F067F901200449086060
:1018F00008BD0000000C0140001C01400020014018
:10190000B801244210B50446204600F09BF910BDF2
:1019100010B5002000F0B2F910BD10B5382000F06D
:10192000ADF910BD10B500200549086000F06FF852
:1019300008B9002010BDFFF71BFE0120FAE70000E8
:10194000B801244270B506460D4600F060F808B1B3
:10195000012070BD2846FFF7D5FFFD2D19D00024CA
:1019600004E0305D00F06EF9601C84B2B4F5007FD5
:10197000F7DBFF20FFF7C6FFFF20FFF7C3FFFF20C5
:10198000FFF7C0FF044604F01F00052801D0022025
:10199000DFE70020DDE72DE9F04105460C4617465C
:1019A0004FF00008FFF7E4FDFFF7BCFF10B1FF2088
:1019B000BDE8F08145F04000FFF7A4FF200EFFF7DF
:1019C000A1FFC4F30740FFF79DFFC4F30720FFF713
:1019D00099FFE0B2FFF796FF3846FFF793FF0C2D13
:1019E00002D1FF20FFF78EFF4FF01F0800BFFF203E
:1019F000FFF788FF064606F0800030B15FEA080076
:101A0000A8F1010101F0FF08F1D13046D0E710B58F
:101A1000002400BFFF20FFF775FFFF2801D1002041
:101A200010BD641C6FF07F408442F3D30120F7E7C0
:101A30002DE9F04106460F46154620480078062855
:101A400000D07F02012D0CD1012239461820FFF76A
:101A5000A2FF04466CBBFE213046FFF773FF04462D
:101A600027E016480078012809D0012200213720FC
:101A7000FFF791FF012229461720FFF78CFF012273
:101A800039461920FFF787FF044694B900BFFC21AF
:101A90003046FFF757FF044606F50076681EC0B2D1
:101AA000050001D0002CF2D0FD210020FFF74AFFF5
:101AB0000446FFF75DFD2046BDE8F08120000020D0
:101AC00000B587B001210420FFF7D8FC01210803ED
:101AD000FFF7D4FCE020ADF8180018208DF81B00AB
:101AE00003208DF81A0006A91548FEF79CFE002079
:101AF000ADF804004FF48270ADF806000020ADF898
:101B000008000220ADF80A000120ADF80C004002E8
:101B1000ADF80E003820ADF810000020ADF812002E
:101B20000720ADF8140001A9064800F0D5F80121FE
:101B3000044800F0B7F8FF2000F006F807B000BD39
:101B4000000801400030014070B50446002507E060
:101B5000681C85B242F21070854201DDFF2070BD25
:101B600002210A4800F0AAF80028F1D021460748CF
:101B700000F0B0F800BF0121044800F09FF80028F1
:101B8000F9D0024800F0A3F8C0B2E8E70030014005
:101B900010B50446074800884FF6C771084005494C
:101BA000088008460088204308800121014800F091
:101BB00079F810BD0030014000B587B00121082040
:101BC000FFF75CFC01218803FFF748FC4FF46040FD
:101BD000ADF8180018208DF81B0003208DF81A00AE
:101BE00006A91648FEF71FFE0020ADF804004FF4CA
:101BF0008270ADF806000020ADF808000220ADF8B4
:101C00000A000120ADF80C004002ADF80E003820AB
:101C1000ADF810000020ADF812000720ADF8140058
:101C200001A9074800F058F80121054800F03AF8EA
:101C3000FF2000F007F807B000BD0000000C0140D5
:101C40000038004010B5044600BF02210A4800F0E9
:101C500035F80028F9D02146074800F03BF800BFCE
:101C60000121054800F02AF80028F9D0024800F0C8
:101C70002EF8C0B210BD00000038004010B5044678
:101C8000074800884FF6C771084005490880084694
:101C90000088204308800121014800F003F810BDAE
:101CA0000038004021B1028842F04002028004E086
:101CB00002884FF6BF731A40028070470246002028
:101CC00013890B400BB1012000E000207047014652
:101CD000888970478181704710B50022028802F41C
:101CE00041520B884C8823438C882343CC88234360
:101CF0000C8923434C8923438C892343CC89234378
:101D00001A430280838B4FF2FF74234083830B8A34
:101D1000038210BD704710B500F002F810BD00003E
:101D20000CB50020019000903348006840F48030EA
:101D30003149086000BF3048006800F4003000906E
:101D40000198401C0190009818B90198B0F5A06F57
:101D5000F1D12948006800F4003010B10120009052
:101D600001E0002000900098012843D1234800683A
:101D700040F01000214908600846006820F0030088
:101D800008600846006840F0020008601A48406891
:101D9000194948600846406848600846406840F471
:101DA000806048600846406820F47C10486008461F
:101DB000406840F4E81048600846006840F08070D1
:101DC000086000BF0C48006800F000700028F9D0DF
:101DD0000948406820F00300074948600846406809
:101DE00040F00200486000BF0348406800F00C006B
:101DF0000828F9D10CBD000000100240002002406C
:101E0000042808D14FF0E021096941F004014FF0A6
:101E1000E022116107E04FF0E021096921F004019F
:101E20004FF0E022116170477047000010B5044682
:101E30006FF00400FFF7E4FFE11704EB5171C1F309
:101E4000C701074A11701046007800EB4001C1EB52
:101E5000C0104FF6FF7101EAC0000249088010BDB2
:101E6000260000202800002010B51348006840F02C
:101E700001001149086008464068104908400E49B1
:101E80004860084600680E4908400B49086008464B
:101E9000006820F4802008600846406820F4FE00B6
:101EA00048604FF41F008860FFF735FF4FF0006077
:101EB0000449086010BD0000001002400000FFF857
:101EC000FFFFF6FE08ED00E000B59DB0012108021D
:101ED000FFF7B4FA01200790002008900F20099026
:101EE00000200A900B900C900D9000900190032020
:101EF00002900020039004900590069006200E901A
:101F000000200F901090102011900020129014903B
:101F10001390159016904FF4805017900020189051
:101F20004FF48040199000201A9007A81B90CDF81C
:101F300070D00EA8FEF704FC01210620FEF7E6FB98
:101F40001DB000BD08B501214FF4B070FFF796FA3F
:101F50004CF23370ADF8000018208DF80300032018
:101F60008DF8020069461048FEF75DFC4FF6807060
:101F7000ADF8000018208DF8030003208DF8020052
:101F800069460A48FEF74FFC41F20100ADF8000037
:101F900018208DF8030003208DF8020069460448DC
:101FA000FEF741FC08BD000000140140001801408C
:101FB0000020014010B5FFF7C5FFFFF785FF322075
:101FC00001F0ACF80020FFF7BDF8FEF757FEA1497D
:101FD000888008468188A0A000F0B4FC0020FFF7AC
:101FE000B1F80020FFF7B4F80020FFF7ABF80020AD
:101FF000FFF7AEF80020FFF7A5F80020FFF7A8F8DC
:102000004FF48060FFF79EF84FF4C440FFF7A0F84C
:102010000820FFF797F840F60800FFF799F801202D
:10202000FFF790F84FF48070FFF792F80220FFF767
:1020300089F84FF48070FFF78BF80320FFF782F8E0
:1020400041F23000FFF784F80820FFF77BF840F6F4
:102050000800FFF77DF84FF44070FFF773F80C208D
:10206000FFF776F840F20130FFF76CF845F60B20E9
:10207000FFF76EF840F20230FFF764F840F6061002
:10208000FFF766F840F20330FFF75CF841F2170003
:10209000FFF75EF84FF44170FFF754F84FF40C501F
:1020A000FFF756F840F20530FFF74CF84FF4B85000
:1020B000FFF74EF840F20630FFF744F846F20930D9
:1020C000FFF746F840F20730FFF73CF840F60940CA
:1020D000FFF73EF84FF44270FFF734F841F20C007E
:1020E000FFF736F840F20930FFF72CF842F23220C1
:1020F000FFF72EF81020FFF725F81420FFF728F837
:102100001120FFF71FF840F20110FFF721F84FF4FC
:102110008070FFF717F84FF40C70FFF719F83220B2
:1021200000F0FCFF40F20110FFF70CF840F24720EE
:10213000FFF70EF84FF4FA7401E0601E84B2002C31
:10214000FBDC322000F0EAFF40F20310FEF7FAFF5A
:102150004FF42060FEF7FCFF4FF4FA7401E0601EBC
:1021600084B2002CFBDC0A2000F0D8FF4FF4207072
:10217000FEF7E8FF4FF2FF00FEF7EAFF322000F023
:10218000CDFF4FF4FA7401E0601E84B2002CFBDC3A
:102190004FF48170FEF7D6FF4BF2B010FEF7D8FF78
:1021A0004FF4FA7401E0601E84B2002CFBDC322094
:1021B00000F0B4FF4FF40470FEF7C4FF0020FEF7F8
:1021C000C7FF40F21120FEF7BDFFEF20FEF7C0FF72
:1021D00040F21220FEF7B6FF0020FEF7B9FF40F2F2
:1021E0001320FEF7AFFF40F28F10FEF7B1FF4FF460
:1021F0000070FEF7A7FF0020FEF7AAFF40F20120C3
:10220000FEF7A0FF0020FEF7A3FF40F20140FEF71B
:1022100099FF0020FEF79CFF0720FEF793FF4FF485
:102220008070FEF795FF4FF4FA7401E0601E84B2EF
:10223000002CFBDC322000F071FF40F20220FEF7A0
:1022400081FF0020FEF7AAFC4FF6FF70FEF782FC2C
:1022500010BD000018000020204C43442049443A9F
:1022600025780D0A0000000010B540F225510C48F9
:1022700000F096F870B10A4800F04EF9C4B2214659
:10228000074800F04EF900BF4021054800F07BF8F8
:102290000128F9D14021024800F060F810BD00008B
:1022A0000038014010B586B0044601210420FFF734
:1022B000E5F801218803FFF7E1F801210846FFF75F
:1022C000DDF84FF40070ADF8140003208DF816000F
:1022D00018208DF8170005A91E48FEF7A4FA4FF440
:1022E0008060ADF8140004208DF8170005A9194886
:1022F000FEF799FA01940020ADF80800ADF80A0045
:10230000ADF80C00ADF810000C20ADF80E0001A9DE
:10231000114800F095F801210F4800F028F84021FD
:102320000D4800F01BF8012240F225510A4800F048
:1023300061F825208DF8000003208DF801008DF84C
:10234000020001208DF803006846FFF733F806B05D
:1023500010BD0000000801400038014001F4007287
:10236000B2F5007F00D100BFCA430280704721B19F
:10237000828942F40052828104E082894DF6FF7323
:102380001A408281704702460020B1F5007F00D1DB
:1023900000BF13880B400BB1012000E00020704704
:1023A00070B50246002400230025002040F66A167E
:1023B000B14200D100BFC1F3421501F01F03012655
:1023C00006FA03F3012D02D19689334006E0022D6F
:1023D00002D1168A334001E0968A33400C1201265E
:1023E00006FA04F41688344013B10CB1012000E061
:1023F000002070BDF0B50346002400260025002013
:1024000040F66A17B94200D100BF1846C1F3421422
:1024100001F01F06012707FA06F5012C01D10C3047
:1024200004E0022C01D1103000E014301AB107682A
:102430002F43076002E00768AF430760F0BD00006C
:102440002DE9F04786B005460E460024A24600BF9F
:10245000A1460027B08900B100BF2F462C8A4CF658
:10246000FF700440F08804432C82AC894EF6F310D0
:102470000440B08831890843718908430443AC8122
:10248000AC8A4FF6FF400440B0890443AC8201A8F7
:10249000FFF704F81F48874202D1DDF810A001E0E1
:1024A000DDF80CA0A88900F4004040B10AEBCA0096
:1024B00000EB0A1031684900B0FBF1F807E00AEBC5
:1024C000CA0000EB0A1031688900B0FBF1F8642003
:1024D000B8FBF0F004012009642101FB1089A889F0
:1024E00000F4004040B1322000EBC900B0FBF1F035
:1024F00000F00700044308E0322000EB09106421DB
:10250000B0FBF1F000F00F0004432C8106B0BDE8F1
:10251000F08700000038014001468888C0F30800B9
:102520007047C1F308028280704700BFFEE70000D9
:1025300008B501214FF4B070FEF7A0FF03208DF81D
:10254000020010208DF803004020ADF8000069461D
:102550000F48FEF768F969460E48FEF764F9402116
:102560000C48FEF7F6F94FF4A070ADF8000069468C
:102570000948FEF758F948208DF803008020ADF88F
:10258000000069460448FEF74EF9FFF799FA08BDC6
:1025900000180140001401400020014010B5002443
:1025A0004FF480711348FEF7D2F9142000F0B6FD05
:1025B00040211048FEF7CDF940210F48FEF7C9F938
:1025C0004FF480710B48FEF7C4F907E0601C84B239
:1025D000B4F5805F02DB4FF0FF3010BD802105486D
:1025E000FEF7ACF90028F1D0142000F097FD002090
:1025F000F3E70000002001400018014010B500245E
:10260000FFF7CCFF4FF40261002000F05DF907E016
:10261000601C84B2B4F5805F02DB4FF6FF7010BD22
:1026200080211748FEF78AF90028F1D03820FFF7FB
:10263000AFFA40211248FEF78AF94D20FFF784FADD
:10264000EA20FFF781FA6D20FFF77EFA5420FFF7AA
:102650007BFA0020FFF778FA0020FFF775FA0020D8
:10266000FFF772FA0020FFF76FFA962000F056FD90
:1026700040210348FEF76DF9082000F003F8CEE78B
:102680000020014070B5064607E0681C85B2B5F52C
:10269000304F02DB4FF6FF7070BD80211748FEF708
:1026A0004DF90028F1D03820FFF772FA4021134885
:1026B000FEF74FF940211248FEF749F94021114831
:1026C000FEF747F90320FFF73FFA3046FFF73CFAE1
:1026D000FF20FFF739FA04464FF6FF7000EA0424A2
:1026E000FF20FFF731FA044340210548FEF731F996
:1026F0000020FFF74DFA2046CEE700000020014001
:10270000001801400014014070B5054680210E48B4
:10271000FEF714F9A8B11020FFF73AFA40210A4851
:10272000FEF715F9002404E0285DFFF70DFA601CA0
:10273000C4B2202CF8DB40210348FEF70AF9002040
:1027400070BDFF20FCE700000020014010B5FFF73E
:1027500025FF4FF40261002000F0B6F805E0601C90
:1027600084B2B4F5C04F00DB10BD80212948FEF7CC
:10277000E5F80028F3D03820FFF70AFA4021254871
:10278000FEF7E5F85320FFF7DFF9EF20FFF7DCF95C
:102790006E20FFF7D9F92420FFF7D6F90020FFF7C4
:1027A000D3F90020FFF7D0F90020FFF7CDF9002082
:1027B000FFF7CAF940211748FEF7CBF8642000F074
:1027C000ADFC40211348FEF7C2F84520FFF7BCF9E5
:1027D0007820FFF7B9F96920FFF7B6F97420FFF701
:1027E000B3F90020FFF7B0F90020FFF7ADF90020A2
:1027F000FFF7AAF90020FFF7A7F940210548FEF7E7
:10280000A8F8642000F08AFC0020FFF7C1F900BF9F
:10281000AAE700000020014010B5002407E0601C7A
:1028200084B2B4F5C04F02DB4FF0FF3010BD802101
:102830002448FEF783F80028F1D0FF20FFF784F941
:1028400000240FE040F60401002000F03DF80220D3
:1028500000F064FC601C84B2B4F5C04F02DB4FF0A2
:10286000FF30E3E70020FFF70DFFB0F5006FE9D17F
:10287000002407E0601C84B2B4F5C04F02DB4FF0C7
:10288000FF30D3E780210F48FEF758F80028F1D039
:1028900000240FE04FF41841032000F015F8142035
:1028A00000F03CFC601C84B2B4F5C04F02DB4FF07A
:1028B000FF30BBE70320FFF7E5FEB0F5184FE9D185
:1028C0000020B3E70020014070B506460C46002505
:1028D00007E0681C85B2B5F5304F02DB4FF0FF30E2
:1028E00070BD80211448FEF729F80028F1D0382067
:1028F000FFF74EF940211048FEF72BF840210F4812
:10290000FEF725F840210E48FEF723F80220FFF7D6
:102910001BF93046FFF718F92012FFF715F9E0B25E
:10292000FFF712F940210548FEF713F80020FFF7E2
:102930002FF90020D4E700000020014000180140DA
:10294000001401400FB4054B10B503A9044A0298C6
:1029500000F018F810BC5DF814FB000035440008C6
:102960006000002002E008C8121F08C1002AFAD146
:1029700070477047002001E001C1121F002AFBD1FF
:10298000704700002DE9FF4F8DB09B460F4604466F
:10299000002606E025280BD05A460F999047641C64
:1029A000761C20780028F5D111B03046BDE8F08FB4
:1029B0000025A8460122984900E0054314F8013F8C
:1029C000203B02FA03F00842F7D120782E2817D1D5
:1029D00014F8010F45F004052A280ED06FF02F02DD
:1029E0002078A0F1300109290AD808EB880102EB10
:1029F000410100EB0108641CF2E757F8048B641CEA
:102A000020786C280DD004DC4C2812D06A2811D113
:102A100004E074280DD07A280CD10AE045F40015A2
:102A200007E0617845F48015814202D1641C05F508
:102A30008015641C2278692A45D008DC002AB3D0AE
:102A4000582A69D0632A10D0642A08D13BE0702A42
:102A500067D0732A13D0752A5CD0782A5CD01046D0
:102A60005A460F999047761CD3E017F8040B8DF85F
:102A7000000000208DF80100E946012003E057F82E
:102A8000049B4FF0FF3069074FF0000501D40AE0C6
:102A90006D1C45450DDA8542FADB19F80510002951
:102AA000F6D106E06D1C8542FCDB19F80510002903
:102AB000F8D12E4404E019F8010B5A460F999047BB
:102AC0006D1EF8D2A5E00A200021CDE90801C5F36A
:102AD000025002280DD001CFC117031E71F100036F
:102AE0000DDA4FF0000CD0EB0C006CEB01012D2344
:102AF00008E0FF1D27F00707F7E80201EDE72B05C7
:102B000004D52B238DF8283001233BE0EB0739D087
:102B10002023F7E70A2000E010200021CDE908017A
:102B200007E01020002145F00405CDE908014FF031
:102B30000808C5F3025002280FD001CF00214FF042
:102B4000000A2B071FD5702A0DD0DDE908C38CF0D1
:102B5000100C5CEA030C0CD015E0FF1D27F00707F2
:102B6000F7E80201EBE740228DF828204FF0010A38
:102B70000BE050EA010306D030238DF828308DF8A1
:102B8000292002239A46582A04D024A20DF12009B4
:102B90000B9209E026A2F9E7DDE90823FDF7E4FA44
:102BA0000B9B9B5C09F8013D50EA0102F4D1ADEBAF
:102BB000090020300890680701D44FF001080899F7
:102BC000884502DDA8EB010000E0002080460025DA
:102BD00006E00AA85A46405D0F9990476D1C761C86
:102BE0005545F6DB04E030205A460F999047761C95
:102BF000B8F10001A8F10108F5DC05E019F8010BB6
:102C00005A460F999047761C0899481E089000294B
:102C1000F4DC641CC5E600000928010030313233C1
:102C20003435363738396162636465660000000008
:102C300030313233343536373839414243444546F2
:102C40000000000070B504460D4600202071401EB3
:102C5000E0622946204601F0BDFE08B1032070BDA8
:102C600094F82E1294F82F0241EA00204AF65521DA
:102C7000884201D00220F2E794F86900010694F836
:102C8000680041EA004194F8670041EA002094F8A6
:102C90006610084320F07F400D49884201D1002092
:102CA000DDE794F88500010694F8840041EA0041CC
:102CB00094F8830041EA002094F88210084320F041
:102CC0007F400349884201D10020C8E70120C6E7C0
:102CD00046415400024600E0521C107810B11078B2
:102CE0008842F9D11078704770B503460D46586A8E
:102CF000021D680A1E68B678B0FBF6F400BF02CA6F
:102D000009B9002070BD8C4200D202E0641A121D85
:102D1000F5E700BF10682044F4E70246891E5069B9
:102D2000801E884201D8002070479378906A01FB8A
:102D30000300F9E72DE9F04780460C46A17EE07ECE
:102D400041EA002010B10020BDE8F087207800F0B3
:102D50003F00401E00EB800101EBC0064FF001096F
:102D6000002524E01A48405D205C1949495D214452
:102D7000497840EA0127B9F1000F11D0FF2E0BD29C
:102D8000384601F0D7F882463146761C38F81100F3
:102D900001F0D0F8824501D00020D5E7B94605E022
:102DA0004FF6FF70874201D00020CDE76D1C0D2D3E
:102DB000D8D3207800F0400038B1B9F1000F04D02A
:102DC00038F8160008B10020BEE70120BCE700007B
:102DD000A86B00082DE9F04704468946B9F1000FB9
:102DE00006D1E76817B16069B84215D8012713E02A
:102DF0004946204601F096FB0646022E02D20120EB
:102E0000BDE8F087701C08B93046F9E76069B04248
:102E100001D93046F4E74F463D4600BF6D1C60695E
:102E2000A84204D80225BD4201D90020E8E729467E
:102E3000204601F077FB064606B909E0701C08B190
:102E4000012E01D13046DBE7BD42E7D10020D7E7B4
:102E500000BF6FF070422946204601F011FF804606
:102E6000B8F1000F08D1B9F1000F05D02A46494644
:102E7000204601F005FF8046B8F1000F0BD1E56058
:102E80002069401C78B12069401E2061607940F0C3
:102E90000100607107E0B8F1010F02D14FF0FF307F
:102EA00000E0012005462846AAE700002DE9F34F7F
:102EB00083B0814604980068019002E00198401CAC
:102EC0000190019800782F28F8D0019800785C28AC
:102ED000F4D0D9F81CA000252F4600BF38467F1C2F
:102EE00001990C5C202C03DB2F2C01D05C2C00D131
:102EF00032E0FF2D03D3062005B0BDE8F08FE4B229
:102F0000812C13DBE0B2FE2810DC38467F1C0199CF
:102F10000E5C06EB042084B2402E01DB7E2E05DD24
:102F2000802E01DBFE2E01DD0620E5E70121204693
:102F300000F0B4FF04460CB90620DDE7802C06DA69
:102F4000214671A0FFF7C6FE08B10620D4E7284647
:102F50006D1C2AF81040C1E700BF0198C119049800
:102F60000160202C01DA042000E00020804608E007
:102F7000681E3AF81040202C02D02E2C00D002E01F
:102F80006D1E002DF4D100BF0DB90620B4E700205E
:102F90002AF815000B222021D9F8180001F010FDA5
:102FA000002700E07F1C3AF817002028FAD03AF8F2
:102FB00017002E28F6D00FB148F0030800E06D1E70
:102FC00025B1681E3AF810002E28F8D100200646D8
:102FD00002904FF0080B00BF38467F1C3AF81040B3
:102FE00004B963E0202C03D02E2C04D1AF4202D0D0
:102FF00048F00308F0E70298584501D2AF4214D1D7
:10300000BBF10B0F02D148F003084FE0AF4201D0F3
:1030100048F00308AF4200D948E02F46082002904C
:103020004FF00B0BB006060ED6E7802C09DB2046CE
:1030300000F080FF0021009000F030FF044648F0CF
:103040000208FF2C11DDABF101000299884204D87F
:1030500048F00308CDF808B0BEE72212D9F81830BE
:103060000298411C02911A5419E024B1214629A06A
:10307000FFF730FE18B15F2448F003080FE0412C41
:1030800004DB5A2C02DC46F0020608E0612C06DB69
:103090007A2C04DC46F00106A4F1200084B2D9F8B1
:1030A00018300298411C02911C5495E700BFD9F8D2
:1030B00018000078E52803D10520D9F81810087009
:1030C000BBF1080F01D1B006060E06F00C000C286B
:1030D00003D006F00300032801D148F0020808F0ED
:1030E000020058B906F00300012801D148F0100889
:1030F00006F00C00042801D148F00808D9F818009F
:1031000080F80B800020F7E6222A3A3C3E3F7C7F85
:10311000000000002B2C3B3D5B5D00000146114A86
:1031200012884A434FF0E0235A6100229A611A46FE
:10313000126942F001021A6100BF4FF0E0221069EB
:1031400000F001021AB100F48032002AF5D04FF0ED
:10315000E022126922F001024FF0E0231A610022FE
:103160009A617047280000202DE9F04104460E4680
:103170000021204600F01AFA0546EDB9002700BFED
:103180002169206801F026FC054605B113E060695D
:103190000078E52802D06069007820B9781C0746DD
:1031A000B04201D107E000270121204600F07FF85E
:1031B0000546002DE4D000BF042D00D10725284688
:1031C000BDE8F0812DE9F04704460021204600F0DB
:1031D000EDF9074617B13846BDE8F0874FF0FF0913
:1031E000CA464FF6FF70208400BF2169206801F0B5
:1031F000F1FB074607B157E065692E780EB9042741
:1032000052E0E87A00F03F08E52E05D008F008000B
:1032100040B1B8F10F0F05D04FF0FF094FF6FF7026
:1032200020843AE0B8F10F0F1CD1E06978B306F0C2
:10323000400030B195F80DA026F04006B146E08878
:1032400020844E450AD1687B504507D12946E06964
:10325000FFF770FD10B1A9F1010000E0FF2000F0C0
:10326000FF091AE0B9F1000F05D1284601F0E7FD8A
:10327000504500D118E0A069C07A00F0010038B9CB
:103280000B222846A16901F07BFB08B90CE004E0A1
:103290004FF0FF094FF6FF7020840021204600F018
:1032A00006F80746002FA0D000BF384694E72DE966
:1032B000F04104468846E088461CB0B208B1206957
:1032C00010B90420BDE8F08106F00F0000286BD192
:1032D0002069401C2061E06828B920680089B0425C
:1032E00062D80420EEE720688078401E00EA1610BD
:1032F000002859D1E168206801F014F90546012D34
:1033000001D80220DEE7681C08B90120DAE720684E
:103310004069A84242D8B8F1000F01D10420D1E79A
:10332000E1682068FFF756FD05460DB90720C9E79B
:10333000012D01D10220C5E7681C08B90120C1E7B1
:10334000206801F0F0FD08B10120BBE7216801F120
:1033500030004FF40072002101F032FB2946206852
:10336000FFF7DBFC2168C86200270EE0012021681E
:103370000871206801F0D7FD08B10120A2E720689C
:10338000C06A401C2168C8627F1C20688078B842EF
:10339000ECD82068C06AC01B2168C862E560294675
:1033A0002068FFF7BAFC2061E6802068303006F024
:1033B0000F0100EB41106061002083E72DE9F05F11
:1033C00004468A464FF0FF09CB4604274FE02169A7
:1033D000206801F0FFFA074607B14BE066693578CF
:1033E0000DB9042746E0F07A00F03F08E52D0AD039
:1033F0002E2D08D028F02000082801D1012000E05F
:103400000020504502D04FF0FF0929E0B8F10F0F1E
:103410001AD105F0400030B196F80DB025F0400506
:10342000A946E08820844D450AD1707B584507D1D4
:103430003146E06901F0E4FB10B1A9F1010000E0C0
:10344000FF2000F0FF090BE0B9F1000F04D1304676
:1034500001F0F5FC584502D04FF6FF70208409E0DA
:1034600000212046FFF723FF074607B102E020694D
:103470000028ACD100BF0FB1002020613846BDE864
:10348000F09F2DE9FE4F0446D4F81880D4F81C9024
:103490000C224146684601F086FA00BF9DF80B00F9
:1034A00000F0010020B3002088F80B00E061012645
:1034B0000CE033464A466946404600F0CDFF2046C0
:1034C000FFF780FE054605B102E0761C642EF0D3BE
:1034D00000BF642E02D10720BDE8FE8F042D01D06D
:1034E0002846F9E79DF80B0088F80B00C4F81C90FB
:1034F0009DF80B0000F0020060B1002600E0761C91
:1035000039F816000028FAD106F119000D21B0FB98
:10351000F1F700E0012739462046FFF725FE054672
:1035200045BB781E070025D0E088C11B204600F06F
:103530003DF80546F5B9A06901F081FC824600BF5F
:103540002169206801F046FA054605B111E0FAB29A
:1035500053466169E06900F0E5FE012021680871C9
:1035600000212046FFF7A3FE054615B9781E070087
:10357000E6D100BFC5B92169206801F02BFA0546E4
:1035800095B920220021606901F01AFA0B22D4E9D2
:10359000050101F008FAA069C07A00F0180061691D
:1035A0000873012021680871284695E72DE9F0414C
:1035B00004460E46E680A568012D03D020684069C8
:1035C000A84202D80220BDE8F0812DB92068007819
:1035D000032801D12068456A45B920680089B042B6
:1035E00001D80220EFE72068476A1EE02068807853
:1035F0004FEA001812E02946206800F093FF0546C4
:10360000681C08B90120DEE7022D03D32068406959
:10361000A84201D80220D6E7A6EB08064645EAD222
:1036200029462068FFF779FB0746E5600FB90220BD
:10363000C9E707EB161020612068303006F00F0153
:1036400000EB411060610020BDE7000070B5054649
:1036500025B1012D06D0022D0CD10AE0FDF7F6FFB1
:10366000044609E0FCF712FE4FF44050054908807B
:1036700002E001E0012400BF00BF0CB1012070BDD9
:103680000020FCE7480000202DE9F04107460E46E7
:10369000144627B1012F1ED0022F39D137E036B1A1
:1036A000012E0FD0022E04D0032E10D106E00025EB
:1036B0000FE04FF40070206000250AE00820208011
:1036C000002506E0FDF786FF2060002501E00425C7
:1036D00000BF00BF00BF36B1012E0FD0022E04D0B4
:1036E000032E10D106E000250FE04FF4007020807B
:1036F00000250AE008202080002506E00648008812
:103700002060002501E0042500BF00BF00BF00BF0E
:1037100000BF2846BDE8F081480000202DE9F041B7
:1037200080460F4616461C4614B90420BDE8F081B9
:10373000B8F1000F06D0B8F1010F15D0B8F1020FA3
:1037400022D120E0E2B231463846FEF743F8054682
:1037500007E0FDF77BFFE2B231463846FEF73AF864
:103760000546002DF5D111E009E071024FF4007219
:103770003846FCF7E3FD761C07F50077641E002C45
:10378000F3D1002502E001E0012500BF00BF0DB923
:103790000020CBE70120C9E7014621B1012904D06F
:1037A000022906D103E0104670471046FCE7104698
:1037B000FAE70120F8E72DE9F04180460F4616466A
:1037C0001C4614B90420BDE8F081B8F1000F06D002
:1037D000B8F1010F15D0B8F1020F22D120E0E2B20A
:1037E00031463846FEF724F9054607E0FDF72EFF7F
:1037F000E2B231463846FEF71BF90546002DF5D1F9
:103800000FE009E071024FF400723846FCF702FE47
:10381000761C07F50077641E002CF3D1002500E02C
:1038200000BF00BF0DB90020CDE70120CBE770B588
:103830000546284600F0DAFA044634B9284601F075
:103840009BFB04460CB900202860204670BD2DE982
:10385000F74F82B08A46002202A9049800F098FB34
:10386000019004980468019800286DD1D4E90410EF
:10387000801E814203D82069CAF8000064E094F8F1
:1038800000B00026BBF1010F1CD1022700BF394652
:10389000204600F047FE804608F1010010B90120E3
:1038A00001900EE0B8F1010F02D10220019008E072
:1038B000B8F1000F00D1761C781C07466169884278
:1038C000E5D33AE06769206A00904FF000090025CF
:1038D00000BFB9F1000F0ED10098421C01462046EE
:1038E000009201F077F80190019800B124E004F112
:1038F00030054FF40079BBF1020F09D128786978BF
:1039000040EA012000B9761CAD1CA9F1020910E0C3
:10391000E8780006A97840EA0140697840EA012089
:103920002978084320F0704000B9761C2D1DA9F1BC
:103930000409781E0700CCD100BF2661607940F0F1
:1039400001006071CAF80060019805B0BDE8F08F11
:10395000F7B582B016460398019001A800F0E5FE85
:103960000546002D02DA0B2005B0F0BD0E4850F8D8
:1039700025400CB100202070029810B1002002995F
:1039800008700949029841F82500029808B1012EF3
:1039900001D00020E8E7002203A902A800F0F8FA0D
:1039A00007463846E0E70000E0C600202DE9F7476B
:1039B0008DB0054616461DB9092010B0BDE8F08748
:1039C0000020286006F01F0626F001020EA904A8B8
:1039D00000F0DEFA0746002F77D14FF4007000F0B8
:1039E0009BFA8146B9F1000F01D11120E5E7CDF82E
:1039F0002C9001A80A9004A80E9900F0D3FC074669
:103A0000099C0FB904B9062706F01C0000285DD0F8
:103A10004FB1042F03D104A8FFF733FD074646F04A
:103A20000806099C09E0E07A00F0110008B10727B8
:103A300003E006F0040000B10827002F55D106F07E
:103A40000800002851D000F0E6FD804684F80E8082
:103A50004FEA1821E1734FEA184121744FEA1861C7
:103A6000617484F816804FEA1821E1754FEA184115
:103A700021764FEA186161760020E07220770021FC
:103A80006177A177E1772146049800F073FE8246C2
:103A90000021204601F0CBF9012004990871BAF108
:103AA000000F22D00498D0F82C805146049801F0E1
:103AB00088F90746CFB9AAF101000499C8604146C8
:103AC000049800F087FF07460FE038E06FB9E07A0E
:103AD00000F0100008B1042707E006F0020020B152
:103AE000E07A00F0010000B1072747B906F00800AE
:103AF00008B146F020060498C06AE8612C62484686
:103B000000F011FADFB9AE710020E8712146049887
:103B100000F030FE2861E07F0106A07F41EA00410D
:103B2000607F41EA0020217F0843E8600020A86010
:103B3000A8616862049828602868C088A880384610
:103B40003BE773B584B0044614B9092006B070BDD4
:103B5000002205A903A800F01BFA0546002D2FD16D
:103B6000039820604FF4007000F0D6F906460EB9B5
:103B70001120EBE7E661C4F818D02046059900F063
:103B800011FC0546304600F0CEF9B5B9606958B170
:103B90006069C07A00F0100028B16169039800F0F4
:103BA000E9FDA06000E005253DB90398C088A0802C
:103BB00000212046FFF7FAFC0546042D00D105251B
:103BC0000DB1002020602846C0E72DE9FF4F83B0EB
:103BD000044615469A46DDF810B00020CAF80000E9
:103BE000204601F0C9F90290029818B1029807B076
:103BF000BDE8F08FE07908B1E079F8E7A07900F04E
:103C0000010008B90720F2E7D4E90210401A009039
:103C10000098854200D9009DAAE02089C0F30800E1
:103C2000002876D120688078401EA16800EA5120E3
:103C300000F0FF09B9F1000F1FD1A06810B9206989
:103C400001900CE0606A28B12046A168FFF74CF8AB
:103C5000019004E06169206800F064FC0190019823
:103C6000022802D20220E071C1E70198401C10B97D
:103C70000120E071BBE70198606161692068FFF78E
:103C80004CF8064616B90220E071B0E74E444FEA00
:103C90005528B8F1000F29D009EB08002168897870
:103CA000884203D920688078A0EB09082168487809
:103CB000434632465946FFF731FD10B10120E0710D
:103CC00095E7A07900F0400068B1A069801B4045ED
:103CD00009D2A169891B0BEB41204FF4007204F15A
:103CE000280100F060FE4FEA482737E0A069B042A3
:103CF00020D0A07900F0400080B1216848780123ED
:103D000004F12801A269FFF756FD18B10120E07106
:103D10006DE710E0A07920F04000A071216848789C
:103D20000123324604F12801FFF7F8FC10B101200D
:103D3000E0715CE7A6612089C0F30800C0F5007758
:103D4000AF4200D92F462089C0F3080204F12800B1
:103D500011183A46584600F026FE00BFBB44A06842
:103D60003844A060DAF800003844CAF80000ED1BBF
:103D7000002D7FF452AF002039E7FEB504460F4610
:103D8000204601F0F9F80546002D2DD12FB900216C
:103D90002046FFF70BFC054626E04FF4007000F0CC
:103DA000BBF806460EB91120FEBDE661C4F818D076
:103DB00000212046FFF702FB0546042D02D100201A
:103DC000206100256DB93946204600F026FC00210F
:103DD0002046FFF76CFA0546042D02D10020206131
:103DE0000025304600F09FF82846DDE72DE9F04138
:103DF0000446204601F0C0F80746002F4CD1A079B8
:103E000000F02000002847D0A07900F0400078B1F1
:103E100021684878012304F12801A269FFF7CBFC4F
:103E200010B10120BDE8F081A07920F04000A07120
:103E3000E169206800F0CEFD0746002F2CD1256AED
:103E4000E87A40F02000E872207B2877A089010AF8
:103E50006977E068010CA977E068010EE9772846E8
:103E6000216900F0E4FF00F0D6FB0646AE75310A8A
:103E7000E975310C2976310E69760020A87400218D
:103E8000E974A07920F02000A07101202168087158
:103E9000206800F0E4FF07463846C3E72DE9F0410B
:103EA00002460F46802A01DA10462FE01FB1184B58
:103EB00045F2205602E0174B45F22056002510240B
:103EC00016E0A6EB050C0CEBDC7805EB68014FEA7D
:103ED000410C33F81CC0944500D10BE04FEA410C73
:103EE00033F81CC0944501DA0D4600E00E46641E0E
:103EF000002CE6D100BF34B14FF0010C0CEB410CAB
:103F000033F81CC001E04FF0000C6046BDE8F081C2
:103F100066C00108E26B000810B504462146002087
:103F200000F05AFE10BD10B504462146002000F0F6
:103F300041FE10BD30B5802807DA612823DB7A28DE
:103F400021DCA0F12005A8B21DE00C2200234FF4D3
:103F5000F77400BFE51A03EB55010B4D35F811500E
:103F6000854200D10AE0084D35F81150854201DA4A
:103F70000B4600E00C46551E2A00EBD100BF12B1E3
:103F8000024D35F8110030BDEA140308C6180308C5
:103F90002DE9F74F8AB000210A9801600B9800F0D4
:103FA000C4FB09900998002803DA0B200DB0BDE886
:103FB000F08FD849099851F820400CB90C20F5E74A
:103FC0000A980460207878B16078FFF7E5FB8146B5
:103FD00009F0010040B90C9820B109F0040008B1C3
:103FE0000A20E3E70020E1E70020207009986070D4
:103FF0006078FFF72BFB814609F0010008B1032030
:10400000D4E70C9820B109F0040008B10A20CDE7EC
:10401000002739462046FEF715FE0546012D01D042
:104020009DBB32E000261AE004F5F77000EB06189D
:1040300098F8040070B198F80B00010698F80A008F
:1040400041EA004198F8090041EA002098F8081078
:10405000084300E0002002A941F82600761C042E47
:10406000E2D3002606B1761E00BF02A850F82670E3
:1040700027B139462046FEF7E5FD00E0022005465F
:104080001DB1701C06460428EFD3032D01D1012079
:104090008CE70DB10D2089E73B20015D94F83C00D1
:1040A00041EA0020B0F5007F01D00D207EE74620D8
:1040B000015D94F8470041EA002ABAF1000F0ED1E1
:1040C00094F85700010694F8560041EA004194F82C
:1040D000550041EA002094F8541040EA010AC4F85F
:1040E00018A04020005DE070E078012804D0E0785E
:1040F000022801D00D2059E7E0780AFB00FA3D20A4
:10410000005DA070A07818B1A078411E084008B1E9
:104110000D204BE74120015D94F8420041EA002068
:104120002081207A00F00F0008B10D203EE74320E7
:10413000015D94F8440041EA00200890089870B9A5
:1041400094F85300010694F8520041EA004194F8B3
:10415000510041EA002094F85010084308903E2096
:10416000015D94F83F0041EA00200190019808B9F0
:104170000D201BE701985044218900EB1110079096
:10418000DDE90701814201D20D200FE7DDE90710CB
:10419000401AA178B0FBF1FBBBF1000F01D10D205B
:1041A00004E7012540F6F670834500D302254FF65B
:1041B000F670834500D303250BF102006061E761CF
:1041C00001983844206207983844A062032D16D124
:1041D000208908B10D20E9E694F85F00010694F803
:1041E0005E0041EA004194F85D0041EA002094F845
:1041F0005C100843606260698000069014E02089CA
:1042000008B90D20D2E6206A50446062022D02D126
:104210006069400007E0207D00F00100616901EB6A
:10422000410100EB51000690A169069800F2FF10D1
:10423000B1EB502F01D20D20B8E64FF0FF302061D6
:10424000E06080206071032D5AD194F8601094F8DA
:10425000610041EA0020012852D1791C204600F07B
:10426000B9FBE8BB0020607194F82E1294F82F027D
:1042700041EA00204AF65521884241D13320005DB1
:1042800001063220005D41EA00413120005D41EA33
:10429000002094F8301008431F49884230D194F828
:1042A0001702010694F8160241EA004194F815023B
:1042B00041EA002094F814120843184988421FD19B
:1042C00094F81B02010694F81A0241EA004194F89E
:1042D000190241EA002094F818120843206100E016
:1042E0000EE094F81F02010694F81E0241EA004114
:1042F00094F81D0241EA002094F81C120843E06083
:10430000257007480088401C80B205490880E0807D
:1043100000204BE6E0C600205252614172724161BA
:104320004A000020F0B504461D464D730F27CF729A
:1043300000270F738F76BC4681F81BC0571E07EB12
:10434000870C0CEBC706002738463B4600BF4FF6EC
:10435000FF77B84203D03746761C34F81700DFF8F1
:1043600040C01CF803C001F80C000712DFF830C091
:104370001CF803C08C448CF8017008B94FF6FF702C
:104380005F1C3B460D2FE2D34FF6FF77B84202D0B9
:1043900034F816700FB942F040020A70F0BD000008
:1043A000A86B00082DE9F3410446019800782F28F6
:1043B00003D0019800785C2802D10198401C01903C
:1043C0000020A06001980078202807D20021204614
:1043D000FFF7ECF805460020606128E000BF01A966
:1043E0002046FEF763FD054605B11FE02046FEF7B7
:1043F000E9FE0546A069C67A3DB1042D04D100BF8F
:1044000006F0040000B9052510E006F0040000B134
:104410000CE06769F87A00F0100008B9052505E09E
:104420003946206800F0A6F9A060D8E700BF28460A
:10443000BDE8FC8170B504460D46E1B20548FEF7C3
:1044400070F800BF80210348FDF79DFF0028F9D0D8
:10445000204670BD003801402DE9FF4F83B007466C
:1044600091461E460B223846049900F09CFA052E10
:1044700019D9B04612E039F802BB00250CE05846C5
:1044800068F35F0080464FEA6B0B08F4803010B190
:10449000234888EA00086D1C102DF0D3B9F80000FD
:1044A0000028E8D14646072500BF06F00F0000F1BE
:1044B000300ABAF1390F03DD0AF1070000F0FF0AF4
:1044C00028466D1E01A901F800A03609002EECD186
:1044D0007E20485500240BE0385D812807DB385DDD
:1044E000FE2804DC681EA04200D106E0641C641CA7
:1044F000AC4202D2385D2028EED100BF00BF082DAB
:1045000004D228466D1C01A9095C00E02021204648
:10451000641C3954082CF2D307B0BDE8F08F0000BA
:10452000211001002DE9F04705460C46022C02D36C
:104530006869A04202D84FF0010969E04FF0FF39E5
:104540002878012804D002282ED003285CD13FE02F
:10455000274607EB5707286A00EB5721284600F04B
:1045600039FA00B153E038467F1CC0F3080105F169
:10457000300010F80180286A00EB5721284600F02F
:1045800029FA00B143E0C7F3080105F13000405CAF
:1045900048EA002804F0010010B14FEA181001E0C9
:1045A000C8F30B00814632E0286A00EB142128464C
:1045B00000F010FA00B12AE040F2FF1000EA4401D6
:1045C00005F130000E183078717840EA01291EE0BC
:1045D000286A00EBD411284600F0FCF900B116E07F
:1045E00040F2FF1000EA840105F130000E18F07867
:1045F0000006B17840EA0140717840EA0120317844
:10460000084320F0704902E04FF0010900BF00BFED
:104610004846BDE8F087002070472DE9F05F8046EE
:104620000D4605F10907D8F81000002843D0D8F846
:104630001440002626E03046761C14F80090B9F1AC
:10464000200F00D11EE0B9F1050F01D14FF0E509AF
:10465000092E02D12E2007F8010BB9F1410F0EDB14
:10466000B9F15A0F0BDC207B092E01D3102100E099
:104670000821084018B109F1200000F0FF0907F8EF
:10468000019B00BF0B2ED6D3E07A2872E07F010693
:10469000A07F41EA0041607F41EA0020217F08437A
:1046A0002860217E607E41EA0020A880A17DE07D17
:1046B00041EA0020E88000203870A86998B30026FD
:1046C000AF69D8F8100060B3E86950B3B8F82000BB
:1046D0004FF6FF71884224D0D8F81CB01BE00021AF
:1046E0005046FFF7DBFB8246BAF1000F01D10026EE
:1046F00016E0BAF1FF0F04DD4FEA2A223046761C9D
:104700003A54E869401EB04201D8002608E030461D
:10471000761C07F800A03BF8021B5FEA010ADED115
:1047200000BF0020B855BDE8F09F70B502464FF0BD
:10473000FF301568E5B1116800E0491C0D78202DA7
:1047400002D30D783A2DF8D10D783A2D0FD1146897
:1047500014F8015BA5F130030A2B07D28C4205D176
:10476000032B03D218464D1C2946156070BD00204E
:1047700000BFFBE710B502468C7ECB7E44EA0320E7
:104780001378032B05D10C7D4B7D44EA032340EACB
:10479000034010BDADF51C7D67A207CA0BAB07C374
:1047A0000025002600244820FDF740FB4FF4A060C0
:1047B000FCF738FEFCF7D8FC4FF41650FDF772FDFD
:1047C000FDF7F8FBFCF754F9FBF760FDFCF732FD51
:1047D000002000F04FF94FF478405A4908800AE071
:1047E00059A01021CDE900105B48438802880A21B6
:1047F0000846FCF773FCFCF729FF0028F0D1FBF713
:10480000E9FE012255A110A8FFF7A2F804E054A286
:1048100015210020FCF72EFB0EAA0FA94FA0FBF7D5
:10482000B3FE0028F3D1E62051490870084600780D
:10483000FCF7B4FCFCF790F84E490BA8FBF70CFF13
:104840004C4A911D4CA0FEF77DF84A4A6A32911DF0
:1048500049A0FEF777F86DE035206843454901EB44
:10486000400040786D2860D13520684301EB40005E
:104870008078702859D13520684301EB4000C0781A
:10488000332852D1002405E00BA8005D03A9085588
:10489000601CC4B20BA8005D0028F5D12F2003A92D
:1048A0000855601CC4B200260CE03520684331492D
:1048B00001EB4000801D805D03A90855601CC4B257
:1048C000701CC6B2352068432A4901EB4000801DA8
:1048D000805D0028E9D100260BE03520684325499A
:1048E00001EB4000805D03A90855601CC4B2701C38
:1048F000C6B2352068431F4901EB4000805D0028A7
:10490000EBD103A908554FF6FF700090124842887A
:10491000A5237E210020FCF781F903AA7E21002037
:10492000FCF7A8FA03A8FCF79FFC681CC5B21E2D73
:1049300000DD002590E70000303A2F4D55534943E4
:1049400000000000140000205344204361726420E2
:104950004572726F7221000018000020303A00008A
:104960004641546673206572726F72210000000028
:104970002500002064000020257325730D0A000027
:10498000F0B503461C460D46002000BF1600A2F1FC
:10499000010207D014F8017B15F801CBA7EB0C0638
:1049A0003000F3D0F0BD70B503460C4603E014F8B8
:1049B000015B03F8015B1500A2F10102F7D170BDA4
:1049C00030B5034601E003F8011B1400A2F1010217
:1049D000F9D130BD70B504460D460026E06AA84204
:1049E00010D0204600F09FFA06465EB96078012399
:1049F0002A4604F13001FEF791FE10B14FF0FF3569
:104A00000126E562304670BD2DE9F04104460E46B0
:104A10001548005D38B914481838016820468847A1
:104A20000120BDE8F081114850F82400B04219D9A6
:104A30000F4850F82400B6FBF0F10B48083850F846
:104A4000240030F81120002508E00023064808382B
:104A500050F824004F1920F817306D1C9542F4DBF4
:104A60000020DEE70220DCE744000020A06B000805
:104A7000986B000810B504460C4951F824104A0000
:104A80000B4951F82400002100F08AF8094951F837
:104A900024200749083951F82400002100F080F84B
:104AA000012103480830015510BD0000906B00083B
:104AB0003C000020A06B00082DE9F04704460F469B
:104AC0000025A9462348005D20B92248183801680E
:104AD000204688471FB94FF0FF30BDE8F0871E48D9
:104AE00050F82400B7FBF0F61B4850F82400B7FB41
:104AF000F0F100FB117000B1761C184850F824004A
:104B0000451E22E01348083850F8240030F81500FC
:104B100010B909F1010901E04FF00009B14513D1C5
:104B20004FF0000809E00B48083850F8240005EB66
:104B3000080220F8126008F10108B045F3D30648D6
:104B400050F824006843C8E76D1E002DDADA4FF0F4
:104B5000FF30C2E744000020986B0008906B00080B
:104B600010B501460023002207E00B4850F8210051
:104B700030F8120000B15B1C521C084850F82100AC
:104B80009042F2D864205843044C54F82140B0FBC2
:104B9000F4F0C0B210BD00003C000020906B000893
:104BA00030B5034601E003F8011B1400A2F1010235
:104BB000F9D130BD70B505460C4604B970BD054845
:104BC00050F82500261A31462846FFF71DFF00BF82
:104BD000F4E700003400002070B504460E4631466C
:104BE0002046FFF769FF0546681C08B9002070BD24
:104BF000024850F824002844F9E70000340000205F
:104C0000F0B504468F7EC87E47EA002008B1002038
:104C1000F0BD087800F03F00401E00EB800707EB76
:104C2000C002012600231AE01448C05C085C134F40
:104C3000FF5C0F447F7840EA07254EB1FF2A01D37D
:104C40000020E5E72E461046521C24F8105005E0DF
:104C50004FF6FF70854201D00020D9E75B1C0D2B79
:104C6000E2D3087800F0400030B1FF2A01D30020E1
:104C7000CEE7002024F812000120C9E7A86B000845
:104C80002DE9F04705460E461746022E02D3686905
:104C9000B04202D84FF0020890E02878012804D0F2
:104CA000022844D003287DD159E0B14609EB5909C7
:104CB000286A00EB59212846FFF78CFE8046B8F1A0
:104CC000000F00D079E0484609F10109C0F308015E
:104CD00005F130000C1806F0010020B1F9B220787F
:104CE00061F31F1000E03846207001202871286A07
:104CF00000EB59212846FFF76DFE8046B8F1000F02
:104D000000D05AE0C9F3080105F130000C1806F094
:104D1000010010B1C7F3071005E0207800F0F000A3
:104D2000C7F30321084320700120287145E0286A59
:104D300000EB16212846FFF74DFE8046B8F1000F24
:104D400000D03AE040F2FF1000EA460105F13000E1
:104D50000C182770380A6070012028712DE0286A2D
:104D600000EBD6112846FFF735FE8046B8F1000F5C
:104D700000D022E040F2FF1000EA860105F1300089
:104D80000C18E0780006A17840EA0140617840EA1A
:104D900001202178084300F0704007432770380A4B
:104DA000607000E006E0380CA070380EE070012062
:104DB000287102E04FF0020800BF00BF4046BDE886
:104DC000F0872DE9F04104460E46022E02D36069B9
:104DD000B04201D8022727E0002721E031462046D3
:104DE000FFF7A0FB054605B91DE0012D01D1022703
:104DF00019E0681C08B9012715E000223146204659
:104E0000FFF73EFF074607B10DE02069401C30B1B7
:104E10002069401C2061607940F0010060712E46DD
:104E20006069B042DAD800BF3846BDE8F0818176CB
:104E30000B0AC3760A0C02750B0E4375704730B52A
:104E4000014600200B2200BF431003EBC01411F8F1
:104E5000015B6319D8B2531E1A00F5D130BD70B58D
:104E60000446204600F05FF80546002D59D1207811
:104E700003284FD1607901284CD14202002104F16E
:104E80003000FFF79DFD552184F82E12AA2184F8E9
:104E90002F12522084F83000522131200155612117
:104EA00032200155412133200155722184F814121A
:104EB00084F81512412184F81612612184F8171222
:104EC000217C84F81812208A010A84F819122069BA
:104ED000010C84F81A122069010E84F81B12217B40
:104EE00084F81C12A089010A84F81D12E068010CE4
:104EF00084F81E12E068010E84F81F12E069401C5D
:104F0000E0626078012304F13001E26AFEF753FCAD
:104F100000206071607800221146FEF7B5FB00B1F9
:104F20000125284670BD2DE9F0410446002720796F
:104F3000F8B1E56A607801232A4604F13001FEF7F2
:104F40003AFC08B1012714E000202071206A281AD9
:104F5000A16988420DD2E67809E0A069054460782D
:104F600001232A4604F13001FEF725FC761E022EAD
:104F7000F3D23846BDE8F08170B505462C4684B1C1
:104F8000206870B12068007858B12068C088A18876
:104F9000884206D121684878FEF7FEFB00F0010048
:104FA00008B1092070BD0020FCE7000000000000EF
:104FB000000000000000000000003F400000000072
:104FC00000000000300040003000400000000900F8
:104FD0000BC03D000BC03D00090018C024407FE01D
:104FE000224031800000180024C01B000D80324098
:104FF000018003801C4027401C80074000401000B7
:105000006000000000000000000000000000000040
:105010001F80204040200000402020401F800000D2
:105020000000090006001F800600090000000400BF
:1050300004003F8004000400000000100060000035
:10504000000000000000040004000400040004004C
:1050500000000000004000000000000000000020F0
:1050600001C006003800400000001F8020402040A2
:1050700020401F800000000010403FC000400000A2
:10508000000018C021402240244018400000108039
:105090002040244024401B80000002000D0011002D
:1050A0003FC0014000003C80244024402440238035
:1050B00000001F8024402440344003800000300062
:1050C000200027C03800200000001B80244024401E
:1050D00024401B8000001C0022C0224022401F8070
:1050E0000000000000000840000000000000000078
:1050F00000000460000000000000000004000A003E
:105100001100208040400900090009000900090041
:10511000000000004040208011000A000400180038
:10512000200023402400180000001F80204027405A
:1051300029401F400000004007C039000F0001C097
:10514000004020403FC0244024401B8000001F80BE
:105150002040204020403080000020403FC02040C0
:1051600020401F80000020403FC024402E4030C01F
:10517000000020403FC024402E00300000000F00FF
:105180001080204022403380020020403FC00400B5
:1051900004003FC02040204020403FC0204020402D
:1051A00000000060202020203FC020002000204080
:1051B0003FC024400B0030C0204020403FC0204072
:1051C0000040004000C03FC03C0003C03C003FC066
:1051D000000020403FC00C4023003FC020001F8043
:1051E0002040204020401F80000020403FC024403D
:1051F0002400180000001F802140214020E01FA053
:10520000000020403FC02440260019C0004018C0C4
:1052100024402440224031800000300020403FC024
:1052200020403000000020003F80004000403F80D0
:10523000200020003E0001C0070038002000380098
:1052400007C03C0007C038000000204039C00600FD
:1052500039C0204000002000384007C038402000FE
:105260000000304021C02640384020C0000000002F
:1052700000007FE0402040200000000070000C0093
:105280000380004000000000402040207FE000003C
:10529000000000002000400020000000000000107E
:1052A000001000100010001000100000000040006E
:1052B000000000000000000002800540054003C01F
:1052C000004020003FC00440044003800000000074
:1052D00003800440044006400000000003800440B6
:1052E00024403FC0004000000380054005400340CB
:1052F0000000000004401FC02440244020000000A3
:1053000002E0055005500650042020403FC00440F4
:10531000040003C000400000044027C0004000001B
:10532000000000100010041027E0000000002040E2
:105330003FC00140070004C00440204020403FC05F
:1053400000400040000007C0040007C0040003C084
:105350000000044007C00440040003C000400000F7
:1053600003800440044003800000041007F0045050
:10537000044003800000000003800440045007F054
:105380000010044007C002400400040000000000B8
:1053900006400540054004C00000000004001F80D6
:1053A000044000400000040007800040044007C0A3
:1053B00000400400070004C001800600040006004D
:1053C00001C0070001C006000000044006C0010043
:1053D00006C0044000000410071004E0018006002D
:1053E00004000000044005C0064004400000000026
:1053F000000004007BE040200000000000000000EE
:10540000FFF000000000000040207BE004000000EE
:10541000000040008000400020002000400000000C
:10542000000000000000000000000000000000007C
:10543000000000001FCC000C000000000000000075
:10544000080030006000080030006000000002200A
:1054500003FC1E20022003FC1E200220000000008E
:105460000E1811043FFF10840C78000000000F009C
:1054700010840F3800C00778188400780000007886
:105480000F8410C411240E9800E400840008080062
:105490006800700000000000000000000000000034
:1054A0000000000007E0181820044002000000007F
:1054B00040022004181807E000000000000002402D
:1054C000024001800FF00180024002400000008095
:1054D000008000800FF80080008000800000000144
:1054E000000D000E000000000000000000000000A1
:1054F000008000800080008000800080008000002C
:10550000000C000C00000000000000000000000083
:10551000000600180060018006001800200000004E
:1055200007F0080810041004080807F00000000045
:10553000080408041FFC0004000400000000000030
:105540000E0C10141024104411840E0C00000000E6
:105550000C1810041104110412880C7000000000D3
:1055600000E00320042408241FFC002400000000A5
:105570001F9810841104110410881070000000009E
:1055800007F008881104110418880070000000005A
:105590001C00100010FC13001C0010000000000094
:1055A0000E3811441084108411440E38000000009D
:1055B0000700088C10441044088807F00000000021
:1055C00000000000030C030C0000000000000000BD
:1055D00000000001010600000000000000000000C3
:1055E000008001400220041008081004000002207E
:1055F00002200220022002200220022000000000DF
:10560000100408080410022001400080000000007F
:105610000E001200100C106C10800F00000003E050
:105620000C1813E4142417C4082807D00000000441
:10563000003C03C41C40074000E4001C00041004AC
:105640001FFC1104110411040E880070000003E017
:105650000C1810041004100410081C100000100492
:105660001FFC100410041004080807F000001004C8
:105670001FFC1104110417C41004081800001004C2
:105680001FFC1104110017C010000800000003E007
:105690000C181004100410441C7800400000100482
:1056A0001FFC10840080008010841FFC1004000088
:1056B000100410041FFC100410040000000000037C
:1056C0000001100110011FFE100010000000100466
:1056D0001FFC110403801464181C10040000100443
:1056E0001FFC1004000400040004000C000010045F
:1056F0001FFC1F0000FC1F001FFC10040000100412
:105700001FFC0C04030000E010181FFC100007F041
:105710000808100410041004080807F00000100422
:105720001FFC10841080108010800F00000007F014
:10573000081810241024101C080A07F20000100496
:105740001FFC1104110011C011300E0C00040000E8
:105750000E1C11041084108410441C380000180022
:10576000100010041FFC10041000180000001000AE
:105770001FF810040004000410041FF810001000AB
:105780001E0011E0001C007013801C0010001FC0E0
:10579000103C00E01F0000E0103C1FC0000010049F
:1057A000180C163401C001C01634180C1004100077
:1057B0001C00130400FC13041C001000000008046B
:1057C000101C1064108413041C0410180000000046
:1057D000000000007FFE4002400240020000000086
:1057E00030000C0003800060001C0003000000007B
:1057F0004002400240027FFE000000000000000066
:105800000000200040004000400020000000000197
:105810000001000100010001000100010001000081
:1058200040004000200000000000000000000000D8
:105830000098012401440144014400FC00041000CC
:105840001FFC0088010401040088007000000000B3
:1058500000700088010401040104008800000000B9
:10586000007000880104010411081FFC00040000FE
:1058700000F8014401440144014400C80000000054
:10588000010401040FFC11041104110018000000B0
:1058900000D601290129012901C9010600001004CF
:1058A0001FFC008401000100010400FC0004000052
:1058B0000104190419FC00040004000000000000A9
:1058C000000300010101190119FE0000000010048D
:1058D0001FFC0024004001B4010C01040000000082
:1058E000100410041FFC0004000400000000010468
:1058F00001FC0104010001FC0104010000FC0104A1
:1059000001FC008401000100010400FC000400000F
:1059100000F8010401040104010400F80000010181
:1059200001FF0085010401040088007000000000F0
:105930000070008801040104010501FF0001010459
:10594000010401FC0084010401000180000000004A
:1059500000CC01240124012401240198000000004E
:105960000100010007F8010401040000000001002B
:1059700001F8000400040004010801FC0004010017
:1059800001800170000C001001600180010001F035
:10599000010C003001C00030010C01F001000000DA
:1059A0000104018C00740170018C010400000101EC
:1059B00001810171000E00180160018001000000EA
:1059C0000184010C013401440184010C0000000039
:1059D00000000000000001003EFC40024002000008
:1059E000000000000000FFFF0000000000000000B9
:1059F000400240023EFC01000000000000000000E8
:105A00006000800080004000400020002000000076
:105A10000000000000000000000000000000000086
:105A20000000000000000000000000000000000076
:105A30000000000000000000000000000000000066
:105A4000000F80380FFE380F803800000000000083
:105A5000000000000000000000000000010000063F
:105A600000000C00003800003100000600000C00AF
:105A700000380000300000000000000000006180DD
:105A80000067F807F9800061800061800061800094
:105A900061800067F807F980006180000000000065
:105AA0000000000001C0E003E0F006300804180820
:105AB0001FFFFE040E080787F00381E000000000CE
:105AC000000001F000060C00040408060C7001F947
:105AD000C0000E00003BE000EC18070808040C189A
